{
  "_format": "hh-sol-artifact-1",
  "contractName": "ClaimNodeOp",
  "sourceName": "contracts/contract/ClaimNodeOp.sol",
  "abi": [
    {
      "inputs": [
        {
          "internalType": "contract Storage",
          "name": "storageAddress",
          "type": "address"
        }
      ],
      "stateMutability": "nonpayable",
      "type": "constructor"
    },
    {
      "inputs": [],
      "name": "ContractNotFound",
      "type": "error"
    },
    {
      "inputs": [],
      "name": "ContractPaused",
      "type": "error"
    },
    {
      "inputs": [],
      "name": "InvalidAmount",
      "type": "error"
    },
    {
      "inputs": [],
      "name": "InvalidOrOutdatedContract",
      "type": "error"
    },
    {
      "inputs": [],
      "name": "MustBeGuardian",
      "type": "error"
    },
    {
      "inputs": [],
      "name": "MustBeGuardianOrValidContract",
      "type": "error"
    },
    {
      "inputs": [],
      "name": "MustBeMultisig",
      "type": "error"
    },
    {
      "inputs": [],
      "name": "NoRewardsToClaim",
      "type": "error"
    },
    {
      "inputs": [
        {
          "internalType": "address",
          "name": "",
          "type": "address"
        }
      ],
      "name": "RewardsAlreadyDistributedToStaker",
      "type": "error"
    },
    {
      "inputs": [],
      "name": "RewardsCycleNotStarted",
      "type": "error"
    },
    {
      "anonymous": false,
      "inputs": [
        {
          "indexed": true,
          "internalType": "address",
          "name": "to",
          "type": "address"
        },
        {
          "indexed": false,
          "internalType": "uint256",
          "name": "amount",
          "type": "uint256"
        }
      ],
      "name": "GGPRewardsClaimed",
      "type": "event"
    },
    {
      "inputs": [
        {
          "internalType": "address",
          "name": "stakerAddr",
          "type": "address"
        },
        {
          "internalType": "uint256",
          "name": "totalEligibleGGPStaked",
          "type": "uint256"
        }
      ],
      "name": "calculateAndDistributeRewards",
      "outputs": [],
      "stateMutability": "nonpayable",
      "type": "function"
    },
    {
      "inputs": [
        {
          "internalType": "uint256",
          "name": "claimAmt",
          "type": "uint256"
        }
      ],
      "name": "claimAndRestake",
      "outputs": [],
      "stateMutability": "nonpayable",
      "type": "function"
    },
    {
      "inputs": [],
      "name": "getRewardsCycleTotal",
      "outputs": [
        {
          "internalType": "uint256",
          "name": "",
          "type": "uint256"
        }
      ],
      "stateMutability": "view",
      "type": "function"
    },
    {
      "inputs": [
        {
          "internalType": "address",
          "name": "stakerAddr",
          "type": "address"
        }
      ],
      "name": "isEligible",
      "outputs": [
        {
          "internalType": "bool",
          "name": "",
          "type": "bool"
        }
      ],
      "stateMutability": "view",
      "type": "function"
    },
    {
      "inputs": [
        {
          "internalType": "uint256",
          "name": "amount",
          "type": "uint256"
        }
      ],
      "name": "setRewardsCycleTotal",
      "outputs": [],
      "stateMutability": "nonpayable",
      "type": "function"
    },
    {
      "inputs": [],
      "name": "version",
      "outputs": [
        {
          "internalType": "uint8",
          "name": "",
          "type": "uint8"
        }
      ],
      "stateMutability": "view",
      "type": "function"
    }
  ],
  "bytecode": "0x608060405234801561001057600080fd5b506040516118cb3803806118cb83398101604081905261002f91610063565b6000805460ff196001600160a01b0390931661010002929092166001600160a81b0319909216919091176001179055610093565b60006020828403121561007557600080fd5b81516001600160a01b038116811461008c57600080fd5b9392505050565b611829806100a26000396000f3fe608060405234801561001057600080fd5b50600436106100725760003560e01c8063c7379d4711610050578063c7379d47146100d3578063d8a64c07146100e9578063ec23112f146100fc57600080fd5b806354fd4d501461007757806366e305fd1461009b57806399fe6aa3146100be575b600080fd5b6000546100849060ff1681565b60405160ff90911681526020015b60405180910390f35b6100ae6100a9366004611678565b61010f565b6040519015158152602001610092565b6100d16100cc366004611695565b61035c565b005b6100db610845565b604051908152602001610092565b6100d16100f73660046116ae565b610875565b6100d161010a366004611695565b611241565b6000806101506040518060400160405280600781526020017f5374616b696e670000000000000000000000000000000000000000000000000081525061131f565b6040517f6e33396700000000000000000000000000000000000000000000000000000000815273ffffffffffffffffffffffffffffffffffffffff8581166004830152919250600091831690636e33396790602401602060405180830381865afa1580156101c2573d6000803e3d6000fd5b505050506040513d601f19601f820116820180604052508101906101e691906116da565b905060006101f48242611722565b905060006102366040518060400160405280600b81526020017f50726f746f636f6c44414f00000000000000000000000000000000000000000081525061131f565b905082158015906102b557508073ffffffffffffffffffffffffffffffffffffffff166370b2ecc96040518163ffffffff1660e01b8152600401602060405180830381865afa15801561028d573d6000803e3d6000fd5b505050506040513d601f19601f820116820180604052508101906102b191906116da565b8210155b801561035257506040517fc4bdd0f800000000000000000000000000000000000000000000000000000000815273ffffffffffffffffffffffffffffffffffffffff87811660048301526000919086169063c4bdd0f890602401602060405180830381865afa15801561032c573d6000803e3d6000fd5b505050506040513d601f19601f8201168201806040525081019061035091906116da565b115b9695505050505050565b600061039c6040518060400160405280600781526020017f5374616b696e670000000000000000000000000000000000000000000000000081525061131f565b6040517fe60716d700000000000000000000000000000000000000000000000000000000815233600482015290915060009073ffffffffffffffffffffffffffffffffffffffff83169063e60716d790602401602060405180830381865afa15801561040c573d6000803e3d6000fd5b505050506040513d601f19601f8201168201806040525081019061043091906116da565b90508060000361046c576040517f73380d9900000000000000000000000000000000000000000000000000000000815260040160405180910390fd5b808311156104a6576040517f2c5211c600000000000000000000000000000000000000000000000000000000815260040160405180910390fd5b6040517fb268ee140000000000000000000000000000000000000000000000000000000081523360048201526024810182905273ffffffffffffffffffffffffffffffffffffffff83169063b268ee1490604401600060405180830381600087803b15801561051457600080fd5b505af1158015610528573d6000803e3d6000fd5b50505050600061056c6040518060400160405280600581526020017f5661756c7400000000000000000000000000000000000000000000000000000081525061131f565b905060006105ae6040518060400160405280600881526020017f546f6b656e47475000000000000000000000000000000000000000000000000081525061131f565b905060006105bc8685611722565b90508015610773576040517f01e3366700000000000000000000000000000000000000000000000000000000815230600482015273ffffffffffffffffffffffffffffffffffffffff8381166024830152604482018390528416906301e3366790606401600060405180830381600087803b15801561063a57600080fd5b505af115801561064e573d6000803e3d6000fd5b50506040517f095ea7b300000000000000000000000000000000000000000000000000000000815273ffffffffffffffffffffffffffffffffffffffff8881166004830152602482018590528516925063095ea7b391506044016020604051808303816000875af11580156106c7573d6000803e3d6000fd5b505050506040513d601f19601f820116820180604052508101906106eb9190611735565b506040517f4ce084780000000000000000000000000000000000000000000000000000000081523360048201526024810182905273ffffffffffffffffffffffffffffffffffffffff861690634ce0847890604401600060405180830381600087803b15801561075a57600080fd5b505af115801561076e573d6000803e3d6000fd5b505050505b8515610808576040517f01e3366700000000000000000000000000000000000000000000000000000000815233600482015273ffffffffffffffffffffffffffffffffffffffff8381166024830152604482018890528416906301e3366790606401600060405180830381600087803b1580156107ef57600080fd5b505af1158015610803573d6000803e3d6000fd5b505050505b60405186815233907fe6efee8958feb2079af9a7a1df26a6fae99525397bebfc3f64a4b7c3b41984d19060200160405180910390a2505050505050565b60006108707f7e970bd49e4d2abd13bd70a9962845e678bcc3efb674876983908f2b5caf754961138b565b905090565b6040517f6d756c74697369672e696e64657800000000000000000000000000000000000060208201527fffffffffffffffffffffffffffffffffffffffff0000000000000000000000003360601b16602e8201526000906001906108f1906042016040516020818303038152906040528051906020012061138b565b6108fb9190611757565b6040517f6d756c74697369672e6974656d000000000000000000000000000000000000006020820152602d81018290527f2e61646472657373000000000000000000000000000000000000000000000000604d82015290915060009061097a906055015b60405160208183030381529060405280519060200120611423565b9050600073ffffffffffffffffffffffffffffffffffffffff821615801590610a1657506040517f6d756c74697369672e6974656d000000000000000000000000000000000000006020820152602d81018490527f2e656e61626c6564000000000000000000000000000000000000000000000000604d820152610a1690605501604051602081830303815290604052805190602001206114bb565b9050801515600003610a54576040517f834baa5d00000000000000000000000000000000000000000000000000000000815260040160405180910390fd5b6000610a946040518060400160405280600781526020017f5374616b696e670000000000000000000000000000000000000000000000000081525061131f565b6040517f9517d25600000000000000000000000000000000000000000000000000000000815273ffffffffffffffffffffffffffffffffffffffff888116600483015291925090821690639517d25690602401602060405180830381865afa158015610b04573d6000803e3d6000fd5b505050506040513d601f19601f82011682018060405250810190610b2891906116da565b506000610b696040518060400160405280600b81526020017f52657761726473506f6f6c00000000000000000000000000000000000000000081525061131f565b90508073ffffffffffffffffffffffffffffffffffffffff166370efa9606040518163ffffffff1660e01b8152600401602060405180830381865afa158015610bb6573d6000803e3d6000fd5b505050506040513d601f19601f82011682018060405250810190610bda91906116da565b600003610c13576040517fd9229f8600000000000000000000000000000000000000000000000000000000815260040160405180910390fd5b8073ffffffffffffffffffffffffffffffffffffffff166370efa9606040518163ffffffff1660e01b8152600401602060405180830381865afa158015610c5e573d6000803e3d6000fd5b505050506040513d601f19601f82011682018060405250810190610c8291906116da565b6040517f65538c0f00000000000000000000000000000000000000000000000000000000815273ffffffffffffffffffffffffffffffffffffffff89811660048301528416906365538c0f90602401602060405180830381865afa158015610cee573d6000803e3d6000fd5b505050506040513d601f19601f82011682018060405250810190610d1291906116da565b03610d65576040517f67b7366800000000000000000000000000000000000000000000000000000000815273ffffffffffffffffffffffffffffffffffffffff8816600482015260240160405180910390fd5b8173ffffffffffffffffffffffffffffffffffffffff16639511ffc7888373ffffffffffffffffffffffffffffffffffffffff166370efa9606040518163ffffffff1660e01b8152600401602060405180830381865afa158015610dcd573d6000803e3d6000fd5b505050506040513d601f19601f82011682018060405250810190610df191906116da565b6040517fffffffff0000000000000000000000000000000000000000000000000000000060e085901b16815273ffffffffffffffffffffffffffffffffffffffff90921660048301526024820152604401600060405180830381600087803b158015610e5c57600080fd5b505af1158015610e70573d6000803e3d6000fd5b50506040517f7736b4d400000000000000000000000000000000000000000000000000000000815273ffffffffffffffffffffffffffffffffffffffff8a811660048301526000935085169150637736b4d490602401602060405180830381865afa158015610ee3573d6000803e3d6000fd5b505050506040513d601f19601f82011682018060405250810190610f0791906116da565b90506000610f158289611553565b90506000610f21610845565b90506000610f2f838361156f565b905081811115610f6b576040517f2c5211c600000000000000000000000000000000000000000000000000000000815260040160405180910390fd5b6040517ff20c4bc600000000000000000000000000000000000000000000000000000000815273ffffffffffffffffffffffffffffffffffffffff8c811660048301526000919088169063f20c4bc690602401602060405180830381865afa158015610fdb573d6000803e3d6000fd5b505050506040513d601f19601f82011682018060405250810190610fff91906116da565b6040517f5e0b561500000000000000000000000000000000000000000000000000000000815273ffffffffffffffffffffffffffffffffffffffff8e811660048301526024820183905291925090881690635e0b561590604401600060405180830381600087803b15801561107357600080fd5b505af1158015611087573d6000803e3d6000fd5b50506040517ffc87bc3600000000000000000000000000000000000000000000000000000000815273ffffffffffffffffffffffffffffffffffffffff8f81166004830152602482018690528a16925063fc87bc369150604401600060405180830381600087803b1580156110fb57600080fd5b505af115801561110f573d6000803e3d6000fd5b50506040517f799c515d00000000000000000000000000000000000000000000000000000000815273ffffffffffffffffffffffffffffffffffffffff8f811660048301528a16925063799c515d9150602401602060405180830381865afa15801561117f573d6000803e3d6000fd5b505050506040513d601f19601f820116820180604052508101906111a391906116da565b600003611233576040517f877d9e9e00000000000000000000000000000000000000000000000000000000815273ffffffffffffffffffffffffffffffffffffffff8d811660048301526000602483015288169063877d9e9e90604401600060405180830381600087803b15801561121a57600080fd5b505af115801561122e573d6000803e3d6000fd5b505050505b505050505050505050505050565b6040518060400160405280600b81526020017f52657761726473506f6f6c0000000000000000000000000000000000000000008152503361128c8260405160200161095f919061177e565b73ffffffffffffffffffffffffffffffffffffffff168173ffffffffffffffffffffffffffffffffffffffff16146112f0576040517f3ddd2bb600000000000000000000000000000000000000000000000000000000815260040160405180910390fd5b61131a7f7e970bd49e4d2abd13bd70a9962845e678bcc3efb674876983908f2b5caf754984611584565b505050565b6000806113368360405160200161095f919061177e565b905073ffffffffffffffffffffffffffffffffffffffff8116611385576040517fed59262400000000000000000000000000000000000000000000000000000000815260040160405180910390fd5b92915050565b600080546040517fbd02d0f50000000000000000000000000000000000000000000000000000000081526004810184905261010090910473ffffffffffffffffffffffffffffffffffffffff169063bd02d0f590602401602060405180830381865afa1580156113ff573d6000803e3d6000fd5b505050506040513d601f19601f8201168201806040525081019061138591906116da565b600080546040517f21f8a7210000000000000000000000000000000000000000000000000000000081526004810184905261010090910473ffffffffffffffffffffffffffffffffffffffff16906321f8a72190602401602060405180830381865afa158015611497573d6000803e3d6000fd5b505050506040513d601f19601f8201168201806040525081019061138591906117d6565b600080546040517f7ae1cfca0000000000000000000000000000000000000000000000000000000081526004810184905261010090910473ffffffffffffffffffffffffffffffffffffffff1690637ae1cfca90602401602060405180830381865afa15801561152f573d6000803e3d6000fd5b505050506040513d601f19601f820116820180604052508101906113859190611735565b600061156883670de0b6b3a764000084611617565b9392505050565b60006115688383670de0b6b3a7640000611617565b6000546040517fe2a4853a000000000000000000000000000000000000000000000000000000008152600481018490526024810183905261010090910473ffffffffffffffffffffffffffffffffffffffff169063e2a4853a90604401600060405180830381600087803b1580156115fb57600080fd5b505af115801561160f573d6000803e3d6000fd5b505050505050565b6000827fffffffffffffffffffffffffffffffffffffffffffffffffffffffffffffffff048411830215820261164c57600080fd5b5091020490565b73ffffffffffffffffffffffffffffffffffffffff8116811461167557600080fd5b50565b60006020828403121561168a57600080fd5b813561156881611653565b6000602082840312156116a757600080fd5b5035919050565b600080604083850312156116c157600080fd5b82356116cc81611653565b946020939093013593505050565b6000602082840312156116ec57600080fd5b5051919050565b7f4e487b7100000000000000000000000000000000000000000000000000000000600052601160045260246000fd5b81810381811115611385576113856116f3565b60006020828403121561174757600080fd5b8151801515811461156857600080fd5b8181036000831280158383131683831282161715611777576117776116f3565b5092915050565b7f636f6e74726163742e616464726573730000000000000000000000000000000081526000825160005b818110156117c557602081860181015160108684010152016117a8565b506000920160100191825250919050565b6000602082840312156117e857600080fd5b81516115688161165356fea2646970667358221220812e8cd2b6de045dae5b40e7eee1f5eabcdb8bcfc82de06a48b89f95a35ee03764736f6c63430008110033",
  "linkReferences": {},
  "deployedLinkReferences": {}
}