{
  "_format": "hh-sol-artifact-1",
  "contractName": "MinipoolManager",
  "sourceName": "contracts/contract/MinipoolManager.sol",
  "abi": [
    {
      "inputs": [
        {
          "internalType": "contract Storage",
          "name": "storageAddress",
          "type": "address"
        },
        {
          "internalType": "contract ERC20",
          "name": "ggp_",
          "type": "address"
        },
        {
          "internalType": "contract TokenggAVAX",
          "name": "ggAVAX_",
          "type": "address"
        }
      ],
      "stateMutability": "nonpayable",
      "type": "constructor"
    },
    {
      "inputs": [],
      "name": "ErrorSendingAvax",
      "type": "error"
    },
    {
      "inputs": [],
      "name": "InsufficientAvaxForMinipoolCreation",
      "type": "error"
    },
    {
      "inputs": [],
      "name": "InsufficientAvaxForStaking",
      "type": "error"
    },
    {
      "inputs": [],
      "name": "InsufficientGGPCollateralization",
      "type": "error"
    },
    {
      "inputs": [],
      "name": "InvalidAmount",
      "type": "error"
    },
    {
      "inputs": [],
      "name": "InvalidAvaxAssignmentRequest",
      "type": "error"
    },
    {
      "inputs": [],
      "name": "InvalidEndTime",
      "type": "error"
    },
    {
      "inputs": [],
      "name": "InvalidMultisigAddress",
      "type": "error"
    },
    {
      "inputs": [],
      "name": "InvalidNodeID",
      "type": "error"
    },
    {
      "inputs": [],
      "name": "InvalidStateTransition",
      "type": "error"
    },
    {
      "inputs": [],
      "name": "MinipoolNotFound",
      "type": "error"
    },
    {
      "inputs": [],
      "name": "OnlyOwnerCanCancel",
      "type": "error"
    },
    {
      "inputs": [],
      "name": "OnlyOwnerCanWithdraw",
      "type": "error"
    },
    {
      "anonymous": false,
      "inputs": [
        {
          "indexed": true,
          "internalType": "address",
          "name": "nodeID",
          "type": "address"
        },
        {
          "indexed": false,
          "internalType": "uint256",
          "name": "ggp",
          "type": "uint256"
        }
      ],
      "name": "GGPSlashed",
      "type": "event"
    },
    {
      "anonymous": false,
      "inputs": [
        {
          "indexed": true,
          "internalType": "address",
          "name": "nodeID",
          "type": "address"
        },
        {
          "indexed": true,
          "internalType": "enum MinipoolStatus",
          "name": "status",
          "type": "uint8"
        }
      ],
      "name": "MinipoolStatusChanged",
      "type": "event"
    },
    {
      "inputs": [],
      "name": "MIN_STAKING_AMT",
      "outputs": [
        {
          "internalType": "uint256",
          "name": "",
          "type": "uint256"
        }
      ],
      "stateMutability": "view",
      "type": "function"
    },
    {
      "inputs": [
        {
          "internalType": "uint256",
          "name": "avaxRewardAmt",
          "type": "uint256"
        }
      ],
      "name": "calculateSlashAmt",
      "outputs": [
        {
          "internalType": "uint256",
          "name": "",
          "type": "uint256"
        }
      ],
      "stateMutability": "view",
      "type": "function"
    },
    {
      "inputs": [
        {
          "internalType": "address",
          "name": "nodeID",
          "type": "address"
        }
      ],
      "name": "canClaimAndInitiateStaking",
      "outputs": [
        {
          "internalType": "bool",
          "name": "",
          "type": "bool"
        }
      ],
      "stateMutability": "view",
      "type": "function"
    },
    {
      "inputs": [
        {
          "internalType": "address",
          "name": "nodeID",
          "type": "address"
        }
      ],
      "name": "cancelMinipool",
      "outputs": [],
      "stateMutability": "nonpayable",
      "type": "function"
    },
    {
      "inputs": [
        {
          "internalType": "address",
          "name": "nodeID",
          "type": "address"
        },
        {
          "internalType": "bytes32",
          "name": "errorCode",
          "type": "bytes32"
        }
      ],
      "name": "cancelMinipoolByMultisig",
      "outputs": [],
      "stateMutability": "nonpayable",
      "type": "function"
    },
    {
      "inputs": [
        {
          "internalType": "address",
          "name": "nodeID",
          "type": "address"
        }
      ],
      "name": "claimAndInitiateStaking",
      "outputs": [],
      "stateMutability": "nonpayable",
      "type": "function"
    },
    {
      "inputs": [
        {
          "internalType": "address",
          "name": "nodeID",
          "type": "address"
        },
        {
          "internalType": "uint256",
          "name": "duration",
          "type": "uint256"
        },
        {
          "internalType": "uint256",
          "name": "delegationFee",
          "type": "uint256"
        },
        {
          "internalType": "uint256",
          "name": "avaxAssignmentRequest",
          "type": "uint256"
        }
      ],
      "name": "createMinipool",
      "outputs": [],
      "stateMutability": "payable",
      "type": "function"
    },
    {
      "inputs": [
        {
          "internalType": "uint256",
          "name": "duration",
          "type": "uint256"
        },
        {
          "internalType": "uint256",
          "name": "avaxAmt",
          "type": "uint256"
        }
      ],
      "name": "expectedRewardAmt",
      "outputs": [
        {
          "internalType": "uint256",
          "name": "",
          "type": "uint256"
        }
      ],
      "stateMutability": "view",
      "type": "function"
    },
    {
      "inputs": [
        {
          "internalType": "address",
          "name": "nodeID",
          "type": "address"
        }
      ],
      "name": "getIndexOf",
      "outputs": [
        {
          "internalType": "int256",
          "name": "",
          "type": "int256"
        }
      ],
      "stateMutability": "view",
      "type": "function"
    },
    {
      "inputs": [
        {
          "internalType": "int256",
          "name": "index",
          "type": "int256"
        }
      ],
      "name": "getMinipool",
      "outputs": [
        {
          "components": [
            {
              "internalType": "int256",
              "name": "index",
              "type": "int256"
            },
            {
              "internalType": "address",
              "name": "nodeID",
              "type": "address"
            },
            {
              "internalType": "uint256",
              "name": "status",
              "type": "uint256"
            },
            {
              "internalType": "uint256",
              "name": "duration",
              "type": "uint256"
            },
            {
              "internalType": "uint256",
              "name": "startTime",
              "type": "uint256"
            },
            {
              "internalType": "uint256",
              "name": "endTime",
              "type": "uint256"
            },
            {
              "internalType": "uint256",
              "name": "delegationFee",
              "type": "uint256"
            },
            {
              "internalType": "uint256",
              "name": "ggpSlashAmt",
              "type": "uint256"
            },
            {
              "internalType": "uint256",
              "name": "avaxNodeOpAmt",
              "type": "uint256"
            },
            {
              "internalType": "uint256",
              "name": "avaxLiquidStakerAmt",
              "type": "uint256"
            },
            {
              "internalType": "uint256",
              "name": "avaxTotalRewardAmt",
              "type": "uint256"
            },
            {
              "internalType": "uint256",
              "name": "avaxNodeOpRewardAmt",
              "type": "uint256"
            },
            {
              "internalType": "uint256",
              "name": "avaxLiquidStakerRewardAmt",
              "type": "uint256"
            },
            {
              "internalType": "bytes32",
              "name": "errorCode",
              "type": "bytes32"
            },
            {
              "internalType": "address",
              "name": "owner",
              "type": "address"
            },
            {
              "internalType": "address",
              "name": "multisigAddr",
              "type": "address"
            },
            {
              "internalType": "bytes32",
              "name": "txID",
              "type": "bytes32"
            }
          ],
          "internalType": "struct MinipoolManager.Minipool",
          "name": "mp",
          "type": "tuple"
        }
      ],
      "stateMutability": "view",
      "type": "function"
    },
    {
      "inputs": [],
      "name": "getMinipoolCount",
      "outputs": [
        {
          "internalType": "uint256",
          "name": "",
          "type": "uint256"
        }
      ],
      "stateMutability": "view",
      "type": "function"
    },
    {
      "inputs": [
        {
          "internalType": "enum MinipoolStatus",
          "name": "status",
          "type": "uint8"
        },
        {
          "internalType": "uint256",
          "name": "offset",
          "type": "uint256"
        },
        {
          "internalType": "uint256",
          "name": "limit",
          "type": "uint256"
        }
      ],
      "name": "getMinipools",
      "outputs": [
        {
          "components": [
            {
              "internalType": "int256",
              "name": "index",
              "type": "int256"
            },
            {
              "internalType": "address",
              "name": "nodeID",
              "type": "address"
            },
            {
              "internalType": "uint256",
              "name": "status",
              "type": "uint256"
            },
            {
              "internalType": "uint256",
              "name": "duration",
              "type": "uint256"
            },
            {
              "internalType": "uint256",
              "name": "startTime",
              "type": "uint256"
            },
            {
              "internalType": "uint256",
              "name": "endTime",
              "type": "uint256"
            },
            {
              "internalType": "uint256",
              "name": "delegationFee",
              "type": "uint256"
            },
            {
              "internalType": "uint256",
              "name": "ggpSlashAmt",
              "type": "uint256"
            },
            {
              "internalType": "uint256",
              "name": "avaxNodeOpAmt",
              "type": "uint256"
            },
            {
              "internalType": "uint256",
              "name": "avaxLiquidStakerAmt",
              "type": "uint256"
            },
            {
              "internalType": "uint256",
              "name": "avaxTotalRewardAmt",
              "type": "uint256"
            },
            {
              "internalType": "uint256",
              "name": "avaxNodeOpRewardAmt",
              "type": "uint256"
            },
            {
              "internalType": "uint256",
              "name": "avaxLiquidStakerRewardAmt",
              "type": "uint256"
            },
            {
              "internalType": "bytes32",
              "name": "errorCode",
              "type": "bytes32"
            },
            {
              "internalType": "address",
              "name": "owner",
              "type": "address"
            },
            {
              "internalType": "address",
              "name": "multisigAddr",
              "type": "address"
            },
            {
              "internalType": "bytes32",
              "name": "txID",
              "type": "bytes32"
            }
          ],
          "internalType": "struct MinipoolManager.Minipool[]",
          "name": "minipools",
          "type": "tuple[]"
        }
      ],
      "stateMutability": "view",
      "type": "function"
    },
    {
      "inputs": [
        {
          "internalType": "string",
          "name": "_contractName",
          "type": "string"
        }
      ],
      "name": "getPublicContractAddress",
      "outputs": [
        {
          "internalType": "address",
          "name": "",
          "type": "address"
        }
      ],
      "stateMutability": "view",
      "type": "function"
    },
    {
      "inputs": [
        {
          "internalType": "bytes32",
          "name": "settingNameSpace",
          "type": "bytes32"
        },
        {
          "internalType": "string",
          "name": "_settingPath",
          "type": "string"
        }
      ],
      "name": "getSettingAddress",
      "outputs": [
        {
          "internalType": "address",
          "name": "",
          "type": "address"
        }
      ],
      "stateMutability": "view",
      "type": "function"
    },
    {
      "inputs": [
        {
          "internalType": "bytes32",
          "name": "settingNameSpace",
          "type": "bytes32"
        },
        {
          "internalType": "string",
          "name": "_settingPath",
          "type": "string"
        }
      ],
      "name": "getSettingBool",
      "outputs": [
        {
          "internalType": "bool",
          "name": "",
          "type": "bool"
        }
      ],
      "stateMutability": "view",
      "type": "function"
    },
    {
      "inputs": [
        {
          "internalType": "bytes32",
          "name": "settingNameSpace",
          "type": "bytes32"
        },
        {
          "internalType": "string",
          "name": "_settingPath",
          "type": "string"
        }
      ],
      "name": "getSettingUint",
      "outputs": [
        {
          "internalType": "uint256",
          "name": "",
          "type": "uint256"
        }
      ],
      "stateMutability": "view",
      "type": "function"
    },
    {
      "inputs": [],
      "name": "getTotalAvaxLiquidStakerAmt",
      "outputs": [
        {
          "internalType": "uint256",
          "name": "",
          "type": "uint256"
        }
      ],
      "stateMutability": "view",
      "type": "function"
    },
    {
      "inputs": [],
      "name": "ggAVAX",
      "outputs": [
        {
          "internalType": "contract TokenggAVAX",
          "name": "",
          "type": "address"
        }
      ],
      "stateMutability": "view",
      "type": "function"
    },
    {
      "inputs": [],
      "name": "ggp",
      "outputs": [
        {
          "internalType": "contract ERC20",
          "name": "",
          "type": "address"
        }
      ],
      "stateMutability": "view",
      "type": "function"
    },
    {
      "inputs": [],
      "name": "receiveWithdrawalAVAX",
      "outputs": [],
      "stateMutability": "payable",
      "type": "function"
    },
    {
      "inputs": [
        {
          "internalType": "address",
          "name": "nodeID",
          "type": "address"
        },
        {
          "internalType": "uint256",
          "name": "endTime",
          "type": "uint256"
        },
        {
          "internalType": "uint256",
          "name": "avaxTotalRewardAmt",
          "type": "uint256"
        }
      ],
      "name": "recordStakingEnd",
      "outputs": [],
      "stateMutability": "payable",
      "type": "function"
    },
    {
      "inputs": [
        {
          "internalType": "address",
          "name": "nodeID",
          "type": "address"
        },
        {
          "internalType": "bytes32",
          "name": "errorCode",
          "type": "bytes32"
        }
      ],
      "name": "recordStakingError",
      "outputs": [],
      "stateMutability": "payable",
      "type": "function"
    },
    {
      "inputs": [
        {
          "internalType": "address",
          "name": "nodeID",
          "type": "address"
        },
        {
          "internalType": "bytes32",
          "name": "txID",
          "type": "bytes32"
        },
        {
          "internalType": "uint256",
          "name": "startTime",
          "type": "uint256"
        }
      ],
      "name": "recordStakingStart",
      "outputs": [],
      "stateMutability": "nonpayable",
      "type": "function"
    },
    {
      "inputs": [
        {
          "internalType": "address",
          "name": "nodeID",
          "type": "address"
        },
        {
          "internalType": "enum MinipoolStatus",
          "name": "status",
          "type": "uint8"
        }
      ],
      "name": "updateMinipoolStatus",
      "outputs": [],
      "stateMutability": "nonpayable",
      "type": "function"
    },
    {
      "inputs": [],
      "name": "version",
      "outputs": [
        {
          "internalType": "uint8",
          "name": "",
          "type": "uint8"
        }
      ],
      "stateMutability": "view",
      "type": "function"
    },
    {
      "inputs": [
        {
          "internalType": "address",
          "name": "nodeID",
          "type": "address"
        }
      ],
      "name": "withdrawMinipoolFunds",
      "outputs": [],
      "stateMutability": "nonpayable",
      "type": "function"
    }
  ],
  "bytecode": "0x60e0604052686c6b935b8bbd40000060c0523480156200001e57600080fd5b50604051620036e6380380620036e6833981016040819052620000419162000093565b6000805460ff196001600160a01b0395861661010002166001600160a81b03199091161760011790559082166080521660a052620000e7565b6001600160a01b03811681146200009057600080fd5b50565b600080600060608486031215620000a957600080fd5b8351620000b6816200007a565b6020850151909350620000c9816200007a565b6040850151909250620000dc816200007a565b809150509250925092565b60805160a05160c0516135ac6200013a60003960008181610432015261096701526000818161034701528181611150015281816112dd015281816116b60152611eac015260006104a601526135ac6000f3fe6080604052600436106101815760003560e01c8063ae4d0bed116100d1578063e49e49bf1161008a578063f321df4911610064578063f321df4914610494578063f4812b88146104c8578063f4d70e78146104e8578063ffe092411461024157600080fd5b8063e49e49bf14610420578063e92aa0ce14610454578063ea3092d11461047457600080fd5b8063ae4d0bed14610369578063af8ccb591461037e578063cbb3e2b41461039e578063cff0b648146103b3578063d8ce16f4146103d3578063de5a61e31461040057600080fd5b806354fd4d501161013e578063934857bb11610118578063934857bb146102c85780639a3070a0146102f55780639cbed34014610315578063abd149dc1461033557600080fd5b806354fd4d5014610269578063809784c5146102955780638e481d60146102b557600080fd5b8063017df5221461018657806306eaa68b146101b9578063232de716146101f15780632f1fbf9b14610221578063356ff5a51461024357806353ee409614610256575b600080fd5b34801561019257600080fd5b506101a66101a1366004612baf565b610508565b6040519081526020015b60405180910390f35b3480156101c557600080fd5b506101d96101d4366004612c6f565b61054b565b6040516001600160a01b0390911681526020016101b0565b3480156101fd57600080fd5b5061021161020c366004612c6f565b610585565b60405190151581526020016101b0565b34801561022d57600080fd5b5061024161023c366004612baf565b6105b8565b005b610241610251366004612cb6565b610816565b610241610264366004612cf1565b610f47565b34801561027557600080fd5b506000546102839060ff1681565b60405160ff90911681526020016101b0565b3480156102a157600080fd5b506102416102b0366004612baf565b611254565b6102416102c3366004612d1d565b61141d565b3480156102d457600080fd5b506102e86102e3366004612d66565b61184a565b6040516101b09190612e5b565b34801561030157600080fd5b50610241610310366004612d1d565b611969565b34801561032157600080fd5b50610241610330366004612baf565b611a22565b34801561034157600080fd5b506101d97f000000000000000000000000000000000000000000000000000000000000000081565b34801561037557600080fd5b506101a6611a7f565b34801561038a57600080fd5b50610241610399366004612cf1565b611a9d565b3480156103aa57600080fd5b506101a6611ae4565b3480156103bf57600080fd5b506101d96103ce366004612eaa565b611b0f565b3480156103df57600080fd5b506103f36103ee366004612edf565b611b78565b6040516101b09190612ef8565b34801561040c57600080fd5b506101a661041b366004612f07565b611d6c565b34801561042c57600080fd5b506101a67f000000000000000000000000000000000000000000000000000000000000000081565b34801561046057600080fd5b5061024161046f366004612f29565b611e30565b34801561048057600080fd5b5061021161048f366004612baf565b611e79565b3480156104a057600080fd5b506101d97f000000000000000000000000000000000000000000000000000000000000000081565b3480156104d457600080fd5b506101a66104e3366004612edf565b611f47565b3480156104f457600080fd5b506101a6610503366004612c6f565b611feb565b6000600161053b836040516020016105209190612f5e565b60405160208183030381529060405280519060200120612003565b6105459190612fa8565b92915050565b600061057e8383604051602001610563929190613022565b60405160208183030381529060405280519060200120612076565b9392505050565b600061057e838360405160200161059d929190613022565b604051602081830303815290604052805190602001206120e8565b60006105c38261215a565b905060006105db826040516020016105639190613034565b9050336001600160a01b03821614610606576040516347418db160e01b815260040160405180910390fd5b610611826004612187565b610645826040516020016106259190613064565b60408051601f19818403018152919052805160209091012060045b612321565b600061066d6040518060400160405280600581526020016415985d5b1d60da1b815250611b0f565b905060006106858460405160200161052091906130ab565b9050600061069d8560405160200161052091906130e3565b905060006106ab8284613121565b905060006106d7604051806040016040528060078152602001665374616b696e6760c81b815250611b0f565b60405163a1bb68a560e01b81526001600160a01b038881166004830152602482018790529192509082169063a1bb68a590604401600060405180830381600087803b15801561072557600080fd5b505af1158015610739573d6000803e3d6000fd5b505060405163075c6c4b60e11b8152600481018590526001600160a01b0388169250630eb8d8969150602401600060405180830381600087803b15801561077f57600080fd5b505af1158015610793573d6000803e3d6000fd5b505050506000866001600160a01b03168360405160006040518083038185875af1925050503d80600081146107e4576040519150601f19603f3d011682016040523d82523d6000602084013e6107e9565b606091505b505090508061080b57604051639d60fd7560e01b815260040160405180910390fd5b505050505050505050565b6001600160a01b03841661083d57604051636490ffd360e01b815260040160405180910390fd5b600061086b6040518060400160405280600b81526020016a50726f746f636f6c44414f60a81b815250611b0f565b905081341415806108dc5750806001600160a01b03166314ab2d476040518163ffffffff1660e01b8152600401602060405180830381865afa1580156108b5573d6000803e3d6000fd5b505050506040513d601f19601f820116820180604052508101906108d99190613139565b82115b806109475750806001600160a01b0316636a9cbe616040518163ffffffff1660e01b8152600401602060405180830381865afa158015610920573d6000803e3d6000fd5b505050506040513d601f19601f820116820180604052508101906109449190613139565b82105b156109655760405163577ab9b160e01b815260040160405180910390fd5b7f00000000000000000000000000000000000000000000000000000000000000006109908334613121565b10156109af5760405163161712c560e11b815260040160405180910390fd5b60006109d76040518060400160405280600581526020016415985d5b1d60da1b815250611b0f565b9050806001600160a01b03166324056867346040518263ffffffff1660e01b81526004016000604051808303818588803b158015610a1457600080fd5b505af1158015610a28573d6000803e3d6000fd5b50505050506000610a57604051806040016040528060078152602001665374616b696e6760c81b815250611b0f565b604051634f3d2e6f60e01b81523360048201523460248201529091506001600160a01b03821690634f3d2e6f90604401600060405180830381600087803b158015610aa157600080fd5b505af1158015610ab5573d6000803e3d6000fd5b50506040516317b27ea960e11b8152336004820152602481018790526001600160a01b0384169250632f64fd529150604401600060405180830381600087803b158015610b0157600080fd5b505af1158015610b15573d6000803e3d6000fd5b505060405163465887b360e01b81523360048201526001600160a01b038416925063465887b39150602401600060405180830381600087803b158015610b5a57600080fd5b505af1158015610b6e573d6000803e3d6000fd5b50506040516376aa7f9160e11b8152336004820152600092506001600160a01b038416915063ed54ff2290602401602060405180830381865afa158015610bb9573d6000803e3d6000fd5b505050506040513d601f19601f82011682018060405250810190610bdd9190613139565b9050816001600160a01b031663f84a4e6e6040518163ffffffff1660e01b8152600401602060405180830381865afa158015610c1d573d6000803e3d6000fd5b505050506040513d601f19601f82011682018060405250810190610c419190613139565b811015610c6157604051639e7fd11b60e01b815260040160405180910390fd5b6000610c6c89610508565b90508060001914610c9057610c82816000612187565b610c8b81612387565b610d29565b610ca7600080516020613537833981519152612003565b9050610ce089604051602001610cbd9190612f5e565b604051602081830303815290604052805190602001208260016106409190613152565b610d1081604051602001610cf49190613193565b604051602081830303815290604052805190602001208a612449565b610d296000805160206135378339815191526001612488565b6000610d5b6040518060400160405280600f81526020016e26bab63a34b9b4b3a6b0b730b3b2b960891b815250611b0f565b90506000816001600160a01b0316632786fa9d6040518163ffffffff1660e01b8152600401602060405180830381865afa158015610d9d573d6000803e3d6000fd5b505050506040513d601f19601f82011682018060405250810190610dc191906131c4565b9050610df683604051602001610dd79190613064565b60408051601f1981840301815291905280516020909101206000612321565b610e2683604051602001610e0a91906131e1565b604051602081830303815290604052805190602001208b612321565b610e5683604051602001610e3a9190613214565b6040516020818303038152906040528051906020012082612449565b610e8683604051602001610e6a9190613034565b6040516020818303038152906040528051906020012033612449565b610eb683604051602001610e9a91906130ab565b6040516020818303038152906040528051906020012034612321565b610ee683604051602001610eca919061324b565b6040516020818303038152906040528051906020012089612321565b610f1683604051602001610efa9190613289565b604051602081830303815290604052805190602001208a612321565b60006040516001600160a01b038d169060008051602061355783398151915290600090a35050505050505050505050565b6000610f52836124c4565b9050610f5f816006612187565b6000610f75826040516020016105639190613034565b90506000610f8d8360405160200161052091906130ab565b90506000610fa584604051602001610520919061324b565b9050610fb18183613121565b3414610fd05760405163162908e360e11b815260040160405180910390fd5b6000610ff86040518060400160405280600581526020016415985d5b1d60da1b815250611b0f565b90506000611024604051806040016040528060078152602001665374616b696e6760c81b815250611b0f565b90506110568660405160200161103a91906132c1565b604051602081830303815290604052805190602001208861251a565b6110898660405160200161106a9190613064565b60408051601f1981840301815291905280516020909101206006612321565b6110ba8660405160200161109d91906132f5565b604051602081830303815290604052805190602001206000612321565b6110ce8660405160200161109d91906130e3565b6110e28660405160200161109d9190613332565b816001600160a01b03166324056867856040518263ffffffff1660e01b81526004016000604051808303818588803b15801561111d57600080fd5b505af1158015611131573d6000803e3d6000fd5b5050604051630e0f72f160e21b815260048101879052600060248201527f00000000000000000000000000000000000000000000000000000000000000006001600160a01b0316935063383dcbc492508691506044016000604051808303818588803b1580156111a057600080fd5b505af11580156111b4573d6000803e3d6000fd5b5050604051635c627b0960e11b81526001600160a01b038981166004830152602482018890528516935063b8c4f61292506044019050600060405180830381600087803b15801561120457600080fd5b505af1158015611218573d6000803e3d6000fd5b5050505061122583612556565b60065b6040516001600160a01b038a169060008051602061355783398151915290600090a35050505050505050565b600061125f826124c4565b905061126c816001612187565b60006112946040518060400160405280600581526020016415985d5b1d60da1b815250611b0f565b905060006112ac8360405160200161052091906130ab565b905060006112c484604051602001610520919061324b565b60405163efe441d960e01b8152600481018290529091507f00000000000000000000000000000000000000000000000000000000000000006001600160a01b03169063efe441d990602401600060405180830381600087803b15801561132957600080fd5b505af115801561133d573d6000803e3d6000fd5b5050505061134a81612580565b60405163075c6c4b60e11b8152600481018390526001600160a01b03841690630eb8d89690602401600060405180830381600087803b15801561138c57600080fd5b505af11580156113a0573d6000803e3d6000fd5b50505050600081836113b29190613121565b90506113e7856040516020016113c89190613064565b60408051601f1981840301815291905280516020909101206001612321565b60016040516001600160a01b0388169060008051602061355783398151915290600090a361141533826125aa565b505050505050565b6000611428846124c4565b9050611435816003612187565b600061144b826040516020016105209190613379565b9050808411158061145b57504284115b15611479576040516338af65f760e01b815260040160405180910390fd5b600061148f8360405160200161052091906130ab565b905060006114a784604051602001610520919061324b565b905060006114b58284613121565b90506114c18682613121565b34146114e05760405163162908e360e11b815260040160405180910390fd5b60006115086040518060400160405280600581526020016415985d5b1d60da1b815250611b0f565b90506000611534604051806040016040528060078152602001665374616b696e6760c81b815250611b0f565b9050600061154c886040516020016105639190613034565b9050611581886040516020016115629190613064565b60408051601f1981840301815291905280516020909101206003612321565b61159588604051602001610e0a91906133ad565b6115a988604051602001610efa91906132f5565b60006115b660028b6133df565b905060006115cc82670214e8348c4f00006125fb565b6115d69083613401565b905060006115e4828d613401565b90506116168b6040516020016115fa91906130e3565b6040516020818303038152906040528051906020012082612321565b6116468b60405160200161162a9190613332565b6040516020818303038152906040528051906020012083612321565b8b600003611657576116578b612610565b6001600160a01b0386166324056867611670838c613121565b6040518263ffffffff1660e01b81526004016000604051808303818588803b15801561169b57600080fd5b505af11580156116af573d6000803e3d6000fd5b50505050507f00000000000000000000000000000000000000000000000000000000000000006001600160a01b031663383dcbc4838a6116ef9190613121565b6040516001600160e01b031960e084901b168152600481018c9052602481018690526044016000604051808303818588803b15801561172d57600080fd5b505af1158015611741573d6000803e3d6000fd5b5050604051635c627b0960e11b81526001600160a01b038881166004830152602482018d90528916935063b8c4f61292506044019050600060405180830381600087803b15801561179157600080fd5b505af11580156117a5573d6000803e3d6000fd5b505050506117b288612556565b6040516323ca17bd60e01b81526001600160a01b0385811660048301528616906323ca17bd90602401600060405180830381600087803b1580156117f557600080fd5b505af1158015611809573d6000803e3d6000fd5b5060039250611816915050565b8e6001600160a01b031660008051602061355783398151915260405160405180910390a35050505050505050505050505050565b60606000611865600080516020613537833981519152612003565b905060006118738486613121565b905081811180611881575083155b156118895750805b6118938582613401565b67ffffffffffffffff8111156118ab576118ab612bcc565b6040519080825280602002602001820160405280156118e457816020015b6118d1612af5565b8152602001906001900390816118c95790505b5092506000855b8281101561195c5760006118fe82611b78565b905088600681111561191257611912613095565b816040015103611949578086848151811061192f5761192f613418565b602002602001018190525082806119459061342e565b9350505b50806119548161342e565b9150506118eb565b5083525090949350505050565b6000611974846124c4565b9050611981816002612187565b6119b4816040516020016119959190613064565b60408051601f1981840301815291905280516020909101206002612321565b6119e4816040516020016119c89190613447565b604051602081830303815290604052805190602001208461251a565b6119f88160405160200161162a9190613379565b60026040516001600160a01b0386169060008051602061355783398151915290600090a350505050565b6000611a2d8261215a565b90506000611a45826040516020016105639190613034565b9050336001600160a01b03821614611a705760405163112dcfdd60e31b815260040160405180910390fd5b611a7a838361277c565b505050565b6000611a98600080516020613537833981519152612003565b905090565b6000611aa8836124c4565b9050611ada81604051602001611abe91906132c1565b604051602081830303815290604052805190602001208361251a565b611a7a838261277c565b6000611a987fd74baac736368c6c7f3dcae08c5ae5905fff103627f38fd74660dd5fb1dfa671612003565b600080611b26836040516020016105639190613476565b90506001600160a01b0381166105455760405162461bcd60e51b815260206004820152601260248201527110dbdb9d1c9858dd081b9bdd08199bdd5b9960721b60448201526064015b60405180910390fd5b611b80612af5565b818152604051611b9890610563908490602001613193565b6001600160a01b0316602080830191909152604051611bbd9161052091859101613064565b816040018181525050611bda8260405160200161052091906131e1565b6060820152604051611c0f90611bf4908490602001613447565b60405160208183030381529060405280519060200120612a4f565b610200820152604051611c2a90610520908490602001613379565b6080820152604051611c44906105209084906020016133ad565b60a0820152604051611c5e90610520908490602001613289565b60c0820152604051611c789061052090849060200161349b565b60e0820152604051611c92906105209084906020016130ab565b610100820152604051611cad9061052090849060200161324b565b610120820152604051611cc8906105209084906020016132f5565b610140820152604051611ce3906105209084906020016130e3565b610160820152604051611cfe90610520908490602001613332565b610180820152604051611d1990610563908490602001613214565b6001600160a01b03166101e0820152604051611d3d90610563908490602001613034565b6001600160a01b03166101c0820152604051611d6190611bf49084906020016132c1565b6101a0820152919050565b600080611d9b6040518060400160405280600b81526020016a50726f746f636f6c44414f60a81b815250611b0f565b90506000816001600160a01b0316634712a1436040518163ffffffff1660e01b8152600401602060405180830381865afa158015611ddd573d6000803e3d6000fd5b505050506040513d601f19601f82011682018060405250810190611e019190613139565b90506301e1338085611e1386846125fb565b611e1d91906134d1565b611e2791906133df565b95945050505050565b6000611e3b8361215a565b9050611a7a81604051602001611e519190613064565b6040516020818303038152906040528051906020012083600681111561064057610640613095565b600080611e85836124c4565b9050611e92816001612187565b6000611ea882604051602001610520919061324b565b90507f00000000000000000000000000000000000000000000000000000000000000006001600160a01b031663be13733c6040518163ffffffff1660e01b8152600401602060405180830381865afa158015611f08573d6000803e3d6000fd5b505050506040513d601f19601f82011682018060405250810190611f2c9190613139565b811115611f3d575060009392505050565b5060019392505050565b600080611f71604051806040016040528060068152602001654f7261636c6560d01b815250611b0f565b90506000816001600160a01b031663bece349b6040518163ffffffff1660e01b81526004016040805180830381865afa158015611fb2573d6000803e3d6000fd5b505050506040513d601f19601f82011682018060405250810190611fd691906134f0565b509050611fe38482612a85565b949350505050565b600061057e8383604051602001610520929190613022565b6000805460405163bd02d0f560e01b8152600481018490526101009091046001600160a01b03169063bd02d0f5906024015b602060405180830381865afa158015612052573d6000803e3d6000fd5b505050506040513d601f19601f820116820180604052508101906105459190613139565b600080546040516321f8a72160e01b8152600481018490526101009091046001600160a01b0316906321f8a72190602401602060405180830381865afa1580156120c4573d6000803e3d6000fd5b505050506040513d601f19601f8201168201806040525081019061054591906131c4565b60008054604051633d70e7e560e11b8152600481018490526101009091046001600160a01b031690637ae1cfca90602401602060405180830381865afa158015612136573d6000803e3d6000fd5b505050506040513d601f19601f820116820180604052508101906105459190613514565b60008061216683610508565b905080196105455760405163d2fc63e360e01b815260040160405180910390fd5b60008260405160200161219a9190613064565b60405160208183030381529060405280519060200120905060006121bd82612003565b60068111156121ce576121ce613095565b90506000808260068111156121e5576121e5613095565b036122235760018460068111156121fe576121fe613095565b148061221c575060055b84600681111561221a5761221a613095565b145b90506122fc565b600182600681111561223757612237613095565b0361225f5760025b84600681111561225157612251613095565b148061221c57506006612208565b600282600681111561227357612273613095565b0361227f57600361223f565b600382600681111561229357612293613095565b0361229f57600461223f565b60048260068111156122b3576122b3613095565b14806122d0575060058260068111156122ce576122ce613095565b145b806122ec575060068260068111156122ea576122ea613095565b145b156122f8576000612208565b5060005b8061231a576040516323e69e0360e21b815260040160405180910390fd5b5050505050565b600054604051637152429d60e11b815260048101849052602481018390526101009091046001600160a01b03169063e2a4853a906044015b600060405180830381600087803b15801561237357600080fd5b505af1158015611415573d6000803e3d6000fd5b6123ba8160405160200161239b9190613447565b604051602081830303815290604052805190602001206000801b61251a565b6123ce8160405160200161109d9190613379565b6123e28160405160200161109d91906133ad565b6123f68160405160200161109d91906132f5565b61240a8160405160200161109d91906130e3565b61241e8160405160200161109d9190613332565b6124328160405160200161109d919061349b565b6124468160405160200161239b91906132c1565b50565b60005460405163ca446dd960e01b8152600481018490526001600160a01b0383811660248301526101009092049091169063ca446dd990604401612359565b600054604051632b6cd4f760e21b815260048101849052602481018390526101009091046001600160a01b03169063adb353dc90604401612359565b6000806124d08361215a565b905060006124e8826040516020016105639190613214565b9050336001600160a01b038216146125135760405163c2bd570760e01b815260040160405180910390fd5b5092915050565b6000546040516309d23b6160e31b815260048101849052602481018390526101009091046001600160a01b031690634e91db0890604401612359565b6124467fd74baac736368c6c7f3dcae08c5ae5905fff103627f38fd74660dd5fb1dfa67182612a9a565b6124467fd74baac736368c6c7f3dcae08c5ae5905fff103627f38fd74660dd5fb1dfa67182612488565b600080600080600085875af1905080611a7a5760405162461bcd60e51b815260206004820152601360248201527211551217d514905394d1915497d19052531151606a1b6044820152606401611b6f565b600061057e8383670de0b6b3a7640000612ad6565b6000612626826040516020016105639190613193565b9050600061263e836040516020016105639190613034565b905060006126568460405160200161052091906131e1565b9050600061266e85604051602001610520919061324b565b9050600061267c8383611d6c565b9050600061268982611f47565b905061269f876040516020016115fa919061349b565b60006126c9604051806040016040528060078152602001665374616b696e6760c81b815250611b0f565b60405163065fe0a360e01b81526001600160a01b038881166004830152602482018590529192509082169063065fe0a390604401600060405180830381600087803b15801561271757600080fd5b505af115801561272b573d6000803e3d6000fd5b50505050866001600160a01b03167fa10866a4e21985bc2d4130717769d773ffe207cffc5fb5d714c8c030e0677ec78360405161276a91815260200190565b60405180910390a25050505050505050565b612787816005612187565b6127ba8160405160200161279b9190613064565b60408051601f1981840301815291905280516020909101206005612321565b60006127d0826040516020016105639190613034565b905060006127e88360405160200161052091906130ab565b9050600061280084604051602001610520919061324b565b9050600061282c604051806040016040528060078152602001665374616b696e6760c81b815250611b0f565b60405163a1bb68a560e01b81526001600160a01b038681166004830152602482018690529192509082169063a1bb68a590604401600060405180830381600087803b15801561287a57600080fd5b505af115801561288e573d6000803e3d6000fd5b5050604051635c627b0960e11b81526001600160a01b038781166004830152602482018690528416925063b8c4f6129150604401600060405180830381600087803b1580156128dc57600080fd5b505af11580156128f0573d6000803e3d6000fd5b50506040516323ca17bd60e01b81526001600160a01b038781166004830152841692506323ca17bd9150602401600060405180830381600087803b15801561293757600080fd5b505af115801561294b573d6000803e3d6000fd5b5050505060006129776040518060400160405280600581526020016415985d5b1d60da1b815250611b0f565b60405163075c6c4b60e11b8152600481018690529091506001600160a01b03821690630eb8d89690602401600060405180830381600087803b1580156129bc57600080fd5b505af11580156129d0573d6000803e3d6000fd5b505050506000856001600160a01b03168560405160006040518083038185875af1925050503d8060008114612a21576040519150601f19603f3d011682016040523d82523d6000602084013e612a26565b606091505b5050905080612a4857604051639d60fd7560e01b815260040160405180910390fd5b6005611228565b60008054604051635376ab1f60e11b8152600481018490526101009091046001600160a01b03169063a6ed563e90602401612035565b600061057e83670de0b6b3a764000084612ad6565b60005460405163ebb9d8c960e01b815260048101849052602481018390526101009091046001600160a01b03169063ebb9d8c990604401612359565b828202811515841585830485141716612aee57600080fd5b0492915050565b6040518061022001604052806000815260200160006001600160a01b0316815260200160008152602001600081526020016000815260200160008152602001600081526020016000815260200160008152602001600081526020016000815260200160008152602001600081526020016000801916815260200160006001600160a01b0316815260200160006001600160a01b03168152602001600080191681525090565b6001600160a01b038116811461244657600080fd5b600060208284031215612bc157600080fd5b813561057e81612b9a565b634e487b7160e01b600052604160045260246000fd5b600082601f830112612bf357600080fd5b813567ffffffffffffffff80821115612c0e57612c0e612bcc565b604051601f8301601f19908116603f01168101908282118183101715612c3657612c36612bcc565b81604052838152866020858801011115612c4f57600080fd5b836020870160208301376000602085830101528094505050505092915050565b60008060408385031215612c8257600080fd5b82359150602083013567ffffffffffffffff811115612ca057600080fd5b612cac85828601612be2565b9150509250929050565b60008060008060808587031215612ccc57600080fd5b8435612cd781612b9a565b966020860135965060408601359560600135945092505050565b60008060408385031215612d0457600080fd5b8235612d0f81612b9a565b946020939093013593505050565b600080600060608486031215612d3257600080fd5b8335612d3d81612b9a565b95602085013595506040909401359392505050565b803560078110612d6157600080fd5b919050565b600080600060608486031215612d7b57600080fd5b612d3d84612d52565b805182526020810151612da260208401826001600160a01b03169052565b5060408181015190830152606080820151908301526080808201519083015260a0808201519083015260c0808201519083015260e08082015190830152610100808201519083015261012080820151908301526101408082015190830152610160808201519083015261018080820151908301526101a080820151908301526101c0808201516001600160a01b0381168285015250506101e0818101516001600160a01b03811684830152505061020090810151910152565b6020808252825182820181905260009190848201906040850190845b81811015612e9e57612e8a838551612d84565b928401926102209290920191600101612e77565b50909695505050505050565b600060208284031215612ebc57600080fd5b813567ffffffffffffffff811115612ed357600080fd5b611fe384828501612be2565b600060208284031215612ef157600080fd5b5035919050565b61022081016105458284612d84565b60008060408385031215612f1a57600080fd5b50508035926020909101359150565b60008060408385031215612f3c57600080fd5b8235612f4781612b9a565b9150612f5560208401612d52565b90509250929050565b6d0dad2dcd2e0deded85cd2dcc8caf60931b815260609190911b6bffffffffffffffffffffffff1916600e82015260220190565b634e487b7160e01b600052601160045260246000fd5b60008083128015600160ff1b850184121615612fc657612fc6612f92565b6001600160ff1b0384018313811615612fe157612fe1612f92565b50500390565b6000815160005b818110156130085760208185018101518683015201612fee565b81811115613017576000828601525b509290920192915050565b8281526000611fe36020830184612fe7565b6c6d696e69706f6f6c2e6974656d60981b8152600d810191909152651737bbb732b960d11b602d82015260330190565b6c6d696e69706f6f6c2e6974656d60981b8152600d810191909152662e73746174757360c81b602d82015260340190565b634e487b7160e01b600052602160045260246000fd5b6c6d696e69706f6f6c2e6974656d60981b8152600d8101919091526d0b985d985e139bd91953dc105b5d60921b602d820152603b0190565b6c6d696e69706f6f6c2e6974656d60981b8152600d810191909152730b985d985e139bd91953dc14995dd85c99105b5d60621b602d82015260410190565b6000821982111561313457613134612f92565b500190565b60006020828403121561314b57600080fd5b5051919050565b600080821280156001600160ff1b038490038513161561317457613174612f92565b600160ff1b839003841281161561318d5761318d612f92565b50500190565b6c6d696e69706f6f6c2e6974656d60981b8152600d810191909152660b9b9bd919525160ca1b602d82015260340190565b6000602082840312156131d657600080fd5b815161057e81612b9a565b6c6d696e69706f6f6c2e6974656d60981b8152600d8101919091526817323ab930ba34b7b760b91b602d82015260360190565b6c6d696e69706f6f6c2e6974656d60981b8152600d8101919091526c1736bab63a34b9b4b3a0b2323960991b602d820152603a0190565b6c6d696e69706f6f6c2e6974656d60981b8152600d810191909152730b985d985e131a5c5d5a5914dd185ad95c905b5d60621b602d82015260410190565b6c6d696e69706f6f6c2e6974656d60981b8152600d8101919091526d2e64656c65676174696f6e46656560901b602d820152603b0190565b6c6d696e69706f6f6c2e6974656d60981b8152600d810191909152692e6572726f72436f646560b01b602d82015260370190565b6c6d696e69706f6f6c2e6974656d60981b8152600d810191909152720b985d985e151bdd185b14995dd85c99105b5d606a1b602d82015260400190565b6c6d696e69706f6f6c2e6974656d60981b8152600d8101919091527f2e617661784c69717569645374616b6572526577617264416d74000000000000602d82015260470190565b6c6d696e69706f6f6c2e6974656d60981b8152600d810191909152692e737461727454696d6560b01b602d82015260370190565b6c6d696e69706f6f6c2e6974656d60981b8152600d810191909152672e656e6454696d6560c01b602d82015260350190565b6000826133fc57634e487b7160e01b600052601260045260246000fd5b500490565b60008282101561341357613413612f92565b500390565b634e487b7160e01b600052603260045260246000fd5b60006001820161344057613440612f92565b5060010190565b6c6d696e69706f6f6c2e6974656d60981b8152600d810191909152640b9d1e125160da1b602d82015260320190565b6f636f6e74726163742e6164647265737360801b8152600061057e6010830184612fe7565b6c6d696e69706f6f6c2e6974656d60981b8152600d8101919091526b0b99d9dc14db185cda105b5d60a21b602d82015260390190565b60008160001904831182151516156134eb576134eb612f92565b500290565b6000806040838503121561350357600080fd5b505080516020909101519092909150565b60006020828403121561352657600080fd5b8151801515811461057e57600080fdfee0350abf7e528889b5822fca885fa12de74628619c3752923dd9ec3ce44e4602c9c043637725967252aedd2704cc65fee962e7b8a1e3cf8098587a66601e50c5a26469706673582212202c2be5cd4b4d3bbda8a8aee6a4619032c08e34aacc671e2a291efcd4646fbec364736f6c634300080d0033",
  "linkReferences": {},
  "deployedLinkReferences": {}
}