{
  "_format": "hh-sol-artifact-1",
  "contractName": "MinipoolManager",
  "sourceName": "contracts/contract/MinipoolManager.sol",
  "abi": [
    {
      "inputs": [
        {
          "internalType": "contract Storage",
          "name": "storageAddress",
          "type": "address"
        }
      ],
      "stateMutability": "nonpayable",
      "type": "constructor"
    },
    {
      "inputs": [],
      "name": "CancellationTooEarly",
      "type": "error"
    },
    {
      "inputs": [],
      "name": "ContractNotFound",
      "type": "error"
    },
    {
      "inputs": [],
      "name": "ContractPaused",
      "type": "error"
    },
    {
      "inputs": [],
      "name": "DelegationFeeOutOfBounds",
      "type": "error"
    },
    {
      "inputs": [],
      "name": "DurationOutOfBounds",
      "type": "error"
    },
    {
      "inputs": [],
      "name": "InsufficientAVAXForMinipoolCreation",
      "type": "error"
    },
    {
      "inputs": [],
      "name": "InsufficientGGPCollateralization",
      "type": "error"
    },
    {
      "inputs": [],
      "name": "InvalidAVAXAssignmentRequest",
      "type": "error"
    },
    {
      "inputs": [],
      "name": "InvalidAmount",
      "type": "error"
    },
    {
      "inputs": [],
      "name": "InvalidEndTime",
      "type": "error"
    },
    {
      "inputs": [],
      "name": "InvalidMultisigAddress",
      "type": "error"
    },
    {
      "inputs": [],
      "name": "InvalidNodeID",
      "type": "error"
    },
    {
      "inputs": [],
      "name": "InvalidOrOutdatedContract",
      "type": "error"
    },
    {
      "inputs": [],
      "name": "InvalidStartTime",
      "type": "error"
    },
    {
      "inputs": [],
      "name": "InvalidStateTransition",
      "type": "error"
    },
    {
      "inputs": [],
      "name": "MinipoolDurationExceeded",
      "type": "error"
    },
    {
      "inputs": [],
      "name": "MinipoolNotFound",
      "type": "error"
    },
    {
      "inputs": [],
      "name": "MustBeGuardian",
      "type": "error"
    },
    {
      "inputs": [],
      "name": "MustBeGuardianOrValidContract",
      "type": "error"
    },
    {
      "inputs": [],
      "name": "MustBeMultisig",
      "type": "error"
    },
    {
      "inputs": [],
      "name": "NagativeCycleDuration",
      "type": "error"
    },
    {
      "inputs": [],
      "name": "OnlyOwner",
      "type": "error"
    },
    {
      "anonymous": false,
      "inputs": [
        {
          "indexed": true,
          "internalType": "address",
          "name": "nodeID",
          "type": "address"
        },
        {
          "indexed": false,
          "internalType": "uint256",
          "name": "ggp",
          "type": "uint256"
        }
      ],
      "name": "GGPSlashed",
      "type": "event"
    },
    {
      "anonymous": false,
      "inputs": [
        {
          "indexed": true,
          "internalType": "address",
          "name": "nodeID",
          "type": "address"
        },
        {
          "indexed": true,
          "internalType": "enum MinipoolStatus",
          "name": "status",
          "type": "uint8"
        }
      ],
      "name": "MinipoolStatusChanged",
      "type": "event"
    },
    {
      "inputs": [
        {
          "internalType": "uint256",
          "name": "avaxRewardAmt",
          "type": "uint256"
        }
      ],
      "name": "calculateGGPSlashAmt",
      "outputs": [
        {
          "internalType": "uint256",
          "name": "",
          "type": "uint256"
        }
      ],
      "stateMutability": "view",
      "type": "function"
    },
    {
      "inputs": [
        {
          "internalType": "address",
          "name": "nodeID",
          "type": "address"
        }
      ],
      "name": "canClaimAndInitiateStaking",
      "outputs": [
        {
          "internalType": "bool",
          "name": "",
          "type": "bool"
        }
      ],
      "stateMutability": "view",
      "type": "function"
    },
    {
      "inputs": [
        {
          "internalType": "address",
          "name": "nodeID",
          "type": "address"
        }
      ],
      "name": "cancelMinipool",
      "outputs": [],
      "stateMutability": "nonpayable",
      "type": "function"
    },
    {
      "inputs": [
        {
          "internalType": "address",
          "name": "nodeID",
          "type": "address"
        },
        {
          "internalType": "bytes32",
          "name": "errorCode",
          "type": "bytes32"
        }
      ],
      "name": "cancelMinipoolByMultisig",
      "outputs": [],
      "stateMutability": "nonpayable",
      "type": "function"
    },
    {
      "inputs": [
        {
          "internalType": "address",
          "name": "nodeID",
          "type": "address"
        }
      ],
      "name": "claimAndInitiateStaking",
      "outputs": [],
      "stateMutability": "nonpayable",
      "type": "function"
    },
    {
      "inputs": [
        {
          "internalType": "address",
          "name": "nodeID",
          "type": "address"
        },
        {
          "internalType": "uint256",
          "name": "duration",
          "type": "uint256"
        },
        {
          "internalType": "uint256",
          "name": "delegationFee",
          "type": "uint256"
        },
        {
          "internalType": "uint256",
          "name": "avaxAssignmentRequest",
          "type": "uint256"
        }
      ],
      "name": "createMinipool",
      "outputs": [],
      "stateMutability": "payable",
      "type": "function"
    },
    {
      "inputs": [
        {
          "internalType": "uint256",
          "name": "duration",
          "type": "uint256"
        },
        {
          "internalType": "uint256",
          "name": "avaxAmt",
          "type": "uint256"
        }
      ],
      "name": "getExpectedAVAXRewardsAmt",
      "outputs": [
        {
          "internalType": "uint256",
          "name": "",
          "type": "uint256"
        }
      ],
      "stateMutability": "view",
      "type": "function"
    },
    {
      "inputs": [
        {
          "internalType": "address",
          "name": "nodeID",
          "type": "address"
        }
      ],
      "name": "getIndexOf",
      "outputs": [
        {
          "internalType": "int256",
          "name": "",
          "type": "int256"
        }
      ],
      "stateMutability": "view",
      "type": "function"
    },
    {
      "inputs": [
        {
          "internalType": "int256",
          "name": "index",
          "type": "int256"
        }
      ],
      "name": "getMinipool",
      "outputs": [
        {
          "components": [
            {
              "internalType": "int256",
              "name": "index",
              "type": "int256"
            },
            {
              "internalType": "address",
              "name": "nodeID",
              "type": "address"
            },
            {
              "internalType": "uint256",
              "name": "status",
              "type": "uint256"
            },
            {
              "internalType": "uint256",
              "name": "duration",
              "type": "uint256"
            },
            {
              "internalType": "uint256",
              "name": "delegationFee",
              "type": "uint256"
            },
            {
              "internalType": "address",
              "name": "owner",
              "type": "address"
            },
            {
              "internalType": "address",
              "name": "multisigAddr",
              "type": "address"
            },
            {
              "internalType": "uint256",
              "name": "avaxNodeOpAmt",
              "type": "uint256"
            },
            {
              "internalType": "uint256",
              "name": "avaxNodeOpInitialAmt",
              "type": "uint256"
            },
            {
              "internalType": "uint256",
              "name": "avaxLiquidStakerAmt",
              "type": "uint256"
            },
            {
              "internalType": "bytes32",
              "name": "txID",
              "type": "bytes32"
            },
            {
              "internalType": "uint256",
              "name": "creationTime",
              "type": "uint256"
            },
            {
              "internalType": "uint256",
              "name": "initialStartTime",
              "type": "uint256"
            },
            {
              "internalType": "uint256",
              "name": "startTime",
              "type": "uint256"
            },
            {
              "internalType": "uint256",
              "name": "endTime",
              "type": "uint256"
            },
            {
              "internalType": "uint256",
              "name": "avaxTotalRewardAmt",
              "type": "uint256"
            },
            {
              "internalType": "bytes32",
              "name": "errorCode",
              "type": "bytes32"
            },
            {
              "internalType": "uint256",
              "name": "ggpSlashAmt",
              "type": "uint256"
            },
            {
              "internalType": "uint256",
              "name": "avaxNodeOpRewardAmt",
              "type": "uint256"
            },
            {
              "internalType": "uint256",
              "name": "avaxLiquidStakerRewardAmt",
              "type": "uint256"
            }
          ],
          "internalType": "struct MinipoolManager.Minipool",
          "name": "mp",
          "type": "tuple"
        }
      ],
      "stateMutability": "view",
      "type": "function"
    },
    {
      "inputs": [
        {
          "internalType": "address",
          "name": "nodeID",
          "type": "address"
        }
      ],
      "name": "getMinipoolByNodeID",
      "outputs": [
        {
          "components": [
            {
              "internalType": "int256",
              "name": "index",
              "type": "int256"
            },
            {
              "internalType": "address",
              "name": "nodeID",
              "type": "address"
            },
            {
              "internalType": "uint256",
              "name": "status",
              "type": "uint256"
            },
            {
              "internalType": "uint256",
              "name": "duration",
              "type": "uint256"
            },
            {
              "internalType": "uint256",
              "name": "delegationFee",
              "type": "uint256"
            },
            {
              "internalType": "address",
              "name": "owner",
              "type": "address"
            },
            {
              "internalType": "address",
              "name": "multisigAddr",
              "type": "address"
            },
            {
              "internalType": "uint256",
              "name": "avaxNodeOpAmt",
              "type": "uint256"
            },
            {
              "internalType": "uint256",
              "name": "avaxNodeOpInitialAmt",
              "type": "uint256"
            },
            {
              "internalType": "uint256",
              "name": "avaxLiquidStakerAmt",
              "type": "uint256"
            },
            {
              "internalType": "bytes32",
              "name": "txID",
              "type": "bytes32"
            },
            {
              "internalType": "uint256",
              "name": "creationTime",
              "type": "uint256"
            },
            {
              "internalType": "uint256",
              "name": "initialStartTime",
              "type": "uint256"
            },
            {
              "internalType": "uint256",
              "name": "startTime",
              "type": "uint256"
            },
            {
              "internalType": "uint256",
              "name": "endTime",
              "type": "uint256"
            },
            {
              "internalType": "uint256",
              "name": "avaxTotalRewardAmt",
              "type": "uint256"
            },
            {
              "internalType": "bytes32",
              "name": "errorCode",
              "type": "bytes32"
            },
            {
              "internalType": "uint256",
              "name": "ggpSlashAmt",
              "type": "uint256"
            },
            {
              "internalType": "uint256",
              "name": "avaxNodeOpRewardAmt",
              "type": "uint256"
            },
            {
              "internalType": "uint256",
              "name": "avaxLiquidStakerRewardAmt",
              "type": "uint256"
            }
          ],
          "internalType": "struct MinipoolManager.Minipool",
          "name": "mp",
          "type": "tuple"
        }
      ],
      "stateMutability": "view",
      "type": "function"
    },
    {
      "inputs": [],
      "name": "getMinipoolCount",
      "outputs": [
        {
          "internalType": "uint256",
          "name": "",
          "type": "uint256"
        }
      ],
      "stateMutability": "view",
      "type": "function"
    },
    {
      "inputs": [
        {
          "internalType": "enum MinipoolStatus",
          "name": "status",
          "type": "uint8"
        },
        {
          "internalType": "uint256",
          "name": "offset",
          "type": "uint256"
        },
        {
          "internalType": "uint256",
          "name": "limit",
          "type": "uint256"
        }
      ],
      "name": "getMinipools",
      "outputs": [
        {
          "components": [
            {
              "internalType": "int256",
              "name": "index",
              "type": "int256"
            },
            {
              "internalType": "address",
              "name": "nodeID",
              "type": "address"
            },
            {
              "internalType": "uint256",
              "name": "status",
              "type": "uint256"
            },
            {
              "internalType": "uint256",
              "name": "duration",
              "type": "uint256"
            },
            {
              "internalType": "uint256",
              "name": "delegationFee",
              "type": "uint256"
            },
            {
              "internalType": "address",
              "name": "owner",
              "type": "address"
            },
            {
              "internalType": "address",
              "name": "multisigAddr",
              "type": "address"
            },
            {
              "internalType": "uint256",
              "name": "avaxNodeOpAmt",
              "type": "uint256"
            },
            {
              "internalType": "uint256",
              "name": "avaxNodeOpInitialAmt",
              "type": "uint256"
            },
            {
              "internalType": "uint256",
              "name": "avaxLiquidStakerAmt",
              "type": "uint256"
            },
            {
              "internalType": "bytes32",
              "name": "txID",
              "type": "bytes32"
            },
            {
              "internalType": "uint256",
              "name": "creationTime",
              "type": "uint256"
            },
            {
              "internalType": "uint256",
              "name": "initialStartTime",
              "type": "uint256"
            },
            {
              "internalType": "uint256",
              "name": "startTime",
              "type": "uint256"
            },
            {
              "internalType": "uint256",
              "name": "endTime",
              "type": "uint256"
            },
            {
              "internalType": "uint256",
              "name": "avaxTotalRewardAmt",
              "type": "uint256"
            },
            {
              "internalType": "bytes32",
              "name": "errorCode",
              "type": "bytes32"
            },
            {
              "internalType": "uint256",
              "name": "ggpSlashAmt",
              "type": "uint256"
            },
            {
              "internalType": "uint256",
              "name": "avaxNodeOpRewardAmt",
              "type": "uint256"
            },
            {
              "internalType": "uint256",
              "name": "avaxLiquidStakerRewardAmt",
              "type": "uint256"
            }
          ],
          "internalType": "struct MinipoolManager.Minipool[]",
          "name": "minipools",
          "type": "tuple[]"
        }
      ],
      "stateMutability": "view",
      "type": "function"
    },
    {
      "inputs": [],
      "name": "getTotalAVAXLiquidStakerAmt",
      "outputs": [
        {
          "internalType": "uint256",
          "name": "",
          "type": "uint256"
        }
      ],
      "stateMutability": "view",
      "type": "function"
    },
    {
      "inputs": [],
      "name": "minStakingDuration",
      "outputs": [
        {
          "internalType": "uint256",
          "name": "",
          "type": "uint256"
        }
      ],
      "stateMutability": "view",
      "type": "function"
    },
    {
      "inputs": [],
      "name": "receiveWithdrawalAVAX",
      "outputs": [],
      "stateMutability": "payable",
      "type": "function"
    },
    {
      "inputs": [
        {
          "internalType": "address",
          "name": "nodeID",
          "type": "address"
        },
        {
          "internalType": "uint256",
          "name": "endTime",
          "type": "uint256"
        },
        {
          "internalType": "uint256",
          "name": "avaxTotalRewardAmt",
          "type": "uint256"
        }
      ],
      "name": "recordStakingEnd",
      "outputs": [],
      "stateMutability": "payable",
      "type": "function"
    },
    {
      "inputs": [
        {
          "internalType": "address",
          "name": "nodeID",
          "type": "address"
        },
        {
          "internalType": "uint256",
          "name": "endTime",
          "type": "uint256"
        },
        {
          "internalType": "uint256",
          "name": "avaxTotalRewardAmt",
          "type": "uint256"
        }
      ],
      "name": "recordStakingEndThenMaybeCycle",
      "outputs": [],
      "stateMutability": "payable",
      "type": "function"
    },
    {
      "inputs": [
        {
          "internalType": "address",
          "name": "nodeID",
          "type": "address"
        },
        {
          "internalType": "bytes32",
          "name": "errorCode",
          "type": "bytes32"
        }
      ],
      "name": "recordStakingError",
      "outputs": [],
      "stateMutability": "payable",
      "type": "function"
    },
    {
      "inputs": [
        {
          "internalType": "address",
          "name": "nodeID",
          "type": "address"
        },
        {
          "internalType": "bytes32",
          "name": "txID",
          "type": "bytes32"
        },
        {
          "internalType": "uint256",
          "name": "startTime",
          "type": "uint256"
        }
      ],
      "name": "recordStakingStart",
      "outputs": [],
      "stateMutability": "nonpayable",
      "type": "function"
    },
    {
      "inputs": [],
      "name": "version",
      "outputs": [
        {
          "internalType": "uint8",
          "name": "",
          "type": "uint8"
        }
      ],
      "stateMutability": "view",
      "type": "function"
    },
    {
      "inputs": [
        {
          "internalType": "address",
          "name": "nodeID",
          "type": "address"
        }
      ],
      "name": "withdrawMinipoolFunds",
      "outputs": [],
      "stateMutability": "nonpayable",
      "type": "function"
    }
  ],
  "bytecode": "0x6080604052600180553480156200001557600080fd5b5060405162005ea938038062005ea9833981016040819052620000389162000084565b6000805460ff196001600160a01b03841661010002166001600160a81b03199091161760011790554661a86a036200007757621275006002556200007d565b60786002555b50620000b6565b6000602082840312156200009757600080fd5b81516001600160a01b0381168114620000af57600080fd5b9392505050565b615de380620000c66000396000f3fe60806040526004361061016a5760003560e01c80639a3070a0116100cb578063af8ccb591161007f578063dab8d33e11610059578063dab8d33e146103a1578063ea3092d1146103b6578063ffe09241146101f857600080fd5b8063af8ccb591461034e578063c339d8571461036e578063d8ce16f41461038157600080fd5b80639deedebe116100b05780639deedebe146102ec578063a715c8b61461030c578063ae4d0bed1461033957600080fd5b80639a3070a0146102ac5780639cbed340146102cc57600080fd5b806353ee409611610122578063809784c511610107578063809784c51461024c5780638e481d601461026c578063934857bb1461027f57600080fd5b806353ee40961461020d57806354fd4d501461022057600080fd5b80631701d7a8116101535780631701d7a8146101b85780632f1fbf9b146101d8578063356ff5a5146101fa57600080fd5b8063017df5221461016f57806308ae7e54146101a2575b600080fd5b34801561017b57600080fd5b5061018f61018a3660046157aa565b6103e6565b6040519081526020015b60405180910390f35b3480156101ae57600080fd5b5061018f60025481565b3480156101c457600080fd5b5061018f6101d33660046157c7565b610474565b3480156101e457600080fd5b506101f86101f33660046157aa565b61054a565b005b6101f86102083660046157e9565b6108a6565b6101f861021b366004615824565b61165b565b34801561022c57600080fd5b5060005461023a9060ff1681565b60405160ff9091168152602001610199565b34801561025857600080fd5b506101f86102673660046157aa565b611c1e565b6101f861027a366004615850565b611f40565b34801561028b57600080fd5b5061029f61029a366004615885565b61263a565b60405161019991906159ab565b3480156102b857600080fd5b506101f86102c7366004615850565b612820565b3480156102d857600080fd5b506101f86102e73660046157aa565b612e1f565b3480156102f857600080fd5b5061018f6103073660046159fa565b612ff8565b34801561031857600080fd5b5061032c6103273660046157aa565b6130b3565b6040516101999190615a13565b34801561034557600080fd5b5061018f61318d565b34801561035a57600080fd5b506101f8610369366004615824565b6131bd565b6101f861037c366004615850565b613243565b34801561038d57600080fd5b5061032c61039c3660046159fa565b613386565b3480156103ad57600080fd5b5061018f613b06565b3480156103c257600080fd5b506103d66103d13660046157aa565b613b31565b6040519015158152602001610199565b6040517f6d696e69706f6f6c2e696e64657800000000000000000000000000000000000060208201527fffffffffffffffffffffffffffffffffffffffff000000000000000000000000606083901b16602e820152600090600190610464906042015b60405160208183030381529060405280519060200120613c50565b61046e9190615a51565b92915050565b6000806104b56040518060400160405280600b81526020017f50726f746f636f6c44414f000000000000000000000000000000000000000000815250613cdc565b90506000816001600160a01b031663b57cc6e36040518163ffffffff1660e01b8152600401602060405180830381865afa1580156104f7573d6000803e3d6000fd5b505050506040513d601f19601f8201168201806040525081019061051b9190615a71565b90506301e133808561052d8684613d35565b6105379190615a8a565b6105419190615aa1565b95945050505050565b6001546001146105bb576040517f08c379a000000000000000000000000000000000000000000000000000000000815260206004820152600a60248201527f5245454e5452414e43590000000000000000000000000000000000000000000060448201526064015b60405180910390fd5b600260015560006105cb82613d4a565b905060006105d882613d90565b90506105e5826004613e2b565b6040516c6d696e69706f6f6c2e6974656d60981b6020820152602d81018390527f2e73746174757300000000000000000000000000000000000000000000000000604d8201526106529060540160408051601f19818403018152919052805160209091012060045b614017565b6040516c6d696e69706f6f6c2e6974656d60981b6020820152602d81018390527f2e617661784e6f64654f70416d74000000000000000000000000000000000000604d8201526000906106a790605b01610449565b6040516c6d696e69706f6f6c2e6974656d60981b6020820152602d81018590527f2e617661784e6f64654f70526577617264416d74000000000000000000000000604d8201529091506000906106ff90606101610449565b9050600061070d8284615b0b565b9050600061074f6040518060400160405280600781526020017f5374616b696e6700000000000000000000000000000000000000000000000000815250613cdc565b6040517fa1bb68a50000000000000000000000000000000000000000000000000000000081526001600160a01b038781166004830152602482018790529192509082169063a1bb68a590604401600060405180830381600087803b1580156107b657600080fd5b505af11580156107ca573d6000803e3d6000fd5b50505050600061080e6040518060400160405280600581526020017f5661756c74000000000000000000000000000000000000000000000000000000815250613cdc565b6040517faeb5cd5e000000000000000000000000000000000000000000000000000000008152600481018590529091506001600160a01b0382169063aeb5cd5e90602401600060405180830381600087803b15801561086c57600080fd5b505af1158015610880573d6000803e3d6000fd5b50610898925050506001600160a01b0387168461409e565b505060018055505050505050565b60006108b130614113565b90506108e2816040516020016108c79190615b42565b604051602081830303815290604052805190602001206141d4565b15610919576040517fab35696f00000000000000000000000000000000000000000000000000000000815260040160405180910390fd5b6001600160a01b038516610959576040517f6490ffd300000000000000000000000000000000000000000000000000000000815260040160405180910390fd5b60006109996040518060400160405280600b81526020017f50726f746f636f6c44414f000000000000000000000000000000000000000000815250613cdc565b90508234141580610a0a5750806001600160a01b0316635f0570086040518163ffffffff1660e01b8152600401602060405180830381865afa1580156109e3573d6000803e3d6000fd5b505050506040513d601f19601f82011682018060405250810190610a079190615a71565b83115b80610a755750806001600160a01b0316630ef7bfe46040518163ffffffff1660e01b8152600401602060405180830381865afa158015610a4e573d6000803e3d6000fd5b505050506040513d601f19601f82011682018060405250810190610a729190615a71565b83105b15610aac576040517f0f84197b00000000000000000000000000000000000000000000000000000000815260040160405180910390fd5b806001600160a01b031663a88a6a386040518163ffffffff1660e01b8152600401602060405180830381865afa158015610aea573d6000803e3d6000fd5b505050506040513d601f19601f82011682018060405250810190610b0e9190615a71565b610b188434615b0b565b1015610b50576040517fd7707d4600000000000000000000000000000000000000000000000000000000815260040160405180910390fd5b600254851080610b6357506301e1338085115b15610b9a576040517fe132ddb600000000000000000000000000000000000000000000000000000000815260040160405180910390fd5b66470de4df820000841080610bb65750670de0b6b3a764000084115b15610bed576040517ff8bd6eee00000000000000000000000000000000000000000000000000000000815260040160405180910390fd5b6000610c2d6040518060400160405280600781526020017f5374616b696e6700000000000000000000000000000000000000000000000000815250613cdc565b6040517f4f3d2e6f0000000000000000000000000000000000000000000000000000000081523360048201523460248201529091506001600160a01b03821690634f3d2e6f90604401600060405180830381600087803b158015610c9057600080fd5b505af1158015610ca4573d6000803e3d6000fd5b50506040517f2f64fd52000000000000000000000000000000000000000000000000000000008152336004820152602481018790526001600160a01b0384169250632f64fd529150604401600060405180830381600087803b158015610d0957600080fd5b505af1158015610d1d573d6000803e3d6000fd5b50506040517f6e3339670000000000000000000000000000000000000000000000000000000081523360048201526001600160a01b0384169250636e3339679150602401602060405180830381865afa158015610d7e573d6000803e3d6000fd5b505050506040513d601f19601f82011682018060405250810190610da29190615a71565b600003610e22576040517f877d9e9e0000000000000000000000000000000000000000000000000000000081523360048201524260248201526001600160a01b0382169063877d9e9e90604401600060405180830381600087803b158015610e0957600080fd5b505af1158015610e1d573d6000803e3d6000fd5b505050505b6040517fed54ff220000000000000000000000000000000000000000000000000000000081523360048201526000906001600160a01b0383169063ed54ff2290602401602060405180830381865afa158015610e82573d6000803e3d6000fd5b505050506040513d601f19601f82011682018060405250810190610ea69190615a71565b9050826001600160a01b0316632a90c63a6040518163ffffffff1660e01b8152600401602060405180830381865afa158015610ee6573d6000803e3d6000fd5b505050506040513d601f19601f82011682018060405250810190610f0a9190615a71565b811015610f43576040517f9e7fd11b00000000000000000000000000000000000000000000000000000000815260040160405180910390fd5b6000610f836040518060400160405280600f81526020017f4d756c74697369674d616e616765720000000000000000000000000000000000815250613cdc565b90506000816001600160a01b0316632786fa9d6040518163ffffffff1660e01b8152600401602060405180830381865afa158015610fc5573d6000803e3d6000fd5b505050506040513d601f19601f82011682018060405250810190610fe99190615b87565b90506000610ff68b6103e6565b9050807fffffffffffffffffffffffffffffffffffffffffffffffffffffffffffffffff146110a35761102a816000613e2b565b6110338161425f565b6040516c6d696e69706f6f6c2e6974656d60981b6020820152602d81018290527f2e696e697469616c537461727454696d65000000000000000000000000000000604d82015261109e90605e015b604051602081830303815290604052805190602001206000614017565b6111e2565b6110cc7fe0350abf7e528889b5822fca885fa12de74628619c3752923dd9ec3ce44e4602613c50565b6040517f6d696e69706f6f6c2e696e64657800000000000000000000000000000000000060208201527fffffffffffffffffffffffffffffffffffffffff00000000000000000000000060608e901b16602e82015290915061114e906042016040516020818303038152906040528051906020012082600161064d9190615ba4565b6040516c6d696e69706f6f6c2e6974656d60981b6020820152602d81018290527f2e6e6f6465494400000000000000000000000000000000000000000000000000604d8201526111b790605401604051602081830303815290604052805190602001208c61455f565b6111e27fe0350abf7e528889b5822fca885fa12de74628619c3752923dd9ec3ce44e460260016145b7565b6040516c6d696e69706f6f6c2e6974656d60981b6020820152602d81018290527f2e73746174757300000000000000000000000000000000000000000000000000604d82015261124f906054015b60408051601f1981840301815291905280516020909101206000614017565b6040516c6d696e69706f6f6c2e6974656d60981b6020820152602d81018290527f2e6475726174696f6e0000000000000000000000000000000000000000000000604d8201526112b890605601604051602081830303815290604052805190602001208b614017565b6040516c6d696e69706f6f6c2e6974656d60981b6020820152602d81018290527f2e64656c65676174696f6e466565000000000000000000000000000000000000604d82015261132190605b01604051602081830303815290604052805190602001208a614017565b6040516c6d696e69706f6f6c2e6974656d60981b6020820152602d81018290527f2e6f776e65720000000000000000000000000000000000000000000000000000604d82015261138a90605301604051602081830303815290604052805190602001203361455f565b6040516c6d696e69706f6f6c2e6974656d60981b6020820152602d81018290527f2e6d756c74697369674164647200000000000000000000000000000000000000604d8201526113f390605a01604051602081830303815290604052805190602001208361455f565b6040516c6d696e69706f6f6c2e6974656d60981b6020820152602d81018290527f2e617661784e6f64654f70496e697469616c416d740000000000000000000000604d82015261145d906062015b6040516020818303038152906040528051906020012034614017565b6040516c6d696e69706f6f6c2e6974656d60981b6020820152602d81018290527f2e617661784e6f64654f70416d74000000000000000000000000000000000000604d8201526114af90605b01611441565b6040516c6d696e69706f6f6c2e6974656d60981b6020820152602d81018290527f2e617661784c69717569645374616b6572416d74000000000000000000000000604d820152611518906061016040516020818303038152906040528051906020012089614017565b6040516c6d696e69706f6f6c2e6974656d60981b6020820152602d81018290527f2e6372656174696f6e54696d6500000000000000000000000000000000000000604d82015261158190605a016040516020818303038152906040528051906020012042614017565b60006040516001600160a01b038d16907fc9c043637725967252aedd2704cc65fee962e7b8a1e3cf8098587a66601e50c590600090a360006115f76040518060400160405280600581526020017f5661756c74000000000000000000000000000000000000000000000000000000815250613cdc565b9050806001600160a01b031663a0d065c3346040518263ffffffff1660e01b81526004016000604051808303818588803b15801561163457600080fd5b505af1158015611648573d6000803e3d6000fd5b5050505050505050505050505050505050565b60006116668361460c565b9050611673816006613e2b565b6040516c6d696e69706f6f6c2e6974656d60981b6020820152602d81018290527f2e6f776e65720000000000000000000000000000000000000000000000000000604d8201526000906116df906053015b604051602081830303815290604052805190602001206146bb565b6040516c6d696e69706f6f6c2e6974656d60981b6020820152602d81018490527f2e617661784e6f64654f70416d74000000000000000000000000000000000000604d82015290915060009061173790605b01610449565b6040516c6d696e69706f6f6c2e6974656d60981b6020820152602d81018590527f2e617661784c69717569645374616b6572416d74000000000000000000000000604d82015290915060009061178f90606101610449565b905061179b8183615b0b565b34146117d3576040517f2c5211c600000000000000000000000000000000000000000000000000000000815260040160405180910390fd5b6040516c6d696e69706f6f6c2e6974656d60981b6020820152602d81018590527f2e6572726f72436f646500000000000000000000000000000000000000000000604d82015261183c906057016040516020818303038152906040528051906020012086614746565b6040516c6d696e69706f6f6c2e6974656d60981b6020820152602d81018590527f2e73746174757300000000000000000000000000000000000000000000000000604d8201526118a89060540160408051601f1981840301815291905280516020909101206006614017565b6040516c6d696e69706f6f6c2e6974656d60981b6020820152602d81018590527f2e61766178546f74616c526577617264416d7400000000000000000000000000604d8201526118fa90606001611081565b6040516c6d696e69706f6f6c2e6974656d60981b6020820152602d81018590527f2e617661784e6f64654f70526577617264416d74000000000000000000000000604d82015261194c90606101611081565b6040516c6d696e69706f6f6c2e6974656d60981b6020820152602d81018590527f2e617661784c69717569645374616b6572526577617264416d74000000000000604d82015261199e90606701611081565b60006119de6040518060400160405280600581526020017f5661756c74000000000000000000000000000000000000000000000000000000815250613cdc565b9050806001600160a01b031663a0d065c3846040518263ffffffff1660e01b81526004016000604051808303818588803b158015611a1b57600080fd5b505af1158015611a2f573d6000803e3d6000fd5b50505050506000611a746040518060400160405280600b81526020017f546f6b656e676741564158000000000000000000000000000000000000000000815250613cdc565b6040517f383dcbc400000000000000000000000000000000000000000000000000000000815260048101859052600060248201529091506001600160a01b0382169063383dcbc49085906044016000604051808303818588803b158015611ada57600080fd5b505af1158015611aee573d6000803e3d6000fd5b50505050506000611b336040518060400160405280600781526020017f5374616b696e6700000000000000000000000000000000000000000000000000815250613cdc565b6040517fb8c4f6120000000000000000000000000000000000000000000000000000000081526001600160a01b038881166004830152602482018790529192509082169063b8c4f61290604401600060405180830381600087803b158015611b9a57600080fd5b505af1158015611bae573d6000803e3d6000fd5b50505050611bdc7f12a9c71f81f4e9f40893f7c73d926bc8038630f8d65db553b369fd884d77a6e28561479b565b60065b6040516001600160a01b038b16907fc9c043637725967252aedd2704cc65fee962e7b8a1e3cf8098587a66601e50c590600090a3505050505050505050565b6000611c298261460c565b9050611c36816001613e2b565b6040516c6d696e69706f6f6c2e6974656d60981b6020820152602d81018290527f2e617661784e6f64654f70416d74000000000000000000000000000000000000604d820152600090611c8b90605b01610449565b6040516c6d696e69706f6f6c2e6974656d60981b6020820152602d81018490527f2e617661784c69717569645374616b6572416d74000000000000000000000000604d820152909150600090611ce390606101610449565b90506000611d256040518060400160405280600b81526020017f546f6b656e676741564158000000000000000000000000000000000000000000815250613cdc565b6040517fefe441d9000000000000000000000000000000000000000000000000000000008152600481018490529091506001600160a01b0382169063efe441d990602401600060405180830381600087803b158015611d8357600080fd5b505af1158015611d97573d6000803e3d6000fd5b50505050611dc57f12a9c71f81f4e9f40893f7c73d926bc8038630f8d65db553b369fd884d77a6e2836145b7565b6040516c6d696e69706f6f6c2e6974656d60981b6020820152602d81018590527f2e73746174757300000000000000000000000000000000000000000000000000604d820152611e319060540160408051601f1981840301815291905280516020909101206001614017565b60016040516001600160a01b038716907fc9c043637725967252aedd2704cc65fee962e7b8a1e3cf8098587a66601e50c590600090a36000611ea76040518060400160405280600581526020017f5661756c74000000000000000000000000000000000000000000000000000000815250613cdc565b6040517faeb5cd5e000000000000000000000000000000000000000000000000000000008152600481018690529091506001600160a01b0382169063aeb5cd5e90602401600060405180830381600087803b158015611f0557600080fd5b505af1158015611f19573d6000803e3d6000fd5b5050505060008385611f2b9190615b0b565b9050611f37338261409e565b50505050505050565b6000611f4b8461460c565b9050611f58816003613e2b565b6000611f6382613386565b9050806101a0015184111580611f7857504284115b15611faf576040517f38af65f700000000000000000000000000000000000000000000000000000000815260040160405180910390fd5b60008161012001518260e00151611fc69190615b0b565b9050611fd28482615b0b565b341461200a576040517f2c5211c600000000000000000000000000000000000000000000000000000000815260040160405180910390fd5b6040516c6d696e69706f6f6c2e6974656d60981b6020820152602d81018490527f2e73746174757300000000000000000000000000000000000000000000000000604d8201526120769060540160408051601f1981840301815291905280516020909101206003614017565b6040516c6d696e69706f6f6c2e6974656d60981b6020820152602d81018490527f2e656e6454696d65000000000000000000000000000000000000000000000000604d8201526120df906055016040516020818303038152906040528051906020012086614017565b6040516c6d696e69706f6f6c2e6974656d60981b6020820152602d81018490527f2e61766178546f74616c526577617264416d7400000000000000000000000000604d820152612148906060016040516020818303038152906040528051906020012085614017565b6000612155600286615aa1565b905060006121976040518060400160405280600b81526020017f50726f746f636f6c44414f000000000000000000000000000000000000000000815250613cdc565b90506000612207826001600160a01b03166382b33dab6040518163ffffffff1660e01b8152600401602060405180830381865afa1580156121dc573d6000803e3d6000fd5b505050506040513d601f19601f820116820180604052508101906122009190615a71565b8490613d35565b6122119084615bcc565b9050600061221f8289615bcc565b6040516c6d696e69706f6f6c2e6974656d60981b6020820152602d81018990527f2e617661784e6f64654f70526577617264416d74000000000000000000000000604d82015290915061228c906061015b6040516020818303038152906040528051906020012082614017565b6040516c6d696e69706f6f6c2e6974656d60981b6020820152602d81018890527f2e617661784c69717569645374616b6572526577617264416d74000000000000604d8201526122f6906067015b6040516020818303038152906040528051906020012083614017565b8760000361230757612307876147f0565b60006123476040518060400160405280600581526020017f5661756c74000000000000000000000000000000000000000000000000000000815250613cdc565b9050806001600160a01b031663a0d065c3838960e001516123689190615b0b565b6040518263ffffffff1660e01b81526004016000604051808303818588803b15801561239357600080fd5b505af11580156123a7573d6000803e3d6000fd5b505050505060006123ec6040518060400160405280600b81526020017f546f6b656e676741564158000000000000000000000000000000000000000000815250613cdc565b9050806001600160a01b031663383dcbc4858a610120015161240e9190615b0b565b8a6101200151876040518463ffffffff1660e01b815260040161243b929190918252602082015260400190565b6000604051808303818588803b15801561245457600080fd5b505af1158015612468573d6000803e3d6000fd5b505050505061249c7f12a9c71f81f4e9f40893f7c73d926bc8038630f8d65db553b369fd884d77a6e289610120015161479b565b60006124dc6040518060400160405280600781526020017f5374616b696e6700000000000000000000000000000000000000000000000000815250613cdc565b60a08a01516101208b01516040517fb8c4f6120000000000000000000000000000000000000000000000000000000081526001600160a01b039283166004820152602481019190915291925082169063b8c4f61290604401600060405180830381600087803b15801561254e57600080fd5b505af1158015612562573d6000803e3d6000fd5b5050505060a08901516101208a01516040517ff691c32a0000000000000000000000000000000000000000000000000000000081526001600160a01b03928316600482015260248101919091529082169063f691c32a90604401600060405180830381600087803b1580156125d657600080fd5b505af11580156125ea573d6000803e3d6000fd5b50600392506125f7915050565b6040516001600160a01b038f16907fc9c043637725967252aedd2704cc65fee962e7b8a1e3cf8098587a66601e50c590600090a350505050505050505050505050565b606060006126677fe0350abf7e528889b5822fca885fa12de74628619c3752923dd9ec3ce44e4602613c50565b905060006126758486615b0b565b905081811180612683575083155b1561268b5750805b6126958582615bcc565b67ffffffffffffffff8111156126ad576126ad615bdf565b60405190808252806020026020018201604052801561279b57816020015b6127886040518061028001604052806000815260200160006001600160a01b0316815260200160008152602001600081526020016000815260200160006001600160a01b0316815260200160006001600160a01b03168152602001600081526020016000815260200160008152602001600080191681526020016000815260200160008152602001600081526020016000815260200160008152602001600080191681526020016000815260200160008152602001600081525090565b8152602001906001900390816126cb5790505b5092506000855b828110156128135760006127b582613386565b90508860068111156127c9576127c9615adc565b81604001510361280057808684815181106127e6576127e6615c0e565b602002602001018190525082806127fc90615c3d565b9350505b508061280b81615c3d565b9150506127a2565b5083525090949350505050565b600061282b8461460c565b9050612838816002613e2b565b42821115612872576040517fb290253c00000000000000000000000000000000000000000000000000000000815260040160405180910390fd5b6040516c6d696e69706f6f6c2e6974656d60981b6020820152602d81018290527f2e73746174757300000000000000000000000000000000000000000000000000604d8201526128de9060540160408051601f1981840301815291905280516020909101206002614017565b6040516c6d696e69706f6f6c2e6974656d60981b6020820152602d81018290527f2e74784944000000000000000000000000000000000000000000000000000000604d820152612947906052016040516020818303038152906040528051906020012084614746565b6040516c6d696e69706f6f6c2e6974656d60981b6020820152602d81018290527f2e737461727454696d6500000000000000000000000000000000000000000000604d820152612999906057016122da565b6040516c6d696e69706f6f6c2e6974656d60981b6020820152602d81018290527f2e696e697469616c537461727454696d65000000000000000000000000000000604d8201526000906129ee90605e01610449565b905080600003612a61576040516c6d696e69706f6f6c2e6974656d60981b6020820152602d81018390527f2e696e697469616c537461727454696d65000000000000000000000000000000604d820152612a6190605e016040516020818303038152906040528051906020012084614017565b6040516c6d696e69706f6f6c2e6974656d60981b6020820152602d81018390527f2e6f776e65720000000000000000000000000000000000000000000000000000604d820152600090612ab6906053016116c4565b90506000612af86040518060400160405280600781526020017f5374616b696e6700000000000000000000000000000000000000000000000000815250613cdc565b6040516c6d696e69706f6f6c2e6974656d60981b6020820152602d81018690527f2e617661784c69717569645374616b6572416d74000000000000000000000000604d820152909150600090612b5090606101610449565b6040517f86a08e670000000000000000000000000000000000000000000000000000000081526001600160a01b03858116600483015260248201839052919250908316906386a08e6790604401600060405180830381600087803b158015612bb757600080fd5b505af1158015612bcb573d6000803e3d6000fd5b50506040517ff20c4bc60000000000000000000000000000000000000000000000000000000081526001600160a01b0386811660048301528516925063f20c4bc69150602401602060405180830381865afa158015612c2e573d6000803e3d6000fd5b505050506040513d601f19601f82011682018060405250810190612c529190615a71565b6040517fc4bdd0f80000000000000000000000000000000000000000000000000000000081526001600160a01b03858116600483015284169063c4bdd0f890602401602060405180830381865afa158015612cb1573d6000803e3d6000fd5b505050506040513d601f19601f82011682018060405250810190612cd59190615a71565b1015612ddf576040517ff20c4bc60000000000000000000000000000000000000000000000000000000081526001600160a01b038481166004830152831690635e0b5615908590839063f20c4bc690602401602060405180830381865afa158015612d44573d6000803e3d6000fd5b505050506040513d601f19601f82011682018060405250810190612d689190615a71565b6040517fffffffff0000000000000000000000000000000000000000000000000000000060e085901b1681526001600160a01b0390921660048301526024820152604401600060405180830381600087803b158015612dc657600080fd5b505af1158015612dda573d6000803e3d6000fd5b505050505b60026040516001600160a01b038a16907fc9c043637725967252aedd2704cc65fee962e7b8a1e3cf8098587a66601e50c590600090a35050505050505050565b600154600114612e8b576040517f08c379a000000000000000000000000000000000000000000000000000000000815260206004820152600a60248201527f5245454e5452414e43590000000000000000000000000000000000000000000060448201526064016105b2565b600260015560408051808201909152600b81527f50726f746f636f6c44414f0000000000000000000000000000000000000000006020820152600090612ed090613cdc565b90506000612edd83613d4a565b9050612ee881613d90565b506040516c6d696e69706f6f6c2e6974656d60981b6020820152602d81018290527f2e6372656174696f6e54696d6500000000000000000000000000000000000000604d820152600090612f3e90605a01610449565b9050826001600160a01b0316632ef959be6040518163ffffffff1660e01b8152600401602060405180830381865afa158015612f7e573d6000803e3d6000fd5b505050506040513d601f19601f82011682018060405250810190612fa29190615a71565b612fac8242615bcc565b1015612fe4576040517f402192dc00000000000000000000000000000000000000000000000000000000815260040160405180910390fd5b612fee8483614c6e565b5050600180555050565b6000806130396040518060400160405280600681526020017f4f7261636c650000000000000000000000000000000000000000000000000000815250613cdc565b90506000816001600160a01b03166378e865fe6040518163ffffffff1660e01b81526004016040805180830381865afa15801561307a573d6000803e3d6000fd5b505050506040513d601f19601f8201168201806040525081019061309e9190615c75565b5090506130ab84826151b7565b949350505050565b6131706040518061028001604052806000815260200160006001600160a01b0316815260200160008152602001600081526020016000815260200160006001600160a01b0316815260200160006001600160a01b03168152602001600081526020016000815260200160008152602001600080191681526020016000815260200160008152602001600081526020016000815260200160008152602001600080191681526020016000815260200160008152602001600081525090565b600061317b836103e6565b905061318681613386565b9392505050565b60006131b87fe0350abf7e528889b5822fca885fa12de74628619c3752923dd9ec3ce44e4602613c50565b905090565b60006131c88361460c565b6040516c6d696e69706f6f6c2e6974656d60981b6020820152602d81018290527f2e6572726f72436f646500000000000000000000000000000000000000000000604d820152909150613234906057016040516020818303038152906040528051906020012083614746565b61323e8382614c6e565b505050565b600061324e30614113565b9050613264816040516020016108c79190615b42565b1561329b576040517fab35696f00000000000000000000000000000000000000000000000000000000815260040160405180910390fd5b60006132a68561460c565b6040516c6d696e69706f6f6c2e6974656d60981b6020820152602d81018290527f2e696e697469616c537461727454696d65000000000000000000000000000000604d8201529091506000906132fe90605e01610449565b6040516c6d696e69706f6f6c2e6974656d60981b6020820152602d81018490527f2e6475726174696f6e0000000000000000000000000000000000000000000000604d82015290915060009061335690605601610449565b9050613363878787611f40565b4261336e8284615b0b565b1115611f375761337d876151cc565b611f3787611c1e565b6134436040518061028001604052806000815260200160006001600160a01b0316815260200160008152602001600081526020016000815260200160006001600160a01b0316815260200160006001600160a01b03168152602001600081526020016000815260200160008152602001600080191681526020016000815260200160008152602001600081526020016000815260200160008152602001600080191681526020016000815260200160008152602001600081525090565b8181526040516c6d696e69706f6f6c2e6974656d60981b6020820152602d81018390527f2e6e6f6465494400000000000000000000000000000000000000000000000000604d820152613498906054016116c4565b6001600160a01b03166020828101919091526040516c6d696e69706f6f6c2e6974656d60981b91810191909152602d81018390527f2e73746174757300000000000000000000000000000000000000000000000000604d8201526134fe90605401610449565b604080830191909152516c6d696e69706f6f6c2e6974656d60981b6020820152602d81018390527f2e6475726174696f6e0000000000000000000000000000000000000000000000604d82015261355790605601610449565b60608201526040516c6d696e69706f6f6c2e6974656d60981b6020820152602d81018390527f2e64656c65676174696f6e466565000000000000000000000000000000000000604d8201526135ae90605b01610449565b60808201526040516c6d696e69706f6f6c2e6974656d60981b6020820152602d81018390527f2e6f776e65720000000000000000000000000000000000000000000000000000604d820152613605906053016116c4565b6001600160a01b031660a08201526040516c6d696e69706f6f6c2e6974656d60981b6020820152602d81018390527f2e6d756c74697369674164647200000000000000000000000000000000000000604d82015261366590605a016116c4565b6001600160a01b031660c08201526040516c6d696e69706f6f6c2e6974656d60981b6020820152602d81018390527f2e617661784e6f64654f70416d74000000000000000000000000000000000000604d8201526136c590605b01610449565b60e08201526040516c6d696e69706f6f6c2e6974656d60981b6020820152602d81018390527f2e617661784c69717569645374616b6572416d74000000000000000000000000604d82015261371c90606101610449565b6101208201526040516c6d696e69706f6f6c2e6974656d60981b6020820152602d81018390527f2e74784944000000000000000000000000000000000000000000000000000000604d82015261378b906052015b6040516020818303038152906040528051906020012061567a565b6101408201526040516c6d696e69706f6f6c2e6974656d60981b6020820152602d81018390527f2e6372656174696f6e54696d6500000000000000000000000000000000000000604d8201526137e390605a01610449565b6101608201526040516c6d696e69706f6f6c2e6974656d60981b6020820152602d81018390527f2e696e697469616c537461727454696d65000000000000000000000000000000604d82015261383b90605e01610449565b6101808201526040516c6d696e69706f6f6c2e6974656d60981b6020820152602d81018390527f2e737461727454696d6500000000000000000000000000000000000000000000604d82015261389390605701610449565b6101a08201526040516c6d696e69706f6f6c2e6974656d60981b6020820152602d81018390527f2e656e6454696d65000000000000000000000000000000000000000000000000604d8201526138eb90605501610449565b6101c08201526040516c6d696e69706f6f6c2e6974656d60981b6020820152602d81018390527f2e61766178546f74616c526577617264416d7400000000000000000000000000604d82015261394390606001610449565b6101e08201526040516c6d696e69706f6f6c2e6974656d60981b6020820152602d81018390527f2e6572726f72436f646500000000000000000000000000000000000000000000604d82015261399b90605701613770565b6102008201526040516c6d696e69706f6f6c2e6974656d60981b6020820152602d81018390527f2e617661784e6f64654f70496e697469616c416d740000000000000000000000604d8201526139f390606201610449565b6101008201526040516c6d696e69706f6f6c2e6974656d60981b6020820152602d81018390527f2e617661784e6f64654f70526577617264416d74000000000000000000000000604d820152613a4b90606101610449565b6102408201526040516c6d696e69706f6f6c2e6974656d60981b6020820152602d81018390527f2e617661784c69717569645374616b6572526577617264416d74000000000000604d820152613aa390606701610449565b6102608201526040516c6d696e69706f6f6c2e6974656d60981b6020820152602d81018390527f2e676770536c617368416d740000000000000000000000000000000000000000604d820152613afb90605901610449565b610220820152919050565b60006131b87f12a9c71f81f4e9f40893f7c73d926bc8038630f8d65db553b369fd884d77a6e2613c50565b600080613b3d8361460c565b9050613b4a816001613e2b565b6000613b8a6040518060400160405280600b81526020017f546f6b656e676741564158000000000000000000000000000000000000000000815250613cdc565b6040516c6d696e69706f6f6c2e6974656d60981b6020820152602d81018490527f2e617661784c69717569645374616b6572416d74000000000000000000000000604d820152909150600090613be290606101610449565b9050816001600160a01b031663be13733c6040518163ffffffff1660e01b8152600401602060405180830381865afa158015613c22573d6000803e3d6000fd5b505050506040513d601f19601f82011682018060405250810190613c469190615a71565b1015949350505050565b600080546040517fbd02d0f5000000000000000000000000000000000000000000000000000000008152600481018490526101009091046001600160a01b03169063bd02d0f5906024015b602060405180830381865afa158015613cb8573d6000803e3d6000fd5b505050506040513d601f19601f8201168201806040525081019061046e9190615a71565b600080613cf3836040516020016116c49190615c99565b90506001600160a01b03811661046e576040517fed59262400000000000000000000000000000000000000000000000000000000815260040160405180910390fd5b60006131868383670de0b6b3a76400006156c9565b600080613d56836103e6565b9050801961046e576040517fd2fc63e300000000000000000000000000000000000000000000000000000000815260040160405180910390fd5b6040516c6d696e69706f6f6c2e6974656d60981b6020820152602d81018290527f2e6f776e65720000000000000000000000000000000000000000000000000000604d8201526000908190613de7906053016116c4565b9050336001600160a01b0382161461046e576040517f5fc483c500000000000000000000000000000000000000000000000000000000815260040160405180910390fd5b6040516c6d696e69706f6f6c2e6974656d60981b6020820152602d81018390527f2e73746174757300000000000000000000000000000000000000000000000000604d8201526000906054016040516020818303038152906040528051906020012090506000613e9a82613c50565b6006811115613eab57613eab615adc565b9050600080826006811115613ec257613ec2615adc565b03613f00576001846006811115613edb57613edb615adc565b1480613ef9575060055b846006811115613ef757613ef7615adc565b145b9050613fd9565b6001826006811115613f1457613f14615adc565b03613f3b576002846006811115613f2d57613f2d615adc565b1480613ef957506006613ee5565b6002826006811115613f4f57613f4f615adc565b03613f5b576003613ee5565b6003826006811115613f6f57613f6f615adc565b1480613f8c57506006826006811115613f8a57613f8a615adc565b145b15613f98576004613ee5565b6004826006811115613fac57613fac615adc565b1480613fc957506005826006811115613fc757613fc7615adc565b145b15613fd5576000613ee5565b5060005b80614010576040517f8f9a780c00000000000000000000000000000000000000000000000000000000815260040160405180910390fd5b5050505050565b6000546040517fe2a4853a00000000000000000000000000000000000000000000000000000000815260048101849052602481018390526101009091046001600160a01b03169063e2a4853a906044015b600060405180830381600087803b15801561408257600080fd5b505af1158015614096573d6000803e3d6000fd5b505050505050565b600080600080600085875af190508061323e576040517f08c379a000000000000000000000000000000000000000000000000000000000815260206004820152601360248201527f4554485f5452414e534645525f4641494c45440000000000000000000000000060448201526064016105b2565b606060006141978360405160200161417c91907f636f6e74726163742e6e616d6500000000000000000000000000000000000000815260609190911b7fffffffffffffffffffffffffffffffffffffffff00000000000000000000000016600d82015260210190565b60405160208183030381529060405280519060200120615705565b9050805160000361046e576040517fed59262400000000000000000000000000000000000000000000000000000000815260040160405180910390fd5b600080546040517f7ae1cfca000000000000000000000000000000000000000000000000000000008152600481018490526101009091046001600160a01b031690637ae1cfca90602401602060405180830381865afa15801561423b573d6000803e3d6000fd5b505050506040513d601f19601f8201168201806040525081019061046e9190615cde565b6040516c6d696e69706f6f6c2e6974656d60981b6020820152602d81018290527f2e74784944000000000000000000000000000000000000000000000000000000604d8201526142cc906052015b604051602081830303815290604052805190602001206000801b614746565b6040516c6d696e69706f6f6c2e6974656d60981b6020820152602d81018290527f2e6372656174696f6e54696d6500000000000000000000000000000000000000604d82015261431e90605a01611081565b6040516c6d696e69706f6f6c2e6974656d60981b6020820152602d81018290527f2e737461727454696d6500000000000000000000000000000000000000000000604d82015261437090605701611081565b6040516c6d696e69706f6f6c2e6974656d60981b6020820152602d81018290527f2e656e6454696d65000000000000000000000000000000000000000000000000604d8201526143c290605501611081565b6040516c6d696e69706f6f6c2e6974656d60981b6020820152602d81018290527f2e61766178546f74616c526577617264416d7400000000000000000000000000604d82015261441490606001611081565b6040516c6d696e69706f6f6c2e6974656d60981b6020820152602d81018290527f2e617661784e6f64654f70526577617264416d74000000000000000000000000604d82015261446690606101611081565b6040516c6d696e69706f6f6c2e6974656d60981b6020820152602d81018290527f2e617661784c69717569645374616b6572526577617264416d74000000000000604d8201526144b890606701611081565b6040516c6d696e69706f6f6c2e6974656d60981b6020820152602d81018290527f2e676770536c617368416d740000000000000000000000000000000000000000604d82015261450a90605901611081565b6040516c6d696e69706f6f6c2e6974656d60981b6020820152602d81018290527f2e6572726f72436f646500000000000000000000000000000000000000000000604d82015261455c906057016142ad565b50565b6000546040517fca446dd9000000000000000000000000000000000000000000000000000000008152600481018490526001600160a01b0383811660248301526101009092049091169063ca446dd990604401614068565b6000546040517fadb353dc00000000000000000000000000000000000000000000000000000000815260048101849052602481018390526101009091046001600160a01b03169063adb353dc90604401614068565b60008061461883613d4a565b6040516c6d696e69706f6f6c2e6974656d60981b6020820152602d81018290527f2e6d756c74697369674164647200000000000000000000000000000000000000604d82015290915060009061467090605a016116c4565b9050336001600160a01b038216146146b4576040517fc2bd570700000000000000000000000000000000000000000000000000000000815260040160405180910390fd5b5092915050565b600080546040517f21f8a721000000000000000000000000000000000000000000000000000000008152600481018490526101009091046001600160a01b0316906321f8a72190602401602060405180830381865afa158015614722573d6000803e3d6000fd5b505050506040513d601f19601f8201168201806040525081019061046e9190615b87565b6000546040517f4e91db0800000000000000000000000000000000000000000000000000000000815260048101849052602481018390526101009091046001600160a01b031690634e91db0890604401614068565b6000546040517febb9d8c900000000000000000000000000000000000000000000000000000000815260048101849052602481018390526101009091046001600160a01b03169063ebb9d8c990604401614068565b6040516c6d696e69706f6f6c2e6974656d60981b6020820152602d81018290527f2e6e6f6465494400000000000000000000000000000000000000000000000000604d820152600090614845906054016116c4565b6040516c6d696e69706f6f6c2e6974656d60981b6020820152602d81018490527f2e6f776e65720000000000000000000000000000000000000000000000000000604d82015290915060009061489d906053016116c4565b6040516c6d696e69706f6f6c2e6974656d60981b6020820152602d81018590527f2e737461727454696d6500000000000000000000000000000000000000000000604d8201529091506000906148f590605701610449565b6040516c6d696e69706f6f6c2e6974656d60981b6020820152602d81018690527f2e656e6454696d65000000000000000000000000000000000000000000000000604d82015261494790605501610449565b6149519190615bcc565b9050600081121561498e576040517f1eb6cd7c00000000000000000000000000000000000000000000000000000000815260040160405180910390fd5b6040516c6d696e69706f6f6c2e6974656d60981b6020820152602d81018590527f2e617661784c69717569645374616b6572416d74000000000000000000000000604d8201526000906149e390606101610449565b905060006149f18383610474565b905060006149fe82612ff8565b90506000614a406040518060400160405280600781526020017f5374616b696e6700000000000000000000000000000000000000000000000000815250613cdc565b6040517f8823169c0000000000000000000000000000000000000000000000000000000081526001600160a01b0388811660048301529192508391831690638823169c90602401602060405180830381865afa158015614aa4573d6000803e3d6000fd5b505050506040513d601f19601f82011682018060405250810190614ac89190615a71565b1015614b54576040517f8823169c0000000000000000000000000000000000000000000000000000000081526001600160a01b038781166004830152821690638823169c90602401602060405180830381865afa158015614b2d573d6000803e3d6000fd5b505050506040513d601f19601f82011682018060405250810190614b519190615a71565b91505b6040516c6d696e69706f6f6c2e6974656d60981b6020820152602d81018990527f2e676770536c617368416d740000000000000000000000000000000000000000604d820152614ba6906059016122da565b866001600160a01b03167fa10866a4e21985bc2d4130717769d773ffe207cffc5fb5d714c8c030e0677ec783604051614be191815260200190565b60405180910390a26040517f065fe0a30000000000000000000000000000000000000000000000000000000081526001600160a01b0387811660048301526024820184905282169063065fe0a390604401600060405180830381600087803b158015614c4c57600080fd5b505af1158015614c60573d6000803e3d6000fd5b505050505050505050505050565b614c79816005613e2b565b6040516c6d696e69706f6f6c2e6974656d60981b6020820152602d81018290527f2e73746174757300000000000000000000000000000000000000000000000000604d820152614ce59060540160408051601f1981840301815291905280516020909101206005614017565b6040516c6d696e69706f6f6c2e6974656d60981b6020820152602d81018290527f2e6f776e65720000000000000000000000000000000000000000000000000000604d820152600090614d3a906053016116c4565b6040516c6d696e69706f6f6c2e6974656d60981b6020820152602d81018490527f2e617661784e6f64654f70416d74000000000000000000000000000000000000604d820152909150600090614d9290605b01610449565b6040516c6d696e69706f6f6c2e6974656d60981b6020820152602d81018590527f2e617661784c69717569645374616b6572416d74000000000000000000000000604d820152909150600090614dea90606101610449565b90506000614e2c6040518060400160405280600781526020017f5374616b696e6700000000000000000000000000000000000000000000000000815250613cdc565b6040517fa1bb68a50000000000000000000000000000000000000000000000000000000081526001600160a01b038681166004830152602482018690529192509082169063a1bb68a590604401600060405180830381600087803b158015614e9357600080fd5b505af1158015614ea7573d6000803e3d6000fd5b50506040517fb8c4f6120000000000000000000000000000000000000000000000000000000081526001600160a01b038781166004830152602482018690528416925063b8c4f6129150604401600060405180830381600087803b158015614f0e57600080fd5b505af1158015614f22573d6000803e3d6000fd5b50506040517fc4bdd0f80000000000000000000000000000000000000000000000000000000081526001600160a01b0387811660048301528416925063c4bdd0f89150602401602060405180830381865afa158015614f85573d6000803e3d6000fd5b505050506040513d601f19601f82011682018060405250810190614fa99190615a71565b15801561503657506040517f799c515d0000000000000000000000000000000000000000000000000000000081526001600160a01b03858116600483015282169063799c515d90602401602060405180830381865afa158015615010573d6000803e3d6000fd5b505050506040513d601f19601f820116820180604052508101906150349190615a71565b155b156150b7576040517f877d9e9e0000000000000000000000000000000000000000000000000000000081526001600160a01b0385811660048301526000602483015282169063877d9e9e90604401600060405180830381600087803b15801561509e57600080fd5b505af11580156150b2573d6000803e3d6000fd5b505050505b60056040516001600160a01b038816907fc9c043637725967252aedd2704cc65fee962e7b8a1e3cf8098587a66601e50c590600090a3600061512d6040518060400160405280600581526020017f5661756c74000000000000000000000000000000000000000000000000000000815250613cdc565b6040517faeb5cd5e000000000000000000000000000000000000000000000000000000008152600481018690529091506001600160a01b0382169063aeb5cd5e90602401600060405180830381600087803b15801561518b57600080fd5b505af115801561519f573d6000803e3d6000fd5b50611f37925050506001600160a01b0386168561409e565b600061318683670de0b6b3a7640000846156c9565b60006151d730614113565b90506151ed816040516020016108c79190615b42565b15615224576040517fab35696f00000000000000000000000000000000000000000000000000000000815260040160405180910390fd5b600061522f8361460c565b9050600061523c82613386565b905060008160400151600681111561525657615256615adc565b9050600381600681111561526c5761526c615adc565b146152a3576040517f8f9a780c00000000000000000000000000000000000000000000000000000000815260040160405180910390fd5b60008261026001518360e001516152ba9190615b0b565b6040516c6d696e69706f6f6c2e6974656d60981b6020820152602d81018690527f2e617661784e6f64654f70416d74000000000000000000000000000000000000604d82015290915061530f90605b01612270565b6040516c6d696e69706f6f6c2e6974656d60981b6020820152602d81018590527f2e617661784c69717569645374616b6572416d74000000000000000000000000604d82015261536190606101612270565b60006153a16040518060400160405280600781526020017f5374616b696e6700000000000000000000000000000000000000000000000000815250613cdc565b60a08501516102608601516040517f4f3d2e6f0000000000000000000000000000000000000000000000000000000081526001600160a01b0392831660048201526024810191909152919250821690634f3d2e6f90604401600060405180830381600087803b15801561541357600080fd5b505af1158015615427573d6000803e3d6000fd5b5050505060a08401516040517f2f64fd520000000000000000000000000000000000000000000000000000000081526001600160a01b0391821660048201526024810184905290821690632f64fd5290604401600060405180830381600087803b15801561549457600080fd5b505af11580156154a8573d6000803e3d6000fd5b5050505060006154ec6040518060400160405280600b81526020017f50726f746f636f6c44414f000000000000000000000000000000000000000000815250613cdc565b60a08601516040517fed54ff220000000000000000000000000000000000000000000000000000000081526001600160a01b0391821660048201529192506000919084169063ed54ff2290602401602060405180830381865afa158015615557573d6000803e3d6000fd5b505050506040513d601f19601f8201168201806040525081019061557b9190615a71565b9050816001600160a01b0316632a90c63a6040518163ffffffff1660e01b8152600401602060405180830381865afa1580156155bb573d6000803e3d6000fd5b505050506040513d601f19601f820116820180604052508101906155df9190615a71565b811015615618576040517f9e7fd11b00000000000000000000000000000000000000000000000000000000815260040160405180910390fd5b6156218761425f565b6040516c6d696e69706f6f6c2e6974656d60981b6020820152602d81018890527f2e73746174757300000000000000000000000000000000000000000000000000604d82015261567390605401611230565b6000611bdf565b600080546040517fa6ed563e000000000000000000000000000000000000000000000000000000008152600481018490526101009091046001600160a01b03169063a6ed563e90602401613c9b565b6000827fffffffffffffffffffffffffffffffffffffffffffffffffffffffffffffffff04841183021582026156fe57600080fd5b5091020490565b6000546040517f986e791a0000000000000000000000000000000000000000000000000000000081526004810183905260609161010090046001600160a01b03169063986e791a90602401600060405180830381865afa15801561576d573d6000803e3d6000fd5b505050506040513d6000823e601f3d908101601f1916820160405261046e9190810190615d00565b6001600160a01b038116811461455c57600080fd5b6000602082840312156157bc57600080fd5b813561318681615795565b600080604083850312156157da57600080fd5b50508035926020909101359150565b600080600080608085870312156157ff57600080fd5b843561580a81615795565b966020860135965060408601359560600135945092505050565b6000806040838503121561583757600080fd5b823561584281615795565b946020939093013593505050565b60008060006060848603121561586557600080fd5b833561587081615795565b95602085013595506040909401359392505050565b60008060006060848603121561589a57600080fd5b83356007811061587057600080fd5b8051825260208101516158c760208401826001600160a01b03169052565b5060408101516040830152606081015160608301526080810151608083015260a081015161590060a08401826001600160a01b03169052565b5060c081015161591b60c08401826001600160a01b03169052565b5060e08181015190830152610100808201519083015261012080820151908301526101408082015190830152610160808201519083015261018080820151908301526101a080820151908301526101c080820151908301526101e0808201519083015261020080820151908301526102208082015190830152610240808201519083015261026090810151910152565b6020808252825182820181905260009190848201906040850190845b818110156159ee576159da8385516158a9565b9284019261028092909201916001016159c7565b50909695505050505050565b600060208284031215615a0c57600080fd5b5035919050565b610280810161046e82846158a9565b7f4e487b7100000000000000000000000000000000000000000000000000000000600052601160045260246000fd5b81810360008312801583831316838312821617156146b4576146b4615a22565b600060208284031215615a8357600080fd5b5051919050565b808202811582820484141761046e5761046e615a22565b600082615ad7577f4e487b7100000000000000000000000000000000000000000000000000000000600052601260045260246000fd5b500490565b7f4e487b7100000000000000000000000000000000000000000000000000000000600052602160045260246000fd5b8082018082111561046e5761046e615a22565b60005b83811015615b39578181015183820152602001615b21565b50506000910152565b7f636f6e74726163742e7061757365640000000000000000000000000000000000815260008251615b7a81600f850160208701615b1e565b91909101600f0192915050565b600060208284031215615b9957600080fd5b815161318681615795565b8082018281126000831280158216821582161715615bc457615bc4615a22565b505092915050565b8181038181111561046e5761046e615a22565b7f4e487b7100000000000000000000000000000000000000000000000000000000600052604160045260246000fd5b7f4e487b7100000000000000000000000000000000000000000000000000000000600052603260045260246000fd5b60007fffffffffffffffffffffffffffffffffffffffffffffffffffffffffffffffff8203615c6e57615c6e615a22565b5060010190565b60008060408385031215615c8857600080fd5b505080516020909101519092909150565b7f636f6e74726163742e6164647265737300000000000000000000000000000000815260008251615cd1816010850160208701615b1e565b9190910160100192915050565b600060208284031215615cf057600080fd5b8151801515811461318657600080fd5b600060208284031215615d1257600080fd5b815167ffffffffffffffff80821115615d2a57600080fd5b818401915084601f830112615d3e57600080fd5b815181811115615d5057615d50615bdf565b604051601f8201601f19908116603f01168101908382118183101715615d7857615d78615bdf565b81604052828152876020848701011115615d9157600080fd5b615da2836020830160208801615b1e565b97965050505050505056fea264697066735822122040bf3767aff03619f58696bfd6c2ebaae12848d64bb68086d025310d89d6eba064736f6c63430008110033",
  "linkReferences": {},
  "deployedLinkReferences": {}
}