{
  "_format": "hh-sol-artifact-1",
  "contractName": "MinipoolManager",
  "sourceName": "contracts/contract/MinipoolManager.sol",
  "abi": [
    {
      "inputs": [
        {
          "internalType": "contract Storage",
          "name": "storageAddress",
          "type": "address"
        },
        {
          "internalType": "contract ERC20",
          "name": "ggp_",
          "type": "address"
        },
        {
          "internalType": "contract TokenggAVAX",
          "name": "ggAVAX_",
          "type": "address"
        }
      ],
      "stateMutability": "nonpayable",
      "type": "constructor"
    },
    {
      "inputs": [],
      "name": "ErrorSendingAvax",
      "type": "error"
    },
    {
      "inputs": [],
      "name": "InsufficientAvaxForMinipoolCreation",
      "type": "error"
    },
    {
      "inputs": [],
      "name": "InsufficientAvaxForStaking",
      "type": "error"
    },
    {
      "inputs": [],
      "name": "InsufficientGGPCollateralization",
      "type": "error"
    },
    {
      "inputs": [],
      "name": "InvalidAmount",
      "type": "error"
    },
    {
      "inputs": [],
      "name": "InvalidAvaxAssignmentRequest",
      "type": "error"
    },
    {
      "inputs": [],
      "name": "InvalidEndTime",
      "type": "error"
    },
    {
      "inputs": [],
      "name": "InvalidMultisigAddress",
      "type": "error"
    },
    {
      "inputs": [],
      "name": "InvalidNodeID",
      "type": "error"
    },
    {
      "inputs": [],
      "name": "InvalidStateTransition",
      "type": "error"
    },
    {
      "inputs": [],
      "name": "MinipoolNotFound",
      "type": "error"
    },
    {
      "inputs": [],
      "name": "OnlyOwnerCanCancel",
      "type": "error"
    },
    {
      "inputs": [],
      "name": "OnlyOwnerCanWithdraw",
      "type": "error"
    },
    {
      "anonymous": false,
      "inputs": [
        {
          "indexed": true,
          "internalType": "address",
          "name": "nodeID",
          "type": "address"
        },
        {
          "indexed": false,
          "internalType": "uint256",
          "name": "ggp",
          "type": "uint256"
        }
      ],
      "name": "GGPSlashed",
      "type": "event"
    },
    {
      "anonymous": false,
      "inputs": [
        {
          "indexed": true,
          "internalType": "address",
          "name": "nodeID",
          "type": "address"
        },
        {
          "indexed": true,
          "internalType": "enum MinipoolStatus",
          "name": "status",
          "type": "uint8"
        }
      ],
      "name": "MinipoolStatusChanged",
      "type": "event"
    },
    {
      "inputs": [],
      "name": "MIN_STAKING_AMT",
      "outputs": [
        {
          "internalType": "uint256",
          "name": "",
          "type": "uint256"
        }
      ],
      "stateMutability": "view",
      "type": "function"
    },
    {
      "inputs": [
        {
          "internalType": "uint256",
          "name": "avaxRewardAmt",
          "type": "uint256"
        }
      ],
      "name": "calculateSlashAmt",
      "outputs": [
        {
          "internalType": "uint256",
          "name": "",
          "type": "uint256"
        }
      ],
      "stateMutability": "view",
      "type": "function"
    },
    {
      "inputs": [
        {
          "internalType": "address",
          "name": "nodeID",
          "type": "address"
        }
      ],
      "name": "canClaimAndInitiateStaking",
      "outputs": [
        {
          "internalType": "bool",
          "name": "",
          "type": "bool"
        }
      ],
      "stateMutability": "view",
      "type": "function"
    },
    {
      "inputs": [
        {
          "internalType": "address",
          "name": "nodeID",
          "type": "address"
        }
      ],
      "name": "cancelMinipool",
      "outputs": [],
      "stateMutability": "nonpayable",
      "type": "function"
    },
    {
      "inputs": [
        {
          "internalType": "address",
          "name": "nodeID",
          "type": "address"
        }
      ],
      "name": "claimAndInitiateStaking",
      "outputs": [],
      "stateMutability": "nonpayable",
      "type": "function"
    },
    {
      "inputs": [
        {
          "internalType": "address",
          "name": "nodeID",
          "type": "address"
        },
        {
          "internalType": "uint256",
          "name": "duration",
          "type": "uint256"
        },
        {
          "internalType": "uint256",
          "name": "delegationFee",
          "type": "uint256"
        },
        {
          "internalType": "uint256",
          "name": "avaxAssignmentRequest",
          "type": "uint256"
        }
      ],
      "name": "createMinipool",
      "outputs": [],
      "stateMutability": "payable",
      "type": "function"
    },
    {
      "inputs": [
        {
          "internalType": "uint256",
          "name": "duration",
          "type": "uint256"
        },
        {
          "internalType": "uint256",
          "name": "avaxAmt",
          "type": "uint256"
        }
      ],
      "name": "expectedRewardAmt",
      "outputs": [
        {
          "internalType": "uint256",
          "name": "",
          "type": "uint256"
        }
      ],
      "stateMutability": "view",
      "type": "function"
    },
    {
      "inputs": [
        {
          "internalType": "address",
          "name": "nodeID",
          "type": "address"
        }
      ],
      "name": "getIndexOf",
      "outputs": [
        {
          "internalType": "int256",
          "name": "",
          "type": "int256"
        }
      ],
      "stateMutability": "view",
      "type": "function"
    },
    {
      "inputs": [
        {
          "internalType": "int256",
          "name": "index",
          "type": "int256"
        }
      ],
      "name": "getMinipool",
      "outputs": [
        {
          "components": [
            {
              "internalType": "address",
              "name": "nodeID",
              "type": "address"
            },
            {
              "internalType": "uint256",
              "name": "status",
              "type": "uint256"
            },
            {
              "internalType": "uint256",
              "name": "duration",
              "type": "uint256"
            },
            {
              "internalType": "uint256",
              "name": "startTime",
              "type": "uint256"
            },
            {
              "internalType": "uint256",
              "name": "endTime",
              "type": "uint256"
            },
            {
              "internalType": "uint256",
              "name": "delegationFee",
              "type": "uint256"
            },
            {
              "internalType": "uint256",
              "name": "ggpSlashAmt",
              "type": "uint256"
            },
            {
              "internalType": "uint256",
              "name": "avaxNodeOpAmt",
              "type": "uint256"
            },
            {
              "internalType": "uint256",
              "name": "avaxLiquidStakerAmt",
              "type": "uint256"
            },
            {
              "internalType": "uint256",
              "name": "avaxTotalRewardAmt",
              "type": "uint256"
            },
            {
              "internalType": "uint256",
              "name": "avaxNodeOpRewardAmt",
              "type": "uint256"
            },
            {
              "internalType": "uint256",
              "name": "avaxLiquidStakerRewardAmt",
              "type": "uint256"
            },
            {
              "internalType": "address",
              "name": "owner",
              "type": "address"
            },
            {
              "internalType": "address",
              "name": "multisigAddr",
              "type": "address"
            },
            {
              "internalType": "bytes32",
              "name": "txID",
              "type": "bytes32"
            }
          ],
          "internalType": "struct MinipoolManager.Minipool",
          "name": "mp",
          "type": "tuple"
        }
      ],
      "stateMutability": "view",
      "type": "function"
    },
    {
      "inputs": [],
      "name": "getMinipoolCount",
      "outputs": [
        {
          "internalType": "uint256",
          "name": "",
          "type": "uint256"
        }
      ],
      "stateMutability": "view",
      "type": "function"
    },
    {
      "inputs": [
        {
          "internalType": "enum MinipoolStatus",
          "name": "status",
          "type": "uint8"
        },
        {
          "internalType": "uint256",
          "name": "offset",
          "type": "uint256"
        },
        {
          "internalType": "uint256",
          "name": "limit",
          "type": "uint256"
        }
      ],
      "name": "getMinipools",
      "outputs": [
        {
          "components": [
            {
              "internalType": "address",
              "name": "nodeID",
              "type": "address"
            },
            {
              "internalType": "uint256",
              "name": "status",
              "type": "uint256"
            },
            {
              "internalType": "uint256",
              "name": "duration",
              "type": "uint256"
            },
            {
              "internalType": "uint256",
              "name": "startTime",
              "type": "uint256"
            },
            {
              "internalType": "uint256",
              "name": "endTime",
              "type": "uint256"
            },
            {
              "internalType": "uint256",
              "name": "delegationFee",
              "type": "uint256"
            },
            {
              "internalType": "uint256",
              "name": "ggpSlashAmt",
              "type": "uint256"
            },
            {
              "internalType": "uint256",
              "name": "avaxNodeOpAmt",
              "type": "uint256"
            },
            {
              "internalType": "uint256",
              "name": "avaxLiquidStakerAmt",
              "type": "uint256"
            },
            {
              "internalType": "uint256",
              "name": "avaxTotalRewardAmt",
              "type": "uint256"
            },
            {
              "internalType": "uint256",
              "name": "avaxNodeOpRewardAmt",
              "type": "uint256"
            },
            {
              "internalType": "uint256",
              "name": "avaxLiquidStakerRewardAmt",
              "type": "uint256"
            },
            {
              "internalType": "address",
              "name": "owner",
              "type": "address"
            },
            {
              "internalType": "address",
              "name": "multisigAddr",
              "type": "address"
            },
            {
              "internalType": "bytes32",
              "name": "txID",
              "type": "bytes32"
            }
          ],
          "internalType": "struct MinipoolManager.Minipool[]",
          "name": "minipools",
          "type": "tuple[]"
        }
      ],
      "stateMutability": "view",
      "type": "function"
    },
    {
      "inputs": [
        {
          "internalType": "string",
          "name": "_contractName",
          "type": "string"
        }
      ],
      "name": "getPublicContractAddress",
      "outputs": [
        {
          "internalType": "address",
          "name": "",
          "type": "address"
        }
      ],
      "stateMutability": "view",
      "type": "function"
    },
    {
      "inputs": [
        {
          "internalType": "bytes32",
          "name": "settingNameSpace",
          "type": "bytes32"
        },
        {
          "internalType": "string",
          "name": "_settingPath",
          "type": "string"
        }
      ],
      "name": "getSettingAddress",
      "outputs": [
        {
          "internalType": "address",
          "name": "",
          "type": "address"
        }
      ],
      "stateMutability": "view",
      "type": "function"
    },
    {
      "inputs": [
        {
          "internalType": "bytes32",
          "name": "settingNameSpace",
          "type": "bytes32"
        },
        {
          "internalType": "string",
          "name": "_settingPath",
          "type": "string"
        }
      ],
      "name": "getSettingBool",
      "outputs": [
        {
          "internalType": "bool",
          "name": "",
          "type": "bool"
        }
      ],
      "stateMutability": "view",
      "type": "function"
    },
    {
      "inputs": [
        {
          "internalType": "bytes32",
          "name": "settingNameSpace",
          "type": "bytes32"
        },
        {
          "internalType": "string",
          "name": "_settingPath",
          "type": "string"
        }
      ],
      "name": "getSettingUint",
      "outputs": [
        {
          "internalType": "uint256",
          "name": "",
          "type": "uint256"
        }
      ],
      "stateMutability": "view",
      "type": "function"
    },
    {
      "inputs": [],
      "name": "getTotalAvaxLiquidStakerAmt",
      "outputs": [
        {
          "internalType": "uint256",
          "name": "",
          "type": "uint256"
        }
      ],
      "stateMutability": "view",
      "type": "function"
    },
    {
      "inputs": [],
      "name": "ggAVAX",
      "outputs": [
        {
          "internalType": "contract TokenggAVAX",
          "name": "",
          "type": "address"
        }
      ],
      "stateMutability": "view",
      "type": "function"
    },
    {
      "inputs": [],
      "name": "ggp",
      "outputs": [
        {
          "internalType": "contract ERC20",
          "name": "",
          "type": "address"
        }
      ],
      "stateMutability": "view",
      "type": "function"
    },
    {
      "inputs": [],
      "name": "receiveWithdrawalAVAX",
      "outputs": [],
      "stateMutability": "payable",
      "type": "function"
    },
    {
      "inputs": [
        {
          "internalType": "address",
          "name": "nodeID",
          "type": "address"
        },
        {
          "internalType": "uint256",
          "name": "endTime",
          "type": "uint256"
        },
        {
          "internalType": "uint256",
          "name": "avaxTotalRewardAmt",
          "type": "uint256"
        }
      ],
      "name": "recordStakingEnd",
      "outputs": [],
      "stateMutability": "payable",
      "type": "function"
    },
    {
      "inputs": [
        {
          "internalType": "address",
          "name": "nodeID",
          "type": "address"
        },
        {
          "internalType": "string",
          "name": "message",
          "type": "string"
        }
      ],
      "name": "recordStakingError",
      "outputs": [],
      "stateMutability": "nonpayable",
      "type": "function"
    },
    {
      "inputs": [
        {
          "internalType": "address",
          "name": "nodeID",
          "type": "address"
        },
        {
          "internalType": "bytes32",
          "name": "txID",
          "type": "bytes32"
        },
        {
          "internalType": "uint256",
          "name": "startTime",
          "type": "uint256"
        }
      ],
      "name": "recordStakingStart",
      "outputs": [],
      "stateMutability": "nonpayable",
      "type": "function"
    },
    {
      "inputs": [
        {
          "internalType": "address",
          "name": "nodeID",
          "type": "address"
        },
        {
          "internalType": "enum MinipoolStatus",
          "name": "status",
          "type": "uint8"
        }
      ],
      "name": "updateMinipoolStatus",
      "outputs": [],
      "stateMutability": "nonpayable",
      "type": "function"
    },
    {
      "inputs": [],
      "name": "version",
      "outputs": [
        {
          "internalType": "uint8",
          "name": "",
          "type": "uint8"
        }
      ],
      "stateMutability": "view",
      "type": "function"
    },
    {
      "inputs": [
        {
          "internalType": "address",
          "name": "nodeID",
          "type": "address"
        }
      ],
      "name": "withdrawMinipoolFunds",
      "outputs": [],
      "stateMutability": "nonpayable",
      "type": "function"
    }
  ],
  "bytecode": "0x60e0604052686c6b935b8bbd40000060c0523480156200001e57600080fd5b506040516200327b3803806200327b833981016040819052620000419162000093565b6000805460ff196001600160a01b0395861661010002166001600160a81b03199091161760011790559082166080521660a052620000e7565b6001600160a01b03811681146200009057600080fd5b50565b600080600060608486031215620000a957600080fd5b8351620000b6816200007a565b6020850151909350620000c9816200007a565b6040850151909250620000dc816200007a565b809150509250925092565b60805160a05160c0516131486200013360003960008181610404015261095801526000818161033901528181610f68015281816113410152611aa50152600061047801526131486000f3fe6080604052600436106101665760003560e01c8063abd149dc116100d1578063e49e49bf1161008a578063f321df4911610064578063f321df4914610466578063f4812b881461049a578063f4d70e78146104ba578063ffe092411461022657600080fd5b8063e49e49bf146103f2578063e92aa0ce14610426578063ea3092d11461044657600080fd5b8063abd149dc14610327578063ae4d0bed1461035b578063cbb3e2b414610370578063cff0b64814610385578063d8ce16f4146103a5578063de5a61e3146103d257600080fd5b806362b0c29f1161012357806362b0c29f14610267578063809784c5146102875780638e481d60146102a7578063934857bb146102ba5780639a3070a0146102e75780639cbed3401461030757600080fd5b8063017df5221461016b57806306eaa68b1461019e578063232de716146101d65780632f1fbf9b14610206578063356ff5a51461022857806354fd4d501461023b575b600080fd5b34801561017757600080fd5b5061018b61018636600461273d565b6104da565b6040519081526020015b60405180910390f35b3480156101aa57600080fd5b506101be6101b93660046127fd565b61051d565b6040516001600160a01b039091168152602001610195565b3480156101e257600080fd5b506101f66101f13660046127fd565b610557565b6040519015158152602001610195565b34801561021257600080fd5b5061022661022136600461273d565b61058a565b005b610226610236366004612844565b610807565b34801561024757600080fd5b506000546102559060ff1681565b60405160ff9091168152602001610195565b34801561027357600080fd5b5061022661028236600461287f565b505050565b34801561029357600080fd5b506102266102a236600461273d565b610edf565b6102266102b5366004612904565b6110a8565b3480156102c657600080fd5b506102da6102d536600461294d565b611473565b6040516101959190612a2b565b3480156102f357600080fd5b50610226610302366004612904565b611592565b34801561031357600080fd5b5061022661032236600461273d565b61164b565b34801561033357600080fd5b506101be7f000000000000000000000000000000000000000000000000000000000000000081565b34801561036757600080fd5b5061018b6116c2565b34801561037c57600080fd5b5061018b6116e0565b34801561039157600080fd5b506101be6103a0366004612a7a565b61170b565b3480156103b157600080fd5b506103c56103c0366004612aaf565b611774565b6040516101959190612ac8565b3480156103de57600080fd5b5061018b6103ed366004612ad7565b611946565b3480156103fe57600080fd5b5061018b7f000000000000000000000000000000000000000000000000000000000000000081565b34801561043257600080fd5b50610226610441366004612af9565b611a0a565b34801561045257600080fd5b506101f661046136600461273d565b611a72565b34801561047257600080fd5b506101be7f000000000000000000000000000000000000000000000000000000000000000081565b3480156104a657600080fd5b5061018b6104b5366004612aaf565b611b40565b3480156104c657600080fd5b5061018b6104d53660046127fd565b611be4565b6000600161050d836040516020016104f29190612b2e565b60405160208183030381529060405280519060200120611bfc565b6105179190612b78565b92915050565b60006105508383604051602001610535929190612bf2565b60405160208183030381529060405280519060200120611c6f565b9392505050565b6000610550838360405160200161056f929190612bf2565b60405160208183030381529060405280519060200120611ce1565b6000610595826104da565b905080196105b65760405163d2fc63e360e01b815260040160405180910390fd5b60006105cc826040516020016105359190612c04565b9050336001600160a01b038216146105f7576040516347418db160e01b815260040160405180910390fd5b610602826004611d53565b610636826040516020016106169190612c34565b60408051601f19818403018152919052805160209091012060045b611ed0565b600061065e6040518060400160405280600581526020016415985d5b1d60da1b81525061170b565b90506000610676846040516020016104f29190612c7b565b9050600061068e856040516020016104f29190612cb3565b9050600061069c8284612cf1565b905060006106c8604051806040016040528060078152602001665374616b696e6760c81b81525061170b565b60405163a1bb68a560e01b81526001600160a01b038881166004830152602482018790529192509082169063a1bb68a590604401600060405180830381600087803b15801561071657600080fd5b505af115801561072a573d6000803e3d6000fd5b505060405163075c6c4b60e11b8152600481018590526001600160a01b0388169250630eb8d8969150602401600060405180830381600087803b15801561077057600080fd5b505af1158015610784573d6000803e3d6000fd5b505050506000866001600160a01b03168360405160006040518083038185875af1925050503d80600081146107d5576040519150601f19603f3d011682016040523d82523d6000602084013e6107da565b606091505b50509050806107fc57604051639d60fd7560e01b815260040160405180910390fd5b505050505050505050565b6001600160a01b03841661082e57604051636490ffd360e01b815260040160405180910390fd5b600061085c6040518060400160405280600b81526020016a50726f746f636f6c44414f60a81b81525061170b565b905081341415806108cd5750806001600160a01b03166314ab2d476040518163ffffffff1660e01b8152600401602060405180830381865afa1580156108a6573d6000803e3d6000fd5b505050506040513d601f19601f820116820180604052508101906108ca9190612d09565b82115b806109385750806001600160a01b0316636a9cbe616040518163ffffffff1660e01b8152600401602060405180830381865afa158015610911573d6000803e3d6000fd5b505050506040513d601f19601f820116820180604052508101906109359190612d09565b82105b156109565760405163577ab9b160e01b815260040160405180910390fd5b7f00000000000000000000000000000000000000000000000000000000000000006109818334612cf1565b10156109a05760405163161712c560e11b815260040160405180910390fd5b60006109c86040518060400160405280600581526020016415985d5b1d60da1b81525061170b565b9050806001600160a01b03166324056867346040518263ffffffff1660e01b81526004016000604051808303818588803b158015610a0557600080fd5b505af1158015610a19573d6000803e3d6000fd5b50505050506000610a48604051806040016040528060078152602001665374616b696e6760c81b81525061170b565b604051634f3d2e6f60e01b81523360048201523460248201529091506001600160a01b03821690634f3d2e6f90604401600060405180830381600087803b158015610a9257600080fd5b505af1158015610aa6573d6000803e3d6000fd5b50506040516317b27ea960e11b8152336004820152602481018790526001600160a01b0384169250632f64fd529150604401600060405180830381600087803b158015610af257600080fd5b505af1158015610b06573d6000803e3d6000fd5b50506040516376aa7f9160e11b8152336004820152600092506001600160a01b038416915063ed54ff2290602401602060405180830381865afa158015610b51573d6000803e3d6000fd5b505050506040513d601f19601f82011682018060405250810190610b759190612d09565b9050816001600160a01b031663f84a4e6e6040518163ffffffff1660e01b8152600401602060405180830381865afa158015610bb5573d6000803e3d6000fd5b505050506040513d601f19601f82011682018060405250810190610bd99190612d09565b811015610bf957604051639e7fd11b60e01b815260040160405180910390fd5b6000610c04896104da565b90508060001914610c2857610c1a816000611d53565b610c2381611f36565b610cc1565b610c3f6000805160206130d3833981519152611bfc565b9050610c7889604051602001610c559190612b2e565b604051602081830303815290604052805190602001208260016106319190612d22565b610ca881604051602001610c8c9190612d63565b604051602081830303815290604052805190602001208a612001565b610cc16000805160206130d38339815191526001612040565b6000610cf36040518060400160405280600f81526020016e26bab63a34b9b4b3a6b0b730b3b2b960891b81525061170b565b90506000816001600160a01b0316632786fa9d6040518163ffffffff1660e01b8152600401602060405180830381865afa158015610d35573d6000803e3d6000fd5b505050506040513d601f19601f82011682018060405250810190610d599190612d94565b9050610d8e83604051602001610d6f9190612c34565b60408051601f1981840301815291905280516020909101206000611ed0565b610dbe83604051602001610da29190612db1565b604051602081830303815290604052805190602001208b611ed0565b610dee83604051602001610dd29190612de4565b6040516020818303038152906040528051906020012082612001565b610e1e83604051602001610e029190612c04565b6040516020818303038152906040528051906020012033612001565b610e4e83604051602001610e329190612c7b565b6040516020818303038152906040528051906020012034611ed0565b610e7e83604051602001610e629190612e1b565b6040516020818303038152906040528051906020012089611ed0565b610eae83604051602001610e929190612e59565b604051602081830303815290604052805190602001208a611ed0565b60006040516001600160a01b038d16906000805160206130f383398151915290600090a35050505050505050505050565b6000610eea8261207c565b9050610ef7816001611d53565b6000610f1f6040518060400160405280600581526020016415985d5b1d60da1b81525061170b565b90506000610f37836040516020016104f29190612c7b565b90506000610f4f846040516020016104f29190612e1b565b60405163efe441d960e01b8152600481018290529091507f00000000000000000000000000000000000000000000000000000000000000006001600160a01b03169063efe441d990602401600060405180830381600087803b158015610fb457600080fd5b505af1158015610fc8573d6000803e3d6000fd5b50505050610fd5816120f1565b60405163075c6c4b60e11b8152600481018390526001600160a01b03841690630eb8d89690602401600060405180830381600087803b15801561101757600080fd5b505af115801561102b573d6000803e3d6000fd5b505050506000818361103d9190612cf1565b9050611072856040516020016110539190612c34565b60408051601f1981840301815291905280516020909101206001611ed0565b60016040516001600160a01b038816906000805160206130f383398151915290600090a36110a0338261211b565b505050505050565b60006110b38461207c565b90506110c0816003611d53565b60006110d6826040516020016104f29190612e91565b905080841115806110e657504284115b15611104576040516338af65f760e01b815260040160405180910390fd5b600061111a836040516020016104f29190612c7b565b90506000611132846040516020016104f29190612e1b565b905060006111408284612cf1565b905061114c8682612cf1565b341461116b5760405163162908e360e11b815260040160405180910390fd5b60006111936040518060400160405280600581526020016415985d5b1d60da1b81525061170b565b905060006111bf604051806040016040528060078152602001665374616b696e6760c81b81525061170b565b905060006111d7886040516020016105359190612c04565b905061120c886040516020016111ed9190612c34565b60408051601f1981840301815291905280516020909101206003611ed0565b61122088604051602001610da29190612ec5565b61123488604051602001610e929190612ef7565b600061124160028b612f34565b9050600061125782670214e8348c4f000061216c565b6112619083612f56565b9050600061126f828d612f56565b90506112a18b6040516020016112859190612cb3565b6040516020818303038152906040528051906020012082611ed0565b6112d18b6040516020016112b59190612f6d565b6040516020818303038152906040528051906020012083611ed0565b8b6000036112e2576112e28b612181565b6001600160a01b03861663240568676112fb838c612cf1565b6040518263ffffffff1660e01b81526004016000604051808303818588803b15801561132657600080fd5b505af115801561133a573d6000803e3d6000fd5b50505050507f00000000000000000000000000000000000000000000000000000000000000006001600160a01b031663383dcbc4838a61137a9190612cf1565b6040516001600160e01b031960e084901b168152600481018c9052602481018690526044016000604051808303818588803b1580156113b857600080fd5b505af11580156113cc573d6000803e3d6000fd5b5050604051635c627b0960e11b81526001600160a01b038881166004830152602482018d90528916935063b8c4f61292506044019050600060405180830381600087803b15801561141c57600080fd5b505af1158015611430573d6000803e3d6000fd5b5050505061143d886122ed565b60038e6001600160a01b03166000805160206130f383398151915260405160405180910390a35050505050505050505050505050565b6060600061148e6000805160206130d3833981519152611bfc565b9050600061149c8486612cf1565b9050818111806114aa575083155b156114b25750805b6114bc8582612f56565b67ffffffffffffffff8111156114d4576114d461275a565b60405190808252806020026020018201604052801561150d57816020015b6114fa612694565b8152602001906001900390816114f25790505b5092506000855b8281101561158557600061152782611774565b905088600681111561153b5761153b612c65565b816020015103611572578086848151811061155857611558612fb4565b6020026020010181905250828061156e90612fca565b9350505b508061157d81612fca565b915050611514565b5083525090949350505050565b600061159d8461207c565b90506115aa816002611d53565b6115dd816040516020016115be9190612c34565b60408051601f1981840301815291905280516020909101206002611ed0565b61160d816040516020016115f19190612fe3565b6040516020818303038152906040528051906020012084612317565b611621816040516020016112b59190612e91565b60026040516001600160a01b038616906000805160206130f383398151915290600090a350505050565b6000611656826104da565b905080196116775760405163d2fc63e360e01b815260040160405180910390fd5b600061168d826040516020016105359190612c04565b9050336001600160a01b038216146116b85760405163112dcfdd60e31b815260040160405180910390fd5b6102828383612353565b60006116db6000805160206130d3833981519152611bfc565b905090565b60006116db7fd74baac736368c6c7f3dcae08c5ae5905fff103627f38fd74660dd5fb1dfa671611bfc565b600080611722836040516020016105359190613012565b90506001600160a01b0381166105175760405162461bcd60e51b815260206004820152601260248201527110dbdb9d1c9858dd081b9bdd08199bdd5b9960721b60448201526064015b60405180910390fd5b61177c612694565b611790826040516020016105359190612d63565b6001600160a01b031681526040516117b0906104f2908490602001612c34565b8160200181815250506117cd826040516020016104f29190612db1565b816040018181525050611805826040516020016117ea9190612fe3565b604051602081830303815290604052805190602001206125f2565b6101c0820152604051611820906104f2908490602001612e91565b606082015260405161183a906104f2908490602001612ec5565b6080820152604051611854906104f2908490602001612e59565b60a082015260405161186e906104f2908490602001613037565b60c0820152604051611888906104f2908490602001612c7b565b60e08201526040516118a2906104f2908490602001612e1b565b6101008201526040516118bd906104f2908490602001612ef7565b6101208201526040516118d8906104f2908490602001612cb3565b6101408201526040516118f3906104f2908490602001612f6d565b61016082015260405161190e90610535908490602001612de4565b6001600160a01b03166101a082015260405161193290610535908490602001612c04565b6001600160a01b0316610180820152919050565b6000806119756040518060400160405280600b81526020016a50726f746f636f6c44414f60a81b81525061170b565b90506000816001600160a01b0316634712a1436040518163ffffffff1660e01b8152600401602060405180830381865afa1580156119b7573d6000803e3d6000fd5b505050506040513d601f19601f820116820180604052508101906119db9190612d09565b90506301e13380856119ed868461216c565b6119f7919061306d565b611a019190612f34565b95945050505050565b6000611a15836104da565b90508019611a365760405163d2fc63e360e01b815260040160405180910390fd5b61028281604051602001611a4a9190612c34565b6040516020818303038152906040528051906020012083600681111561063157610631612c65565b600080611a7e8361207c565b9050611a8b816001611d53565b6000611aa1826040516020016104f29190612e1b565b90507f00000000000000000000000000000000000000000000000000000000000000006001600160a01b031663be13733c6040518163ffffffff1660e01b8152600401602060405180830381865afa158015611b01573d6000803e3d6000fd5b505050506040513d601f19601f82011682018060405250810190611b259190612d09565b811115611b36575060009392505050565b5060019392505050565b600080611b6a604051806040016040528060068152602001654f7261636c6560d01b81525061170b565b90506000816001600160a01b031663bece349b6040518163ffffffff1660e01b81526004016040805180830381865afa158015611bab573d6000803e3d6000fd5b505050506040513d601f19601f82011682018060405250810190611bcf919061308c565b509050611bdc8482612628565b949350505050565b600061055083836040516020016104f2929190612bf2565b6000805460405163bd02d0f560e01b8152600481018490526101009091046001600160a01b03169063bd02d0f5906024015b602060405180830381865afa158015611c4b573d6000803e3d6000fd5b505050506040513d601f19601f820116820180604052508101906105179190612d09565b600080546040516321f8a72160e01b8152600481018490526101009091046001600160a01b0316906321f8a72190602401602060405180830381865afa158015611cbd573d6000803e3d6000fd5b505050506040513d601f19601f820116820180604052508101906105179190612d94565b60008054604051633d70e7e560e11b8152600481018490526101009091046001600160a01b031690637ae1cfca90602401602060405180830381865afa158015611d2f573d6000803e3d6000fd5b505050506040513d601f19601f8201168201806040525081019061051791906130b0565b600082604051602001611d669190612c34565b6040516020818303038152906040528051906020012090506000611d8982611bfc565b6006811115611d9a57611d9a612c65565b9050600080826006811115611db157611db1612c65565b03611def576001846006811115611dca57611dca612c65565b1480611de8575060055b846006811115611de657611de6612c65565b145b9050611eab565b6001826006811115611e0357611e03612c65565b03611e2a576002846006811115611e1c57611e1c612c65565b1480611de857506006611dd4565b6002826006811115611e3e57611e3e612c65565b03611e4a576003611dd4565b6003826006811115611e5e57611e5e612c65565b03611e6a576004611dd4565b6004826006811115611e7e57611e7e612c65565b1480611e9b57506005826006811115611e9957611e99612c65565b145b15611ea7576000611dd4565b5060005b80611ec9576040516323e69e0360e21b815260040160405180910390fd5b5050505050565b600054604051637152429d60e11b815260048101849052602481018390526101009091046001600160a01b03169063e2a4853a906044015b600060405180830381600087803b158015611f2257600080fd5b505af11580156110a0573d6000803e3d6000fd5b611f6981604051602001611f4a9190612fe3565b604051602081830303815290604052805190602001206000801b612317565b611f9a81604051602001611f7d9190612e91565b604051602081830303815290604052805190602001206000611ed0565b611fae81604051602001611f7d9190612ec5565b611fc281604051602001611f7d9190612ef7565b611fd681604051602001611f7d9190612cb3565b611fea81604051602001611f7d9190612f6d565b611ffe81604051602001611f7d9190613037565b50565b60005460405163ca446dd960e01b8152600481018490526001600160a01b0383811660248301526101009092049091169063ca446dd990604401611f08565b600054604051632b6cd4f760e21b815260048101849052602481018390526101009091046001600160a01b03169063adb353dc90604401611f08565b600080612088836104da565b905080196120a95760405163d2fc63e360e01b815260040160405180910390fd5b60006120bf826040516020016105359190612de4565b9050336001600160a01b038216146120ea5760405163c2bd570760e01b815260040160405180910390fd5b5092915050565b611ffe7fd74baac736368c6c7f3dcae08c5ae5905fff103627f38fd74660dd5fb1dfa67182612040565b600080600080600085875af19050806102825760405162461bcd60e51b815260206004820152601360248201527211551217d514905394d1915497d19052531151606a1b604482015260640161176b565b60006105508383670de0b6b3a7640000612639565b6000612197826040516020016105359190612d63565b905060006121af836040516020016105359190612c04565b905060006121c7846040516020016104f29190612db1565b905060006121df856040516020016104f29190612e1b565b905060006121ed8383611946565b905060006121fa82611b40565b9050612210876040516020016112859190613037565b600061223a604051806040016040528060078152602001665374616b696e6760c81b81525061170b565b60405163065fe0a360e01b81526001600160a01b038881166004830152602482018590529192509082169063065fe0a390604401600060405180830381600087803b15801561228857600080fd5b505af115801561229c573d6000803e3d6000fd5b50505050866001600160a01b03167fa10866a4e21985bc2d4130717769d773ffe207cffc5fb5d714c8c030e0677ec7836040516122db91815260200190565b60405180910390a25050505050505050565b611ffe7fd74baac736368c6c7f3dcae08c5ae5905fff103627f38fd74660dd5fb1dfa67182612658565b6000546040516309d23b6160e31b815260048101849052602481018390526101009091046001600160a01b031690634e91db0890604401611f08565b61235e816005611d53565b612391816040516020016123729190612c34565b60408051601f1981840301815291905280516020909101206005611ed0565b60006123a7826040516020016105359190612c04565b905060006123bf836040516020016104f29190612c7b565b905060006123d7846040516020016104f29190612e1b565b90506000612403604051806040016040528060078152602001665374616b696e6760c81b81525061170b565b60405163a1bb68a560e01b81526001600160a01b038681166004830152602482018690529192509082169063a1bb68a590604401600060405180830381600087803b15801561245157600080fd5b505af1158015612465573d6000803e3d6000fd5b5050604051635c627b0960e11b81526001600160a01b038781166004830152602482018690528416925063b8c4f6129150604401600060405180830381600087803b1580156124b357600080fd5b505af11580156124c7573d6000803e3d6000fd5b5050505060006124f36040518060400160405280600581526020016415985d5b1d60da1b81525061170b565b60405163075c6c4b60e11b8152600481018690529091506001600160a01b03821690630eb8d89690602401600060405180830381600087803b15801561253857600080fd5b505af115801561254c573d6000803e3d6000fd5b505050506000856001600160a01b03168560405160006040518083038185875af1925050503d806000811461259d576040519150601f19603f3d011682016040523d82523d6000602084013e6125a2565b606091505b50509050806125c457604051639d60fd7560e01b815260040160405180910390fd5b60056040516001600160a01b038a16906000805160206130f383398151915290600090a35050505050505050565b60008054604051635376ab1f60e11b8152600481018490526101009091046001600160a01b03169063a6ed563e90602401611c2e565b600061055083670de0b6b3a7640000845b82820281151584158583048514171661265157600080fd5b0492915050565b60005460405163ebb9d8c960e01b815260048101849052602481018390526101009091046001600160a01b03169063ebb9d8c990604401611f08565b604051806101e0016040528060006001600160a01b03168152602001600081526020016000815260200160008152602001600081526020016000815260200160008152602001600081526020016000815260200160008152602001600081526020016000815260200160006001600160a01b0316815260200160006001600160a01b03168152602001600080191681525090565b6001600160a01b0381168114611ffe57600080fd5b60006020828403121561274f57600080fd5b813561055081612728565b634e487b7160e01b600052604160045260246000fd5b600082601f83011261278157600080fd5b813567ffffffffffffffff8082111561279c5761279c61275a565b604051601f8301601f19908116603f011681019082821181831017156127c4576127c461275a565b816040528381528660208588010111156127dd57600080fd5b836020870160208301376000602085830101528094505050505092915050565b6000806040838503121561281057600080fd5b82359150602083013567ffffffffffffffff81111561282e57600080fd5b61283a85828601612770565b9150509250929050565b6000806000806080858703121561285a57600080fd5b843561286581612728565b966020860135965060408601359560600135945092505050565b60008060006040848603121561289457600080fd5b833561289f81612728565b9250602084013567ffffffffffffffff808211156128bc57600080fd5b818601915086601f8301126128d057600080fd5b8135818111156128df57600080fd5b8760208285010111156128f157600080fd5b6020830194508093505050509250925092565b60008060006060848603121561291957600080fd5b833561292481612728565b95602085013595506040909401359392505050565b80356007811061294857600080fd5b919050565b60008060006060848603121561296257600080fd5b61292484612939565b80516001600160a01b031682526020810151602083015260408101516040830152606081015160608301526080810151608083015260a081015160a083015260c081015160c083015260e081015160e083015261010080820151818401525061012080820151818401525061014080820151818401525061016080820151818401525061018080820151612a09828501826001600160a01b03169052565b50506101a0818101516001600160a01b0316908301526101c090810151910152565b6020808252825182820181905260009190848201906040850190845b81811015612a6e57612a5a83855161296b565b928401926101e09290920191600101612a47565b50909695505050505050565b600060208284031215612a8c57600080fd5b813567ffffffffffffffff811115612aa357600080fd5b611bdc84828501612770565b600060208284031215612ac157600080fd5b5035919050565b6101e08101610517828461296b565b60008060408385031215612aea57600080fd5b50508035926020909101359150565b60008060408385031215612b0c57600080fd5b8235612b1781612728565b9150612b2560208401612939565b90509250929050565b6d0dad2dcd2e0deded85cd2dcc8caf60931b815260609190911b6bffffffffffffffffffffffff1916600e82015260220190565b634e487b7160e01b600052601160045260246000fd5b60008083128015600160ff1b850184121615612b9657612b96612b62565b6001600160ff1b0384018313811615612bb157612bb1612b62565b50500390565b6000815160005b81811015612bd85760208185018101518683015201612bbe565b81811115612be7576000828601525b509290920192915050565b8281526000611bdc6020830184612bb7565b6c6d696e69706f6f6c2e6974656d60981b8152600d810191909152651737bbb732b960d11b602d82015260330190565b6c6d696e69706f6f6c2e6974656d60981b8152600d810191909152662e73746174757360c81b602d82015260340190565b634e487b7160e01b600052602160045260246000fd5b6c6d696e69706f6f6c2e6974656d60981b8152600d8101919091526d0b985d985e139bd91953dc105b5d60921b602d820152603b0190565b6c6d696e69706f6f6c2e6974656d60981b8152600d810191909152730b985d985e139bd91953dc14995dd85c99105b5d60621b602d82015260410190565b60008219821115612d0457612d04612b62565b500190565b600060208284031215612d1b57600080fd5b5051919050565b600080821280156001600160ff1b0384900385131615612d4457612d44612b62565b600160ff1b8390038412811615612d5d57612d5d612b62565b50500190565b6c6d696e69706f6f6c2e6974656d60981b8152600d810191909152660b9b9bd919525160ca1b602d82015260340190565b600060208284031215612da657600080fd5b815161055081612728565b6c6d696e69706f6f6c2e6974656d60981b8152600d8101919091526817323ab930ba34b7b760b91b602d82015260360190565b6c6d696e69706f6f6c2e6974656d60981b8152600d8101919091526c1736bab63a34b9b4b3a0b2323960991b602d820152603a0190565b6c6d696e69706f6f6c2e6974656d60981b8152600d810191909152730b985d985e131a5c5d5a5914dd185ad95c905b5d60621b602d82015260410190565b6c6d696e69706f6f6c2e6974656d60981b8152600d8101919091526d2e64656c65676174696f6e46656560901b602d820152603b0190565b6c6d696e69706f6f6c2e6974656d60981b8152600d810191909152692e737461727454696d6560b01b602d82015260370190565b6c6d696e69706f6f6c2e6974656d60981b8152600d810191909152672e656e6454696d6560c01b602d82015260350190565b6c6d696e69706f6f6c2e6974656d60981b8152600d810191909152720b985d985e151bdd185b14995dd85c99105b5d606a1b602d82015260400190565b600082612f5157634e487b7160e01b600052601260045260246000fd5b500490565b600082821015612f6857612f68612b62565b500390565b6c6d696e69706f6f6c2e6974656d60981b8152600d8101919091527f2e617661784c69717569645374616b6572526577617264416d74000000000000602d82015260470190565b634e487b7160e01b600052603260045260246000fd5b600060018201612fdc57612fdc612b62565b5060010190565b6c6d696e69706f6f6c2e6974656d60981b8152600d810191909152640b9d1e125160da1b602d82015260320190565b6f636f6e74726163742e6164647265737360801b815260006105506010830184612bb7565b6c6d696e69706f6f6c2e6974656d60981b8152600d8101919091526b0b99d9dc14db185cda105b5d60a21b602d82015260390190565b600081600019048311821515161561308757613087612b62565b500290565b6000806040838503121561309f57600080fd5b505080516020909101519092909150565b6000602082840312156130c257600080fd5b8151801515811461055057600080fdfee0350abf7e528889b5822fca885fa12de74628619c3752923dd9ec3ce44e4602c9c043637725967252aedd2704cc65fee962e7b8a1e3cf8098587a66601e50c5a2646970667358221220fa603a2cb7bd9c2a66aec1b79bbf12298673a4470d23c68273a77a5c4069846764736f6c634300080d0033",
  "linkReferences": {},
  "deployedLinkReferences": {}
}