{
  "_format": "hh-sol-artifact-1",
  "contractName": "NOPClaim",
  "sourceName": "contracts/contract/rewards/claims/NOPClaim.sol",
  "abi": [
    {
      "inputs": [
        {
          "internalType": "contract Storage",
          "name": "storageAddress",
          "type": "address"
        },
        {
          "internalType": "contract ERC20",
          "name": "ggp_",
          "type": "address"
        }
      ],
      "stateMutability": "nonpayable",
      "type": "constructor"
    },
    {
      "inputs": [],
      "name": "InvalidAmount",
      "type": "error"
    },
    {
      "inputs": [],
      "name": "NoRewardsToClaim",
      "type": "error"
    },
    {
      "anonymous": false,
      "inputs": [
        {
          "indexed": true,
          "internalType": "address",
          "name": "to",
          "type": "address"
        },
        {
          "indexed": false,
          "internalType": "uint256",
          "name": "amount",
          "type": "uint256"
        }
      ],
      "name": "GGPRewardsClaimed",
      "type": "event"
    },
    {
      "inputs": [
        {
          "internalType": "address",
          "name": "ownerAddress",
          "type": "address"
        },
        {
          "internalType": "uint256",
          "name": "totalEligibleGGPStaked",
          "type": "uint256"
        }
      ],
      "name": "calculateAndSetRewards",
      "outputs": [],
      "stateMutability": "nonpayable",
      "type": "function"
    },
    {
      "inputs": [
        {
          "internalType": "uint256",
          "name": "claimAmount",
          "type": "uint256"
        }
      ],
      "name": "claimAndRestake",
      "outputs": [],
      "stateMutability": "nonpayable",
      "type": "function"
    },
    {
      "inputs": [],
      "name": "getEnabled",
      "outputs": [
        {
          "internalType": "bool",
          "name": "",
          "type": "bool"
        }
      ],
      "stateMutability": "pure",
      "type": "function"
    },
    {
      "inputs": [
        {
          "internalType": "string",
          "name": "_contractName",
          "type": "string"
        }
      ],
      "name": "getPublicContractAddress",
      "outputs": [
        {
          "internalType": "address",
          "name": "",
          "type": "address"
        }
      ],
      "stateMutability": "view",
      "type": "function"
    },
    {
      "inputs": [],
      "name": "getRewardsCycleTotal",
      "outputs": [
        {
          "internalType": "uint256",
          "name": "",
          "type": "uint256"
        }
      ],
      "stateMutability": "view",
      "type": "function"
    },
    {
      "inputs": [
        {
          "internalType": "bytes32",
          "name": "settingNameSpace",
          "type": "bytes32"
        },
        {
          "internalType": "string",
          "name": "_settingPath",
          "type": "string"
        }
      ],
      "name": "getSettingAddress",
      "outputs": [
        {
          "internalType": "address",
          "name": "",
          "type": "address"
        }
      ],
      "stateMutability": "view",
      "type": "function"
    },
    {
      "inputs": [
        {
          "internalType": "bytes32",
          "name": "settingNameSpace",
          "type": "bytes32"
        },
        {
          "internalType": "string",
          "name": "_settingPath",
          "type": "string"
        }
      ],
      "name": "getSettingBool",
      "outputs": [
        {
          "internalType": "bool",
          "name": "",
          "type": "bool"
        }
      ],
      "stateMutability": "view",
      "type": "function"
    },
    {
      "inputs": [
        {
          "internalType": "bytes32",
          "name": "settingNameSpace",
          "type": "bytes32"
        },
        {
          "internalType": "string",
          "name": "_settingPath",
          "type": "string"
        }
      ],
      "name": "getSettingUint",
      "outputs": [
        {
          "internalType": "uint256",
          "name": "",
          "type": "uint256"
        }
      ],
      "stateMutability": "view",
      "type": "function"
    },
    {
      "inputs": [],
      "name": "ggp",
      "outputs": [
        {
          "internalType": "contract ERC20",
          "name": "",
          "type": "address"
        }
      ],
      "stateMutability": "view",
      "type": "function"
    },
    {
      "inputs": [
        {
          "internalType": "address",
          "name": "ownerAddress",
          "type": "address"
        },
        {
          "internalType": "uint256",
          "name": "rewardsStartTime",
          "type": "uint256"
        }
      ],
      "name": "isEligible",
      "outputs": [
        {
          "internalType": "bool",
          "name": "",
          "type": "bool"
        }
      ],
      "stateMutability": "view",
      "type": "function"
    },
    {
      "inputs": [
        {
          "internalType": "uint256",
          "name": "amount",
          "type": "uint256"
        }
      ],
      "name": "setRewardsCycleTotal",
      "outputs": [],
      "stateMutability": "nonpayable",
      "type": "function"
    },
    {
      "inputs": [],
      "name": "version",
      "outputs": [
        {
          "internalType": "uint8",
          "name": "",
          "type": "uint8"
        }
      ],
      "stateMutability": "view",
      "type": "function"
    }
  ],
  "bytecode": "0x60a060405234801561001057600080fd5b50604051610f00380380610f0083398101604081905261002f91610079565b6000805460ff196001600160a01b0394851661010002166001600160a81b0319909116176001179055166080526100b3565b6001600160a01b038116811461007657600080fd5b50565b6000806040838503121561008c57600080fd5b825161009781610061565b60208401519092506100a881610061565b809150509250929050565b608051610e1d6100e3600039600081816101aa015281816104c40152818161055301526106410152610e1d6000f3fe608060405234801561001057600080fd5b50600436106100b45760003560e01c8063c7379d4711610071578063c7379d4714610156578063cff0b6481461016c578063d80a84341461017f578063ec23112f14610192578063f321df49146101a5578063f4d70e78146101cc57600080fd5b806306eaa68b146100b9578063158d16cb146100e957806318de0afd146100fe578063232de7161461011157806354fd4d501461012457806399fe6aa314610143575b600080fd5b6100cc6100c7366004610bf1565b6101df565b6040516001600160a01b0390911681526020015b60405180910390f35b6100fc6100f7366004610c4d565b61021b565b005b60015b60405190151581526020016100e0565b61010161011f366004610bf1565b61035a565b6000546101319060ff1681565b60405160ff90911681526020016100e0565b6100fc610151366004610c79565b61038d565b61015e610748565b6040519081526020016100e0565b6100cc61017a366004610c92565b610778565b61010161018d366004610c4d565b6107e0565b6100fc6101a0366004610c79565b6108e2565b6100cc7f000000000000000000000000000000000000000000000000000000000000000081565b61015e6101da366004610bf1565b61090f565b600061021283836040516020016101f7929190610d0a565b60405160208183030381529060405280519060200120610942565b90505b92915050565b6000610245604051806040016040528060078152602001665374616b696e6760c81b815250610778565b604051632208c5a760e21b81526001600160a01b038581166004830152919250600091831690638823169c90602401602060405180830381865afa158015610291573d6000803e3d6000fd5b505050506040513d601f19601f820116820180604052508101906102b59190610d1c565b9050826000036102c55750505050565b60006102d182856109b4565b905060006102dd610748565b905060006102eb83836109c9565b604051637e43de1b60e11b81526001600160a01b038981166004830152602482018390529192509086169063fc87bc3690604401600060405180830381600087803b15801561033957600080fd5b505af115801561034d573d6000803e3d6000fd5b5050505050505050505050565b60006102128383604051602001610372929190610d0a565b604051602081830303815290604052805190602001206109de565b60006103b7604051806040016040528060078152602001665374616b696e6760c81b815250610778565b905060006103e16040518060400160405280600581526020016415985d5b1d60da1b815250610778565b60405163e60716d760e01b81523360048201529091506000906001600160a01b0384169063e60716d790602401602060405180830381865afa15801561042b573d6000803e3d6000fd5b505050506040513d601f19601f8201168201806040525081019061044f9190610d1c565b905080600003610472576040516373380d9960e01b815260040160405180910390fd5b808411156104935760405163162908e360e11b815260040160405180910390fd5b600061049f8583610d35565b90508015610624576040516301e3366760e01b81523060048201526001600160a01b037f000000000000000000000000000000000000000000000000000000000000000081166024830152604482018390528416906301e3366790606401600060405180830381600087803b15801561051757600080fd5b505af115801561052b573d6000803e3d6000fd5b505060405163095ea7b360e01b81526001600160a01b038781166004830152602482018590527f000000000000000000000000000000000000000000000000000000000000000016925063095ea7b391506044016020604051808303816000875af115801561059e573d6000803e3d6000fd5b505050506040513d601f19601f820116820180604052508101906105c29190610d5a565b5060405163099c108f60e31b8152336004820152602481018290526001600160a01b03851690634ce0847890604401600060405180830381600087803b15801561060b57600080fd5b505af115801561061f573d6000803e3d6000fd5b505050505b6040516301e3366760e01b81523360048201526001600160a01b037f000000000000000000000000000000000000000000000000000000000000000081166024830152604482018790528416906301e3366790606401600060405180830381600087803b15801561069457600080fd5b505af11580156106a8573d6000803e3d6000fd5b5050604051632c9a3b8560e21b8152336004820152602481018590526001600160a01b038716925063b268ee149150604401600060405180830381600087803b1580156106f457600080fd5b505af1158015610708573d6000803e3d6000fd5b50506040518781523392507fe6efee8958feb2079af9a7a1df26a6fae99525397bebfc3f64a4b7c3b41984d1915060200160405180910390a25050505050565b60006107737f2e4737f51e5002c02708b962d16173f38d35bd7d1a476e012252577bedf5cc6b610a50565b905090565b60008061078f836040516020016101f79190610d83565b90506001600160a01b0381166102155760405162461bcd60e51b815260206004820152601260248201527110dbdb9d1c9858dd081b9bdd08199bdd5b9960721b604482015260640160405180910390fd5b60008061080b604051806040016040528060078152602001665374616b696e6760c81b815250610778565b6040516376aa7f9160e11b81526001600160a01b03868116600483015291925067016345785d8a00009183169063ed54ff2290602401602060405180830381865afa15801561085e573d6000803e3d6000fd5b505050506040513d601f19601f820116820180604052508101906108829190610d1c565b1015610892576000915050610215565b60006018603c806108a38742610d35565b6108ad9190610da8565b6108b79190610da8565b6108c19190610da8565b9050601c8110156108d757600092505050610215565b506001949350505050565b61090c7f2e4737f51e5002c02708b962d16173f38d35bd7d1a476e012252577bedf5cc6b82610ac2565b50565b60006102128383604051602001610927929190610d0a565b60405160208183030381529060405280519060200120610a50565b600080546040516321f8a72160e01b8152600481018490526101009091046001600160a01b0316906321f8a72190602401602060405180830381865afa158015610990573d6000803e3d6000fd5b505050506040513d601f19601f820116820180604052508101906102159190610dca565b600061021283670de0b6b3a764000084610b2f565b60006102128383670de0b6b3a7640000610b2f565b60008054604051633d70e7e560e11b8152600481018490526101009091046001600160a01b031690637ae1cfca90602401602060405180830381865afa158015610a2c573d6000803e3d6000fd5b505050506040513d601f19601f820116820180604052508101906102159190610d5a565b6000805460405163bd02d0f560e01b8152600481018490526101009091046001600160a01b03169063bd02d0f590602401602060405180830381865afa158015610a9e573d6000803e3d6000fd5b505050506040513d601f19601f820116820180604052508101906102159190610d1c565b600054604051637152429d60e11b815260048101849052602481018390526101009091046001600160a01b03169063e2a4853a90604401600060405180830381600087803b158015610b1357600080fd5b505af1158015610b27573d6000803e3d6000fd5b505050505050565b828202811515841585830485141716610b4757600080fd5b0492915050565b634e487b7160e01b600052604160045260246000fd5b600082601f830112610b7557600080fd5b813567ffffffffffffffff80821115610b9057610b90610b4e565b604051601f8301601f19908116603f01168101908282118183101715610bb857610bb8610b4e565b81604052838152866020858801011115610bd157600080fd5b836020870160208301376000602085830101528094505050505092915050565b60008060408385031215610c0457600080fd5b82359150602083013567ffffffffffffffff811115610c2257600080fd5b610c2e85828601610b64565b9150509250929050565b6001600160a01b038116811461090c57600080fd5b60008060408385031215610c6057600080fd5b8235610c6b81610c38565b946020939093013593505050565b600060208284031215610c8b57600080fd5b5035919050565b600060208284031215610ca457600080fd5b813567ffffffffffffffff811115610cbb57600080fd5b610cc784828501610b64565b949350505050565b6000815160005b81811015610cf05760208185018101518683015201610cd6565b81811115610cff576000828601525b509290920192915050565b8281526000610cc76020830184610ccf565b600060208284031215610d2e57600080fd5b5051919050565b600082821015610d5557634e487b7160e01b600052601160045260246000fd5b500390565b600060208284031215610d6c57600080fd5b81518015158114610d7c57600080fd5b9392505050565b6f636f6e74726163742e6164647265737360801b815260006102126010830184610ccf565b600082610dc557634e487b7160e01b600052601260045260246000fd5b500490565b600060208284031215610ddc57600080fd5b8151610d7c81610c3856fea26469706673582212202262e49cab4b69af4012c2559aa9aaa36861c64939855bf5231eb39e190f2cdc64736f6c634300080d0033",
  "linkReferences": {},
  "deployedLinkReferences": {}
}