{
  "_format": "hh-sol-artifact-1",
  "contractName": "Oracle",
  "sourceName": "contracts/contract/Oracle.sol",
  "abi": [
    {
      "inputs": [
        {
          "internalType": "contract Storage",
          "name": "storageAddress",
          "type": "address"
        }
      ],
      "stateMutability": "nonpayable",
      "type": "constructor"
    },
    {
      "inputs": [],
      "name": "ContractNotFound",
      "type": "error"
    },
    {
      "inputs": [],
      "name": "ContractPaused",
      "type": "error"
    },
    {
      "inputs": [],
      "name": "InvalidGGPPrice",
      "type": "error"
    },
    {
      "inputs": [],
      "name": "InvalidOrOutdatedContract",
      "type": "error"
    },
    {
      "inputs": [],
      "name": "InvalidTimestamp",
      "type": "error"
    },
    {
      "inputs": [],
      "name": "MustBeGuardian",
      "type": "error"
    },
    {
      "inputs": [],
      "name": "MustBeGuardianOrValidContract",
      "type": "error"
    },
    {
      "inputs": [],
      "name": "MustBeMultisig",
      "type": "error"
    },
    {
      "anonymous": false,
      "inputs": [
        {
          "indexed": true,
          "internalType": "uint256",
          "name": "price",
          "type": "uint256"
        },
        {
          "indexed": false,
          "internalType": "uint256",
          "name": "timestamp",
          "type": "uint256"
        }
      ],
      "name": "GGPPriceUpdated",
      "type": "event"
    },
    {
      "inputs": [],
      "name": "getGGPPriceInAVAX",
      "outputs": [
        {
          "internalType": "uint256",
          "name": "price",
          "type": "uint256"
        },
        {
          "internalType": "uint256",
          "name": "timestamp",
          "type": "uint256"
        }
      ],
      "stateMutability": "view",
      "type": "function"
    },
    {
      "inputs": [],
      "name": "getGGPPriceInAVAXFromOneInch",
      "outputs": [
        {
          "internalType": "uint256",
          "name": "price",
          "type": "uint256"
        },
        {
          "internalType": "uint256",
          "name": "timestamp",
          "type": "uint256"
        }
      ],
      "stateMutability": "view",
      "type": "function"
    },
    {
      "inputs": [
        {
          "internalType": "uint256",
          "name": "price",
          "type": "uint256"
        },
        {
          "internalType": "uint256",
          "name": "timestamp",
          "type": "uint256"
        }
      ],
      "name": "setGGPPriceInAVAX",
      "outputs": [],
      "stateMutability": "nonpayable",
      "type": "function"
    },
    {
      "inputs": [
        {
          "internalType": "address",
          "name": "addr",
          "type": "address"
        }
      ],
      "name": "setOneInch",
      "outputs": [],
      "stateMutability": "nonpayable",
      "type": "function"
    },
    {
      "inputs": [],
      "name": "version",
      "outputs": [
        {
          "internalType": "uint8",
          "name": "",
          "type": "uint8"
        }
      ],
      "stateMutability": "view",
      "type": "function"
    }
  ],
  "bytecode": "0x608060405234801561001057600080fd5b50604051610c36380380610c3683398101604081905261002f91610063565b6000805460ff196001600160a01b0390931661010002929092166001600160a81b0319909216919091176001179055610093565b60006020828403121561007557600080fd5b81516001600160a01b038116811461008c57600080fd5b9392505050565b610b94806100a26000396000f3fe608060405234801561001057600080fd5b50600436106100675760003560e01c806378e865fe1161005057806378e865fe146100ad57806387da925e146100b5578063a41bfc6a146100ca57600080fd5b80634c97e7851461006c57806354fd4d501461008e575b600080fd5b6100746100dd565b604080519283526020830191909152015b60405180910390f35b60005461009b9060ff1681565b60405160ff9091168152602001610085565b6100746101f2565b6100c86100c33660046109f8565b610289565b005b6100c86100d8366004610a3c565b6105a9565b60008060006101206040518060400160405280600881526020017f546f6b656e4747500000000000000000000000000000000000000000000000008152506106cb565b9050600061014d7f3a1620b6638f780c9d5a34495d2cc9fff1828c35be893d0cdd29181d7debae0f610737565b6040517f7de4fd1000000000000000000000000000000000000000000000000000000000815273ffffffffffffffffffffffffffffffffffffffff84811660048301526000602483015291925090821690637de4fd1090604401602060405180830381865afa1580156101c4573d6000803e3d6000fd5b505050506040513d601f19601f820116820180604052508101906101e89190610a60565b9442945092505050565b60008061021e7f1a7a1ff7432da28733fdda3068a4b9ac70b730f67dc525ae34af6c0792792e786107cf565b91508160000361025a576040517fbb1c982c00000000000000000000000000000000000000000000000000000000815260040160405180910390fd5b6102837f49099c2210f292567f0f5b36af264da7aec7ad4a1bd67c2b8c0724d2a3086bbf6107cf565b90509091565b6040517f6d756c74697369672e696e64657800000000000000000000000000000000000060208201527fffffffffffffffffffffffffffffffffffffffff0000000000000000000000003360601b16602e82015260009060019061030590604201604051602081830303815290604052805190602001206107cf565b61030f9190610a79565b6040517f6d756c74697369672e6974656d000000000000000000000000000000000000006020820152602d81018290527f2e61646472657373000000000000000000000000000000000000000000000000604d82015290915060009061038e906055015b60405160208183030381529060405280519060200120610737565b9050600073ffffffffffffffffffffffffffffffffffffffff82161580159061042a57506040517f6d756c74697369672e6974656d000000000000000000000000000000000000006020820152602d81018490527f2e656e61626c6564000000000000000000000000000000000000000000000000604d82015261042a9060550160405160208183030381529060405280519060200120610867565b9050801515600003610468576040517f834baa5d00000000000000000000000000000000000000000000000000000000815260040160405180910390fd5b60006104937f49099c2210f292567f0f5b36af264da7aec7ad4a1bd67c2b8c0724d2a3086bbf6107cf565b9050808510806104a257504285115b156104d9576040517fb7d0949700000000000000000000000000000000000000000000000000000000815260040160405180910390fd5b85600003610513576040517fbb1c982c00000000000000000000000000000000000000000000000000000000815260040160405180910390fd5b61053d7f1a7a1ff7432da28733fdda3068a4b9ac70b730f67dc525ae34af6c0792792e78876108ff565b6105677f49099c2210f292567f0f5b36af264da7aec7ad4a1bd67c2b8c0724d2a3086bbf866108ff565b857f1826f74860bd5ff97bcab2245acae00a635acaa3dbc72e5c68b83ff34b1fac008660405161059991815260200190565b60405180910390a2505050505050565b600060019054906101000a900473ffffffffffffffffffffffffffffffffffffffff1673ffffffffffffffffffffffffffffffffffffffff1663a75b87d26040518163ffffffff1660e01b8152600401602060405180830381865afa158015610616573d6000803e3d6000fd5b505050506040513d601f19601f8201168201806040525081019061063a9190610ac7565b73ffffffffffffffffffffffffffffffffffffffff163373ffffffffffffffffffffffffffffffffffffffff161461069e576040517f0da3c81800000000000000000000000000000000000000000000000000000000815260040160405180910390fd5b6106c87f3a1620b6638f780c9d5a34495d2cc9fff1828c35be893d0cdd29181d7debae0f82610993565b50565b6000806106e2836040516020016103739190610ae4565b905073ffffffffffffffffffffffffffffffffffffffff8116610731576040517fed59262400000000000000000000000000000000000000000000000000000000815260040160405180910390fd5b92915050565b600080546040517f21f8a7210000000000000000000000000000000000000000000000000000000081526004810184905261010090910473ffffffffffffffffffffffffffffffffffffffff16906321f8a72190602401602060405180830381865afa1580156107ab573d6000803e3d6000fd5b505050506040513d601f19601f820116820180604052508101906107319190610ac7565b600080546040517fbd02d0f50000000000000000000000000000000000000000000000000000000081526004810184905261010090910473ffffffffffffffffffffffffffffffffffffffff169063bd02d0f590602401602060405180830381865afa158015610843573d6000803e3d6000fd5b505050506040513d601f19601f820116820180604052508101906107319190610a60565b600080546040517f7ae1cfca0000000000000000000000000000000000000000000000000000000081526004810184905261010090910473ffffffffffffffffffffffffffffffffffffffff1690637ae1cfca90602401602060405180830381865afa1580156108db573d6000803e3d6000fd5b505050506040513d601f19601f820116820180604052508101906107319190610b3c565b6000546040517fe2a4853a000000000000000000000000000000000000000000000000000000008152600481018490526024810183905261010090910473ffffffffffffffffffffffffffffffffffffffff169063e2a4853a906044015b600060405180830381600087803b15801561097757600080fd5b505af115801561098b573d6000803e3d6000fd5b505050505050565b6000546040517fca446dd90000000000000000000000000000000000000000000000000000000081526004810184905273ffffffffffffffffffffffffffffffffffffffff83811660248301526101009092049091169063ca446dd99060440161095d565b60008060408385031215610a0b57600080fd5b50508035926020909101359150565b73ffffffffffffffffffffffffffffffffffffffff811681146106c857600080fd5b600060208284031215610a4e57600080fd5b8135610a5981610a1a565b9392505050565b600060208284031215610a7257600080fd5b5051919050565b8181036000831280158383131683831282161715610ac0577f4e487b7100000000000000000000000000000000000000000000000000000000600052601160045260246000fd5b5092915050565b600060208284031215610ad957600080fd5b8151610a5981610a1a565b7f636f6e74726163742e616464726573730000000000000000000000000000000081526000825160005b81811015610b2b5760208186018101516010868401015201610b0e565b506000920160100191825250919050565b600060208284031215610b4e57600080fd5b81518015158114610a5957600080fdfea2646970667358221220bfff0b4d16dd7dfaf99e822deaa87d4fe64c9981d0d908ad073ae98356b83cf664736f6c63430008110033",
  "linkReferences": {},
  "deployedLinkReferences": {}
}