{
  "_format": "hh-sol-artifact-1",
  "contractName": "RewardsPool",
  "sourceName": "contracts/contract/RewardsPool.sol",
  "abi": [
    {
      "inputs": [
        {
          "internalType": "contract Storage",
          "name": "storageAddress",
          "type": "address"
        }
      ],
      "stateMutability": "nonpayable",
      "type": "constructor"
    },
    {
      "inputs": [],
      "name": "ContractHasNotBeenInitialized",
      "type": "error"
    },
    {
      "inputs": [],
      "name": "ContractNotFound",
      "type": "error"
    },
    {
      "inputs": [],
      "name": "ContractPaused",
      "type": "error"
    },
    {
      "inputs": [],
      "name": "IncorrectRewardsDistribution",
      "type": "error"
    },
    {
      "inputs": [],
      "name": "InvalidOrOutdatedContract",
      "type": "error"
    },
    {
      "inputs": [],
      "name": "MaximumTokensReached",
      "type": "error"
    },
    {
      "inputs": [],
      "name": "MustBeGuardian",
      "type": "error"
    },
    {
      "inputs": [],
      "name": "MustBeGuardianOrValidContract",
      "type": "error"
    },
    {
      "inputs": [],
      "name": "MustBeMultisig",
      "type": "error"
    },
    {
      "inputs": [],
      "name": "UnableToStartRewardsCycle",
      "type": "error"
    },
    {
      "anonymous": false,
      "inputs": [
        {
          "indexed": false,
          "internalType": "uint256",
          "name": "value",
          "type": "uint256"
        }
      ],
      "name": "ClaimNodeOpRewardsTransfered",
      "type": "event"
    },
    {
      "anonymous": false,
      "inputs": [
        {
          "indexed": false,
          "internalType": "uint256",
          "name": "newTokens",
          "type": "uint256"
        }
      ],
      "name": "GGPInflated",
      "type": "event"
    },
    {
      "anonymous": false,
      "inputs": [
        {
          "indexed": false,
          "internalType": "uint256",
          "name": "value",
          "type": "uint256"
        }
      ],
      "name": "MultisigRewardsTransfered",
      "type": "event"
    },
    {
      "anonymous": false,
      "inputs": [
        {
          "indexed": false,
          "internalType": "uint256",
          "name": "totalRewardsAmt",
          "type": "uint256"
        }
      ],
      "name": "NewRewardsCycleStarted",
      "type": "event"
    },
    {
      "anonymous": false,
      "inputs": [
        {
          "indexed": false,
          "internalType": "uint256",
          "name": "value",
          "type": "uint256"
        }
      ],
      "name": "ProtocolDAORewardsTransfered",
      "type": "event"
    },
    {
      "inputs": [],
      "name": "canStartRewardsCycle",
      "outputs": [
        {
          "internalType": "bool",
          "name": "",
          "type": "bool"
        }
      ],
      "stateMutability": "view",
      "type": "function"
    },
    {
      "inputs": [
        {
          "internalType": "string",
          "name": "claimingContract",
          "type": "string"
        }
      ],
      "name": "getClaimingContractDistribution",
      "outputs": [
        {
          "internalType": "uint256",
          "name": "",
          "type": "uint256"
        }
      ],
      "stateMutability": "view",
      "type": "function"
    },
    {
      "inputs": [],
      "name": "getInflationAmt",
      "outputs": [
        {
          "internalType": "uint256",
          "name": "currentTotalSupply",
          "type": "uint256"
        },
        {
          "internalType": "uint256",
          "name": "newTotalSupply",
          "type": "uint256"
        }
      ],
      "stateMutability": "view",
      "type": "function"
    },
    {
      "inputs": [],
      "name": "getInflationIntervalStartTime",
      "outputs": [
        {
          "internalType": "uint256",
          "name": "",
          "type": "uint256"
        }
      ],
      "stateMutability": "view",
      "type": "function"
    },
    {
      "inputs": [],
      "name": "getInflationIntervalsElapsed",
      "outputs": [
        {
          "internalType": "uint256",
          "name": "",
          "type": "uint256"
        }
      ],
      "stateMutability": "view",
      "type": "function"
    },
    {
      "inputs": [],
      "name": "getRewardsCycleCount",
      "outputs": [
        {
          "internalType": "uint256",
          "name": "",
          "type": "uint256"
        }
      ],
      "stateMutability": "view",
      "type": "function"
    },
    {
      "inputs": [],
      "name": "getRewardsCycleStartTime",
      "outputs": [
        {
          "internalType": "uint256",
          "name": "",
          "type": "uint256"
        }
      ],
      "stateMutability": "view",
      "type": "function"
    },
    {
      "inputs": [],
      "name": "getRewardsCycleTotalAmt",
      "outputs": [
        {
          "internalType": "uint256",
          "name": "",
          "type": "uint256"
        }
      ],
      "stateMutability": "view",
      "type": "function"
    },
    {
      "inputs": [],
      "name": "getRewardsCyclesElapsed",
      "outputs": [
        {
          "internalType": "uint256",
          "name": "",
          "type": "uint256"
        }
      ],
      "stateMutability": "view",
      "type": "function"
    },
    {
      "inputs": [],
      "name": "initialize",
      "outputs": [],
      "stateMutability": "nonpayable",
      "type": "function"
    },
    {
      "inputs": [],
      "name": "startRewardsCycle",
      "outputs": [],
      "stateMutability": "nonpayable",
      "type": "function"
    },
    {
      "inputs": [],
      "name": "version",
      "outputs": [
        {
          "internalType": "uint8",
          "name": "",
          "type": "uint8"
        }
      ],
      "stateMutability": "view",
      "type": "function"
    }
  ],
  "bytecode": "0x608060405234801561001057600080fd5b50604051611f6b380380611f6b83398101604081905261002f91610063565b6000805460ff196001600160a01b0390931661010002929092166001600160a81b0319909216919091176001179055610093565b60006020828403121561007557600080fd5b81516001600160a01b038116811461008c57600080fd5b9392505050565b611ec9806100a26000396000f3fe608060405234801561001057600080fd5b50600436106100d45760003560e01c806370efa96011610081578063bdbe25441161005b578063bdbe254414610172578063c32d0f721461017a578063ebf031501461018d57600080fd5b806370efa9601461015a578063726f564b146101625780638129fc1c1461016a57600080fd5b806355cc1aaa116100b257806355cc1aaa1461011d578063595c5e6d146101255780636155e7ee1461014257600080fd5b80630534f6db146100d957806332c1ee69146100f457806354fd4d50146100fe575b600080fd5b6100e1610195565b6040519081526020015b60405180910390f35b6100fc6101c5565b005b60005461010b9060ff1681565b60405160ff90911681526020016100eb565b6100e1610785565b61012d61085e565b604080519283526020830191909152016100eb565b61014a610a0a565b60405190151581526020016100eb565b6100e1610a95565b6100e1610ac0565b6100fc610aeb565b6100e1610c8e565b6100e1610188366004611af4565b610d62565b6100e1610e5b565b60006101c07f3e8e4a349aca7a6bad14cdd8f05a213c333a7b768bb3a2a568016709f1597f73610e82565b905090565b60006101d030610f20565b9050610201816040516020016101e69190611b98565b60405160208183030381529060405280519060200120610fe1565b15610238576040517fab35696f00000000000000000000000000000000000000000000000000000000815260040160405180910390fd5b610240610a0a565b610276576040517f124f457200000000000000000000000000000000000000000000000000000000815260040160405180910390fd5b7f6b1d3dc5fce42913ead941789ebaa30a3b9d2f7d03eb1b72664ef963af99a4c861029f610e5b565b60405190815260200160405180910390a16102da7ff0b5c6b0de0a06397ccf32c061cd584eb88d549ccf0549c05d0472bffc5743d242611079565b6102e2611105565b6102ea611130565b600061032a6040518060400160405280600d81526020017f436c61696d4d756c746973696700000000000000000000000000000000000000815250610d62565b9050600061036c6040518060400160405280600b81526020017f436c61696d4e6f64654f70000000000000000000000000000000000000000000815250610d62565b905060006103ae6040518060400160405280601081526020017f436c61696d50726f746f636f6c44414f00000000000000000000000000000000815250610d62565b90506103b8610e5b565b836103c38484611c0c565b6103cd9190611c0c565b1115610405576040517f7643787000000000000000000000000000000000000000000000000000000000815260040160405180910390fd5b60006104456040518060400160405280600881526020017f546f6b656e4747500000000000000000000000000000000000000000000000008152506113a6565b905060006104876040518060400160405280600581526020017f5661756c740000000000000000000000000000000000000000000000000000008152506113a6565b9050821561057f576040518381527f08839a63ce86957af0da1fd5b80ebfffeeb19d123ab6709e765ccae050041b109060200160405180910390a16040517fee91035e00000000000000000000000000000000000000000000000000000000815260606004820152601060648201527f436c61696d50726f746f636f6c44414f00000000000000000000000000000000608482015273ffffffffffffffffffffffffffffffffffffffff83811660248301526044820185905282169063ee91035e9060a401600060405180830381600087803b15801561056657600080fd5b505af115801561057a573d6000803e3d6000fd5b505050505b84156105c3576040518581527f4ba1f2e39112a385799cf2930c126e8ecc5739d3f5bc18820eb507ce00dbce039060200160405180910390a16105c3858284611427565b831561077d576040518481527eb0817438480d59ea3ee7112c939a444defadd8ec1a606bb4c729fc52b7ea349060200160405180910390a1600061063b6040518060400160405280600b81526020017f436c61696d4e6f64654f700000000000000000000000000000000000000000008152506113a6565b6040517fec23112f0000000000000000000000000000000000000000000000000000000081526004810187905290915073ffffffffffffffffffffffffffffffffffffffff82169063ec23112f90602401600060405180830381600087803b1580156106a657600080fd5b505af11580156106ba573d6000803e3d6000fd5b50506040517fee91035e00000000000000000000000000000000000000000000000000000000815260606004820152600b60648201527f436c61696d4e6f64654f70000000000000000000000000000000000000000000608482015273ffffffffffffffffffffffffffffffffffffffff8681166024830152604482018990528516925063ee91035e915060a4015b600060405180830381600087803b15801561076357600080fd5b505af1158015610777573d6000803e3d6000fd5b50505050505b505050505050565b6000806107c66040518060400160405280600b81526020017f50726f746f636f6c44414f0000000000000000000000000000000000000000008152506113a6565b905060006107d2610ac0565b90508173ffffffffffffffffffffffffffffffffffffffff1663ea2a18476040518163ffffffff1660e01b8152600401602060405180830381865afa15801561081f573d6000803e3d6000fd5b505050506040513d601f19601f820116820180604052508101906108439190611c1f565b61084d8242611c38565b6108579190611c4b565b9250505090565b60008060006108a16040518060400160405280600881526020017f546f6b656e4747500000000000000000000000000000000000000000000000008152506113a6565b905060006108e36040518060400160405280600b81526020017f50726f746f636f6c44414f0000000000000000000000000000000000000000008152506113a6565b905060008173ffffffffffffffffffffffffffffffffffffffff1663ee96d7746040518163ffffffff1660e01b8152600401602060405180830381865afa158015610932573d6000803e3d6000fd5b505050506040513d601f19601f820116820180604052508101906109569190611c1f565b90506000610962610c8e565b90508373ffffffffffffffffffffffffffffffffffffffff166318160ddd6040518163ffffffff1660e01b8152600401602060405180830381865afa1580156109af573d6000803e3d6000fd5b505050506040513d601f19601f820116820180604052508101906109d39190611c1f565b955085945060005b81811015610a01576109ed86846117c0565b9550806109f981611c86565b9150506109db565b50505050509091565b6000610a686040516020016101e6907f636f6e74726163742e706175736564000000000000000000000000000000000081527f52657761726473506f6f6c000000000000000000000000000000000000000000600f820152601a0190565b15610a735750600090565b6000610a7d610785565b1180156101c057506000610a8f610c8e565b11905090565b60006101c07f970ff1d1a2692e08f9699f405d0d71e4af851d446f0350616504376868e78c8d610e82565b60006101c07ff0b5c6b0de0a06397ccf32c061cd584eb88d549ccf0549c05d0472bffc5743d2610e82565b600060019054906101000a900473ffffffffffffffffffffffffffffffffffffffff1673ffffffffffffffffffffffffffffffffffffffff1663a75b87d26040518163ffffffff1660e01b8152600401602060405180830381865afa158015610b58573d6000803e3d6000fd5b505050506040513d601f19601f82011682018060405250810190610b7c9190611ce7565b73ffffffffffffffffffffffffffffffffffffffff163373ffffffffffffffffffffffffffffffffffffffff1614610be0576040517f0da3c81800000000000000000000000000000000000000000000000000000000815260040160405180910390fd5b610c097f09dc9a36b6ce8445c4613f62ba60e09d4f1c036117216ea5a1bae116b7ace19d610fe1565b610c8c57610c387f09dc9a36b6ce8445c4613f62ba60e09d4f1c036117216ea5a1bae116b7ace19d60016117dc565b610c627ff0b5c6b0de0a06397ccf32c061cd584eb88d549ccf0549c05d0472bffc5743d242611079565b610c8c7f3e8e4a349aca7a6bad14cdd8f05a213c333a7b768bb3a2a568016709f1597f7342611079565b565b600080610ccf6040518060400160405280600b81526020017f50726f746f636f6c44414f0000000000000000000000000000000000000000008152506113a6565b90506000610cdb610195565b905080600003610d17576040517f16639e1e00000000000000000000000000000000000000000000000000000000815260040160405180910390fd5b8173ffffffffffffffffffffffffffffffffffffffff1663b7b1ea346040518163ffffffff1660e01b8152600401602060405180830381865afa15801561081f573d6000803e3d6000fd5b600080610da36040518060400160405280600b81526020017f50726f746f636f6c44414f0000000000000000000000000000000000000000008152506113a6565b905060008173ffffffffffffffffffffffffffffffffffffffff1663f8cafbed856040518263ffffffff1660e01b8152600401610de09190611d02565b602060405180830381865afa158015610dfd573d6000803e3d6000fd5b505050506040513d601f19601f82011682018060405250810190610e219190611c1f565b90506000610e2d610e5b565b905060008083118015610e405750600082115b15610e5257610e4f83836117c0565b90505b95945050505050565b60006101c07f110a7b8b7aff2202e11eca9d5fb72d3e2ce8bb321d0ff74574c2dbbad465ff215b600080546040517fbd02d0f50000000000000000000000000000000000000000000000000000000081526004810184905261010090910473ffffffffffffffffffffffffffffffffffffffff169063bd02d0f590602401602060405180830381865afa158015610ef6573d6000803e3d6000fd5b505050506040513d601f19601f82011682018060405250810190610f1a9190611c1f565b92915050565b60606000610fa483604051602001610f8991907f636f6e74726163742e6e616d6500000000000000000000000000000000000000815260609190911b7fffffffffffffffffffffffffffffffffffffffff00000000000000000000000016600d82015260210190565b6040516020818303038152906040528051906020012061183f565b90508051600003610f1a576040517fed59262400000000000000000000000000000000000000000000000000000000815260040160405180910390fd5b600080546040517f7ae1cfca0000000000000000000000000000000000000000000000000000000081526004810184905261010090910473ffffffffffffffffffffffffffffffffffffffff1690637ae1cfca90602401602060405180830381865afa158015611055573d6000803e3d6000fd5b505050506040513d601f19601f82011682018060405250810190610f1a9190611d63565b6000546040517fe2a4853a000000000000000000000000000000000000000000000000000000008152600481018490526024810183905261010090910473ffffffffffffffffffffffffffffffffffffffff169063e2a4853a906044015b600060405180830381600087803b1580156110f157600080fd5b505af115801561077d573d6000803e3d6000fd5b610c8c7f970ff1d1a2692e08f9699f405d0d71e4af851d446f0350616504376868e78c8d60016118fa565b600061113a610195565b6111449042611c38565b905060008061115161085e565b9150915060006111956040518060400160405280600881526020017f546f6b656e4747500000000000000000000000000000000000000000000000008152506113a6565b905060006111a38484611c38565b90508173ffffffffffffffffffffffffffffffffffffffff166332cb6b0c6040518163ffffffff1660e01b8152600401602060405180830381865afa1580156111f0573d6000803e3d6000fd5b505050506040513d601f19601f820116820180604052508101906112149190611c1f565b83111561129857838273ffffffffffffffffffffffffffffffffffffffff166332cb6b0c6040518163ffffffff1660e01b8152600401602060405180830381865afa158015611267573d6000803e3d6000fd5b505050506040513d601f19601f8201168201806040525081019061128b9190611c1f565b6112959190611c38565b90505b6040518181527fd3b0dc36c37f40ce88b39c8022936d7b39a19dc6ea4df881918f531d843d853e9060200160405180910390a16040517fa0712d680000000000000000000000000000000000000000000000000000000081526004810182905273ffffffffffffffffffffffffffffffffffffffff83169063a0712d6890602401600060405180830381600087803b15801561133357600080fd5b505af1158015611347573d6000803e3d6000fd5b505050506113757f3e8e4a349aca7a6bad14cdd8f05a213c333a7b768bb3a2a568016709f1597f73866118fa565b61139f7f110a7b8b7aff2202e11eca9d5fb72d3e2ce8bb321d0ff74574c2dbbad465ff2182611079565b5050505050565b6000806113d8836040516020016113bd9190611d7e565b6040516020818303038152906040528051906020012061195c565b905073ffffffffffffffffffffffffffffffffffffffff8116610f1a576040517fed59262400000000000000000000000000000000000000000000000000000000815260040160405180910390fd5b60006114676040518060400160405280600f81526020017f4d756c74697369674d616e6167657200000000000000000000000000000000008152506113a6565b90506000808273ffffffffffffffffffffffffffffffffffffffff1663a87d942c6040518163ffffffff1660e01b8152600401602060405180830381865afa1580156114b7573d6000803e3d6000fd5b505050506040513d601f19601f820116820180604052508101906114db9190611c1f565b905060008167ffffffffffffffff8111156114f8576114f8611a30565b604051908082528060200260200182016040528015611521578160200160208202803683370190505b50905060005b82811015611627576040517fdd1d4c8300000000000000000000000000000000000000000000000000000000815260048101829052600090819073ffffffffffffffffffffffffffffffffffffffff88169063dd1d4c83906024016040805180830381865afa15801561159e573d6000803e3d6000fd5b505050506040513d601f19601f820116820180604052508101906115c29190611dc3565b91509150801561161257818487815181106115df576115df611df6565b73ffffffffffffffffffffffffffffffffffffffff909216602092830291909101909101528561160e81611c86565b9650505b5050808061161f90611c86565b915050611527565b50826000036116bf576040517fee91035e00000000000000000000000000000000000000000000000000000000815260606004820152600f60648201527f4d756c74697369674d616e616765720000000000000000000000000000000000608482015273ffffffffffffffffffffffffffffffffffffffff86811660248301526044820189905287169063ee91035e9060a401610749565b82815260006116ce8489611c4b565b905060005b82518110156117b5578773ffffffffffffffffffffffffffffffffffffffff166301e3366784838151811061170a5761170a611df6565b60209081029190910101516040517fffffffff0000000000000000000000000000000000000000000000000000000060e084901b16815273ffffffffffffffffffffffffffffffffffffffff9182166004820152908a16602482015260448101859052606401600060405180830381600087803b15801561178a57600080fd5b505af115801561179e573d6000803e3d6000fd5b5050505080806117ad90611c86565b9150506116d3565b505050505050505050565b60006117d58383670de0b6b3a76400006119f4565b9392505050565b6000546040517fabfdcced00000000000000000000000000000000000000000000000000000000815260048101849052821515602482015261010090910473ffffffffffffffffffffffffffffffffffffffff169063abfdcced906044016110d7565b6000546040517f986e791a00000000000000000000000000000000000000000000000000000000815260048101839052606091610100900473ffffffffffffffffffffffffffffffffffffffff169063986e791a90602401600060405180830381865afa1580156118b4573d6000803e3d6000fd5b505050506040513d6000823e601f3d9081017fffffffffffffffffffffffffffffffffffffffffffffffffffffffffffffffe0168201604052610f1a9190810190611e25565b6000546040517fadb353dc000000000000000000000000000000000000000000000000000000008152600481018490526024810183905261010090910473ffffffffffffffffffffffffffffffffffffffff169063adb353dc906044016110d7565b600080546040517f21f8a7210000000000000000000000000000000000000000000000000000000081526004810184905261010090910473ffffffffffffffffffffffffffffffffffffffff16906321f8a72190602401602060405180830381865afa1580156119d0573d6000803e3d6000fd5b505050506040513d601f19601f82011682018060405250810190610f1a9190611ce7565b6000827fffffffffffffffffffffffffffffffffffffffffffffffffffffffffffffffff0484118302158202611a2957600080fd5b5091020490565b7f4e487b7100000000000000000000000000000000000000000000000000000000600052604160045260246000fd5b604051601f82017fffffffffffffffffffffffffffffffffffffffffffffffffffffffffffffffe016810167ffffffffffffffff81118282101715611aa657611aa6611a30565b604052919050565b600067ffffffffffffffff821115611ac857611ac8611a30565b50601f017fffffffffffffffffffffffffffffffffffffffffffffffffffffffffffffffe01660200190565b600060208284031215611b0657600080fd5b813567ffffffffffffffff811115611b1d57600080fd5b8201601f81018413611b2e57600080fd5b8035611b41611b3c82611aae565b611a5f565b818152856020838501011115611b5657600080fd5b81602084016020830137600091810160200191909152949350505050565b60005b83811015611b8f578181015183820152602001611b77565b50506000910152565b7f636f6e74726163742e7061757365640000000000000000000000000000000000815260008251611bd081600f850160208701611b74565b91909101600f0192915050565b7f4e487b7100000000000000000000000000000000000000000000000000000000600052601160045260246000fd5b80820180821115610f1a57610f1a611bdd565b600060208284031215611c3157600080fd5b5051919050565b81810381811115610f1a57610f1a611bdd565b600082611c81577f4e487b7100000000000000000000000000000000000000000000000000000000600052601260045260246000fd5b500490565b60007fffffffffffffffffffffffffffffffffffffffffffffffffffffffffffffffff8203611cb757611cb7611bdd565b5060010190565b805173ffffffffffffffffffffffffffffffffffffffff81168114611ce257600080fd5b919050565b600060208284031215611cf957600080fd5b6117d582611cbe565b6020815260008251806020840152611d21816040850160208701611b74565b601f017fffffffffffffffffffffffffffffffffffffffffffffffffffffffffffffffe0169190910160400192915050565b80518015158114611ce257600080fd5b600060208284031215611d7557600080fd5b6117d582611d53565b7f636f6e74726163742e6164647265737300000000000000000000000000000000815260008251611db6816010850160208701611b74565b9190910160100192915050565b60008060408385031215611dd657600080fd5b611ddf83611cbe565b9150611ded60208401611d53565b90509250929050565b7f4e487b7100000000000000000000000000000000000000000000000000000000600052603260045260246000fd5b600060208284031215611e3757600080fd5b815167ffffffffffffffff811115611e4e57600080fd5b8201601f81018413611e5f57600080fd5b8051611e6d611b3c82611aae565b818152856020838501011115611e8257600080fd5b610e52826020830160208601611b7456fea26469706673582212203f22bd72d8df3970e4567d7047b1477f71858fbb2300d38962d051dfdaa4e20364736f6c63430008110033",
  "linkReferences": {},
  "deployedLinkReferences": {}
}