{
  "_format": "hh-sol-artifact-1",
  "contractName": "RewardsPool",
  "sourceName": "contracts/contract/rewards/RewardsPool.sol",
  "abi": [
    {
      "inputs": [
        {
          "internalType": "contract Storage",
          "name": "storageAddress",
          "type": "address"
        }
      ],
      "stateMutability": "nonpayable",
      "type": "constructor"
    },
    {
      "anonymous": false,
      "inputs": [
        {
          "indexed": false,
          "internalType": "address",
          "name": "sender",
          "type": "address"
        },
        {
          "indexed": false,
          "internalType": "uint256",
          "name": "value",
          "type": "uint256"
        },
        {
          "indexed": false,
          "internalType": "uint256",
          "name": "inflationCalcTime",
          "type": "uint256"
        }
      ],
      "name": "GGPInflationLog",
      "type": "event"
    },
    {
      "anonymous": false,
      "inputs": [
        {
          "indexed": false,
          "internalType": "uint256",
          "name": "value",
          "type": "uint256"
        },
        {
          "indexed": false,
          "internalType": "uint256",
          "name": "time",
          "type": "uint256"
        }
      ],
      "name": "NOPClaimRewardsTransfered",
      "type": "event"
    },
    {
      "anonymous": false,
      "inputs": [
        {
          "indexed": false,
          "internalType": "uint256",
          "name": "totalRewardAmt",
          "type": "uint256"
        },
        {
          "indexed": false,
          "internalType": "uint256",
          "name": "time",
          "type": "uint256"
        }
      ],
      "name": "NewRewardsCycleStarted",
      "type": "event"
    },
    {
      "anonymous": false,
      "inputs": [
        {
          "indexed": false,
          "internalType": "uint256",
          "name": "value",
          "type": "uint256"
        },
        {
          "indexed": false,
          "internalType": "uint256",
          "name": "time",
          "type": "uint256"
        }
      ],
      "name": "ProtocolDAORewardsTransfered",
      "type": "event"
    },
    {
      "inputs": [],
      "name": "canCycleStart",
      "outputs": [
        {
          "internalType": "bool",
          "name": "",
          "type": "bool"
        }
      ],
      "stateMutability": "view",
      "type": "function"
    },
    {
      "inputs": [
        {
          "internalType": "string",
          "name": "_claimingContract",
          "type": "string"
        }
      ],
      "name": "getClaimingContractAllowance",
      "outputs": [
        {
          "internalType": "uint256",
          "name": "",
          "type": "uint256"
        }
      ],
      "stateMutability": "view",
      "type": "function"
    },
    {
      "inputs": [
        {
          "internalType": "string",
          "name": "_claimingContract",
          "type": "string"
        }
      ],
      "name": "getClaimingContractPerc",
      "outputs": [
        {
          "internalType": "uint256",
          "name": "",
          "type": "uint256"
        }
      ],
      "stateMutability": "view",
      "type": "function"
    },
    {
      "inputs": [],
      "name": "getInflationIntervalFirstStartTime",
      "outputs": [
        {
          "internalType": "uint256",
          "name": "",
          "type": "uint256"
        }
      ],
      "stateMutability": "view",
      "type": "function"
    },
    {
      "inputs": [],
      "name": "getInflationIntervalRate",
      "outputs": [
        {
          "internalType": "uint256",
          "name": "",
          "type": "uint256"
        }
      ],
      "stateMutability": "view",
      "type": "function"
    },
    {
      "inputs": [],
      "name": "getInflationIntervalTime",
      "outputs": [
        {
          "internalType": "uint256",
          "name": "",
          "type": "uint256"
        }
      ],
      "stateMutability": "pure",
      "type": "function"
    },
    {
      "inputs": [],
      "name": "getInflationIntervalsPassed",
      "outputs": [
        {
          "internalType": "uint256",
          "name": "",
          "type": "uint256"
        }
      ],
      "stateMutability": "view",
      "type": "function"
    },
    {
      "inputs": [],
      "name": "getLastInflationCalcTime",
      "outputs": [
        {
          "internalType": "uint256",
          "name": "",
          "type": "uint256"
        }
      ],
      "stateMutability": "view",
      "type": "function"
    },
    {
      "inputs": [
        {
          "internalType": "string",
          "name": "_contractName",
          "type": "string"
        }
      ],
      "name": "getPublicContractAddress",
      "outputs": [
        {
          "internalType": "address",
          "name": "",
          "type": "address"
        }
      ],
      "stateMutability": "view",
      "type": "function"
    },
    {
      "inputs": [],
      "name": "getRewardCycleLength",
      "outputs": [
        {
          "internalType": "uint256",
          "name": "",
          "type": "uint256"
        }
      ],
      "stateMutability": "view",
      "type": "function"
    },
    {
      "inputs": [],
      "name": "getRewardCycleStartTime",
      "outputs": [
        {
          "internalType": "uint256",
          "name": "",
          "type": "uint256"
        }
      ],
      "stateMutability": "view",
      "type": "function"
    },
    {
      "inputs": [],
      "name": "getRewardCycleTotalAmount",
      "outputs": [
        {
          "internalType": "uint256",
          "name": "",
          "type": "uint256"
        }
      ],
      "stateMutability": "view",
      "type": "function"
    },
    {
      "inputs": [],
      "name": "getRewardCyclesPassed",
      "outputs": [
        {
          "internalType": "uint256",
          "name": "",
          "type": "uint256"
        }
      ],
      "stateMutability": "view",
      "type": "function"
    },
    {
      "inputs": [
        {
          "internalType": "bytes32",
          "name": "settingNameSpace",
          "type": "bytes32"
        },
        {
          "internalType": "string",
          "name": "_settingPath",
          "type": "string"
        }
      ],
      "name": "getSettingAddress",
      "outputs": [
        {
          "internalType": "address",
          "name": "",
          "type": "address"
        }
      ],
      "stateMutability": "view",
      "type": "function"
    },
    {
      "inputs": [
        {
          "internalType": "bytes32",
          "name": "settingNameSpace",
          "type": "bytes32"
        },
        {
          "internalType": "string",
          "name": "_settingPath",
          "type": "string"
        }
      ],
      "name": "getSettingBool",
      "outputs": [
        {
          "internalType": "bool",
          "name": "",
          "type": "bool"
        }
      ],
      "stateMutability": "view",
      "type": "function"
    },
    {
      "inputs": [
        {
          "internalType": "bytes32",
          "name": "settingNameSpace",
          "type": "bytes32"
        },
        {
          "internalType": "string",
          "name": "_settingPath",
          "type": "string"
        }
      ],
      "name": "getSettingUint",
      "outputs": [
        {
          "internalType": "uint256",
          "name": "",
          "type": "uint256"
        }
      ],
      "stateMutability": "view",
      "type": "function"
    },
    {
      "inputs": [],
      "name": "inflationCalculate",
      "outputs": [
        {
          "internalType": "uint256",
          "name": "",
          "type": "uint256"
        }
      ],
      "stateMutability": "view",
      "type": "function"
    },
    {
      "inputs": [],
      "name": "startCycle",
      "outputs": [],
      "stateMutability": "nonpayable",
      "type": "function"
    },
    {
      "inputs": [],
      "name": "version",
      "outputs": [
        {
          "internalType": "uint8",
          "name": "",
          "type": "uint8"
        }
      ],
      "stateMutability": "view",
      "type": "function"
    }
  ],
  "bytecode": "0x60806040526a0ee3a5f48a68b55200000060015560006002553480156200002557600080fd5b50604051620012543803806200125483398101604081905262000048916200030e565b6000805460ff196001600160a01b03841661010002166001600160a81b03199091161760011790556200009f7f726577617264732e706f6f6c2e7265776172642e6379636c652e6c656e6774686224ea006200029f565b620000d37f6767702e696e666c6174696f6e2e696e74657276616c2e726174650000000000670de130489916479c6200029f565b6200010d7f6767702e696e666c6174696f6e2e696e74657276616c2e73746172740000000062000107426201518062000340565b6200029f565b620001956040516020016200016a906f50726f746f636f6c44414f436c61696d60801b8082526d726577617264732e636c61696d7360901b60108301526b19dc9bdd5c0b985b5bdd5b9d60a21b601e830152602a820152603a0190565b6040516020818303038152906040528051906020012067016345785d8a00006200029f60201b60201c565b62000215604051602001620001ea90674e4f50436c61696d60c01b8082526d726577617264732e636c61696d7360901b60088301526b19dc9bdd5c0b985b5bdd5b9d60a21b60168301526022820152602a0190565b604051602081830303815290604052805190602001206709b6e64a8ec600006200029f60201b60201c565b620002986040516020016200026d906a5269616c746f436c61696d60a81b8082526d726577617264732e636c61696d7360901b600b8301526b19dc9bdd5c0b985b5bdd5b9d60a21b6019830152602582015260300190565b604051602081830303815290604052805190602001206702c68af0bb1400006200029f60201b60201c565b5062000367565b600054604051637152429d60e11b815260048101849052602481018390526101009091046001600160a01b03169063e2a4853a90604401600060405180830381600087803b158015620002f157600080fd5b505af115801562000306573d6000803e3d6000fd5b505050505050565b6000602082840312156200032157600080fd5b81516001600160a01b03811681146200033957600080fd5b9392505050565b600082198211156200036257634e487b7160e01b600052601160045260246000fd5b500190565b610edd80620003776000396000f3fe608060405234801561001057600080fd5b50600436106101215760003560e01c806374fa9e85116100ad578063e889560811610071578063e889560814610217578063ee96d7741461021f578063f10fc5b914610227578063f4d70e781461022f578063f6a3f6ef1461024257600080fd5b806374fa9e85146101e457806383a0b5bb146101ec578063b933c49e146101f4578063c1a26006146101fc578063cff0b6481461020457600080fd5b806354fd4d50116100f457806354fd4d50146101a2578063562cad23146101c15780636147251c146101cb578063624e0014146101d357806363657510146101db57600080fd5b806306eaa68b146101265780630a9630c2146101565780631773dcee14610177578063232de7161461018f575b600080fd5b610139610134366004610c6b565b610255565b6040516001600160a01b0390911681526020015b60405180910390f35b610169610164366004610cb2565b61028f565b60405190815260200161014d565b61017f6102d4565b604051901515815260200161014d565b61017f61019d366004610c6b565b610300565b6000546101af9060ff1681565b60405160ff909116815260200161014d565b6101c9610333565b005b610169610692565b6101696106c2565b62015180610169565b6101696106dc565b61016961070e565b610169610739565b61016961074f565b610139610212366004610cb2565b610765565b6101696107d3565b6101696107fe565b610169610829565b61016961023d366004610c6b565b610854565b610169610250366004610cb2565b610887565b6000610288838360405160200161026d929190610d22565b6040516020818303038152906040528051906020012061089f565b9392505050565b60008061029b83610887565b905060006102a7610692565b9050600080831180156102ba5750600082115b156102cc576102c98383610911565b90505b949350505050565b6000806102df6106c2565b9050670de0b6b3a764000081106102f857600191505090565b600091505090565b60006102888383604051602001610318929190610d22565b60405160208183030381529060405280519060200120610926565b600061035e604051806040016040528060088152602001674e4f50436c61696d60c01b815250610765565b9050600061038b604051806040016040528060088152602001670546f6b656e4747560c41b815250610765565b905060006103b56040518060400160405280600581526020016415985d5b1d60da1b815250610765565b905060006103c16106c2565b9050670de0b6b3a7640000811061064d576103da610998565b6104047fd462174bd38841fa4277b1465ad0250d365181721be34935747eeeb0eb3b0ce242610a18565b60006104376040518060400160405280601081526020016f50726f746f636f6c44414f436c61696d60801b81525061028f565b90506000610464604051806040016040528060088152602001674e4f50436c61696d60c01b81525061028f565b9050811561052f5760405163774881af60e11b815260606004820152601060648201526f50726f746f636f6c44414f436c61696d60801b60848201526001600160a01b0386811660248301526044820184905285169063ee91035e9060a401600060405180830381600087803b1580156104dd57600080fd5b505af11580156104f1573d6000803e3d6000fd5b5050604080518581524260208201527f836296663f2e8d221acfc330f1e49892a282ed50d2c168f75a2472e7a39226dd935001905060405180910390a15b801561064a5760405163774881af60e11b81526060600482015260086064820152674e4f50436c61696d60c01b60848201526001600160a01b0386811660248301526044820183905285169063ee91035e9060a401600060405180830381600087803b15801561059e57600080fd5b505af11580156105b2573d6000803e3d6000fd5b505060405163ec23112f60e01b8152600481018490526001600160a01b038916925063ec23112f9150602401600060405180830381600087803b1580156105f857600080fd5b505af115801561060c573d6000803e3d6000fd5b5050604080518481524260208201527fe54ffab462b130bc9223730565081bb3148be63c764aa0153827a7a33c42d9f0935001905060405180910390a15b50505b7f132a9a84d56348feb67101428362f6c31b45578dd51b6919ead3e4ffdd2fa2d8610676610692565b604080519182524260208301520160405180910390a150505050565b60006106bd7fa38753780e7369b8c31970db0ba2c4df200148ff315c6cca728552059b6df48b610a85565b905090565b60006106bd6106cf6107d3565b6106d7610829565b610af7565b6000806106e761070e565b905060025460001480156106fa57504281105b61070657600254610708565b805b91505090565b60006106bd7f6767702e696e666c6174696f6e2e696e74657276616c2e737461727400000000610a85565b6000806107446106dc565b905061070881610b0d565b60008061075a610739565b905061070881610b35565b60008061077c8360405160200161026d9190610d34565b90506001600160a01b0381166107cd5760405162461bcd60e51b815260206004820152601260248201527110dbdb9d1c9858dd081b9bdd08199bdd5b9960721b604482015260640160405180910390fd5b92915050565b60006106bd7fd462174bd38841fa4277b1465ad0250d365181721be34935747eeeb0eb3b0ce2610a85565b60006106bd7f6767702e696e666c6174696f6e2e696e74657276616c2e726174650000000000610a85565b60006106bd7f726577617264732e706f6f6c2e7265776172642e6379636c652e6c656e677468610a85565b6000610288838360405160200161086c929190610d22565b60405160208183030381529060405280519060200120610a85565b60006107cd828360405160200161086c929190610d59565b600080546040516321f8a72160e01b8152600481018490526101009091046001600160a01b0316906321f8a72190602401602060405180830381865afa1580156108ed573d6000803e3d6000fd5b505050506040513d601f19601f820116820180604052508101906107cd9190610da4565b60006102888383670de0b6b3a7640000610b94565b60008054604051633d70e7e560e11b8152600481018490526101009091046001600160a01b031690637ae1cfca90602401602060405180830381865afa158015610974573d6000803e3d6000fd5b505050506040513d601f19601f820116820180604052508101906107cd9190610dcd565b60006109a26106dc565b905060006109af82610b0d565b905060006109bc82610b35565b9050806001546109cc9190610e05565b6001556109dc8262015180610e1d565b6109e69084610e05565b600255610a137fa38753780e7369b8c31970db0ba2c4df200148ff315c6cca728552059b6df48b82610a18565b505050565b600054604051637152429d60e11b815260048101849052602481018390526101009091046001600160a01b03169063e2a4853a90604401600060405180830381600087803b158015610a6957600080fd5b505af1158015610a7d573d6000803e3d6000fd5b505050505050565b6000805460405163bd02d0f560e01b8152600481018490526101009091046001600160a01b03169063bd02d0f590602401602060405180830381865afa158015610ad3573d6000803e3d6000fd5b505050506040513d601f19601f820116820180604052508101906107cd9190610e3c565b600061028882610b078542610e55565b90610bb3565b60008115610b2d5762015180610b238342610e55565b6107cd9190610e6c565b506000919050565b60008082156107cd576000610b486107fe565b90508015610b8d576001548060005b86811015610b7d57610b698285610911565b915080610b7581610e8e565b915050610b57565b50610b888282610e55565b935050505b5092915050565b828202811515841585830485141716610bac57600080fd5b0492915050565b600061028883670de0b6b3a764000084610b94565b634e487b7160e01b600052604160045260246000fd5b600082601f830112610bef57600080fd5b813567ffffffffffffffff80821115610c0a57610c0a610bc8565b604051601f8301601f19908116603f01168101908282118183101715610c3257610c32610bc8565b81604052838152866020858801011115610c4b57600080fd5b836020870160208301376000602085830101528094505050505092915050565b60008060408385031215610c7e57600080fd5b82359150602083013567ffffffffffffffff811115610c9c57600080fd5b610ca885828601610bde565b9150509250929050565b600060208284031215610cc457600080fd5b813567ffffffffffffffff811115610cdb57600080fd5b6102cc84828501610bde565b6000815160005b81811015610d085760208185018101518683015201610cee565b81811115610d17576000828601525b509290920192915050565b82815260006102cc6020830184610ce7565b6f636f6e74726163742e6164647265737360801b815260006102886010830184610ce7565b6000610d658285610ce7565b6d726577617264732e636c61696d7360901b81526b19dc9bdd5c0b985b5bdd5b9d60a21b600e820152610d9b601a820185610ce7565b95945050505050565b600060208284031215610db657600080fd5b81516001600160a01b038116811461028857600080fd5b600060208284031215610ddf57600080fd5b8151801515811461028857600080fd5b634e487b7160e01b600052601160045260246000fd5b60008219821115610e1857610e18610def565b500190565b6000816000190483118215151615610e3757610e37610def565b500290565b600060208284031215610e4e57600080fd5b5051919050565b600082821015610e6757610e67610def565b500390565b600082610e8957634e487b7160e01b600052601260045260246000fd5b500490565b600060018201610ea057610ea0610def565b506001019056fea264697066735822122054817add31a7e1c0648822b99f08ac19e8d02a27b283f5561975dbf23296c79364736f6c634300080d0033",
  "linkReferences": {},
  "deployedLinkReferences": {}
}