{
  "_format": "hh-sol-artifact-1",
  "contractName": "Staking",
  "sourceName": "contracts/contract/Staking.sol",
  "abi": [
    {
      "inputs": [
        {
          "internalType": "contract Storage",
          "name": "storageAddress",
          "type": "address"
        }
      ],
      "stateMutability": "nonpayable",
      "type": "constructor"
    },
    {
      "inputs": [],
      "name": "CannotWithdrawUnder150CollateralizationRatio",
      "type": "error"
    },
    {
      "inputs": [],
      "name": "ContractNotFound",
      "type": "error"
    },
    {
      "inputs": [],
      "name": "ContractPaused",
      "type": "error"
    },
    {
      "inputs": [],
      "name": "InsufficientBalance",
      "type": "error"
    },
    {
      "inputs": [],
      "name": "InvalidOrOutdatedContract",
      "type": "error"
    },
    {
      "inputs": [],
      "name": "InvalidRewardsStartTime",
      "type": "error"
    },
    {
      "inputs": [],
      "name": "MustBeGuardian",
      "type": "error"
    },
    {
      "inputs": [],
      "name": "MustBeGuardianOrValidContract",
      "type": "error"
    },
    {
      "inputs": [],
      "name": "MustBeMultisig",
      "type": "error"
    },
    {
      "inputs": [],
      "name": "StakerNotFound",
      "type": "error"
    },
    {
      "anonymous": false,
      "inputs": [
        {
          "indexed": true,
          "internalType": "address",
          "name": "from",
          "type": "address"
        },
        {
          "indexed": false,
          "internalType": "uint256",
          "name": "amount",
          "type": "uint256"
        }
      ],
      "name": "GGPStaked",
      "type": "event"
    },
    {
      "anonymous": false,
      "inputs": [
        {
          "indexed": true,
          "internalType": "address",
          "name": "to",
          "type": "address"
        },
        {
          "indexed": false,
          "internalType": "uint256",
          "name": "amount",
          "type": "uint256"
        }
      ],
      "name": "GGPWithdrawn",
      "type": "event"
    },
    {
      "inputs": [
        {
          "internalType": "address",
          "name": "stakerAddr",
          "type": "address"
        },
        {
          "internalType": "uint256",
          "name": "amount",
          "type": "uint256"
        }
      ],
      "name": "decreaseAVAXAssigned",
      "outputs": [],
      "stateMutability": "nonpayable",
      "type": "function"
    },
    {
      "inputs": [
        {
          "internalType": "address",
          "name": "stakerAddr",
          "type": "address"
        },
        {
          "internalType": "uint256",
          "name": "amount",
          "type": "uint256"
        }
      ],
      "name": "decreaseAVAXStake",
      "outputs": [],
      "stateMutability": "nonpayable",
      "type": "function"
    },
    {
      "inputs": [
        {
          "internalType": "address",
          "name": "stakerAddr",
          "type": "address"
        },
        {
          "internalType": "uint256",
          "name": "amount",
          "type": "uint256"
        }
      ],
      "name": "decreaseAVAXValidating",
      "outputs": [],
      "stateMutability": "nonpayable",
      "type": "function"
    },
    {
      "inputs": [
        {
          "internalType": "address",
          "name": "stakerAddr",
          "type": "address"
        },
        {
          "internalType": "uint256",
          "name": "amount",
          "type": "uint256"
        }
      ],
      "name": "decreaseGGPRewards",
      "outputs": [],
      "stateMutability": "nonpayable",
      "type": "function"
    },
    {
      "inputs": [
        {
          "internalType": "address",
          "name": "stakerAddr",
          "type": "address"
        }
      ],
      "name": "getAVAXAssigned",
      "outputs": [
        {
          "internalType": "uint256",
          "name": "",
          "type": "uint256"
        }
      ],
      "stateMutability": "view",
      "type": "function"
    },
    {
      "inputs": [
        {
          "internalType": "address",
          "name": "stakerAddr",
          "type": "address"
        }
      ],
      "name": "getAVAXStake",
      "outputs": [
        {
          "internalType": "uint256",
          "name": "",
          "type": "uint256"
        }
      ],
      "stateMutability": "view",
      "type": "function"
    },
    {
      "inputs": [
        {
          "internalType": "address",
          "name": "stakerAddr",
          "type": "address"
        }
      ],
      "name": "getAVAXValidating",
      "outputs": [
        {
          "internalType": "uint256",
          "name": "",
          "type": "uint256"
        }
      ],
      "stateMutability": "view",
      "type": "function"
    },
    {
      "inputs": [
        {
          "internalType": "address",
          "name": "stakerAddr",
          "type": "address"
        }
      ],
      "name": "getAVAXValidatingHighWater",
      "outputs": [
        {
          "internalType": "uint256",
          "name": "",
          "type": "uint256"
        }
      ],
      "stateMutability": "view",
      "type": "function"
    },
    {
      "inputs": [
        {
          "internalType": "address",
          "name": "stakerAddr",
          "type": "address"
        }
      ],
      "name": "getCollateralizationRatio",
      "outputs": [
        {
          "internalType": "uint256",
          "name": "",
          "type": "uint256"
        }
      ],
      "stateMutability": "view",
      "type": "function"
    },
    {
      "inputs": [
        {
          "internalType": "address",
          "name": "stakerAddr",
          "type": "address"
        }
      ],
      "name": "getEffectiveGGPStaked",
      "outputs": [
        {
          "internalType": "uint256",
          "name": "",
          "type": "uint256"
        }
      ],
      "stateMutability": "view",
      "type": "function"
    },
    {
      "inputs": [
        {
          "internalType": "address",
          "name": "stakerAddr",
          "type": "address"
        }
      ],
      "name": "getEffectiveRewardsRatio",
      "outputs": [
        {
          "internalType": "uint256",
          "name": "",
          "type": "uint256"
        }
      ],
      "stateMutability": "view",
      "type": "function"
    },
    {
      "inputs": [
        {
          "internalType": "address",
          "name": "stakerAddr",
          "type": "address"
        }
      ],
      "name": "getGGPRewards",
      "outputs": [
        {
          "internalType": "uint256",
          "name": "",
          "type": "uint256"
        }
      ],
      "stateMutability": "view",
      "type": "function"
    },
    {
      "inputs": [
        {
          "internalType": "address",
          "name": "stakerAddr",
          "type": "address"
        }
      ],
      "name": "getGGPStake",
      "outputs": [
        {
          "internalType": "uint256",
          "name": "",
          "type": "uint256"
        }
      ],
      "stateMutability": "view",
      "type": "function"
    },
    {
      "inputs": [
        {
          "internalType": "address",
          "name": "stakerAddr",
          "type": "address"
        }
      ],
      "name": "getIndexOf",
      "outputs": [
        {
          "internalType": "int256",
          "name": "",
          "type": "int256"
        }
      ],
      "stateMutability": "view",
      "type": "function"
    },
    {
      "inputs": [
        {
          "internalType": "address",
          "name": "stakerAddr",
          "type": "address"
        }
      ],
      "name": "getLastRewardsCycleCompleted",
      "outputs": [
        {
          "internalType": "uint256",
          "name": "",
          "type": "uint256"
        }
      ],
      "stateMutability": "view",
      "type": "function"
    },
    {
      "inputs": [
        {
          "internalType": "address",
          "name": "stakerAddr",
          "type": "address"
        }
      ],
      "name": "getMinimumGGPStake",
      "outputs": [
        {
          "internalType": "uint256",
          "name": "",
          "type": "uint256"
        }
      ],
      "stateMutability": "view",
      "type": "function"
    },
    {
      "inputs": [
        {
          "internalType": "address",
          "name": "stakerAddr",
          "type": "address"
        }
      ],
      "name": "getRewardsStartTime",
      "outputs": [
        {
          "internalType": "uint256",
          "name": "",
          "type": "uint256"
        }
      ],
      "stateMutability": "view",
      "type": "function"
    },
    {
      "inputs": [
        {
          "internalType": "int256",
          "name": "stakerIndex",
          "type": "int256"
        }
      ],
      "name": "getStaker",
      "outputs": [
        {
          "components": [
            {
              "internalType": "address",
              "name": "stakerAddr",
              "type": "address"
            },
            {
              "internalType": "uint256",
              "name": "ggpStaked",
              "type": "uint256"
            },
            {
              "internalType": "uint256",
              "name": "avaxStaked",
              "type": "uint256"
            },
            {
              "internalType": "uint256",
              "name": "avaxAssigned",
              "type": "uint256"
            },
            {
              "internalType": "uint256",
              "name": "avaxValidating",
              "type": "uint256"
            },
            {
              "internalType": "uint256",
              "name": "avaxValidatingHighWater",
              "type": "uint256"
            },
            {
              "internalType": "uint256",
              "name": "rewardsStartTime",
              "type": "uint256"
            },
            {
              "internalType": "uint256",
              "name": "ggpRewards",
              "type": "uint256"
            },
            {
              "internalType": "uint256",
              "name": "lastRewardsCycleCompleted",
              "type": "uint256"
            }
          ],
          "internalType": "struct Staking.Staker",
          "name": "staker",
          "type": "tuple"
        }
      ],
      "stateMutability": "view",
      "type": "function"
    },
    {
      "inputs": [],
      "name": "getStakerCount",
      "outputs": [
        {
          "internalType": "uint256",
          "name": "",
          "type": "uint256"
        }
      ],
      "stateMutability": "view",
      "type": "function"
    },
    {
      "inputs": [
        {
          "internalType": "uint256",
          "name": "offset",
          "type": "uint256"
        },
        {
          "internalType": "uint256",
          "name": "limit",
          "type": "uint256"
        }
      ],
      "name": "getStakers",
      "outputs": [
        {
          "components": [
            {
              "internalType": "address",
              "name": "stakerAddr",
              "type": "address"
            },
            {
              "internalType": "uint256",
              "name": "ggpStaked",
              "type": "uint256"
            },
            {
              "internalType": "uint256",
              "name": "avaxStaked",
              "type": "uint256"
            },
            {
              "internalType": "uint256",
              "name": "avaxAssigned",
              "type": "uint256"
            },
            {
              "internalType": "uint256",
              "name": "avaxValidating",
              "type": "uint256"
            },
            {
              "internalType": "uint256",
              "name": "avaxValidatingHighWater",
              "type": "uint256"
            },
            {
              "internalType": "uint256",
              "name": "rewardsStartTime",
              "type": "uint256"
            },
            {
              "internalType": "uint256",
              "name": "ggpRewards",
              "type": "uint256"
            },
            {
              "internalType": "uint256",
              "name": "lastRewardsCycleCompleted",
              "type": "uint256"
            }
          ],
          "internalType": "struct Staking.Staker[]",
          "name": "stakers",
          "type": "tuple[]"
        }
      ],
      "stateMutability": "view",
      "type": "function"
    },
    {
      "inputs": [],
      "name": "getTotalGGPStake",
      "outputs": [
        {
          "internalType": "uint256",
          "name": "",
          "type": "uint256"
        }
      ],
      "stateMutability": "view",
      "type": "function"
    },
    {
      "inputs": [
        {
          "internalType": "address",
          "name": "stakerAddr",
          "type": "address"
        },
        {
          "internalType": "uint256",
          "name": "amount",
          "type": "uint256"
        }
      ],
      "name": "increaseAVAXAssigned",
      "outputs": [],
      "stateMutability": "nonpayable",
      "type": "function"
    },
    {
      "inputs": [
        {
          "internalType": "address",
          "name": "stakerAddr",
          "type": "address"
        },
        {
          "internalType": "uint256",
          "name": "amount",
          "type": "uint256"
        }
      ],
      "name": "increaseAVAXStake",
      "outputs": [],
      "stateMutability": "nonpayable",
      "type": "function"
    },
    {
      "inputs": [
        {
          "internalType": "address",
          "name": "stakerAddr",
          "type": "address"
        },
        {
          "internalType": "uint256",
          "name": "amount",
          "type": "uint256"
        }
      ],
      "name": "increaseAVAXValidating",
      "outputs": [],
      "stateMutability": "nonpayable",
      "type": "function"
    },
    {
      "inputs": [
        {
          "internalType": "address",
          "name": "stakerAddr",
          "type": "address"
        },
        {
          "internalType": "uint256",
          "name": "amount",
          "type": "uint256"
        }
      ],
      "name": "increaseGGPRewards",
      "outputs": [],
      "stateMutability": "nonpayable",
      "type": "function"
    },
    {
      "inputs": [
        {
          "internalType": "address",
          "name": "stakerAddr",
          "type": "address"
        }
      ],
      "name": "requireValidStaker",
      "outputs": [
        {
          "internalType": "int256",
          "name": "",
          "type": "int256"
        }
      ],
      "stateMutability": "view",
      "type": "function"
    },
    {
      "inputs": [
        {
          "internalType": "address",
          "name": "stakerAddr",
          "type": "address"
        },
        {
          "internalType": "uint256",
          "name": "amount",
          "type": "uint256"
        }
      ],
      "name": "restakeGGP",
      "outputs": [],
      "stateMutability": "nonpayable",
      "type": "function"
    },
    {
      "inputs": [
        {
          "internalType": "address",
          "name": "stakerAddr",
          "type": "address"
        },
        {
          "internalType": "uint256",
          "name": "amount",
          "type": "uint256"
        }
      ],
      "name": "setAVAXValidatingHighWater",
      "outputs": [],
      "stateMutability": "nonpayable",
      "type": "function"
    },
    {
      "inputs": [
        {
          "internalType": "address",
          "name": "stakerAddr",
          "type": "address"
        },
        {
          "internalType": "uint256",
          "name": "cycleNumber",
          "type": "uint256"
        }
      ],
      "name": "setLastRewardsCycleCompleted",
      "outputs": [],
      "stateMutability": "nonpayable",
      "type": "function"
    },
    {
      "inputs": [
        {
          "internalType": "address",
          "name": "stakerAddr",
          "type": "address"
        },
        {
          "internalType": "uint256",
          "name": "time",
          "type": "uint256"
        }
      ],
      "name": "setRewardsStartTime",
      "outputs": [],
      "stateMutability": "nonpayable",
      "type": "function"
    },
    {
      "inputs": [
        {
          "internalType": "address",
          "name": "stakerAddr",
          "type": "address"
        },
        {
          "internalType": "uint256",
          "name": "ggpAmt",
          "type": "uint256"
        }
      ],
      "name": "slashGGP",
      "outputs": [],
      "stateMutability": "nonpayable",
      "type": "function"
    },
    {
      "inputs": [
        {
          "internalType": "uint256",
          "name": "amount",
          "type": "uint256"
        }
      ],
      "name": "stakeGGP",
      "outputs": [],
      "stateMutability": "nonpayable",
      "type": "function"
    },
    {
      "inputs": [],
      "name": "version",
      "outputs": [
        {
          "internalType": "uint8",
          "name": "",
          "type": "uint8"
        }
      ],
      "stateMutability": "view",
      "type": "function"
    },
    {
      "inputs": [
        {
          "internalType": "uint256",
          "name": "amount",
          "type": "uint256"
        }
      ],
      "name": "withdrawGGP",
      "outputs": [],
      "stateMutability": "nonpayable",
      "type": "function"
    }
  ],
  "bytecode": "0x60806040523480156200001157600080fd5b506040516200343d3803806200343d833981016040819052620000349162000069565b6000805460ff196001600160a01b0390931661010002929092166001600160a81b03199092169190911760011790556200009b565b6000602082840312156200007c57600080fd5b81516001600160a01b03811681146200009457600080fd5b9392505050565b61339280620000ab6000396000f3fe608060405234801561001057600080fd5b50600436106102265760003560e01c8063877d9e9e1161012a578063bf79cbf6116100bd578063e60716d71161008c578063f20c4bc611610071578063f20c4bc61461049d578063f691c32a146104b0578063fc87bc36146104c357600080fd5b8063e60716d714610477578063ed54ff221461048a57600080fd5b8063bf79cbf614610436578063c03f09b01461043e578063c4bdd0f814610451578063db865f881461046457600080fd5b8063a1bb68a5116100f9578063a1bb68a5146103dd578063ad71bd36146103f0578063b268ee1414610410578063b8c4f6121461042357600080fd5b8063877d9e9e146103915780638823169c146103a45780639511ffc7146103b75780639517d256146103ca57600080fd5b806354fd4d50116101bd57806368a239e91161018c5780637736b4d4116101715780637736b4d414610358578063799c515d1461036b57806386a08e671461037e57600080fd5b806368a239e9146103325780636e3339671461034557600080fd5b806354fd4d50146102cd5780635a585185146102ec5780635e0b56151461030c57806365538c0f1461031f57600080fd5b80631cbce7af116101f95780631cbce7af146102815780632f64fd52146102945780634ce08478146102a75780634f3d2e6f146102ba57600080fd5b8063017df5221461022b578063065fe0a31461025157806309e203a5146102665780631319649d14610279575b600080fd5b61023e610239366004612df0565b6104d6565b6040519081526020015b60405180910390f35b61026461025f366004612e0d565b610563565b005b61023e610274366004612df0565b61073f565b61023e6107a5565b61023e61028f366004612df0565b6107d5565b6102646102a2366004612e0d565b610952565b6102646102b5366004612e0d565b610a4b565b6102646102c8366004612e0d565b610b28565b6000546102da9060ff1681565b60405160ff9091168152602001610248565b6102ff6102fa366004612e39565b610c02565b6040516102489190612e52565b61026461031a366004612e0d565b610f16565b61023e61032d366004612df0565b61102a565b610264610340366004612e39565b611089565b61023e610353366004612df0565b6110ee565b61023e610366366004612df0565b61114d565b61023e610379366004612df0565b61122e565b61026461038c366004612e0d565b61128d565b61026461039f366004612e0d565b611367565b61023e6103b2366004612df0565b611480565b6102646103c5366004612e0d565b6114df565b61023e6103d8366004612df0565b6115d0565b6102646103eb366004612e0d565b61163d565b6104036103fe366004612ebf565b61172f565b6040516102489190612ee1565b61026461041e366004612e0d565b611872565b610264610431366004612e0d565b61194c565b61023e611a26565b61026461044c366004612e39565b611b39565b61023e61045f366004612df0565b611dac565b61023e610472366004612df0565b611e0b565b61023e610485366004612df0565b611fdc565b61023e610498366004612df0565b61203b565b61023e6104ab366004612df0565b61213c565b6102646104be366004612e0d565b61219b565b6102646104d1366004612e0d565b612275565b604080517f7374616b65722e696e646578000000000000000000000000000000000000000060208201527fffffffffffffffffffffffffffffffffffffffff000000000000000000000000606084901b16602c82015260009160019161055391015b6040516020818303038152906040528051906020012061234f565b61055d9190612fbd565b92915050565b6040518060400160405280600f81526020017f4d696e69706f6f6c4d616e616765720000000000000000000000000000000000815250336105c9826040516020016105ae9190613008565b604051602081830303815290604052805190602001206123da565b6001600160a01b0316816001600160a01b0316146105fa57604051631eee95db60e11b815260040160405180910390fd5b600061063a6040518060400160405280600581526020017f5661756c74000000000000000000000000000000000000000000000000000000815250612465565b9050600061067c6040518060400160405280600881526020017f546f6b656e474750000000000000000000000000000000000000000000000000815250612465565b905061068886866124be565b6040517fee91035e00000000000000000000000000000000000000000000000000000000815260606004820152600b60648201527f50726f746f636f6c44414f00000000000000000000000000000000000000000060848201526001600160a01b0382811660248301526044820187905283169063ee91035e9060a401600060405180830381600087803b15801561071f57600080fd5b505af1158015610733573d6000803e3d6000fd5b50505050505050505050565b60008061074b836115d0565b6040516a7374616b65722e6974656d60a81b6020820152602b81018290527f2e617661785374616b6564000000000000000000000000000000000000000000604b82015290915061079e90605601610538565b9392505050565b60006107d07f39288d47a4783f81134d34e7a6b9067048ac0cc8b25c6f52593a7e3d7b76165b61234f565b905090565b6000806108166040518060400160405280600b81526020017f50726f746f636f6c44414f000000000000000000000000000000000000000000815250612465565b905060006108586040518060400160405280600681526020017f4f7261636c650000000000000000000000000000000000000000000000000000815250612465565b90506000816001600160a01b03166378e865fe6040518163ffffffff1660e01b81526004016040805180830381865afa158015610899573d6000803e3d6000fd5b505050506040513d601f19601f820116820180604052508101906108bd919061304d565b50905060006108cb8661122e565b905060006108d98284612533565b9050610947856001600160a01b0316632a90c63a6040518163ffffffff1660e01b8152600401602060405180830381865afa15801561091c573d6000803e3d6000fd5b505050506040513d601f19601f820116820180604052508101906109409190613071565b8290612548565b979650505050505050565b6040518060400160405280600f81526020017f4d696e69706f6f6c4d616e6167657200000000000000000000000000000000008152503361099d826040516020016105ae9190613008565b6001600160a01b0316816001600160a01b0316146109ce57604051631eee95db60e11b815260040160405180910390fd5b60006109d9856115d0565b6040516a7374616b65722e6974656d60a81b6020820152602b81018290527f2e6176617841737369676e656400000000000000000000000000000000000000604b820152909150610a44906058015b604051602081830303815290604052805190602001208561255d565b5050505050565b6040518060400160405280600b81526020017f436c61696d4e6f64654f7000000000000000000000000000000000000000000081525033610a96826040516020016105ae9190613008565b6001600160a01b0316816001600160a01b031614610ac757604051631eee95db60e11b815260040160405180910390fd5b6000610b076040518060400160405280600881526020017f546f6b656e474750000000000000000000000000000000000000000000000000815250612465565b9050610b1e6001600160a01b0382163330876125e4565b610a4485856126a7565b6040518060400160405280600f81526020017f4d696e69706f6f6c4d616e61676572000000000000000000000000000000000081525033610b73826040516020016105ae9190613008565b6001600160a01b0316816001600160a01b031614610ba457604051631eee95db60e11b815260040160405180910390fd5b6000610baf856115d0565b6040516a7374616b65722e6974656d60a81b6020820152602b81018290527f2e617661785374616b6564000000000000000000000000000000000000000000604b820152909150610a4490605601610a28565b610c5a60405180610120016040528060006001600160a01b0316815260200160008152602001600081526020016000815260200160008152602001600081526020016000815260200160008152602001600081525090565b6040516a7374616b65722e6974656d60a81b6020820152602b81018390527f2e6767705374616b656400000000000000000000000000000000000000000000604b820152610caa90605501610538565b6020808301919091526040516a7374616b65722e6974656d60a81b91810191909152602b81018390527f2e6176617841737369676e656400000000000000000000000000000000000000604b820152610d0590605801610538565b60608201526040516a7374616b65722e6974656d60a81b6020820152602b81018390527f2e617661785374616b6564000000000000000000000000000000000000000000604b820152610d5a90605601610538565b604080830191909152516a7374616b65722e6974656d60a81b6020820152602b81018390527f2e6176617856616c69646174696e670000000000000000000000000000000000604b820152610db190605a01610538565b60808201526040516a7374616b65722e6974656d60a81b6020820152602b81018390527f2e7374616b657241646472000000000000000000000000000000000000000000604b820152610e06906056016105ae565b6001600160a01b031681526040516a7374616b65722e6974656d60a81b6020820152602b81018390527f2e72657761726473537461727454696d65000000000000000000000000000000604b820152610e6190605c01610538565b60c08201526040516a7374616b65722e6974656d60a81b6020820152602b81018390527f2e67677052657761726473000000000000000000000000000000000000000000604b820152610eb690605601610538565b60e08201526040516a7374616b65722e6974656d60a81b6020820152602b81018390527f2e6c617374526577617264734379636c65436f6d706c65746564000000000000604b820152610f0b90606501610538565b610100820152919050565b6040517f636f6e74726163742e657869737473000000000000000000000000000000000060208201527fffffffffffffffffffffffffffffffffffffffff0000000000000000000000003360601b16602f820152610f8d906043015b60405160208183030381529060405280519060200120612a2b565b1515600003610faf57604051631eee95db60e11b815260040160405180910390fd5b6000610fba836115d0565b6040516a7374616b65722e6974656d60a81b6020820152602b81018290527f2e6176617856616c69646174696e674869676857617465720000000000000000604b820152909150611025906063015b6040516020818303038152906040528051906020012083612ab6565b505050565b600080611036836104d6565b6040516a7374616b65722e6974656d60a81b6020820152602b81018290527f2e6c617374526577617264734379636c65436f6d706c65746564000000000000604b82015290915061079e90606501610538565b60006110c96040518060400160405280600881526020017f546f6b656e474750000000000000000000000000000000000000000000000000815250612465565b90506110e06001600160a01b0382163330856125e4565b6110ea33836126a7565b5050565b6000806110fa836104d6565b6040516a7374616b65722e6974656d60a81b6020820152602b81018290527f2e72657761726473537461727454696d65000000000000000000000000000000604b82015290915061079e90605c01610538565b60008061118e6040518060400160405280600681526020017f4f7261636c650000000000000000000000000000000000000000000000000000815250612465565b90506000816001600160a01b03166378e865fe6040518163ffffffff1660e01b81526004016040805180830381865afa1580156111cf573d6000803e3d6000fd5b505050506040513d601f19601f820116820180604052508101906111f3919061304d565b509050600061120185611dac565b9050600061120e86611e0b565b90506112248361121e8484612548565b90612533565b9695505050505050565b60008061123a836104d6565b6040516a7374616b65722e6974656d60a81b6020820152602b81018290527f2e6176617841737369676e656400000000000000000000000000000000000000604b82015290915061079e90605801610538565b6040518060400160405280600f81526020017f4d696e69706f6f6c4d616e616765720000000000000000000000000000000000815250336112d8826040516020016105ae9190613008565b6001600160a01b0316816001600160a01b03161461130957604051631eee95db60e11b815260040160405180910390fd5b6000611314856115d0565b6040516a7374616b65722e6974656d60a81b6020820152602b81018290527f2e6176617856616c69646174696e670000000000000000000000000000000000604b820152909150610a4490605a01610a28565b6040517f636f6e74726163742e657869737473000000000000000000000000000000000060208201527fffffffffffffffffffffffffffffffffffffffff0000000000000000000000003360601b16602f8201526113c790604301610f72565b15156000036113e957604051631eee95db60e11b815260040160405180910390fd5b60006113f4836115d0565b905042821115611430576040517fb4f302f800000000000000000000000000000000000000000000000000000000815260040160405180910390fd5b6040516a7374616b65722e6974656d60a81b6020820152602b81018290527f2e72657761726473537461727454696d65000000000000000000000000000000604b82015261102590605c01611009565b60008061148c836115d0565b6040516a7374616b65722e6974656d60a81b6020820152602b81018290527f2e6767705374616b656400000000000000000000000000000000000000000000604b82015290915061079e90605501610538565b6040518060400160405280600b81526020017f436c61696d4e6f64654f700000000000000000000000000000000000000000008152503361152a826040516020016105ae9190613008565b6001600160a01b0316816001600160a01b03161461155b57604051631eee95db60e11b815260040160405180910390fd5b6000611566856115d0565b6040516a7374616b65722e6974656d60a81b6020820152602b81018290527f2e6c617374526577617264734379636c65436f6d706c65746564000000000000604b820152909150610a44906065016040516020818303038152906040528051906020012085612ab6565b6000806115dc836104d6565b9050807fffffffffffffffffffffffffffffffffffffffffffffffffffffffffffffffff1461160b5792915050565b6040517fe6215fab00000000000000000000000000000000000000000000000000000000815260040160405180910390fd5b6040518060400160405280600f81526020017f4d696e69706f6f6c4d616e61676572000000000000000000000000000000000081525033611688826040516020016105ae9190613008565b6001600160a01b0316816001600160a01b0316146116b957604051631eee95db60e11b815260040160405180910390fd5b60006116c4856115d0565b6040516a7374616b65722e6974656d60a81b6020820152602b81018290527f2e617661785374616b6564000000000000000000000000000000000000000000604b820152909150610a44906056015b6040516020818303038152906040528051906020012085612b0b565b6060600061173b6107a5565b90506000611749848661308a565b905081811180611757575083155b1561175f5750805b611769858261309d565b67ffffffffffffffff811115611781576117816130b0565b60405190808252806020026020018201604052801561180a57816020015b6117f760405180610120016040528060006001600160a01b0316815260200160008152602001600081526020016000815260200160008152602001600081526020016000815260200160008152602001600081525090565b81526020019060019003908161179f5790505b5092506000855b8281101561186657600061182482610c02565b905080868481518110611839576118396130df565b6020026020010181905250828061184f9061310e565b93505050808061185e9061310e565b915050611811565b50835250909392505050565b6040518060400160405280600b81526020017f436c61696d4e6f64654f70000000000000000000000000000000000000000000815250336118bd826040516020016105ae9190613008565b6001600160a01b0316816001600160a01b0316146118ee57604051631eee95db60e11b815260040160405180910390fd5b60006118f9856115d0565b6040516a7374616b65722e6974656d60a81b6020820152602b81018290527f2e67677052657761726473000000000000000000000000000000000000000000604b820152909150610a4490605601611713565b6040518060400160405280600f81526020017f4d696e69706f6f6c4d616e61676572000000000000000000000000000000000081525033611997826040516020016105ae9190613008565b6001600160a01b0316816001600160a01b0316146119c857604051631eee95db60e11b815260040160405180910390fd5b60006119d3856115d0565b6040516a7374616b65722e6974656d60a81b6020820152602b81018290527f2e6176617841737369676e656400000000000000000000000000000000000000604b820152909150610a4490605801611713565b600080611a676040518060400160405280600581526020017f5661756c74000000000000000000000000000000000000000000000000000000815250612465565b90506000611aa96040518060400160405280600881526020017f546f6b656e474750000000000000000000000000000000000000000000000000815250612465565b6040517feccefff60000000000000000000000000000000000000000000000000000000081529091506001600160a01b0383169063eccefff690611af1908490600401613146565b602060405180830381865afa158015611b0e573d6000803e3d6000fd5b505050506040513d601f19601f82011682018060405250810190611b329190613071565b9250505090565b611b4233611480565b811115611b7b576040517ff4d678b800000000000000000000000000000000000000000000000000000000815260040160405180910390fd5b60405181815233907f24231562008debd875e9a0c93d43fda03c49a4578215067a1d7024b97dd15d249060200160405180910390a2611bba33826124be565b6000611bfa6040518060400160405280600b81526020017f50726f746f636f6c44414f000000000000000000000000000000000000000000815250612465565b9050806001600160a01b031663780ba7866040518163ffffffff1660e01b8152600401602060405180830381865afa158015611c3a573d6000803e3d6000fd5b505050506040513d601f19601f82011682018060405250810190611c5e9190613071565b611c673361203b565b1015611c9f576040517f954e323d00000000000000000000000000000000000000000000000000000000815260040160405180910390fd5b6000611cdf6040518060400160405280600581526020017f5661756c74000000000000000000000000000000000000000000000000000000815250612465565b90506000611d216040518060400160405280600881526020017f546f6b656e474750000000000000000000000000000000000000000000000000815250612465565b6040517f01e336670000000000000000000000000000000000000000000000000000000081523360048201526001600160a01b03808316602483015260448201879052919250908316906301e3366790606401600060405180830381600087803b158015611d8e57600080fd5b505af1158015611da2573d6000803e3d6000fd5b5050505050505050565b600080611db8836104d6565b6040516a7374616b65722e6974656d60a81b6020820152602b81018290527f2e6176617856616c69646174696e674869676857617465720000000000000000604b82015290915061079e90606301610538565b600080611e1783611dac565b905080600003611e2a5750600092915050565b67016345785d8a0000611e3c8461203b565b1015611e4b5750600092915050565b6000611e8b6040518060400160405280600681526020017f4f7261636c650000000000000000000000000000000000000000000000000000815250612465565b90506000816001600160a01b03166378e865fe6040518163ffffffff1660e01b81526004016040805180830381865afa158015611ecc573d6000803e3d6000fd5b505050506040513d601f19601f82011682018060405250810190611ef0919061304d565b5090506000611f0882611f0288611480565b90612548565b90506000611f168286612533565b90506000611f586040518060400160405280600b81526020017f50726f746f636f6c44414f000000000000000000000000000000000000000000815250612465565b90506000816001600160a01b031663780ba7866040518163ffffffff1660e01b8152600401602060405180830381865afa158015611f9a573d6000803e3d6000fd5b505050506040513d601f19601f82011682018060405250810190611fbe9190613071565b9050808311611fcd5782611fcf565b805b9998505050505050505050565b600080611fe8836104d6565b6040516a7374616b65722e6974656d60a81b6020820152602b81018290527f2e67677052657761726473000000000000000000000000000000000000000000604b82015290915061079e90605601610538565b6000806120478361122e565b90508060000361207957507fffffffffffffffffffffffffffffffffffffffffffffffffffffffffffffffff92915050565b60006120b96040518060400160405280600681526020017f4f7261636c650000000000000000000000000000000000000000000000000000815250612465565b90506000816001600160a01b03166378e865fe6040518163ffffffff1660e01b81526004016040805180830381865afa1580156120fa573d6000803e3d6000fd5b505050506040513d601f19601f8201168201806040525081019061211e919061304d565b509050600061213082611f0288611480565b90506112248185612533565b600080612148836104d6565b6040516a7374616b65722e6974656d60a81b6020820152602b81018290527f2e6176617856616c69646174696e670000000000000000000000000000000000604b82015290915061079e90605a01610538565b6040518060400160405280600f81526020017f4d696e69706f6f6c4d616e616765720000000000000000000000000000000000815250336121e6826040516020016105ae9190613008565b6001600160a01b0316816001600160a01b03161461221757604051631eee95db60e11b815260040160405180910390fd5b6000612222856115d0565b6040516a7374616b65722e6974656d60a81b6020820152602b81018290527f2e6176617856616c69646174696e670000000000000000000000000000000000604b820152909150610a4490605a01611713565b6040518060400160405280600b81526020017f436c61696d4e6f64654f70000000000000000000000000000000000000000000815250336122c0826040516020016105ae9190613008565b6001600160a01b0316816001600160a01b0316146122f157604051631eee95db60e11b815260040160405180910390fd5b60006122fc856115d0565b6040516a7374616b65722e6974656d60a81b6020820152602b81018290527f2e67677052657761726473000000000000000000000000000000000000000000604b820152909150610a4490605601610a28565b600080546040517fbd02d0f5000000000000000000000000000000000000000000000000000000008152600481018490526101009091046001600160a01b03169063bd02d0f590602401602060405180830381865afa1580156123b6573d6000803e3d6000fd5b505050506040513d601f19601f8201168201806040525081019061055d9190613071565b600080546040517f21f8a721000000000000000000000000000000000000000000000000000000008152600481018490526101009091046001600160a01b0316906321f8a72190602401602060405180830381865afa158015612441573d6000803e3d6000fd5b505050506040513d601f19601f8201168201806040525081019061055d919061319a565b60008061247c836040516020016105ae9190613008565b90506001600160a01b03811661055d576040517fed59262400000000000000000000000000000000000000000000000000000000815260040160405180910390fd5b60006124c9836115d0565b6040516a7374616b65722e6974656d60a81b6020820152602b81018290527f2e6767705374616b656400000000000000000000000000000000000000000000604b820152909150611025906055016040516020818303038152906040528051906020012083612b0b565b600061079e83670de0b6b3a764000084612b60565b600061079e8383670de0b6b3a7640000612b60565b6000546040517fadb353dc00000000000000000000000000000000000000000000000000000000815260048101849052602481018390526101009091046001600160a01b03169063adb353dc906044015b600060405180830381600087803b1580156125c857600080fd5b505af11580156125dc573d6000803e3d6000fd5b505050505050565b60006040517f23b872dd0000000000000000000000000000000000000000000000000000000081528460048201528360248201528260448201526020600060648360008a5af13d15601f3d1160016000511416171691505080610a44576040517f08c379a000000000000000000000000000000000000000000000000000000000815260206004820152601460248201527f5452414e534645525f46524f4d5f4641494c4544000000000000000000000000604482015260640160405180910390fd5b60006126b230612b9c565b90506126c881604051602001610f7291906131b7565b156126ff576040517fab35696f00000000000000000000000000000000000000000000000000000000815260040160405180910390fd5b826001600160a01b03167f3cd32fbc628a7c1c5a309e823125e5a4b8d98b9b31ad71d8338cc5f05829b1998360405161273a91815260200190565b60405180910390a260006127826040518060400160405280600581526020017f5661756c74000000000000000000000000000000000000000000000000000000815250612465565b905060006127c46040518060400160405280600881526020017f546f6b656e474750000000000000000000000000000000000000000000000000815250612465565b6040517f095ea7b30000000000000000000000000000000000000000000000000000000081526001600160a01b038481166004830152602482018790529192509082169063095ea7b3906044016020604051808303816000875af1158015612830573d6000803e3d6000fd5b505050506040513d601f19601f8201168201806040525081019061285491906131fc565b506040517ff44429580000000000000000000000000000000000000000000000000000000081526001600160a01b0383169063f44429589061289c908490889060040161321e565b600060405180830381600087803b1580156128b657600080fd5b505af11580156128ca573d6000803e3d6000fd5b5050505060006128d9866104d6565b90508019612a215761290a7f39288d47a4783f81134d34e7a6b9067048ac0cc8b25c6f52593a7e3d7b76165b61234f565b90506129377f39288d47a4783f81134d34e7a6b9067048ac0cc8b25c6f52593a7e3d7b76165b600161255d565b604080517f7374616b65722e696e646578000000000000000000000000000000000000000060208201527fffffffffffffffffffffffffffffffffffffffff000000000000000000000000606089901b16602c8201526129ba9101604051602081830303815290604052805190602001208260016129b59190613274565b612ab6565b6040516a7374616b65722e6974656d60a81b6020820152602b81018290527f2e7374616b657241646472000000000000000000000000000000000000000000604b820152612a21906056016040516020818303038152906040528051906020012087612c5d565b6125dc8686612cb5565b600080546040517f7ae1cfca000000000000000000000000000000000000000000000000000000008152600481018490526101009091046001600160a01b031690637ae1cfca90602401602060405180830381865afa158015612a92573d6000803e3d6000fd5b505050506040513d601f19601f8201168201806040525081019061055d91906131fc565b6000546040517fe2a4853a00000000000000000000000000000000000000000000000000000000815260048101849052602481018390526101009091046001600160a01b03169063e2a4853a906044016125ae565b6000546040517febb9d8c900000000000000000000000000000000000000000000000000000000815260048101849052602481018390526101009091046001600160a01b03169063ebb9d8c9906044016125ae565b6000827fffffffffffffffffffffffffffffffffffffffffffffffffffffffffffffffff0484118302158202612b9557600080fd5b5091020490565b60606000612c2083604051602001612c0591907f636f6e74726163742e6e616d6500000000000000000000000000000000000000815260609190911b7fffffffffffffffffffffffffffffffffffffffff00000000000000000000000016600d82015260210190565b60405160208183030381529060405280519060200120612d2a565b9050805160000361055d576040517fed59262400000000000000000000000000000000000000000000000000000000815260040160405180910390fd5b6000546040517fca446dd9000000000000000000000000000000000000000000000000000000008152600481018490526001600160a01b0383811660248301526101009092049091169063ca446dd9906044016125ae565b6000612cc0836115d0565b6040516a7374616b65722e6974656d60a81b6020820152602b81018290527f2e6767705374616b656400000000000000000000000000000000000000000000604b82015290915061102590605501604051602081830303815290604052805190602001208361255d565b6000546040517f986e791a0000000000000000000000000000000000000000000000000000000081526004810183905260609161010090046001600160a01b03169063986e791a90602401600060405180830381865afa158015612d92573d6000803e3d6000fd5b505050506040513d6000823e601f3d9081017fffffffffffffffffffffffffffffffffffffffffffffffffffffffffffffffe016820160405261055d919081019061329c565b6001600160a01b0381168114612ded57600080fd5b50565b600060208284031215612e0257600080fd5b813561079e81612dd8565b60008060408385031215612e2057600080fd5b8235612e2b81612dd8565b946020939093013593505050565b600060208284031215612e4b57600080fd5b5035919050565b610120810161055d82846001600160a01b0381511682526020810151602083015260408101516040830152606081015160608301526080810151608083015260a081015160a083015260c081015160c083015260e081015160e08301526101008082015181840152505050565b60008060408385031215612ed257600080fd5b50508035926020909101359150565b6020808252825182820181905260009190848201906040850190845b81811015612f8257612f6e8385516001600160a01b0381511682526020810151602083015260408101516040830152606081015160608301526080810151608083015260a081015160a083015260c081015160c083015260e081015160e08301526101008082015181840152505050565b928401926101209290920191600101612efd565b50909695505050505050565b7f4e487b7100000000000000000000000000000000000000000000000000000000600052601160045260246000fd5b8181036000831280158383131683831282161715612fdd57612fdd612f8e565b5092915050565b60005b83811015612fff578181015183820152602001612fe7565b50506000910152565b7f636f6e74726163742e6164647265737300000000000000000000000000000000815260008251613040816010850160208701612fe4565b9190910160100192915050565b6000806040838503121561306057600080fd5b505080516020909101519092909150565b60006020828403121561308357600080fd5b5051919050565b8082018082111561055d5761055d612f8e565b8181038181111561055d5761055d612f8e565b7f4e487b7100000000000000000000000000000000000000000000000000000000600052604160045260246000fd5b7f4e487b7100000000000000000000000000000000000000000000000000000000600052603260045260246000fd5b60007fffffffffffffffffffffffffffffffffffffffffffffffffffffffffffffffff820361313f5761313f612f8e565b5060010190565b60408152600061318360408301600781527f5374616b696e6700000000000000000000000000000000000000000000000000602082015260400190565b90506001600160a01b038316602083015292915050565b6000602082840312156131ac57600080fd5b815161079e81612dd8565b7f636f6e74726163742e70617573656400000000000000000000000000000000008152600082516131ef81600f850160208701612fe4565b91909101600f0192915050565b60006020828403121561320e57600080fd5b8151801515811461079e57600080fd5b60608152600061325b60608301600781527f5374616b696e6700000000000000000000000000000000000000000000000000602082015260400190565b6001600160a01b03949094166020830152506040015290565b808201828112600083128015821682158216171561329457613294612f8e565b505092915050565b6000602082840312156132ae57600080fd5b815167ffffffffffffffff808211156132c657600080fd5b818401915084601f8301126132da57600080fd5b8151818111156132ec576132ec6130b0565b604051601f82017fffffffffffffffffffffffffffffffffffffffffffffffffffffffffffffffe0908116603f01168101908382118183101715613332576133326130b0565b8160405282815287602084870101111561334b57600080fd5b610947836020830160208801612fe456fea2646970667358221220d7e527662c80e85edd6bb3ae24b4db1ac6eb3103f404300a9e33a3c28c4ea8fe64736f6c63430008110033",
  "linkReferences": {},
  "deployedLinkReferences": {}
}