{
  "_format": "hh-sol-artifact-1",
  "contractName": "Staking",
  "sourceName": "contracts/contract/Staking.sol",
  "abi": [
    {
      "inputs": [
        {
          "internalType": "contract Storage",
          "name": "storageAddress",
          "type": "address"
        },
        {
          "internalType": "contract ERC20",
          "name": "ggp_",
          "type": "address"
        }
      ],
      "stateMutability": "nonpayable",
      "type": "constructor"
    },
    {
      "inputs": [],
      "name": "CannotWithdrawUnder150CollateralizationRatio",
      "type": "error"
    },
    {
      "inputs": [],
      "name": "InsufficientBalance",
      "type": "error"
    },
    {
      "inputs": [],
      "name": "StakerNotFound",
      "type": "error"
    },
    {
      "inputs": [],
      "name": "TransferFailed",
      "type": "error"
    },
    {
      "anonymous": false,
      "inputs": [
        {
          "indexed": true,
          "internalType": "address",
          "name": "from",
          "type": "address"
        },
        {
          "indexed": false,
          "internalType": "uint256",
          "name": "amount",
          "type": "uint256"
        }
      ],
      "name": "GGPStaked",
      "type": "event"
    },
    {
      "anonymous": false,
      "inputs": [
        {
          "indexed": true,
          "internalType": "address",
          "name": "to",
          "type": "address"
        },
        {
          "indexed": false,
          "internalType": "uint256",
          "name": "amount",
          "type": "uint256"
        }
      ],
      "name": "GGPWithdrawn",
      "type": "event"
    },
    {
      "inputs": [
        {
          "internalType": "address",
          "name": "stakerAddr",
          "type": "address"
        },
        {
          "internalType": "uint256",
          "name": "amount",
          "type": "uint256"
        }
      ],
      "name": "decreaseAVAXAssigned",
      "outputs": [],
      "stateMutability": "nonpayable",
      "type": "function"
    },
    {
      "inputs": [
        {
          "internalType": "address",
          "name": "stakerAddr",
          "type": "address"
        },
        {
          "internalType": "uint256",
          "name": "amount",
          "type": "uint256"
        }
      ],
      "name": "decreaseAVAXStake",
      "outputs": [],
      "stateMutability": "nonpayable",
      "type": "function"
    },
    {
      "inputs": [
        {
          "internalType": "address",
          "name": "stakerAddr",
          "type": "address"
        },
        {
          "internalType": "uint256",
          "name": "amount",
          "type": "uint256"
        }
      ],
      "name": "decreaseGGPRewards",
      "outputs": [],
      "stateMutability": "nonpayable",
      "type": "function"
    },
    {
      "inputs": [
        {
          "internalType": "address",
          "name": "stakerAddr",
          "type": "address"
        },
        {
          "internalType": "uint256",
          "name": "amount",
          "type": "uint256"
        }
      ],
      "name": "decreaseGGPStake",
      "outputs": [],
      "stateMutability": "nonpayable",
      "type": "function"
    },
    {
      "inputs": [
        {
          "internalType": "address",
          "name": "stakerAddr",
          "type": "address"
        }
      ],
      "name": "decreaseMinipoolCount",
      "outputs": [],
      "stateMutability": "nonpayable",
      "type": "function"
    },
    {
      "inputs": [
        {
          "internalType": "address",
          "name": "stakerAddr",
          "type": "address"
        }
      ],
      "name": "getAVAXAssigned",
      "outputs": [
        {
          "internalType": "uint256",
          "name": "",
          "type": "uint256"
        }
      ],
      "stateMutability": "view",
      "type": "function"
    },
    {
      "inputs": [
        {
          "internalType": "address",
          "name": "stakerAddr",
          "type": "address"
        }
      ],
      "name": "getAVAXStake",
      "outputs": [
        {
          "internalType": "uint256",
          "name": "",
          "type": "uint256"
        }
      ],
      "stateMutability": "view",
      "type": "function"
    },
    {
      "inputs": [
        {
          "internalType": "address",
          "name": "stakerAddr",
          "type": "address"
        }
      ],
      "name": "getCollateralizationRatio",
      "outputs": [
        {
          "internalType": "uint256",
          "name": "",
          "type": "uint256"
        }
      ],
      "stateMutability": "view",
      "type": "function"
    },
    {
      "inputs": [
        {
          "internalType": "address",
          "name": "stakerAddr",
          "type": "address"
        }
      ],
      "name": "getGGPRewards",
      "outputs": [
        {
          "internalType": "uint256",
          "name": "",
          "type": "uint256"
        }
      ],
      "stateMutability": "view",
      "type": "function"
    },
    {
      "inputs": [
        {
          "internalType": "address",
          "name": "stakerAddr",
          "type": "address"
        }
      ],
      "name": "getGGPStake",
      "outputs": [
        {
          "internalType": "uint256",
          "name": "",
          "type": "uint256"
        }
      ],
      "stateMutability": "view",
      "type": "function"
    },
    {
      "inputs": [
        {
          "internalType": "address",
          "name": "stakerAddr",
          "type": "address"
        }
      ],
      "name": "getIndexOf",
      "outputs": [
        {
          "internalType": "int256",
          "name": "",
          "type": "int256"
        }
      ],
      "stateMutability": "view",
      "type": "function"
    },
    {
      "inputs": [
        {
          "internalType": "address",
          "name": "stakerAddr",
          "type": "address"
        }
      ],
      "name": "getMinimumGGPStake",
      "outputs": [
        {
          "internalType": "uint256",
          "name": "",
          "type": "uint256"
        }
      ],
      "stateMutability": "view",
      "type": "function"
    },
    {
      "inputs": [
        {
          "internalType": "address",
          "name": "stakerAddr",
          "type": "address"
        }
      ],
      "name": "getMinipoolCount",
      "outputs": [
        {
          "internalType": "uint256",
          "name": "",
          "type": "uint256"
        }
      ],
      "stateMutability": "view",
      "type": "function"
    },
    {
      "inputs": [
        {
          "internalType": "string",
          "name": "_contractName",
          "type": "string"
        }
      ],
      "name": "getPublicContractAddress",
      "outputs": [
        {
          "internalType": "address",
          "name": "",
          "type": "address"
        }
      ],
      "stateMutability": "view",
      "type": "function"
    },
    {
      "inputs": [
        {
          "internalType": "address",
          "name": "stakerAddr",
          "type": "address"
        }
      ],
      "name": "getRewardsStartTime",
      "outputs": [
        {
          "internalType": "uint256",
          "name": "",
          "type": "uint256"
        }
      ],
      "stateMutability": "view",
      "type": "function"
    },
    {
      "inputs": [
        {
          "internalType": "bytes32",
          "name": "settingNameSpace",
          "type": "bytes32"
        },
        {
          "internalType": "string",
          "name": "_settingPath",
          "type": "string"
        }
      ],
      "name": "getSettingAddress",
      "outputs": [
        {
          "internalType": "address",
          "name": "",
          "type": "address"
        }
      ],
      "stateMutability": "view",
      "type": "function"
    },
    {
      "inputs": [
        {
          "internalType": "bytes32",
          "name": "settingNameSpace",
          "type": "bytes32"
        },
        {
          "internalType": "string",
          "name": "_settingPath",
          "type": "string"
        }
      ],
      "name": "getSettingBool",
      "outputs": [
        {
          "internalType": "bool",
          "name": "",
          "type": "bool"
        }
      ],
      "stateMutability": "view",
      "type": "function"
    },
    {
      "inputs": [
        {
          "internalType": "bytes32",
          "name": "settingNameSpace",
          "type": "bytes32"
        },
        {
          "internalType": "string",
          "name": "_settingPath",
          "type": "string"
        }
      ],
      "name": "getSettingUint",
      "outputs": [
        {
          "internalType": "uint256",
          "name": "",
          "type": "uint256"
        }
      ],
      "stateMutability": "view",
      "type": "function"
    },
    {
      "inputs": [
        {
          "internalType": "int256",
          "name": "index",
          "type": "int256"
        }
      ],
      "name": "getStaker",
      "outputs": [
        {
          "components": [
            {
              "internalType": "address",
              "name": "stakerAddr",
              "type": "address"
            },
            {
              "internalType": "uint256",
              "name": "ggpStaked",
              "type": "uint256"
            },
            {
              "internalType": "uint256",
              "name": "avaxStaked",
              "type": "uint256"
            },
            {
              "internalType": "uint256",
              "name": "avaxAssigned",
              "type": "uint256"
            },
            {
              "internalType": "uint256",
              "name": "minipoolCount",
              "type": "uint256"
            },
            {
              "internalType": "uint256",
              "name": "rewardsStartTime",
              "type": "uint256"
            },
            {
              "internalType": "uint256",
              "name": "ggpRewards",
              "type": "uint256"
            }
          ],
          "internalType": "struct Staking.Staker",
          "name": "staker",
          "type": "tuple"
        }
      ],
      "stateMutability": "view",
      "type": "function"
    },
    {
      "inputs": [],
      "name": "getStakerCount",
      "outputs": [
        {
          "internalType": "uint256",
          "name": "",
          "type": "uint256"
        }
      ],
      "stateMutability": "view",
      "type": "function"
    },
    {
      "inputs": [
        {
          "internalType": "uint256",
          "name": "offset",
          "type": "uint256"
        },
        {
          "internalType": "uint256",
          "name": "limit",
          "type": "uint256"
        }
      ],
      "name": "getStakers",
      "outputs": [
        {
          "components": [
            {
              "internalType": "address",
              "name": "stakerAddr",
              "type": "address"
            },
            {
              "internalType": "uint256",
              "name": "ggpStaked",
              "type": "uint256"
            },
            {
              "internalType": "uint256",
              "name": "avaxStaked",
              "type": "uint256"
            },
            {
              "internalType": "uint256",
              "name": "avaxAssigned",
              "type": "uint256"
            },
            {
              "internalType": "uint256",
              "name": "minipoolCount",
              "type": "uint256"
            },
            {
              "internalType": "uint256",
              "name": "rewardsStartTime",
              "type": "uint256"
            },
            {
              "internalType": "uint256",
              "name": "ggpRewards",
              "type": "uint256"
            }
          ],
          "internalType": "struct Staking.Staker[]",
          "name": "stakers",
          "type": "tuple[]"
        }
      ],
      "stateMutability": "view",
      "type": "function"
    },
    {
      "inputs": [],
      "name": "getTotalGGPStake",
      "outputs": [
        {
          "internalType": "uint256",
          "name": "",
          "type": "uint256"
        }
      ],
      "stateMutability": "view",
      "type": "function"
    },
    {
      "inputs": [],
      "name": "ggp",
      "outputs": [
        {
          "internalType": "contract ERC20",
          "name": "",
          "type": "address"
        }
      ],
      "stateMutability": "view",
      "type": "function"
    },
    {
      "inputs": [
        {
          "internalType": "address",
          "name": "stakerAddr",
          "type": "address"
        },
        {
          "internalType": "uint256",
          "name": "amount",
          "type": "uint256"
        }
      ],
      "name": "increaseAVAXAssigned",
      "outputs": [],
      "stateMutability": "nonpayable",
      "type": "function"
    },
    {
      "inputs": [
        {
          "internalType": "address",
          "name": "stakerAddr",
          "type": "address"
        },
        {
          "internalType": "uint256",
          "name": "amount",
          "type": "uint256"
        }
      ],
      "name": "increaseAVAXStake",
      "outputs": [],
      "stateMutability": "nonpayable",
      "type": "function"
    },
    {
      "inputs": [
        {
          "internalType": "address",
          "name": "stakerAddr",
          "type": "address"
        },
        {
          "internalType": "uint256",
          "name": "amount",
          "type": "uint256"
        }
      ],
      "name": "increaseGGPRewards",
      "outputs": [],
      "stateMutability": "nonpayable",
      "type": "function"
    },
    {
      "inputs": [
        {
          "internalType": "address",
          "name": "stakerAddr",
          "type": "address"
        },
        {
          "internalType": "uint256",
          "name": "amount",
          "type": "uint256"
        }
      ],
      "name": "increaseGGPStake",
      "outputs": [],
      "stateMutability": "nonpayable",
      "type": "function"
    },
    {
      "inputs": [
        {
          "internalType": "address",
          "name": "stakerAddr",
          "type": "address"
        }
      ],
      "name": "increaseMinipoolCount",
      "outputs": [],
      "stateMutability": "nonpayable",
      "type": "function"
    },
    {
      "inputs": [],
      "name": "maxCollateralizationPercent",
      "outputs": [
        {
          "internalType": "uint256",
          "name": "",
          "type": "uint256"
        }
      ],
      "stateMutability": "view",
      "type": "function"
    },
    {
      "inputs": [],
      "name": "minCollateralizationPercent",
      "outputs": [
        {
          "internalType": "uint256",
          "name": "",
          "type": "uint256"
        }
      ],
      "stateMutability": "view",
      "type": "function"
    },
    {
      "inputs": [
        {
          "internalType": "address",
          "name": "stakerAddr",
          "type": "address"
        }
      ],
      "name": "requireValidStaker",
      "outputs": [
        {
          "internalType": "int256",
          "name": "",
          "type": "int256"
        }
      ],
      "stateMutability": "view",
      "type": "function"
    },
    {
      "inputs": [
        {
          "internalType": "address",
          "name": "stakerAddress",
          "type": "address"
        },
        {
          "internalType": "uint256",
          "name": "amount",
          "type": "uint256"
        }
      ],
      "name": "restakeGGP",
      "outputs": [],
      "stateMutability": "nonpayable",
      "type": "function"
    },
    {
      "inputs": [
        {
          "internalType": "address",
          "name": "stakerAddr",
          "type": "address"
        },
        {
          "internalType": "uint256",
          "name": "time",
          "type": "uint256"
        }
      ],
      "name": "setRewardsStartTime",
      "outputs": [],
      "stateMutability": "nonpayable",
      "type": "function"
    },
    {
      "inputs": [
        {
          "internalType": "address",
          "name": "stakerAddr",
          "type": "address"
        },
        {
          "internalType": "uint256",
          "name": "ggpAmt",
          "type": "uint256"
        }
      ],
      "name": "slashGGP",
      "outputs": [],
      "stateMutability": "nonpayable",
      "type": "function"
    },
    {
      "inputs": [
        {
          "internalType": "uint256",
          "name": "amount",
          "type": "uint256"
        }
      ],
      "name": "stakeGGP",
      "outputs": [],
      "stateMutability": "nonpayable",
      "type": "function"
    },
    {
      "inputs": [],
      "name": "version",
      "outputs": [
        {
          "internalType": "uint8",
          "name": "",
          "type": "uint8"
        }
      ],
      "stateMutability": "view",
      "type": "function"
    },
    {
      "inputs": [
        {
          "internalType": "uint256",
          "name": "amount",
          "type": "uint256"
        }
      ],
      "name": "withdrawGGP",
      "outputs": [],
      "stateMutability": "nonpayable",
      "type": "function"
    }
  ],
  "bytecode": "0x60a06040523480156200001157600080fd5b5060405162001dcd38038062001dcd833981016040819052620000349162000080565b6000805460ff196001600160a01b0394851661010002166001600160a81b031990911617600117905516608052620000bf565b6001600160a01b03811681146200007d57600080fd5b50565b600080604083850312156200009457600080fd5b8251620000a18162000067565b6020840151909250620000b48162000067565b809150509250929050565b608051611cc862000105600039600081816104de01528181610832015281816109c301528181610d0301528181610e1b0152818161133001526113c40152611cc86000f3fe608060405234801561001057600080fd5b50600436106102275760003560e01c80638823169c11610130578063cff0b648116100b8578063f321df491161007c578063f321df49146104d9578063f4d70e7814610500578063f84a4e6e14610513578063fb1ae26d14610522578063fc87bc361461053157600080fd5b8063cff0b6481461047a578063d40a78c91461048d578063e09f845d146104a0578063e60716d7146104b3578063ed54ff22146104c657600080fd5b8063ad71bd36116100ff578063ad71bd3614610419578063b268ee1414610439578063b8c4f6121461044c578063bf79cbf61461045f578063c03f09b01461046757600080fd5b80638823169c146103cd5780639517d256146103e0578063a0b2c3e5146103f3578063a1bb68a51461040657600080fd5b8063465887b3116101b35780635a585185116101825780635a5851851461036157806368a239e9146103815780636e33396714610394578063799c515d146103a7578063877d9e9e146103ba57600080fd5b8063465887b3146103095780634ce084781461031c5780634f3d2e6f1461032f57806354fd4d501461034257600080fd5b80631319649d116101fa5780631319649d146102a55780631cbce7af146102ad578063232de716146102c057806323ca17bd146102e35780632f64fd52146102f657600080fd5b8063017df5221461022c578063065fe0a31461025257806306eaa68b1461026757806309e203a514610292575b600080fd5b61023f61023a36600461163d565b610544565b6040519081526020015b60405180910390f35b61026561026036600461165a565b610587565b005b61027a610275366004611729565b610595565b6040516001600160a01b039091168152602001610249565b61023f6102a036600461163d565b6105cf565b61023f6105f1565b61023f6102bb36600461163d565b610621565b6102d36102ce366004611729565b6106ea565b6040519015158152602001610249565b6102656102f136600461163d565b61071d565b61026561030436600461165a565b610776565b61026561031736600461163d565b6107b8565b61026561032a36600461165a565b610810565b61026561033d36600461165a565b6108b2565b60005461034f9060ff1681565b60405160ff9091168152602001610249565b61037461036f366004611770565b6108d3565b60405161024991906117d3565b61026561038f366004611770565b6109a1565b61023f6103a236600461163d565b610a46565b61023f6103b536600461163d565b610a68565b6102656103c836600461165a565b610a8a565b61023f6103db36600461163d565b610ac7565b61023f6103ee36600461163d565b610ae9565b61023f61040136600461163d565b610b1f565b61026561041436600461165a565b610b41565b61042c6104273660046117e1565b610b7e565b6040516102499190611803565b61026561044736600461165a565b610c71565b61026561045a36600461165a565b610c92565b61023f610cb3565b610265610475366004611770565b610d72565b61027a610488366004611851565b610ec3565b61026561049b36600461165a565b610f2b565b6102656104ae36600461165a565b610f4c565b61023f6104c136600461163d565b610f6d565b61023f6104d436600461163d565b610f8f565b61027a7f000000000000000000000000000000000000000000000000000000000000000081565b61023f61050e366004611729565b61107c565b61023f67016345785d8a000081565b61023f6714d1120d7b16000081565b61026561053f36600461165a565b611094565b600060016105778360405160200161055c919061188e565b604051602081830303815290604052805190602001206110b5565b61058191906118d6565b92915050565b6105918282610f2b565b5050565b60006105c883836040516020016105ad929190611950565b60405160208183030381529060405280519060200120611127565b9392505050565b6000806105db83610ae9565b90506105c88160405160200161055c9190611962565b600061061c7f39288d47a4783f81134d34e7a6b9067048ac0cc8b25c6f52593a7e3d7b76165b6110b5565b905090565b60008061064b604051806040016040528060068152602001654f7261636c6560d01b815250610ec3565b90506000816001600160a01b031663bece349b6040518163ffffffff1660e01b81526004016040805180830381865afa15801561068c573d6000803e3d6000fd5b505050506040513d601f19601f820116820180604052508101906106b09190611995565b50905060006106be85610a68565b905060006106cc8284611199565b90506106e08167016345785d8a00006111ae565b9695505050505050565b60006105c88383604051602001610702929190611950565b604051602081830303815290604052805190602001206111c3565b600061072882610ae9565b905061075b8160405160200161073e91906119b9565b604051602081830303815290604052805190602001206001611235565b61076482610b1f565b60000361059157610591826000610a8a565b600061078183610ae9565b90506107b38160405160200161079791906119ef565b60405160208183030381529060405280519060200120836112a3565b505050565b6107c181610b1f565b6000036107d2576107d28142610a8a565b60006107dd82610ae9565b9050610591816040516020016107f391906119b9565b6040516020818303038152906040528051906020012060016112a3565b6040516323b872dd60e01b8152336004820152306024820152604481018290527f00000000000000000000000000000000000000000000000000000000000000006001600160a01b0316906323b872dd906064016020604051808303816000875af1158015610883573d6000803e3d6000fd5b505050506040513d601f19601f820116820180604052508101906108a79190611a24565b5061059182826112df565b60006108bd83610ae9565b90506107b3816040516020016107979190611962565b6108db6115e2565b6108ef8260405160200161055c9190611a46565b81602001818152505061090c8260405160200161055c91906119ef565b60608201526040516109269061055c908490602001611962565b816040018181525050610943826040516020016105ad9190611a78565b6001600160a01b031681526040516109639061055c9084906020016119b9565b608082015260405161097d9061055c908490602001611aab565b60a08201526040516109979061055c908490602001611ae4565b60c0820152919050565b6040516323b872dd60e01b8152336004820152306024820152604481018290527f00000000000000000000000000000000000000000000000000000000000000006001600160a01b0316906323b872dd906064016020604051808303816000875af1158015610a14573d6000803e3d6000fd5b505050506040513d601f19601f82011682018060405250810190610a389190611a24565b50610a4333826112df565b50565b600080610a5283610ae9565b90506105c88160405160200161055c9190611aab565b600080610a7483610ae9565b90506105c88160405160200161055c91906119ef565b6000610a9583610ae9565b90506107b381604051602001610aab9190611aab565b6040516020818303038152906040528051906020012083611548565b600080610ad383610ae9565b90506105c88160405160200161055c9190611a46565b600080610af583610544565b90508060001914610b065792915050565b60405163e6215fab60e01b815260040160405180910390fd5b600080610b2b83610ae9565b90506105c88160405160200161055c91906119b9565b6000610b4c83610ae9565b90506107b381604051602001610b629190611962565b6040516020818303038152906040528051906020012083611235565b60606000610b8a6105f1565b90506000610b988486611b17565b905081811180610ba6575083155b15610bae5750805b610bb88582611b2f565b67ffffffffffffffff811115610bd057610bd0611686565b604051908082528060200260200182016040528015610c0957816020015b610bf66115e2565b815260200190600190039081610bee5790505b5092506000855b82811015610c65576000610c23826108d3565b905080868481518110610c3857610c38611b46565b60200260200101819052508280610c4e90611b5c565b935050508080610c5d90611b5c565b915050610c10565b50835250909392505050565b6000610c7c83610ae9565b90506107b381604051602001610b629190611ae4565b6000610c9d83610ae9565b90506107b381604051602001610b6291906119ef565b600080610cdc6040518060400160405280600581526020016415985d5b1d60da1b815250610ec3565b6040516376677ffb60e11b81529091506001600160a01b0382169063eccefff690610d2b907f000000000000000000000000000000000000000000000000000000000000000090600401611b75565b602060405180830381865afa158015610d48573d6000803e3d6000fd5b505050506040513d601f19601f82011682018060405250810190610d6c9190611bb6565b91505090565b610d7b33610ac7565b811115610d9b57604051631e9acf1760e31b815260040160405180910390fd5b610da53382610f2b565b6714d1120d7b160000610db733610f8f565b1015610dd65760405163954e323d60e01b815260040160405180910390fd5b6000610dfe6040518060400160405280600581526020016415985d5b1d60da1b815250610ec3565b6040516301e3366760e01b81523360048201526001600160a01b037f00000000000000000000000000000000000000000000000000000000000000008116602483015260448201859052919250908216906301e3366790606401600060405180830381600087803b158015610e7257600080fd5b505af1158015610e86573d6000803e3d6000fd5b50506040518481523392507f24231562008debd875e9a0c93d43fda03c49a4578215067a1d7024b97dd15d24915060200160405180910390a25050565b600080610eda836040516020016105ad9190611bcf565b90506001600160a01b0381166105815760405162461bcd60e51b815260206004820152601260248201527110dbdb9d1c9858dd081b9bdd08199bdd5b9960721b604482015260640160405180910390fd5b6000610f3683610ae9565b90506107b381604051602001610b629190611a46565b6000610f5783610ae9565b90506107b3816040516020016107979190611a46565b600080610f7983610ae9565b90506105c88160405160200161055c9190611ae4565b600080610fb9604051806040016040528060068152602001654f7261636c6560d01b815250610ec3565b90506000816001600160a01b031663bece349b6040518163ffffffff1660e01b81526004016040805180830381865afa158015610ffa573d6000803e3d6000fd5b505050506040513d601f19601f8201168201806040525081019061101e9190611995565b509050600061102c85610ac7565b9050600061103a82846111ae565b9050600061104787610a68565b9050821580611054575080155b1561106757506000199695505050505050565b6110718282611199565b979650505050505050565b60006105c8838360405160200161055c929190611950565b600061109f83610ae9565b90506107b3816040516020016107979190611ae4565b6000805460405163bd02d0f560e01b8152600481018490526101009091046001600160a01b03169063bd02d0f590602401602060405180830381865afa158015611103573d6000803e3d6000fd5b505050506040513d601f19601f820116820180604052508101906105819190611bb6565b600080546040516321f8a72160e01b8152600481018490526101009091046001600160a01b0316906321f8a72190602401602060405180830381865afa158015611175573d6000803e3d6000fd5b505050506040513d601f19601f820116820180604052508101906105819190611bf4565b60006105c883670de0b6b3a764000084611584565b60006105c88383670de0b6b3a7640000611584565b60008054604051633d70e7e560e11b8152600481018490526101009091046001600160a01b031690637ae1cfca90602401602060405180830381865afa158015611211573d6000803e3d6000fd5b505050506040513d601f19601f820116820180604052508101906105819190611a24565b60005460405163ebb9d8c960e01b815260048101849052602481018390526101009091046001600160a01b03169063ebb9d8c9906044015b600060405180830381600087803b15801561128757600080fd5b505af115801561129b573d6000803e3d6000fd5b505050505050565b600054604051632b6cd4f760e21b815260048101849052602481018390526101009091046001600160a01b03169063adb353dc9060440161126d565b60006113076040518060400160405280600581526020016415985d5b1d60da1b815250610ec3565b60405163095ea7b360e01b81526001600160a01b038083166004830152602482018590529192507f00000000000000000000000000000000000000000000000000000000000000009091169063095ea7b3906044016020604051808303816000875af115801561137b573d6000803e3d6000fd5b505050506040513d601f19601f8201168201806040525081019061139f9190611a24565b50604051631e88852b60e31b81526001600160a01b0382169063f4442958906113ee907f0000000000000000000000000000000000000000000000000000000000000000908690600401611c11565b600060405180830381600087803b15801561140857600080fd5b505af115801561141c573d6000803e3d6000fd5b50505050600061142b84610544565b905080196114f55761145c7f39288d47a4783f81134d34e7a6b9067048ac0cc8b25c6f52593a7e3d7b76165b6110b5565b90506114897f39288d47a4783f81134d34e7a6b9067048ac0cc8b25c6f52593a7e3d7b76165b60016112a3565b6114c58460405160200161149d919061188e565b604051602081830303815290604052805190602001208260016114c09190611c51565b611548565b6114f5816040516020016114d99190611a78565b60405160208183030381529060405280519060200120856115a3565b6114ff8484610f4c565b836001600160a01b03167f3cd32fbc628a7c1c5a309e823125e5a4b8d98b9b31ad71d8338cc5f05829b1998460405161153a91815260200190565b60405180910390a250505050565b600054604051637152429d60e11b815260048101849052602481018390526101009091046001600160a01b03169063e2a4853a9060440161126d565b82820281151584158583048514171661159c57600080fd5b0492915050565b60005460405163ca446dd960e01b8152600481018490526001600160a01b0383811660248301526101009092049091169063ca446dd99060440161126d565b6040518060e0016040528060006001600160a01b031681526020016000815260200160008152602001600081526020016000815260200160008152602001600081525090565b6001600160a01b0381168114610a4357600080fd5b60006020828403121561164f57600080fd5b81356105c881611628565b6000806040838503121561166d57600080fd5b823561167881611628565b946020939093013593505050565b634e487b7160e01b600052604160045260246000fd5b600082601f8301126116ad57600080fd5b813567ffffffffffffffff808211156116c8576116c8611686565b604051601f8301601f19908116603f011681019082821181831017156116f0576116f0611686565b8160405283815286602085880101111561170957600080fd5b836020870160208301376000602085830101528094505050505092915050565b6000806040838503121561173c57600080fd5b82359150602083013567ffffffffffffffff81111561175a57600080fd5b6117668582860161169c565b9150509250929050565b60006020828403121561178257600080fd5b5035919050565b80516001600160a01b031682526020808201519083015260408082015190830152606080820151908301526080808201519083015260a0818101519083015260c090810151910152565b60e081016105818284611789565b600080604083850312156117f457600080fd5b50508035926020909101359150565b6020808252825182820181905260009190848201906040850190845b8181101561184557611832838551611789565b9284019260e0929092019160010161181f565b50909695505050505050565b60006020828403121561186357600080fd5b813567ffffffffffffffff81111561187a57600080fd5b6118868482850161169c565b949350505050565b6b0e6e8c2d6cae45cd2dcc8caf60a31b815260609190911b6bffffffffffffffffffffffff1916600c82015260200190565b634e487b7160e01b600052601160045260246000fd5b60008083128015600160ff1b8501841216156118f4576118f46118c0565b6001600160ff1b038401831381161561190f5761190f6118c0565b50500390565b6000815160005b81811015611936576020818501810151868301520161191c565b81811115611945576000828601525b509290920192915050565b82815260006118866020830184611915565b6a7374616b65722e6974656d60a81b8152600b8101919091526a0b985d985e14dd185ad95960aa1b602b82015260360190565b600080604083850312156119a857600080fd5b505080516020909101519092909150565b6a7374616b65722e6974656d60a81b8152600b8101919091526d0b9b5a5b9a5c1bdbdb10dbdd5b9d60921b602b82015260390190565b6a7374616b65722e6974656d60a81b8152600b8101919091526c0b985d985e105cdcda59db9959609a1b602b82015260380190565b600060208284031215611a3657600080fd5b815180151581146105c857600080fd5b6a7374616b65722e6974656d60a81b8152600b810191909152690b99d9dc14dd185ad95960b21b602b82015260350190565b6a7374616b65722e6974656d60a81b8152600b8101919091526a1739ba30b5b2b920b2323960a91b602b82015260360190565b6a7374616b65722e6974656d60a81b8152600b810191909152702e72657761726473537461727454696d6560781b602b820152603c0190565b6a7374616b65722e6974656d60a81b8152600b8101919091526a2e6767705265776172647360a81b602b82015260360190565b60008219821115611b2a57611b2a6118c0565b500190565b600082821015611b4157611b416118c0565b500390565b634e487b7160e01b600052603260045260246000fd5b600060018201611b6e57611b6e6118c0565b5060010190565b604081526000611b9c6040830160078152665374616b696e6760c81b602082015260400190565b6001600160a01b0393909316602092909201919091525090565b600060208284031215611bc857600080fd5b5051919050565b6f636f6e74726163742e6164647265737360801b815260006105c86010830184611915565b600060208284031215611c0657600080fd5b81516105c881611628565b606081526000611c386060830160078152665374616b696e6760c81b602082015260400190565b6001600160a01b03949094166020830152506040015290565b600080821280156001600160ff1b0384900385131615611c7357611c736118c0565b600160ff1b8390038412811615611c8c57611c8c6118c0565b5050019056fea2646970667358221220cf361458227a10b1140844786ae5b22428541b83091b486e00d5eddf8db587b764736f6c634300080d0033",
  "linkReferences": {},
  "deployedLinkReferences": {}
}