{
  "_format": "hh-sol-artifact-1",
  "contractName": "Staking",
  "sourceName": "contracts/contract/Staking.sol",
  "abi": [
    {
      "inputs": [
        {
          "internalType": "contract Storage",
          "name": "storageAddress",
          "type": "address"
        },
        {
          "internalType": "contract ERC20",
          "name": "ggp_",
          "type": "address"
        }
      ],
      "stateMutability": "nonpayable",
      "type": "constructor"
    },
    {
      "inputs": [],
      "name": "CannotWithdrawUnder150CollateralizationRatio",
      "type": "error"
    },
    {
      "inputs": [],
      "name": "InsufficientBalance",
      "type": "error"
    },
    {
      "inputs": [],
      "name": "StakerNotFound",
      "type": "error"
    },
    {
      "inputs": [],
      "name": "TransferFailed",
      "type": "error"
    },
    {
      "anonymous": false,
      "inputs": [
        {
          "indexed": true,
          "internalType": "address",
          "name": "from",
          "type": "address"
        },
        {
          "indexed": false,
          "internalType": "uint256",
          "name": "amount",
          "type": "uint256"
        }
      ],
      "name": "GGPStaked",
      "type": "event"
    },
    {
      "anonymous": false,
      "inputs": [
        {
          "indexed": true,
          "internalType": "address",
          "name": "to",
          "type": "address"
        },
        {
          "indexed": false,
          "internalType": "uint256",
          "name": "amount",
          "type": "uint256"
        }
      ],
      "name": "GGPWithdrawn",
      "type": "event"
    },
    {
      "inputs": [
        {
          "internalType": "address",
          "name": "stakerAddr",
          "type": "address"
        },
        {
          "internalType": "uint256",
          "name": "amount",
          "type": "uint256"
        }
      ],
      "name": "decreaseAVAXAssigned",
      "outputs": [],
      "stateMutability": "nonpayable",
      "type": "function"
    },
    {
      "inputs": [
        {
          "internalType": "address",
          "name": "stakerAddr",
          "type": "address"
        },
        {
          "internalType": "uint256",
          "name": "amount",
          "type": "uint256"
        }
      ],
      "name": "decreaseAVAXStake",
      "outputs": [],
      "stateMutability": "nonpayable",
      "type": "function"
    },
    {
      "inputs": [
        {
          "internalType": "address",
          "name": "stakerAddr",
          "type": "address"
        },
        {
          "internalType": "uint256",
          "name": "amount",
          "type": "uint256"
        }
      ],
      "name": "decreaseGGPStake",
      "outputs": [],
      "stateMutability": "nonpayable",
      "type": "function"
    },
    {
      "inputs": [
        {
          "internalType": "address",
          "name": "stakerAddr",
          "type": "address"
        }
      ],
      "name": "getAVAXAssigned",
      "outputs": [
        {
          "internalType": "uint256",
          "name": "",
          "type": "uint256"
        }
      ],
      "stateMutability": "view",
      "type": "function"
    },
    {
      "inputs": [
        {
          "internalType": "address",
          "name": "stakerAddr",
          "type": "address"
        }
      ],
      "name": "getAVAXStake",
      "outputs": [
        {
          "internalType": "uint256",
          "name": "",
          "type": "uint256"
        }
      ],
      "stateMutability": "view",
      "type": "function"
    },
    {
      "inputs": [
        {
          "internalType": "address",
          "name": "stakerAddr",
          "type": "address"
        }
      ],
      "name": "getCollateralizationRatio",
      "outputs": [
        {
          "internalType": "uint256",
          "name": "",
          "type": "uint256"
        }
      ],
      "stateMutability": "view",
      "type": "function"
    },
    {
      "inputs": [
        {
          "internalType": "address",
          "name": "stakerAddr",
          "type": "address"
        }
      ],
      "name": "getGGPStake",
      "outputs": [
        {
          "internalType": "uint256",
          "name": "",
          "type": "uint256"
        }
      ],
      "stateMutability": "view",
      "type": "function"
    },
    {
      "inputs": [
        {
          "internalType": "address",
          "name": "stakerAddr",
          "type": "address"
        }
      ],
      "name": "getIndexOf",
      "outputs": [
        {
          "internalType": "int256",
          "name": "",
          "type": "int256"
        }
      ],
      "stateMutability": "view",
      "type": "function"
    },
    {
      "inputs": [
        {
          "internalType": "address",
          "name": "stakerAddr",
          "type": "address"
        }
      ],
      "name": "getMinimumGGPStake",
      "outputs": [
        {
          "internalType": "uint256",
          "name": "",
          "type": "uint256"
        }
      ],
      "stateMutability": "view",
      "type": "function"
    },
    {
      "inputs": [
        {
          "internalType": "string",
          "name": "_contractName",
          "type": "string"
        }
      ],
      "name": "getPublicContractAddress",
      "outputs": [
        {
          "internalType": "address",
          "name": "",
          "type": "address"
        }
      ],
      "stateMutability": "view",
      "type": "function"
    },
    {
      "inputs": [
        {
          "internalType": "bytes32",
          "name": "settingNameSpace",
          "type": "bytes32"
        },
        {
          "internalType": "string",
          "name": "_settingPath",
          "type": "string"
        }
      ],
      "name": "getSettingAddress",
      "outputs": [
        {
          "internalType": "address",
          "name": "",
          "type": "address"
        }
      ],
      "stateMutability": "view",
      "type": "function"
    },
    {
      "inputs": [
        {
          "internalType": "bytes32",
          "name": "settingNameSpace",
          "type": "bytes32"
        },
        {
          "internalType": "string",
          "name": "_settingPath",
          "type": "string"
        }
      ],
      "name": "getSettingBool",
      "outputs": [
        {
          "internalType": "bool",
          "name": "",
          "type": "bool"
        }
      ],
      "stateMutability": "view",
      "type": "function"
    },
    {
      "inputs": [
        {
          "internalType": "bytes32",
          "name": "settingNameSpace",
          "type": "bytes32"
        },
        {
          "internalType": "string",
          "name": "_settingPath",
          "type": "string"
        }
      ],
      "name": "getSettingUint",
      "outputs": [
        {
          "internalType": "uint256",
          "name": "",
          "type": "uint256"
        }
      ],
      "stateMutability": "view",
      "type": "function"
    },
    {
      "inputs": [
        {
          "internalType": "int256",
          "name": "index",
          "type": "int256"
        }
      ],
      "name": "getStaker",
      "outputs": [
        {
          "components": [
            {
              "internalType": "address",
              "name": "stakerAddr",
              "type": "address"
            },
            {
              "internalType": "uint256",
              "name": "ggpStaked",
              "type": "uint256"
            },
            {
              "internalType": "uint256",
              "name": "avaxStaked",
              "type": "uint256"
            },
            {
              "internalType": "uint256",
              "name": "avaxAssigned",
              "type": "uint256"
            }
          ],
          "internalType": "struct Staking.Staker",
          "name": "staker",
          "type": "tuple"
        }
      ],
      "stateMutability": "view",
      "type": "function"
    },
    {
      "inputs": [],
      "name": "getStakerCount",
      "outputs": [
        {
          "internalType": "uint256",
          "name": "",
          "type": "uint256"
        }
      ],
      "stateMutability": "view",
      "type": "function"
    },
    {
      "inputs": [
        {
          "internalType": "uint256",
          "name": "offset",
          "type": "uint256"
        },
        {
          "internalType": "uint256",
          "name": "limit",
          "type": "uint256"
        }
      ],
      "name": "getStakers",
      "outputs": [
        {
          "components": [
            {
              "internalType": "address",
              "name": "stakerAddr",
              "type": "address"
            },
            {
              "internalType": "uint256",
              "name": "ggpStaked",
              "type": "uint256"
            },
            {
              "internalType": "uint256",
              "name": "avaxStaked",
              "type": "uint256"
            },
            {
              "internalType": "uint256",
              "name": "avaxAssigned",
              "type": "uint256"
            }
          ],
          "internalType": "struct Staking.Staker[]",
          "name": "stakers",
          "type": "tuple[]"
        }
      ],
      "stateMutability": "view",
      "type": "function"
    },
    {
      "inputs": [],
      "name": "getTotalGGPStake",
      "outputs": [
        {
          "internalType": "uint256",
          "name": "",
          "type": "uint256"
        }
      ],
      "stateMutability": "view",
      "type": "function"
    },
    {
      "inputs": [],
      "name": "ggp",
      "outputs": [
        {
          "internalType": "contract ERC20",
          "name": "",
          "type": "address"
        }
      ],
      "stateMutability": "view",
      "type": "function"
    },
    {
      "inputs": [
        {
          "internalType": "address",
          "name": "stakerAddr",
          "type": "address"
        },
        {
          "internalType": "uint256",
          "name": "amount",
          "type": "uint256"
        }
      ],
      "name": "increaseAVAXAssigned",
      "outputs": [],
      "stateMutability": "nonpayable",
      "type": "function"
    },
    {
      "inputs": [
        {
          "internalType": "address",
          "name": "stakerAddr",
          "type": "address"
        },
        {
          "internalType": "uint256",
          "name": "amount",
          "type": "uint256"
        }
      ],
      "name": "increaseAVAXStake",
      "outputs": [],
      "stateMutability": "nonpayable",
      "type": "function"
    },
    {
      "inputs": [
        {
          "internalType": "address",
          "name": "stakerAddr",
          "type": "address"
        },
        {
          "internalType": "uint256",
          "name": "amount",
          "type": "uint256"
        }
      ],
      "name": "increaseGGPStake",
      "outputs": [],
      "stateMutability": "nonpayable",
      "type": "function"
    },
    {
      "inputs": [],
      "name": "maxCollateralizationPercent",
      "outputs": [
        {
          "internalType": "uint256",
          "name": "",
          "type": "uint256"
        }
      ],
      "stateMutability": "view",
      "type": "function"
    },
    {
      "inputs": [],
      "name": "minCollateralizationPercent",
      "outputs": [
        {
          "internalType": "uint256",
          "name": "",
          "type": "uint256"
        }
      ],
      "stateMutability": "view",
      "type": "function"
    },
    {
      "inputs": [
        {
          "internalType": "address",
          "name": "stakerAddr",
          "type": "address"
        }
      ],
      "name": "requireValidStaker",
      "outputs": [
        {
          "internalType": "int256",
          "name": "",
          "type": "int256"
        }
      ],
      "stateMutability": "view",
      "type": "function"
    },
    {
      "inputs": [
        {
          "internalType": "address",
          "name": "stakerAddr",
          "type": "address"
        },
        {
          "internalType": "uint256",
          "name": "ggpAmt",
          "type": "uint256"
        }
      ],
      "name": "slashGGP",
      "outputs": [],
      "stateMutability": "nonpayable",
      "type": "function"
    },
    {
      "inputs": [
        {
          "internalType": "uint256",
          "name": "amount",
          "type": "uint256"
        }
      ],
      "name": "stakeGGP",
      "outputs": [],
      "stateMutability": "nonpayable",
      "type": "function"
    },
    {
      "inputs": [],
      "name": "version",
      "outputs": [
        {
          "internalType": "uint8",
          "name": "",
          "type": "uint8"
        }
      ],
      "stateMutability": "view",
      "type": "function"
    },
    {
      "inputs": [
        {
          "internalType": "uint256",
          "name": "amount",
          "type": "uint256"
        }
      ],
      "name": "withdrawGGP",
      "outputs": [],
      "stateMutability": "nonpayable",
      "type": "function"
    }
  ],
  "bytecode": "0x60a06040523480156200001157600080fd5b506040516200198c3803806200198c833981016040819052620000349162000080565b6000805460ff196001600160a01b0394851661010002166001600160a81b031990911617600117905516608052620000bf565b6001600160a01b03811681146200007d57600080fd5b50565b600080604083850312156200009457600080fd5b8251620000a18162000067565b6020840151909250620000b48162000067565b809150509250929050565b60805161188e620000fe600039600081816103e301528181610740015281816108070152818161089b01528181610c570152610d6f015261188e6000f3fe608060405234801561001057600080fd5b50600436106101c45760003560e01c80639517d256116100f9578063d40a78c911610097578063f321df4911610071578063f321df49146103de578063f4d70e7814610405578063f84a4e6e14610418578063fb1ae26d1461042757600080fd5b8063d40a78c9146103a5578063e09f845d146103b8578063ed54ff22146103cb57600080fd5b8063b8c4f612116100d3578063b8c4f61214610364578063bf79cbf614610377578063c03f09b01461037f578063cff0b6481461039257600080fd5b80639517d2561461031e578063a1bb68a514610331578063ad71bd361461034457600080fd5b80632f64fd52116101665780635a585185116101405780635a585185146102c557806368a239e9146102e5578063799c515d146102f85780638823169c1461030b57600080fd5b80632f64fd52146102805780634f3d2e6f1461029357806354fd4d50146102a657600080fd5b806309e203a5116101a257806309e203a51461022f5780631319649d146102425780631cbce7af1461024a578063232de7161461025d57600080fd5b8063017df522146101c9578063065fe0a3146101ef57806306eaa68b14610204575b600080fd5b6101dc6101d73660046112a2565b610436565b6040519081526020015b60405180910390f35b6102026101fd3660046112bf565b610479565b005b61021761021236600461138e565b610487565b6040516001600160a01b0390911681526020016101e6565b6101dc61023d3660046112a2565b6104c1565b6101dc6104e3565b6101dc6102583660046112a2565b610513565b61027061026b36600461138e565b6105dc565b60405190151581526020016101e6565b61020261028e3660046112bf565b61060f565b6102026102a13660046112bf565b610651565b6000546102b39060ff1681565b60405160ff90911681526020016101e6565b6102d86102d33660046113d5565b610672565b6040516101e691906113ee565b6102026102f33660046113d5565b61071e565b6101dc6103063660046112a2565b610a10565b6101dc6103193660046112a2565b610a32565b6101dc61032c3660046112a2565b610a54565b61020261033f3660046112bf565b610a8a565b610357610352366004611422565b610ac7565b6040516101e69190611444565b6102026103723660046112bf565b610be6565b6101dc610c07565b61020261038d3660046113d5565b610cc6565b6102176103a03660046114b9565b610e17565b6102026103b33660046112bf565b610e7f565b6102026103c63660046112bf565b610ea0565b6101dc6103d93660046112a2565b610ec1565b6102177f000000000000000000000000000000000000000000000000000000000000000081565b6101dc61041336600461138e565b610fae565b6101dc67016345785d8a000081565b6101dc6714d1120d7b16000081565b600060016104698360405160200161044e91906114f6565b60405160208183030381529060405280519060200120610fc6565b610473919061153e565b92915050565b6104838282610e7f565b5050565b60006104ba838360405160200161049f9291906115b8565b60405160208183030381529060405280519060200120611038565b9392505050565b6000806104cd83610a54565b90506104ba8160405160200161044e91906115ca565b600061050e7f39288d47a4783f81134d34e7a6b9067048ac0cc8b25c6f52593a7e3d7b76165b610fc6565b905090565b60008061053d604051806040016040528060068152602001654f7261636c6560d01b815250610e17565b90506000816001600160a01b031663bece349b6040518163ffffffff1660e01b81526004016040805180830381865afa15801561057e573d6000803e3d6000fd5b505050506040513d601f19601f820116820180604052508101906105a291906115fd565b50905060006105b085610a10565b905060006105be82846110aa565b90506105d28167016345785d8a00006110bf565b9695505050505050565b60006104ba83836040516020016105f49291906115b8565b604051602081830303815290604052805190602001206110d4565b600061061a83610a54565b905061064c816040516020016106309190611621565b6040516020818303038152906040528051906020012083611146565b505050565b600061065c83610a54565b905061064c8160405160200161063091906115ca565b6106a6604051806080016040528060006001600160a01b031681526020016000815260200160008152602001600081525090565b6106ba8260405160200161044e9190611656565b8160200181815250506106d78260405160200161044e9190611621565b60608201526040516106f19061044e9084906020016115ca565b81604001818152505061070e8260405160200161049f9190611688565b6001600160a01b03168152919050565b6040516323b872dd60e01b8152336004820152306024820152604481018290527f00000000000000000000000000000000000000000000000000000000000000006001600160a01b0316906323b872dd906064016020604051808303816000875af1158015610791573d6000803e3d6000fd5b505050506040513d601f19601f820116820180604052508101906107b591906116bb565b5060006107de6040518060400160405280600581526020016415985d5b1d60da1b815250610e17565b60405163095ea7b360e01b81526001600160a01b038083166004830152602482018590529192507f00000000000000000000000000000000000000000000000000000000000000009091169063095ea7b3906044016020604051808303816000875af1158015610852573d6000803e3d6000fd5b505050506040513d601f19601f8201168201806040525081019061087691906116bb565b50604051631e88852b60e31b81526001600160a01b0382169063f4442958906108c5907f00000000000000000000000000000000000000000000000000000000000000009086906004016116dd565b600060405180830381600087803b1580156108df57600080fd5b505af11580156108f3573d6000803e3d6000fd5b50505050600061090233610436565b905080196109cc576109337f39288d47a4783f81134d34e7a6b9067048ac0cc8b25c6f52593a7e3d7b76165b610fc6565b90506109607f39288d47a4783f81134d34e7a6b9067048ac0cc8b25c6f52593a7e3d7b76165b6001611146565b61099c3360405160200161097491906114f6565b60405160208183030381529060405280519060200120826001610997919061171d565b6111b4565b6109cc816040516020016109b09190611688565b60405160208183030381529060405280519060200120336111f0565b6109d63384610ea0565b60405183815233907f3cd32fbc628a7c1c5a309e823125e5a4b8d98b9b31ad71d8338cc5f05829b1999060200160405180910390a2505050565b600080610a1c83610a54565b90506104ba8160405160200161044e9190611621565b600080610a3e83610a54565b90506104ba8160405160200161044e9190611656565b600080610a6083610436565b90508060001914610a715792915050565b60405163e6215fab60e01b815260040160405180910390fd5b6000610a9583610a54565b905061064c81604051602001610aab91906115ca565b604051602081830303815290604052805190602001208361122f565b60606000610ad36104e3565b90506000610ae1848661175e565b905081811180610aef575083155b15610af75750805b610b018582611776565b67ffffffffffffffff811115610b1957610b196112eb565b604051908082528060200260200182016040528015610b7e57816020015b610b6b604051806080016040528060006001600160a01b031681526020016000815260200160008152602001600081525090565b815260200190600190039081610b375790505b5092506000855b82811015610bda576000610b9882610672565b905080868481518110610bad57610bad61178d565b60200260200101819052508280610bc3906117a3565b935050508080610bd2906117a3565b915050610b85565b50835250909392505050565b6000610bf183610a54565b905061064c81604051602001610aab9190611621565b600080610c306040518060400160405280600581526020016415985d5b1d60da1b815250610e17565b6040516376677ffb60e11b81529091506001600160a01b0382169063eccefff690610c7f907f0000000000000000000000000000000000000000000000000000000000000000906004016117bc565b602060405180830381865afa158015610c9c573d6000803e3d6000fd5b505050506040513d601f19601f82011682018060405250810190610cc091906117fd565b91505090565b610ccf33610a32565b811115610cef57604051631e9acf1760e31b815260040160405180910390fd5b610cf93382610e7f565b6714d1120d7b160000610d0b33610ec1565b1015610d2a5760405163954e323d60e01b815260040160405180910390fd5b6000610d526040518060400160405280600581526020016415985d5b1d60da1b815250610e17565b6040516301e3366760e01b81523360048201526001600160a01b037f00000000000000000000000000000000000000000000000000000000000000008116602483015260448201859052919250908216906301e3366790606401600060405180830381600087803b158015610dc657600080fd5b505af1158015610dda573d6000803e3d6000fd5b50506040518481523392507f24231562008debd875e9a0c93d43fda03c49a4578215067a1d7024b97dd15d24915060200160405180910390a25050565b600080610e2e8360405160200161049f9190611816565b90506001600160a01b0381166104735760405162461bcd60e51b815260206004820152601260248201527110dbdb9d1c9858dd081b9bdd08199bdd5b9960721b604482015260640160405180910390fd5b6000610e8a83610a54565b905061064c81604051602001610aab9190611656565b6000610eab83610a54565b905061064c816040516020016106309190611656565b600080610eeb604051806040016040528060068152602001654f7261636c6560d01b815250610e17565b90506000816001600160a01b031663bece349b6040518163ffffffff1660e01b81526004016040805180830381865afa158015610f2c573d6000803e3d6000fd5b505050506040513d601f19601f82011682018060405250810190610f5091906115fd565b5090506000610f5e85610a32565b90506000610f6c82846110bf565b90506000610f7987610a10565b9050821580610f86575080155b15610f9957506000199695505050505050565b610fa382826110aa565b979650505050505050565b60006104ba838360405160200161044e9291906115b8565b6000805460405163bd02d0f560e01b8152600481018490526101009091046001600160a01b03169063bd02d0f590602401602060405180830381865afa158015611014573d6000803e3d6000fd5b505050506040513d601f19601f8201168201806040525081019061047391906117fd565b600080546040516321f8a72160e01b8152600481018490526101009091046001600160a01b0316906321f8a72190602401602060405180830381865afa158015611086573d6000803e3d6000fd5b505050506040513d601f19601f82011682018060405250810190610473919061183b565b60006104ba83670de0b6b3a76400008461126b565b60006104ba8383670de0b6b3a764000061126b565b60008054604051633d70e7e560e11b8152600481018490526101009091046001600160a01b031690637ae1cfca90602401602060405180830381865afa158015611122573d6000803e3d6000fd5b505050506040513d601f19601f8201168201806040525081019061047391906116bb565b600054604051632b6cd4f760e21b815260048101849052602481018390526101009091046001600160a01b03169063adb353dc906044015b600060405180830381600087803b15801561119857600080fd5b505af11580156111ac573d6000803e3d6000fd5b505050505050565b600054604051637152429d60e11b815260048101849052602481018390526101009091046001600160a01b03169063e2a4853a9060440161117e565b60005460405163ca446dd960e01b8152600481018490526001600160a01b0383811660248301526101009092049091169063ca446dd99060440161117e565b60005460405163ebb9d8c960e01b815260048101849052602481018390526101009091046001600160a01b03169063ebb9d8c99060440161117e565b82820281151584158583048514171661128357600080fd5b0492915050565b6001600160a01b038116811461129f57600080fd5b50565b6000602082840312156112b457600080fd5b81356104ba8161128a565b600080604083850312156112d257600080fd5b82356112dd8161128a565b946020939093013593505050565b634e487b7160e01b600052604160045260246000fd5b600082601f83011261131257600080fd5b813567ffffffffffffffff8082111561132d5761132d6112eb565b604051601f8301601f19908116603f01168101908282118183101715611355576113556112eb565b8160405283815286602085880101111561136e57600080fd5b836020870160208301376000602085830101528094505050505092915050565b600080604083850312156113a157600080fd5b82359150602083013567ffffffffffffffff8111156113bf57600080fd5b6113cb85828601611301565b9150509250929050565b6000602082840312156113e757600080fd5b5035919050565b81516001600160a01b0316815260208083015190820152604080830151908201526060808301519082015260808101610473565b6000806040838503121561143557600080fd5b50508035926020909101359150565b6020808252825182820181905260009190848201906040850190845b818110156114ad5761149a83855180516001600160a01b031682526020808201519083015260408082015190830152606090810151910152565b9284019260809290920191600101611460565b50909695505050505050565b6000602082840312156114cb57600080fd5b813567ffffffffffffffff8111156114e257600080fd5b6114ee84828501611301565b949350505050565b6b0e6e8c2d6cae45cd2dcc8caf60a31b815260609190911b6bffffffffffffffffffffffff1916600c82015260200190565b634e487b7160e01b600052601160045260246000fd5b60008083128015600160ff1b85018412161561155c5761155c611528565b6001600160ff1b038401831381161561157757611577611528565b50500390565b6000815160005b8181101561159e5760208185018101518683015201611584565b818111156115ad576000828601525b509290920192915050565b82815260006114ee602083018461157d565b6a7374616b65722e6974656d60a81b8152600b8101919091526a0b985d985e14dd185ad95960aa1b602b82015260360190565b6000806040838503121561161057600080fd5b505080516020909101519092909150565b6a7374616b65722e6974656d60a81b8152600b8101919091526c0b985d985e105cdcda59db9959609a1b602b82015260380190565b6a7374616b65722e6974656d60a81b8152600b810191909152690b99d9dc14dd185ad95960b21b602b82015260350190565b6a7374616b65722e6974656d60a81b8152600b8101919091526a1739ba30b5b2b920b2323960a91b602b82015260360190565b6000602082840312156116cd57600080fd5b815180151581146104ba57600080fd5b6060815260006117046060830160078152665374616b696e6760c81b602082015260400190565b6001600160a01b03949094166020830152506040015290565b600080821280156001600160ff1b038490038513161561173f5761173f611528565b600160ff1b839003841281161561175857611758611528565b50500190565b6000821982111561177157611771611528565b500190565b60008282101561178857611788611528565b500390565b634e487b7160e01b600052603260045260246000fd5b6000600182016117b5576117b5611528565b5060010190565b6040815260006117e36040830160078152665374616b696e6760c81b602082015260400190565b6001600160a01b0393909316602092909201919091525090565b60006020828403121561180f57600080fd5b5051919050565b6f636f6e74726163742e6164647265737360801b815260006104ba601083018461157d565b60006020828403121561184d57600080fd5b81516104ba8161128a56fea264697066735822122066da039550e079f225c6a31050c9c4efff4fcdb8e7d8225a5f1077d5d009b14f64736f6c634300080d0033",
  "linkReferences": {},
  "deployedLinkReferences": {}
}