{
  "_format": "hh-sol-artifact-1",
  "contractName": "Storage",
  "sourceName": "contracts/contract/Storage.sol",
  "abi": [
    {
      "inputs": [],
      "stateMutability": "nonpayable",
      "type": "constructor"
    },
    {
      "anonymous": false,
      "inputs": [
        {
          "indexed": false,
          "internalType": "address",
          "name": "oldGuardian",
          "type": "address"
        },
        {
          "indexed": false,
          "internalType": "address",
          "name": "newGuardian",
          "type": "address"
        }
      ],
      "name": "GuardianChanged",
      "type": "event"
    },
    {
      "inputs": [
        {
          "internalType": "bytes32",
          "name": "_key",
          "type": "bytes32"
        },
        {
          "internalType": "uint256",
          "name": "_amount",
          "type": "uint256"
        }
      ],
      "name": "addUint",
      "outputs": [],
      "stateMutability": "nonpayable",
      "type": "function"
    },
    {
      "inputs": [],
      "name": "confirmGuardian",
      "outputs": [],
      "stateMutability": "nonpayable",
      "type": "function"
    },
    {
      "inputs": [
        {
          "internalType": "address",
          "name": "_nodeAddress",
          "type": "address"
        }
      ],
      "name": "confirmWithdrawalAddress",
      "outputs": [],
      "stateMutability": "nonpayable",
      "type": "function"
    },
    {
      "inputs": [
        {
          "internalType": "bytes32",
          "name": "_key",
          "type": "bytes32"
        }
      ],
      "name": "deleteAddress",
      "outputs": [],
      "stateMutability": "nonpayable",
      "type": "function"
    },
    {
      "inputs": [
        {
          "internalType": "bytes32",
          "name": "_key",
          "type": "bytes32"
        }
      ],
      "name": "deleteBool",
      "outputs": [],
      "stateMutability": "nonpayable",
      "type": "function"
    },
    {
      "inputs": [
        {
          "internalType": "bytes32",
          "name": "_key",
          "type": "bytes32"
        }
      ],
      "name": "deleteBytes",
      "outputs": [],
      "stateMutability": "nonpayable",
      "type": "function"
    },
    {
      "inputs": [
        {
          "internalType": "bytes32",
          "name": "_key",
          "type": "bytes32"
        }
      ],
      "name": "deleteBytes32",
      "outputs": [],
      "stateMutability": "nonpayable",
      "type": "function"
    },
    {
      "inputs": [
        {
          "internalType": "bytes32",
          "name": "_key",
          "type": "bytes32"
        }
      ],
      "name": "deleteInt",
      "outputs": [],
      "stateMutability": "nonpayable",
      "type": "function"
    },
    {
      "inputs": [
        {
          "internalType": "bytes32",
          "name": "_key",
          "type": "bytes32"
        }
      ],
      "name": "deleteString",
      "outputs": [],
      "stateMutability": "nonpayable",
      "type": "function"
    },
    {
      "inputs": [
        {
          "internalType": "bytes32",
          "name": "_key",
          "type": "bytes32"
        }
      ],
      "name": "deleteUint",
      "outputs": [],
      "stateMutability": "nonpayable",
      "type": "function"
    },
    {
      "inputs": [
        {
          "internalType": "bytes32",
          "name": "_key",
          "type": "bytes32"
        }
      ],
      "name": "getAddress",
      "outputs": [
        {
          "internalType": "address",
          "name": "r",
          "type": "address"
        }
      ],
      "stateMutability": "view",
      "type": "function"
    },
    {
      "inputs": [
        {
          "internalType": "bytes32",
          "name": "_key",
          "type": "bytes32"
        }
      ],
      "name": "getBool",
      "outputs": [
        {
          "internalType": "bool",
          "name": "r",
          "type": "bool"
        }
      ],
      "stateMutability": "view",
      "type": "function"
    },
    {
      "inputs": [
        {
          "internalType": "bytes32",
          "name": "_key",
          "type": "bytes32"
        }
      ],
      "name": "getBytes",
      "outputs": [
        {
          "internalType": "bytes",
          "name": "",
          "type": "bytes"
        }
      ],
      "stateMutability": "view",
      "type": "function"
    },
    {
      "inputs": [
        {
          "internalType": "bytes32",
          "name": "_key",
          "type": "bytes32"
        }
      ],
      "name": "getBytes32",
      "outputs": [
        {
          "internalType": "bytes32",
          "name": "r",
          "type": "bytes32"
        }
      ],
      "stateMutability": "view",
      "type": "function"
    },
    {
      "inputs": [],
      "name": "getDeployedStatus",
      "outputs": [
        {
          "internalType": "bool",
          "name": "",
          "type": "bool"
        }
      ],
      "stateMutability": "view",
      "type": "function"
    },
    {
      "inputs": [],
      "name": "getGuardian",
      "outputs": [
        {
          "internalType": "address",
          "name": "",
          "type": "address"
        }
      ],
      "stateMutability": "view",
      "type": "function"
    },
    {
      "inputs": [
        {
          "internalType": "bytes32",
          "name": "_key",
          "type": "bytes32"
        }
      ],
      "name": "getInt",
      "outputs": [
        {
          "internalType": "int256",
          "name": "r",
          "type": "int256"
        }
      ],
      "stateMutability": "view",
      "type": "function"
    },
    {
      "inputs": [
        {
          "internalType": "address",
          "name": "_nodeAddress",
          "type": "address"
        }
      ],
      "name": "getNodePendingWithdrawalAddress",
      "outputs": [
        {
          "internalType": "address",
          "name": "",
          "type": "address"
        }
      ],
      "stateMutability": "view",
      "type": "function"
    },
    {
      "inputs": [
        {
          "internalType": "address",
          "name": "_nodeAddress",
          "type": "address"
        }
      ],
      "name": "getNodeWithdrawalAddress",
      "outputs": [
        {
          "internalType": "address",
          "name": "",
          "type": "address"
        }
      ],
      "stateMutability": "view",
      "type": "function"
    },
    {
      "inputs": [
        {
          "internalType": "bytes32",
          "name": "_key",
          "type": "bytes32"
        }
      ],
      "name": "getString",
      "outputs": [
        {
          "internalType": "string",
          "name": "",
          "type": "string"
        }
      ],
      "stateMutability": "view",
      "type": "function"
    },
    {
      "inputs": [
        {
          "internalType": "bytes32",
          "name": "_key",
          "type": "bytes32"
        }
      ],
      "name": "getUint",
      "outputs": [
        {
          "internalType": "uint256",
          "name": "r",
          "type": "uint256"
        }
      ],
      "stateMutability": "view",
      "type": "function"
    },
    {
      "inputs": [
        {
          "internalType": "bytes32",
          "name": "_key",
          "type": "bytes32"
        },
        {
          "internalType": "address",
          "name": "_value",
          "type": "address"
        }
      ],
      "name": "setAddress",
      "outputs": [],
      "stateMutability": "nonpayable",
      "type": "function"
    },
    {
      "inputs": [
        {
          "internalType": "bytes32",
          "name": "_key",
          "type": "bytes32"
        },
        {
          "internalType": "bool",
          "name": "_value",
          "type": "bool"
        }
      ],
      "name": "setBool",
      "outputs": [],
      "stateMutability": "nonpayable",
      "type": "function"
    },
    {
      "inputs": [
        {
          "internalType": "bytes32",
          "name": "_key",
          "type": "bytes32"
        },
        {
          "internalType": "bytes",
          "name": "_value",
          "type": "bytes"
        }
      ],
      "name": "setBytes",
      "outputs": [],
      "stateMutability": "nonpayable",
      "type": "function"
    },
    {
      "inputs": [
        {
          "internalType": "bytes32",
          "name": "_key",
          "type": "bytes32"
        },
        {
          "internalType": "bytes32",
          "name": "_value",
          "type": "bytes32"
        }
      ],
      "name": "setBytes32",
      "outputs": [],
      "stateMutability": "nonpayable",
      "type": "function"
    },
    {
      "inputs": [],
      "name": "setDeployedStatus",
      "outputs": [],
      "stateMutability": "nonpayable",
      "type": "function"
    },
    {
      "inputs": [
        {
          "internalType": "address",
          "name": "_newAddress",
          "type": "address"
        }
      ],
      "name": "setGuardian",
      "outputs": [],
      "stateMutability": "nonpayable",
      "type": "function"
    },
    {
      "inputs": [
        {
          "internalType": "bytes32",
          "name": "_key",
          "type": "bytes32"
        },
        {
          "internalType": "int256",
          "name": "_value",
          "type": "int256"
        }
      ],
      "name": "setInt",
      "outputs": [],
      "stateMutability": "nonpayable",
      "type": "function"
    },
    {
      "inputs": [
        {
          "internalType": "bytes32",
          "name": "_key",
          "type": "bytes32"
        },
        {
          "internalType": "string",
          "name": "_value",
          "type": "string"
        }
      ],
      "name": "setString",
      "outputs": [],
      "stateMutability": "nonpayable",
      "type": "function"
    },
    {
      "inputs": [
        {
          "internalType": "bytes32",
          "name": "_key",
          "type": "bytes32"
        },
        {
          "internalType": "uint256",
          "name": "_value",
          "type": "uint256"
        }
      ],
      "name": "setUint",
      "outputs": [],
      "stateMutability": "nonpayable",
      "type": "function"
    },
    {
      "inputs": [
        {
          "internalType": "address",
          "name": "_nodeAddress",
          "type": "address"
        },
        {
          "internalType": "address",
          "name": "_newWithdrawalAddress",
          "type": "address"
        },
        {
          "internalType": "bool",
          "name": "_confirm",
          "type": "bool"
        }
      ],
      "name": "setWithdrawalAddress",
      "outputs": [],
      "stateMutability": "nonpayable",
      "type": "function"
    },
    {
      "inputs": [
        {
          "internalType": "bytes32",
          "name": "_key",
          "type": "bytes32"
        },
        {
          "internalType": "uint256",
          "name": "_amount",
          "type": "uint256"
        }
      ],
      "name": "subUint",
      "outputs": [],
      "stateMutability": "nonpayable",
      "type": "function"
    }
  ],
  "bytecode": "0x6080604052600a805460ff60a01b1916905534801561001d57600080fd5b50600980546001600160a01b03191633179055611dfe8061003f6000396000f3fe608060405234801561001057600080fd5b50600436106101f05760003560e01c8063a543ccea1161010f578063ca446dd9116100a2578063ebb9d8c911610071578063ebb9d8c91461048e578063f6bb3cc4146104a1578063fd412513146104b4578063febffd99146104e057600080fd5b8063ca446dd914610435578063dc97d96214610448578063e2a4853a14610468578063e2b202bf1461047b57600080fd5b8063adb353dc116100de578063adb353dc146103dc578063bd02d0f5146103ef578063bd4391261461040f578063c031a1801461042257600080fd5b8063a543ccea14610377578063a6ed563e1461038a578063a75b87d2146103b8578063abfdcced146103c957600080fd5b80634e91db08116101875780637ae1cfca116101565780637ae1cfca1461030e5780638a0dac4a146103315780638c16009514610344578063986e791a1461035757600080fd5b80634e91db08146102c25780635b49ff62146102d5578063616b59f6146102e85780636e899550146102fb57600080fd5b806321f8a721116101c357806321f8a721146102485780632c62ff2d146102895780632e28d0841461029c5780633e49bed0146102af57600080fd5b80630b9adc57146101f55780630e14a3761461020a5780631bed52411461021d5780631e0ea61e14610240575b600080fd5b610208610203366004611a5f565b6104e8565b005b610208610218366004611a5f565b6105e6565b600a54600160a01b900460ff165b60405190151581526020015b60405180910390f35b6102086106e8565b610271610256366004611a5f565b6000908152600460205260409020546001600160a01b031690565b6040516001600160a01b039091168152602001610237565b610208610297366004611a5f565b6107c7565b6102086102aa366004611ac1565b6108c3565b6102086102bd366004611b0d565b6109c6565b6102086102d0366004611b0d565b610abc565b6102716102e3366004611b4b565b610bb2565b6102086102f6366004611a5f565b610be1565b610208610309366004611ac1565b610cdf565b61022b61031c366004611a5f565b60009081526005602052604090205460ff1690565b61020861033f366004611b4b565b610ddc565b610208610352366004611a5f565b610e52565b61036a610365366004611a5f565b610f47565b6040516102379190611bba565b610208610385366004611bdd565b610fe9565b6103aa610398366004611a5f565b60009081526006602052604090205490565b604051908152602001610237565b6009546001600160a01b0316610271565b6102086103d7366004611c20565b61110f565b6102086103ea366004611b0d565b611213565b6103aa6103fd366004611a5f565b60009081526002602052604090205490565b61020861041d366004611b4b565b611327565b61036a610430366004611a5f565b6113e6565b610208610443366004611c4c565b611403565b6103aa610456366004611a5f565b60009081526003602052604090205490565b610208610476366004611b0d565b611515565b610208610489366004611a5f565b61160b565b61020861049c366004611b0d565b611700565b6102086104af366004611a5f565b6117fe565b6102716104c2366004611b4b565b6001600160a01b039081166000908152600860205260409020541690565b6102086118f9565b600a54600160a01b900460ff1615156001036105665760056000336040516020016105139190611c6f565b60408051601f198184030181529181528151602092830120835290820192909252016000205460ff166105615760405162461bcd60e51b815260040161055890611ca4565b60405180910390fd5b6105d5565b600560003360405160200161057b9190611c6f565b60408051601f198184030181529181528151602092830120835290820192909252016000205460ff16806105b957506009546001600160a01b031632145b6105d55760405162461bcd60e51b815260040161055890611cdb565b600090815260066020526040812055565b600a54600160a01b900460ff16151560010361065b5760056000336040516020016106119190611c6f565b60408051601f198184030181529181528151602092830120835290820192909252016000205460ff166106565760405162461bcd60e51b815260040161055890611ca4565b6106ca565b60056000336040516020016106709190611c6f565b60408051601f198184030181529181528151602092830120835290820192909252016000205460ff16806106ae57506009546001600160a01b031632145b6106ca5760405162461bcd60e51b815260040161055890611cdb565b600090815260046020526040902080546001600160a01b0319169055565b600a546001600160a01b0316331461075b5760405162461bcd60e51b815260206004820152603060248201527f436f6e6669726d6174696f6e206d75737420636f6d652066726f6d206e65772060448201526f677561726469616e206164647265737360801b6064820152608401610558565b60098054600a80546001600160a01b038082166001600160a01b0319808616821790965594909116909155604080519190921680825260208201939093527fa14fc14d8620a708a896fd11392a235647d99385500a295f0d7da2a258b2e967910160405180910390a150565b600a54600160a01b900460ff16151560010361083c5760056000336040516020016107f29190611c6f565b60408051601f198184030181529181528151602092830120835290820192909252016000205460ff166108375760405162461bcd60e51b815260040161055890611ca4565b6108ab565b60056000336040516020016108519190611c6f565b60408051601f198184030181529181528151602092830120835290820192909252016000205460ff168061088f57506009546001600160a01b031632145b6108ab5760405162461bcd60e51b815260040161055890611cdb565b6000908152600560205260409020805460ff19169055565b600a54600160a01b900460ff1615156001036109385760056000336040516020016108ee9190611c6f565b60408051601f198184030181529181528151602092830120835290820192909252016000205460ff166109335760405162461bcd60e51b815260040161055890611ca4565b6109a7565b600560003360405160200161094d9190611c6f565b60408051601f198184030181529181528151602092830120835290820192909252016000205460ff168061098b57506009546001600160a01b031632145b6109a75760405162461bcd60e51b815260040161055890611cdb565b60008381526001602052604090206109c0908383611990565b50505050565b600a54600160a01b900460ff161515600103610a3b5760056000336040516020016109f19190611c6f565b60408051601f198184030181529181528151602092830120835290820192909252016000205460ff16610a365760405162461bcd60e51b815260040161055890611ca4565b610aaa565b6005600033604051602001610a509190611c6f565b60408051601f198184030181529181528151602092830120835290820192909252016000205460ff1680610a8e57506009546001600160a01b031632145b610aaa5760405162461bcd60e51b815260040161055890611cdb565b60009182526003602052604090912055565b600a54600160a01b900460ff161515600103610b31576005600033604051602001610ae79190611c6f565b60408051601f198184030181529181528151602092830120835290820192909252016000205460ff16610b2c5760405162461bcd60e51b815260040161055890611ca4565b610ba0565b6005600033604051602001610b469190611c6f565b60408051601f198184030181529181528151602092830120835290820192909252016000205460ff1680610b8457506009546001600160a01b031632145b610ba05760405162461bcd60e51b815260040161055890611cdb565b60009182526006602052604090912055565b6001600160a01b0380821660009081526007602052604081205490911680610bdb575090919050565b92915050565b600a54600160a01b900460ff161515600103610c56576005600033604051602001610c0c9190611c6f565b60408051601f198184030181529181528151602092830120835290820192909252016000205460ff16610c515760405162461bcd60e51b815260040161055890611ca4565b610cc5565b6005600033604051602001610c6b9190611c6f565b60408051601f198184030181529181528151602092830120835290820192909252016000205460ff1680610ca957506009546001600160a01b031632145b610cc55760405162461bcd60e51b815260040161055890611cdb565b6000818152600160205260408120610cdc91611a14565b50565b600a54600160a01b900460ff161515600103610d54576005600033604051602001610d0a9190611c6f565b60408051601f198184030181529181528151602092830120835290820192909252016000205460ff16610d4f5760405162461bcd60e51b815260040161055890611ca4565b610dc3565b6005600033604051602001610d699190611c6f565b60408051601f198184030181529181528151602092830120835290820192909252016000205460ff1680610da757506009546001600160a01b031632145b610dc35760405162461bcd60e51b815260040161055890611cdb565b60008381526020819052604090206109c0908383611990565b6009546001600160a01b03163314610e305760405162461bcd60e51b8152602060048201526017602482015276125cc81b9bdd0819dd585c991a585b881858d8dbdd5b9d604a1b6044820152606401610558565b600a80546001600160a01b0319166001600160a01b0392909216919091179055565b600a54600160a01b900460ff161515600103610ec7576005600033604051602001610e7d9190611c6f565b60408051601f198184030181529181528151602092830120835290820192909252016000205460ff16610ec25760405162461bcd60e51b815260040161055890611ca4565b610f36565b6005600033604051602001610edc9190611c6f565b60408051601f198184030181529181528151602092830120835290820192909252016000205460ff1680610f1a57506009546001600160a01b031632145b610f365760405162461bcd60e51b815260040161055890611cdb565b600090815260036020526040812055565b6000818152602081905260409020805460609190610f6490611d49565b80601f0160208091040260200160405190810160405280929190818152602001828054610f9090611d49565b8015610fdd5780601f10610fb257610100808354040283529160200191610fdd565b820191906000526020600020905b815481529060010190602001808311610fc057829003601f168201915b50505050509050919050565b6001600160a01b03821661103f5760405162461bcd60e51b815260206004820152601a60248201527f496e76616c6964207769746864726177616c20616464726573730000000000006044820152606401610558565b600061104a84610bb2565b90506001600160a01b03811633146110ca5760405162461bcd60e51b815260206004820152603860248201527f4f6e6c7920612074782066726f6d2061206e6f6465277320776974686472617760448201527f616c20616464726573732063616e2075706461746520697400000000000000006064820152608401610558565b81156110df576110da8484611962565b6109c0565b50506001600160a01b03918216600090815260086020526040902080546001600160a01b03191691909216179055565b600a54600160a01b900460ff16151560010361118457600560003360405160200161113a9190611c6f565b60408051601f198184030181529181528151602092830120835290820192909252016000205460ff1661117f5760405162461bcd60e51b815260040161055890611ca4565b6111f3565b60056000336040516020016111999190611c6f565b60408051601f198184030181529181528151602092830120835290820192909252016000205460ff16806111d757506009546001600160a01b031632145b6111f35760405162461bcd60e51b815260040161055890611cdb565b600091825260056020526040909120805460ff1916911515919091179055565b600a54600160a01b900460ff16151560010361128857600560003360405160200161123e9190611c6f565b60408051601f198184030181529181528151602092830120835290820192909252016000205460ff166112835760405162461bcd60e51b815260040161055890611ca4565b6112f7565b600560003360405160200161129d9190611c6f565b60408051601f198184030181529181528151602092830120835290820192909252016000205460ff16806112db57506009546001600160a01b031632145b6112f75760405162461bcd60e51b815260040161055890611cdb565b600082815260026020526040902054611311908290611d99565b6000928352600260205260409092209190915550565b6001600160a01b038181166000908152600860205260409020541633146113b65760405162461bcd60e51b815260206004820152603a60248201527f436f6e6669726d6174696f6e206d75737420636f6d652066726f6d207468652060448201527f70656e64696e67207769746864726177616c20616464726573730000000000006064820152608401610558565b6001600160a01b038116600090815260086020526040902080546001600160a01b0319169055610cdc8133611962565b6000818152600160205260409020805460609190610f6490611d49565b600a54600160a01b900460ff16151560010361147857600560003360405160200161142e9190611c6f565b60408051601f198184030181529181528151602092830120835290820192909252016000205460ff166114735760405162461bcd60e51b815260040161055890611ca4565b6114e7565b600560003360405160200161148d9190611c6f565b60408051601f198184030181529181528151602092830120835290820192909252016000205460ff16806114cb57506009546001600160a01b031632145b6114e75760405162461bcd60e51b815260040161055890611cdb565b60009182526004602052604090912080546001600160a01b0319166001600160a01b03909216919091179055565b600a54600160a01b900460ff16151560010361158a5760056000336040516020016115409190611c6f565b60408051601f198184030181529181528151602092830120835290820192909252016000205460ff166115855760405162461bcd60e51b815260040161055890611ca4565b6115f9565b600560003360405160200161159f9190611c6f565b60408051601f198184030181529181528151602092830120835290820192909252016000205460ff16806115dd57506009546001600160a01b031632145b6115f95760405162461bcd60e51b815260040161055890611cdb565b60009182526002602052604090912055565b600a54600160a01b900460ff1615156001036116805760056000336040516020016116369190611c6f565b60408051601f198184030181529181528151602092830120835290820192909252016000205460ff1661167b5760405162461bcd60e51b815260040161055890611ca4565b6116ef565b60056000336040516020016116959190611c6f565b60408051601f198184030181529181528151602092830120835290820192909252016000205460ff16806116d357506009546001600160a01b031632145b6116ef5760405162461bcd60e51b815260040161055890611cdb565b600090815260026020526040812055565b600a54600160a01b900460ff16151560010361177557600560003360405160200161172b9190611c6f565b60408051601f198184030181529181528151602092830120835290820192909252016000205460ff166117705760405162461bcd60e51b815260040161055890611ca4565b6117e4565b600560003360405160200161178a9190611c6f565b60408051601f198184030181529181528151602092830120835290820192909252016000205460ff16806117c857506009546001600160a01b031632145b6117e45760405162461bcd60e51b815260040161055890611cdb565b600082815260026020526040902054611311908290611db1565b600a54600160a01b900460ff1615156001036118735760056000336040516020016118299190611c6f565b60408051601f198184030181529181528151602092830120835290820192909252016000205460ff1661186e5760405162461bcd60e51b815260040161055890611ca4565b6118e2565b60056000336040516020016118889190611c6f565b60408051601f198184030181529181528151602092830120835290820192909252016000205460ff16806118c657506009546001600160a01b031632145b6118e25760405162461bcd60e51b815260040161055890611cdb565b6000818152602081905260408120610cdc91611a14565b6009546001600160a01b0316331461194d5760405162461bcd60e51b8152602060048201526017602482015276125cc81b9bdd0819dd585c991a585b881858d8dbdd5b9d604a1b6044820152606401610558565b600a805460ff60a01b1916600160a01b179055565b6001600160a01b03918216600090815260076020526040902080546001600160a01b03191691909216179055565b82805461199c90611d49565b90600052602060002090601f0160209004810192826119be5760008555611a04565b82601f106119d75782800160ff19823516178555611a04565b82800160010185558215611a04579182015b82811115611a045782358255916020019190600101906119e9565b50611a10929150611a4a565b5090565b508054611a2090611d49565b6000825580601f10611a30575050565b601f016020900490600052602060002090810190610cdc91905b5b80821115611a105760008155600101611a4b565b600060208284031215611a7157600080fd5b5035919050565b60008083601f840112611a8a57600080fd5b50813567ffffffffffffffff811115611aa257600080fd5b602083019150836020828501011115611aba57600080fd5b9250929050565b600080600060408486031215611ad657600080fd5b83359250602084013567ffffffffffffffff811115611af457600080fd5b611b0086828701611a78565b9497909650939450505050565b60008060408385031215611b2057600080fd5b50508035926020909101359150565b80356001600160a01b0381168114611b4657600080fd5b919050565b600060208284031215611b5d57600080fd5b611b6682611b2f565b9392505050565b6000815180845260005b81811015611b9357602081850181015186830182015201611b77565b81811115611ba5576000602083870101525b50601f01601f19169290920160200192915050565b602081526000611b666020830184611b6d565b80358015158114611b4657600080fd5b600080600060608486031215611bf257600080fd5b611bfb84611b2f565b9250611c0960208501611b2f565b9150611c1760408501611bcd565b90509250925092565b60008060408385031215611c3357600080fd5b82359150611c4360208401611bcd565b90509250929050565b60008060408385031215611c5f57600080fd5b82359150611c4360208401611b2f565b6e636f6e74726163742e65786973747360881b815260609190911b6bffffffffffffffffffffffff1916600f82015260230190565b6020808252601c908201527f496e76616c6964206f72206f7574646174656420636f6e747261637400000000604082015260600190565b60208082526048908201527f496e76616c6964206f72206f75746461746564206e6574776f726b20636f6e7460408201527f7261637420617474656d7074696e672061636365737320647572696e672064656060820152671c1b1bde5b595b9d60c21b608082015260a00190565b600181811c90821680611d5d57607f821691505b602082108103611d7d57634e487b7160e01b600052602260045260246000fd5b50919050565b634e487b7160e01b600052601160045260246000fd5b60008219821115611dac57611dac611d83565b500190565b600082821015611dc357611dc3611d83565b50039056fea2646970667358221220d30452e104f4c547da891eee058668b61b539d84098c6f0151d2dee712ab2c9c64736f6c634300080d0033",
  "linkReferences": {},
  "deployedLinkReferences": {}
}