{
  "_format": "hh-sol-artifact-1",
  "contractName": "Storage",
  "sourceName": "contracts/contract/Storage.sol",
  "abi": [
    {
      "inputs": [],
      "stateMutability": "nonpayable",
      "type": "constructor"
    },
    {
      "inputs": [],
      "name": "InvalidGuardianConfirmation",
      "type": "error"
    },
    {
      "inputs": [],
      "name": "InvalidOrOutdatedContract",
      "type": "error"
    },
    {
      "inputs": [],
      "name": "MustBeGuardian",
      "type": "error"
    },
    {
      "anonymous": false,
      "inputs": [
        {
          "indexed": false,
          "internalType": "address",
          "name": "oldGuardian",
          "type": "address"
        },
        {
          "indexed": false,
          "internalType": "address",
          "name": "newGuardian",
          "type": "address"
        }
      ],
      "name": "GuardianChanged",
      "type": "event"
    },
    {
      "inputs": [
        {
          "internalType": "bytes32",
          "name": "key",
          "type": "bytes32"
        },
        {
          "internalType": "uint256",
          "name": "amount",
          "type": "uint256"
        }
      ],
      "name": "addUint",
      "outputs": [],
      "stateMutability": "nonpayable",
      "type": "function"
    },
    {
      "inputs": [],
      "name": "confirmGuardian",
      "outputs": [],
      "stateMutability": "nonpayable",
      "type": "function"
    },
    {
      "inputs": [
        {
          "internalType": "bytes32",
          "name": "key",
          "type": "bytes32"
        }
      ],
      "name": "deleteAddress",
      "outputs": [],
      "stateMutability": "nonpayable",
      "type": "function"
    },
    {
      "inputs": [
        {
          "internalType": "bytes32",
          "name": "key",
          "type": "bytes32"
        }
      ],
      "name": "deleteBool",
      "outputs": [],
      "stateMutability": "nonpayable",
      "type": "function"
    },
    {
      "inputs": [
        {
          "internalType": "bytes32",
          "name": "key",
          "type": "bytes32"
        }
      ],
      "name": "deleteBytes",
      "outputs": [],
      "stateMutability": "nonpayable",
      "type": "function"
    },
    {
      "inputs": [
        {
          "internalType": "bytes32",
          "name": "key",
          "type": "bytes32"
        }
      ],
      "name": "deleteBytes32",
      "outputs": [],
      "stateMutability": "nonpayable",
      "type": "function"
    },
    {
      "inputs": [
        {
          "internalType": "bytes32",
          "name": "key",
          "type": "bytes32"
        }
      ],
      "name": "deleteInt",
      "outputs": [],
      "stateMutability": "nonpayable",
      "type": "function"
    },
    {
      "inputs": [
        {
          "internalType": "bytes32",
          "name": "key",
          "type": "bytes32"
        }
      ],
      "name": "deleteString",
      "outputs": [],
      "stateMutability": "nonpayable",
      "type": "function"
    },
    {
      "inputs": [
        {
          "internalType": "bytes32",
          "name": "key",
          "type": "bytes32"
        }
      ],
      "name": "deleteUint",
      "outputs": [],
      "stateMutability": "nonpayable",
      "type": "function"
    },
    {
      "inputs": [
        {
          "internalType": "bytes32",
          "name": "key",
          "type": "bytes32"
        }
      ],
      "name": "getAddress",
      "outputs": [
        {
          "internalType": "address",
          "name": "",
          "type": "address"
        }
      ],
      "stateMutability": "view",
      "type": "function"
    },
    {
      "inputs": [
        {
          "internalType": "bytes32",
          "name": "key",
          "type": "bytes32"
        }
      ],
      "name": "getBool",
      "outputs": [
        {
          "internalType": "bool",
          "name": "",
          "type": "bool"
        }
      ],
      "stateMutability": "view",
      "type": "function"
    },
    {
      "inputs": [
        {
          "internalType": "bytes32",
          "name": "key",
          "type": "bytes32"
        }
      ],
      "name": "getBytes",
      "outputs": [
        {
          "internalType": "bytes",
          "name": "",
          "type": "bytes"
        }
      ],
      "stateMutability": "view",
      "type": "function"
    },
    {
      "inputs": [
        {
          "internalType": "bytes32",
          "name": "key",
          "type": "bytes32"
        }
      ],
      "name": "getBytes32",
      "outputs": [
        {
          "internalType": "bytes32",
          "name": "",
          "type": "bytes32"
        }
      ],
      "stateMutability": "view",
      "type": "function"
    },
    {
      "inputs": [],
      "name": "getGuardian",
      "outputs": [
        {
          "internalType": "address",
          "name": "",
          "type": "address"
        }
      ],
      "stateMutability": "view",
      "type": "function"
    },
    {
      "inputs": [
        {
          "internalType": "bytes32",
          "name": "key",
          "type": "bytes32"
        }
      ],
      "name": "getInt",
      "outputs": [
        {
          "internalType": "int256",
          "name": "",
          "type": "int256"
        }
      ],
      "stateMutability": "view",
      "type": "function"
    },
    {
      "inputs": [
        {
          "internalType": "bytes32",
          "name": "key",
          "type": "bytes32"
        }
      ],
      "name": "getString",
      "outputs": [
        {
          "internalType": "string",
          "name": "",
          "type": "string"
        }
      ],
      "stateMutability": "view",
      "type": "function"
    },
    {
      "inputs": [
        {
          "internalType": "bytes32",
          "name": "key",
          "type": "bytes32"
        }
      ],
      "name": "getUint",
      "outputs": [
        {
          "internalType": "uint256",
          "name": "",
          "type": "uint256"
        }
      ],
      "stateMutability": "view",
      "type": "function"
    },
    {
      "inputs": [],
      "name": "newGuardian",
      "outputs": [
        {
          "internalType": "address",
          "name": "",
          "type": "address"
        }
      ],
      "stateMutability": "view",
      "type": "function"
    },
    {
      "inputs": [
        {
          "internalType": "bytes32",
          "name": "key",
          "type": "bytes32"
        },
        {
          "internalType": "address",
          "name": "value",
          "type": "address"
        }
      ],
      "name": "setAddress",
      "outputs": [],
      "stateMutability": "nonpayable",
      "type": "function"
    },
    {
      "inputs": [
        {
          "internalType": "bytes32",
          "name": "key",
          "type": "bytes32"
        },
        {
          "internalType": "bool",
          "name": "value",
          "type": "bool"
        }
      ],
      "name": "setBool",
      "outputs": [],
      "stateMutability": "nonpayable",
      "type": "function"
    },
    {
      "inputs": [
        {
          "internalType": "bytes32",
          "name": "key",
          "type": "bytes32"
        },
        {
          "internalType": "bytes",
          "name": "value",
          "type": "bytes"
        }
      ],
      "name": "setBytes",
      "outputs": [],
      "stateMutability": "nonpayable",
      "type": "function"
    },
    {
      "inputs": [
        {
          "internalType": "bytes32",
          "name": "key",
          "type": "bytes32"
        },
        {
          "internalType": "bytes32",
          "name": "value",
          "type": "bytes32"
        }
      ],
      "name": "setBytes32",
      "outputs": [],
      "stateMutability": "nonpayable",
      "type": "function"
    },
    {
      "inputs": [
        {
          "internalType": "address",
          "name": "newAddress",
          "type": "address"
        }
      ],
      "name": "setGuardian",
      "outputs": [],
      "stateMutability": "nonpayable",
      "type": "function"
    },
    {
      "inputs": [
        {
          "internalType": "bytes32",
          "name": "key",
          "type": "bytes32"
        },
        {
          "internalType": "int256",
          "name": "value",
          "type": "int256"
        }
      ],
      "name": "setInt",
      "outputs": [],
      "stateMutability": "nonpayable",
      "type": "function"
    },
    {
      "inputs": [
        {
          "internalType": "bytes32",
          "name": "key",
          "type": "bytes32"
        },
        {
          "internalType": "string",
          "name": "value",
          "type": "string"
        }
      ],
      "name": "setString",
      "outputs": [],
      "stateMutability": "nonpayable",
      "type": "function"
    },
    {
      "inputs": [
        {
          "internalType": "bytes32",
          "name": "key",
          "type": "bytes32"
        },
        {
          "internalType": "uint256",
          "name": "value",
          "type": "uint256"
        }
      ],
      "name": "setUint",
      "outputs": [],
      "stateMutability": "nonpayable",
      "type": "function"
    },
    {
      "inputs": [
        {
          "internalType": "bytes32",
          "name": "key",
          "type": "bytes32"
        },
        {
          "internalType": "uint256",
          "name": "amount",
          "type": "uint256"
        }
      ],
      "name": "subUint",
      "outputs": [],
      "stateMutability": "nonpayable",
      "type": "function"
    }
  ],
  "bytecode": "0x608060405234801561001057600080fd5b5060408051600081523260208201527fa14fc14d8620a708a896fd11392a235647d99385500a295f0d7da2a258b2e967910160405180910390a1600780546001600160a01b031916321790556118ad8061006b6000396000f3fe608060405234801561001057600080fd5b50600436106101b95760003560e01c80638c160095116100f9578063c031a18011610097578063e2a4853a11610071578063e2a4853a14610431578063e2b202bf14610444578063ebb9d8c914610457578063f6bb3cc41461046a57600080fd5b8063c031a180146103eb578063ca446dd9146103fe578063dc97d9621461041157600080fd5b8063a75b87d2116100d3578063a75b87d214610387578063abfdcced146103a5578063adb353dc146103b8578063bd02d0f5146103cb57600080fd5b80638c16009514610326578063986e791a14610339578063a6ed563e1461035957600080fd5b80632e28d08411610166578063616b59f611610140578063616b59f6146102ba5780636e899550146102cd5780637ae1cfca146102e05780638a0dac4a1461031357600080fd5b80632e28d084146102815780633e49bed0146102945780634e91db08146102a757600080fd5b80631e0ea61e116101975780631e0ea61e1461023057806321f8a721146102385780632c62ff2d1461026e57600080fd5b80630b9adc57146101be5780630e14a376146101d357806319859847146101e6575b600080fd5b6101d16101cc366004611479565b61047d565b005b6101d16101e1366004611479565b610544565b6008546102069073ffffffffffffffffffffffffffffffffffffffff1681565b60405173ffffffffffffffffffffffffffffffffffffffff90911681526020015b60405180910390f35b6101d1610630565b610206610246366004611479565b60009081526020819052604090205473ffffffffffffffffffffffffffffffffffffffff1690565b6101d161027c366004611479565b610712565b6101d161028f3660046114db565b6107fe565b6101d16102a2366004611527565b6108d3565b6101d16102b5366004611527565b61099b565b6101d16102c8366004611479565b610a63565b6101d16102db3660046114db565b610b33565b6103036102ee366004611479565b60009081526001602052604090205460ff1690565b6040519015158152602001610227565b6101d1610321366004611572565b610c02565b6101d1610334366004611479565b610c9a565b61034c610347366004611479565b610d61565b60405161022791906115da565b610379610367366004611479565b60009081526003602052604090205490565b604051908152602001610227565b60075473ffffffffffffffffffffffffffffffffffffffff16610206565b6101d16103b33660046115ed565b610e03565b6101d16103c6366004611527565b610ef7565b6103796103d9366004611479565b60009081526006602052604090205490565b61034c6103f9366004611479565b610fdd565b6101d161040c366004611622565b610ffa565b61037961041f366004611479565b60009081526004602052604090205490565b6101d161043f366004611527565b611103565b6101d1610452366004611479565b6111cb565b6101d1610465366004611527565b611292565b6101d1610478366004611479565b611362565b6040517f636f6e74726163742e657869737473000000000000000000000000000000000060208201526bffffffffffffffffffffffff193360601b16602f82015260019060009060430160408051601f198184030181529181528151602092830120835290820192909252016000205460ff16158015610515575060075473ffffffffffffffffffffffffffffffffffffffff163314155b1561053357604051631eee95db60e11b815260040160405180910390fd5b600090815260036020526040812055565b6040517f636f6e74726163742e657869737473000000000000000000000000000000000060208201526bffffffffffffffffffffffff193360601b16602f82015260019060009060430160408051601f198184030181529181528151602092830120835290820192909252016000205460ff161580156105dc575060075473ffffffffffffffffffffffffffffffffffffffff163314155b156105fa57604051631eee95db60e11b815260040160405180910390fd5b600090815260208190526040902080547fffffffffffffffffffffffff0000000000000000000000000000000000000000169055565b60085473ffffffffffffffffffffffffffffffffffffffff163314610681576040517fa5ccf75400000000000000000000000000000000000000000000000000000000815260040160405180910390fd5b600780546008805473ffffffffffffffffffffffffffffffffffffffff8082167fffffffffffffffffffffffff0000000000000000000000000000000000000000808616821790965594909116909155604080519190921680825260208201939093527fa14fc14d8620a708a896fd11392a235647d99385500a295f0d7da2a258b2e967910160405180910390a150565b6040517f636f6e74726163742e657869737473000000000000000000000000000000000060208201526bffffffffffffffffffffffff193360601b16602f82015260019060009060430160408051601f198184030181529181528151602092830120835290820192909252016000205460ff161580156107aa575060075473ffffffffffffffffffffffffffffffffffffffff163314155b156107c857604051631eee95db60e11b815260040160405180910390fd5b600090815260016020526040902080547fffffffffffffffffffffffffffffffffffffffffffffffffffffffffffffff00169055565b6040517f636f6e74726163742e657869737473000000000000000000000000000000000060208201526bffffffffffffffffffffffff193360601b16602f82015260019060009060430160408051601f198184030181529181528151602092830120835290820192909252016000205460ff16158015610896575060075473ffffffffffffffffffffffffffffffffffffffff163314155b156108b457604051631eee95db60e11b815260040160405180910390fd5b60008381526002602052604090206108cd82848361171f565b50505050565b6040517f636f6e74726163742e657869737473000000000000000000000000000000000060208201526bffffffffffffffffffffffff193360601b16602f82015260019060009060430160408051601f198184030181529181528151602092830120835290820192909252016000205460ff1615801561096b575060075473ffffffffffffffffffffffffffffffffffffffff163314155b1561098957604051631eee95db60e11b815260040160405180910390fd5b60009182526004602052604090912055565b6040517f636f6e74726163742e657869737473000000000000000000000000000000000060208201526bffffffffffffffffffffffff193360601b16602f82015260019060009060430160408051601f198184030181529181528151602092830120835290820192909252016000205460ff16158015610a33575060075473ffffffffffffffffffffffffffffffffffffffff163314155b15610a5157604051631eee95db60e11b815260040160405180910390fd5b60009182526003602052604090912055565b6040517f636f6e74726163742e657869737473000000000000000000000000000000000060208201526bffffffffffffffffffffffff193360601b16602f82015260019060009060430160408051601f198184030181529181528151602092830120835290820192909252016000205460ff16158015610afb575060075473ffffffffffffffffffffffffffffffffffffffff163314155b15610b1957604051631eee95db60e11b815260040160405180910390fd5b6000818152600260205260408120610b309161142b565b50565b6040517f636f6e74726163742e657869737473000000000000000000000000000000000060208201526bffffffffffffffffffffffff193360601b16602f82015260019060009060430160408051601f198184030181529181528151602092830120835290820192909252016000205460ff16158015610bcb575060075473ffffffffffffffffffffffffffffffffffffffff163314155b15610be957604051631eee95db60e11b815260040160405180910390fd5b60008381526005602052604090206108cd82848361171f565b60075473ffffffffffffffffffffffffffffffffffffffff163314610c53576040517f0da3c81800000000000000000000000000000000000000000000000000000000815260040160405180910390fd5b600880547fffffffffffffffffffffffff00000000000000000000000000000000000000001673ffffffffffffffffffffffffffffffffffffffff92909216919091179055565b6040517f636f6e74726163742e657869737473000000000000000000000000000000000060208201526bffffffffffffffffffffffff193360601b16602f82015260019060009060430160408051601f198184030181529181528151602092830120835290820192909252016000205460ff16158015610d32575060075473ffffffffffffffffffffffffffffffffffffffff163314155b15610d5057604051631eee95db60e11b815260040160405180910390fd5b600090815260046020526040812055565b6000818152600560205260409020805460609190610d7e9061167d565b80601f0160208091040260200160405190810160405280929190818152602001828054610daa9061167d565b8015610df75780601f10610dcc57610100808354040283529160200191610df7565b820191906000526020600020905b815481529060010190602001808311610dda57829003601f168201915b50505050509050919050565b6040517f636f6e74726163742e657869737473000000000000000000000000000000000060208201526bffffffffffffffffffffffff193360601b16602f82015260019060009060430160408051601f198184030181529181528151602092830120835290820192909252016000205460ff16158015610e9b575060075473ffffffffffffffffffffffffffffffffffffffff163314155b15610eb957604051631eee95db60e11b815260040160405180910390fd5b60009182526001602052604090912080547fffffffffffffffffffffffffffffffffffffffffffffffffffffffffffffff0016911515919091179055565b6040517f636f6e74726163742e657869737473000000000000000000000000000000000060208201526bffffffffffffffffffffffff193360601b16602f82015260019060009060430160408051601f198184030181529181528151602092830120835290820192909252016000205460ff16158015610f8f575060075473ffffffffffffffffffffffffffffffffffffffff163314155b15610fad57604051631eee95db60e11b815260040160405180910390fd5b600082815260066020526040902054610fc790829061184b565b6000928352600660205260409092209190915550565b6000818152600260205260409020805460609190610d7e9061167d565b6040517f636f6e74726163742e657869737473000000000000000000000000000000000060208201526bffffffffffffffffffffffff193360601b16602f82015260019060009060430160408051601f198184030181529181528151602092830120835290820192909252016000205460ff16158015611092575060075473ffffffffffffffffffffffffffffffffffffffff163314155b156110b057604051631eee95db60e11b815260040160405180910390fd5b60009182526020829052604090912080547fffffffffffffffffffffffff00000000000000000000000000000000000000001673ffffffffffffffffffffffffffffffffffffffff909216919091179055565b6040517f636f6e74726163742e657869737473000000000000000000000000000000000060208201526bffffffffffffffffffffffff193360601b16602f82015260019060009060430160408051601f198184030181529181528151602092830120835290820192909252016000205460ff1615801561119b575060075473ffffffffffffffffffffffffffffffffffffffff163314155b156111b957604051631eee95db60e11b815260040160405180910390fd5b60009182526006602052604090912055565b6040517f636f6e74726163742e657869737473000000000000000000000000000000000060208201526bffffffffffffffffffffffff193360601b16602f82015260019060009060430160408051601f198184030181529181528151602092830120835290820192909252016000205460ff16158015611263575060075473ffffffffffffffffffffffffffffffffffffffff163314155b1561128157604051631eee95db60e11b815260040160405180910390fd5b600090815260066020526040812055565b6040517f636f6e74726163742e657869737473000000000000000000000000000000000060208201526bffffffffffffffffffffffff193360601b16602f82015260019060009060430160408051601f198184030181529181528151602092830120835290820192909252016000205460ff1615801561132a575060075473ffffffffffffffffffffffffffffffffffffffff163314155b1561134857604051631eee95db60e11b815260040160405180910390fd5b600082815260066020526040902054610fc7908290611864565b6040517f636f6e74726163742e657869737473000000000000000000000000000000000060208201526bffffffffffffffffffffffff193360601b16602f82015260019060009060430160408051601f198184030181529181528151602092830120835290820192909252016000205460ff161580156113fa575060075473ffffffffffffffffffffffffffffffffffffffff163314155b1561141857604051631eee95db60e11b815260040160405180910390fd5b6000818152600560205260408120610b30915b5080546114379061167d565b6000825580601f10611447575050565b601f016020900490600052602060002090810190610b3091905b808211156114755760008155600101611461565b5090565b60006020828403121561148b57600080fd5b5035919050565b60008083601f8401126114a457600080fd5b50813567ffffffffffffffff8111156114bc57600080fd5b6020830191508360208285010111156114d457600080fd5b9250929050565b6000806000604084860312156114f057600080fd5b83359250602084013567ffffffffffffffff81111561150e57600080fd5b61151a86828701611492565b9497909650939450505050565b6000806040838503121561153a57600080fd5b50508035926020909101359150565b803573ffffffffffffffffffffffffffffffffffffffff8116811461156d57600080fd5b919050565b60006020828403121561158457600080fd5b61158d82611549565b9392505050565b6000815180845260005b818110156115ba5760208185018101518683018201520161159e565b506000602082860101526020601f19601f83011685010191505092915050565b60208152600061158d6020830184611594565b6000806040838503121561160057600080fd5b823591506020830135801515811461161757600080fd5b809150509250929050565b6000806040838503121561163557600080fd5b8235915061164560208401611549565b90509250929050565b7f4e487b7100000000000000000000000000000000000000000000000000000000600052604160045260246000fd5b600181811c9082168061169157607f821691505b6020821081036116ca577f4e487b7100000000000000000000000000000000000000000000000000000000600052602260045260246000fd5b50919050565b601f82111561171a57600081815260208120601f850160051c810160208610156116f75750805b601f850160051c820191505b8181101561171657828155600101611703565b5050505b505050565b67ffffffffffffffff8311156117375761173761164e565b61174b83611745835461167d565b836116d0565b6000601f84116001811461179d57600085156117675750838201355b7fffffffffffffffffffffffffffffffffffffffffffffffffffffffffffffffff600387901b1c1916600186901b178355611815565b600083815260209020601f19861690835b828110156117ce57868501358255602094850194600190920191016117ae565b5086821015611809577fffffffffffffffffffffffffffffffffffffffffffffffffffffffffffffffff60f88860031b161c19848701351681555b505060018560011b0183555b5050505050565b7f4e487b7100000000000000000000000000000000000000000000000000000000600052601160045260246000fd5b8082018082111561185e5761185e61181c565b92915050565b8181038181111561185e5761185e61181c56fea2646970667358221220df551273fca8d7b034412bddc2e9c4ee520236ae5ba699acfeb7436325e0bc6664736f6c63430008110033",
  "linkReferences": {},
  "deployedLinkReferences": {}
}