{
  "_format": "hh-sol-artifact-1",
  "contractName": "TokenGGP",
  "sourceName": "contracts/contract/tokens/TokenGGP.sol",
  "abi": [
    {
      "inputs": [
        {
          "internalType": "contract Storage",
          "name": "storageAddress",
          "type": "address"
        }
      ],
      "stateMutability": "nonpayable",
      "type": "constructor"
    },
    {
      "inputs": [],
      "name": "ContractNotFound",
      "type": "error"
    },
    {
      "inputs": [],
      "name": "ContractPaused",
      "type": "error"
    },
    {
      "inputs": [],
      "name": "InvalidOrOutdatedContract",
      "type": "error"
    },
    {
      "inputs": [],
      "name": "MaximumTokensReached",
      "type": "error"
    },
    {
      "inputs": [],
      "name": "MustBeGuardian",
      "type": "error"
    },
    {
      "inputs": [],
      "name": "MustBeGuardianOrValidContract",
      "type": "error"
    },
    {
      "inputs": [],
      "name": "MustBeMultisig",
      "type": "error"
    },
    {
      "anonymous": false,
      "inputs": [
        {
          "indexed": true,
          "internalType": "address",
          "name": "owner",
          "type": "address"
        },
        {
          "indexed": true,
          "internalType": "address",
          "name": "spender",
          "type": "address"
        },
        {
          "indexed": false,
          "internalType": "uint256",
          "name": "amount",
          "type": "uint256"
        }
      ],
      "name": "Approval",
      "type": "event"
    },
    {
      "anonymous": false,
      "inputs": [
        {
          "indexed": true,
          "internalType": "address",
          "name": "from",
          "type": "address"
        },
        {
          "indexed": true,
          "internalType": "address",
          "name": "to",
          "type": "address"
        },
        {
          "indexed": false,
          "internalType": "uint256",
          "name": "amount",
          "type": "uint256"
        }
      ],
      "name": "Transfer",
      "type": "event"
    },
    {
      "inputs": [],
      "name": "DOMAIN_SEPARATOR",
      "outputs": [
        {
          "internalType": "bytes32",
          "name": "",
          "type": "bytes32"
        }
      ],
      "stateMutability": "view",
      "type": "function"
    },
    {
      "inputs": [],
      "name": "MAX_SUPPLY",
      "outputs": [
        {
          "internalType": "uint256",
          "name": "",
          "type": "uint256"
        }
      ],
      "stateMutability": "view",
      "type": "function"
    },
    {
      "inputs": [
        {
          "internalType": "address",
          "name": "",
          "type": "address"
        },
        {
          "internalType": "address",
          "name": "",
          "type": "address"
        }
      ],
      "name": "allowance",
      "outputs": [
        {
          "internalType": "uint256",
          "name": "",
          "type": "uint256"
        }
      ],
      "stateMutability": "view",
      "type": "function"
    },
    {
      "inputs": [
        {
          "internalType": "address",
          "name": "spender",
          "type": "address"
        },
        {
          "internalType": "uint256",
          "name": "amount",
          "type": "uint256"
        }
      ],
      "name": "approve",
      "outputs": [
        {
          "internalType": "bool",
          "name": "",
          "type": "bool"
        }
      ],
      "stateMutability": "nonpayable",
      "type": "function"
    },
    {
      "inputs": [
        {
          "internalType": "address",
          "name": "",
          "type": "address"
        }
      ],
      "name": "balanceOf",
      "outputs": [
        {
          "internalType": "uint256",
          "name": "",
          "type": "uint256"
        }
      ],
      "stateMutability": "view",
      "type": "function"
    },
    {
      "inputs": [],
      "name": "decimals",
      "outputs": [
        {
          "internalType": "uint8",
          "name": "",
          "type": "uint8"
        }
      ],
      "stateMutability": "view",
      "type": "function"
    },
    {
      "inputs": [
        {
          "internalType": "uint256",
          "name": "amount",
          "type": "uint256"
        }
      ],
      "name": "mint",
      "outputs": [],
      "stateMutability": "nonpayable",
      "type": "function"
    },
    {
      "inputs": [],
      "name": "name",
      "outputs": [
        {
          "internalType": "string",
          "name": "",
          "type": "string"
        }
      ],
      "stateMutability": "view",
      "type": "function"
    },
    {
      "inputs": [
        {
          "internalType": "address",
          "name": "",
          "type": "address"
        }
      ],
      "name": "nonces",
      "outputs": [
        {
          "internalType": "uint256",
          "name": "",
          "type": "uint256"
        }
      ],
      "stateMutability": "view",
      "type": "function"
    },
    {
      "inputs": [
        {
          "internalType": "address",
          "name": "owner",
          "type": "address"
        },
        {
          "internalType": "address",
          "name": "spender",
          "type": "address"
        },
        {
          "internalType": "uint256",
          "name": "value",
          "type": "uint256"
        },
        {
          "internalType": "uint256",
          "name": "deadline",
          "type": "uint256"
        },
        {
          "internalType": "uint8",
          "name": "v",
          "type": "uint8"
        },
        {
          "internalType": "bytes32",
          "name": "r",
          "type": "bytes32"
        },
        {
          "internalType": "bytes32",
          "name": "s",
          "type": "bytes32"
        }
      ],
      "name": "permit",
      "outputs": [],
      "stateMutability": "nonpayable",
      "type": "function"
    },
    {
      "inputs": [],
      "name": "symbol",
      "outputs": [
        {
          "internalType": "string",
          "name": "",
          "type": "string"
        }
      ],
      "stateMutability": "view",
      "type": "function"
    },
    {
      "inputs": [],
      "name": "totalSupply",
      "outputs": [
        {
          "internalType": "uint256",
          "name": "",
          "type": "uint256"
        }
      ],
      "stateMutability": "view",
      "type": "function"
    },
    {
      "inputs": [
        {
          "internalType": "address",
          "name": "to",
          "type": "address"
        },
        {
          "internalType": "uint256",
          "name": "amount",
          "type": "uint256"
        }
      ],
      "name": "transfer",
      "outputs": [
        {
          "internalType": "bool",
          "name": "",
          "type": "bool"
        }
      ],
      "stateMutability": "nonpayable",
      "type": "function"
    },
    {
      "inputs": [
        {
          "internalType": "address",
          "name": "from",
          "type": "address"
        },
        {
          "internalType": "address",
          "name": "to",
          "type": "address"
        },
        {
          "internalType": "uint256",
          "name": "amount",
          "type": "uint256"
        }
      ],
      "name": "transferFrom",
      "outputs": [
        {
          "internalType": "bool",
          "name": "",
          "type": "bool"
        }
      ],
      "stateMutability": "nonpayable",
      "type": "function"
    },
    {
      "inputs": [],
      "name": "version",
      "outputs": [
        {
          "internalType": "uint8",
          "name": "",
          "type": "uint8"
        }
      ],
      "stateMutability": "view",
      "type": "function"
    }
  ],
  "bytecode": "0x60e06040523480156200001157600080fd5b506040516200165738038062001657833981016040819052620000349162000207565b806040518060400160405280601181526020017011dbd1dbd41bdbdb08141c9bdd1bd8dbdb607a1b8152506040518060400160405280600381526020016204747560ec1b815250601282600090816200008e9190620002de565b5060016200009d8382620002de565b5060ff81166080524660a052620000b3620000fe565b60c0525050600680546001600160a01b0390931661010002610100600160a81b03199093169290921790915550620000f7336a0ee3a5f48a68b5520000006200019a565b5062000450565b60007f8b73c3c69bb8fe3d512ecc4cf759cc79239f7b179b0ffacaa9a75d522b39400f6000604051620001329190620003aa565b6040805191829003822060208301939093528101919091527fc89efdaa54c0f20c7adf612882df0950f5a951637e0307cdcb4c672f298b8bc660608201524660808201523060a082015260c00160405160208183030381529060405280519060200120905090565b8060026000828254620001ae919062000428565b90915550506001600160a01b0382166000818152600360209081526040808320805486019055518481527fddf252ad1be2c89b69c2b068fc378daa952ba7f163c4a11628f55a4df523b3ef910160405180910390a35050565b6000602082840312156200021a57600080fd5b81516001600160a01b03811681146200023257600080fd5b9392505050565b634e487b7160e01b600052604160045260246000fd5b600181811c908216806200026457607f821691505b6020821081036200028557634e487b7160e01b600052602260045260246000fd5b50919050565b601f821115620002d957600081815260208120601f850160051c81016020861015620002b45750805b601f850160051c820191505b81811015620002d557828155600101620002c0565b5050505b505050565b81516001600160401b03811115620002fa57620002fa62000239565b62000312816200030b84546200024f565b846200028b565b602080601f8311600181146200034a5760008415620003315750858301515b600019600386901b1c1916600185901b178555620002d5565b600085815260208120601f198616915b828110156200037b578886015182559484019460019091019084016200035a565b50858210156200039a5787850151600019600388901b60f8161c191681555b5050505050600190811b01905550565b6000808354620003ba816200024f565b60018281168015620003d55760018114620003eb576200041c565b60ff19841687528215158302870194506200041c565b8760005260208060002060005b85811015620004135781548a820152908401908201620003f8565b50505082870194505b50929695505050505050565b808201808211156200044a57634e487b7160e01b600052601160045260246000fd5b92915050565b60805160a05160c0516111d76200048060003960006104f8015260006104c30152600061016a01526111d76000f3fe608060405234801561001057600080fd5b50600436106100f55760003560e01c806354fd4d5011610097578063a0712d6811610066578063a0712d681461020d578063a9059cbb14610222578063d505accf14610235578063dd62ed3e1461024857600080fd5b806354fd4d50146101b857806370a08231146101c55780637ecebe00146101e557806395d89b411461020557600080fd5b806323b872dd116100d357806323b872dd14610152578063313ce5671461016557806332cb6b0c1461019e5780633644e515146101b057600080fd5b806306fdde03146100fa578063095ea7b31461011857806318160ddd1461013b575b600080fd5b610102610273565b60405161010f9190610dcf565b60405180910390f35b61012b610126366004610e45565b610301565b604051901515815260200161010f565b61014460025481565b60405190815260200161010f565b61012b610160366004610e71565b61037b565b61018c7f000000000000000000000000000000000000000000000000000000000000000081565b60405160ff909116815260200161010f565b6101446a129c8f71ad02e2a680000081565b6101446104bf565b60065461018c9060ff1681565b6101446101d3366004610eb2565b60036020526000908152604090205481565b6101446101f3366004610eb2565b60056020526000908152604090205481565b61010261051a565b61022061021b366004610ed6565b610527565b005b61012b610230366004610e45565b6107f1565b610220610243366004610eef565b610876565b610144610256366004610f66565b600460209081526000928352604080842090915290825290205481565b6000805461028090610f9f565b80601f01602080910402602001604051908101604052809291908181526020018280546102ac90610f9f565b80156102f95780601f106102ce576101008083540402835291602001916102f9565b820191906000526020600020905b8154815290600101906020018083116102dc57829003601f168201915b505050505081565b33600081815260046020908152604080832073ffffffffffffffffffffffffffffffffffffffff8716808552925280832085905551919290917f8c5be1e5ebec7d5bd14f71427d1e84f3dd0314c0f7b2291e5b200ac8c7c3b925906103699086815260200190565b60405180910390a35060015b92915050565b73ffffffffffffffffffffffffffffffffffffffff831660009081526004602090815260408083203384529091528120547fffffffffffffffffffffffffffffffffffffffffffffffffffffffffffffffff811461040f576103dd8382611021565b73ffffffffffffffffffffffffffffffffffffffff861660009081526004602090815260408083203384529091529020555b73ffffffffffffffffffffffffffffffffffffffff851660009081526003602052604081208054859290610444908490611021565b909155505073ffffffffffffffffffffffffffffffffffffffff808516600081815260036020526040908190208054870190555190918716907fddf252ad1be2c89b69c2b068fc378daa952ba7f163c4a11628f55a4df523b3ef906104ac9087815260200190565b60405180910390a3506001949350505050565b60007f000000000000000000000000000000000000000000000000000000000000000046146104f5576104f0610b9a565b905090565b507f000000000000000000000000000000000000000000000000000000000000000090565b6001805461028090610f9f565b6040518060400160405280600b81526020017f52657761726473506f6f6c0000000000000000000000000000000000000000008152503361058d826040516020016105729190611034565b60405160208183030381529060405280519060200120610c34565b73ffffffffffffffffffffffffffffffffffffffff168173ffffffffffffffffffffffffffffffffffffffff16146105f1576040517f3ddd2bb600000000000000000000000000000000000000000000000000000000815260040160405180910390fd5b6a129c8f71ad02e2a68000008360025461060b9190611079565b1115610643576040517fa948c7b300000000000000000000000000000000000000000000000000000000815260040160405180910390fd5b600030905060006106886040518060400160405280600581526020017f5661756c74000000000000000000000000000000000000000000000000000000815250610ccd565b90506106943086610d33565b6040517f095ea7b300000000000000000000000000000000000000000000000000000000815273ffffffffffffffffffffffffffffffffffffffff82811660048301526024820187905283169063095ea7b3906044016020604051808303816000875af1158015610709573d6000803e3d6000fd5b505050506040513d601f19601f8201168201806040525081019061072d919061108c565b506040517ff444295800000000000000000000000000000000000000000000000000000000815260606004820152600b60648201527f52657761726473506f6f6c000000000000000000000000000000000000000000608482015273ffffffffffffffffffffffffffffffffffffffff83811660248301526044820187905282169063f44429589060a401600060405180830381600087803b1580156107d257600080fd5b505af11580156107e6573d6000803e3d6000fd5b505050505050505050565b33600090815260036020526040812080548391908390610812908490611021565b909155505073ffffffffffffffffffffffffffffffffffffffff8316600081815260036020526040908190208054850190555133907fddf252ad1be2c89b69c2b068fc378daa952ba7f163c4a11628f55a4df523b3ef906103699086815260200190565b428410156108e5576040517f08c379a000000000000000000000000000000000000000000000000000000000815260206004820152601760248201527f5045524d49545f444541444c494e455f4558504952454400000000000000000060448201526064015b60405180910390fd5b600060016108f16104bf565b73ffffffffffffffffffffffffffffffffffffffff8a811660008181526005602090815260409182902080546001810190915582517f6e71edae12b1b97f4d1f60370fef10105fa2faae0126114a169c64845d6126c98184015280840194909452938d166060840152608083018c905260a083019390935260c08083018b90528151808403909101815260e0830190915280519201919091207f190100000000000000000000000000000000000000000000000000000000000061010083015261010282019290925261012281019190915261014201604080517fffffffffffffffffffffffffffffffffffffffffffffffffffffffffffffffe08184030181528282528051602091820120600084529083018083525260ff871690820152606081018590526080810184905260a0016020604051602081039080840390855afa158015610a43573d6000803e3d6000fd5b50506040517fffffffffffffffffffffffffffffffffffffffffffffffffffffffffffffffe0015191505073ffffffffffffffffffffffffffffffffffffffff811615801590610abe57508773ffffffffffffffffffffffffffffffffffffffff168173ffffffffffffffffffffffffffffffffffffffff16145b610b24576040517f08c379a000000000000000000000000000000000000000000000000000000000815260206004820152600e60248201527f494e56414c49445f5349474e455200000000000000000000000000000000000060448201526064016108dc565b73ffffffffffffffffffffffffffffffffffffffff90811660009081526004602090815260408083208a8516808552908352928190208990555188815291928a16917f8c5be1e5ebec7d5bd14f71427d1e84f3dd0314c0f7b2291e5b200ac8c7c3b925910160405180910390a350505050505050565b60007f8b73c3c69bb8fe3d512ecc4cf759cc79239f7b179b0ffacaa9a75d522b39400f6000604051610bcc91906110ae565b6040805191829003822060208301939093528101919091527fc89efdaa54c0f20c7adf612882df0950f5a951637e0307cdcb4c672f298b8bc660608201524660808201523060a082015260c00160405160208183030381529060405280519060200120905090565b6006546040517f21f8a72100000000000000000000000000000000000000000000000000000000815260048101839052600091610100900473ffffffffffffffffffffffffffffffffffffffff16906321f8a72190602401602060405180830381865afa158015610ca9573d6000803e3d6000fd5b505050506040513d601f19601f820116820180604052508101906103759190611184565b600080610ce4836040516020016105729190611034565b905073ffffffffffffffffffffffffffffffffffffffff8116610375576040517fed59262400000000000000000000000000000000000000000000000000000000815260040160405180910390fd5b8060026000828254610d459190611079565b909155505073ffffffffffffffffffffffffffffffffffffffff82166000818152600360209081526040808320805486019055518481527fddf252ad1be2c89b69c2b068fc378daa952ba7f163c4a11628f55a4df523b3ef910160405180910390a35050565b60005b83811015610dc6578181015183820152602001610dae565b50506000910152565b6020815260008251806020840152610dee816040850160208701610dab565b601f017fffffffffffffffffffffffffffffffffffffffffffffffffffffffffffffffe0169190910160400192915050565b73ffffffffffffffffffffffffffffffffffffffff81168114610e4257600080fd5b50565b60008060408385031215610e5857600080fd5b8235610e6381610e20565b946020939093013593505050565b600080600060608486031215610e8657600080fd5b8335610e9181610e20565b92506020840135610ea181610e20565b929592945050506040919091013590565b600060208284031215610ec457600080fd5b8135610ecf81610e20565b9392505050565b600060208284031215610ee857600080fd5b5035919050565b600080600080600080600060e0888a031215610f0a57600080fd5b8735610f1581610e20565b96506020880135610f2581610e20565b95506040880135945060608801359350608088013560ff81168114610f4957600080fd5b9699959850939692959460a0840135945060c09093013592915050565b60008060408385031215610f7957600080fd5b8235610f8481610e20565b91506020830135610f9481610e20565b809150509250929050565b600181811c90821680610fb357607f821691505b602082108103610fec577f4e487b7100000000000000000000000000000000000000000000000000000000600052602260045260246000fd5b50919050565b7f4e487b7100000000000000000000000000000000000000000000000000000000600052601160045260246000fd5b8181038181111561037557610375610ff2565b7f636f6e74726163742e616464726573730000000000000000000000000000000081526000825161106c816010850160208701610dab565b9190910160100192915050565b8082018082111561037557610375610ff2565b60006020828403121561109e57600080fd5b81518015158114610ecf57600080fd5b600080835481600182811c9150808316806110ca57607f831692505b60208084108203611102577f4e487b710000000000000000000000000000000000000000000000000000000086526022600452602486fd5b818015611116576001811461114957611176565b7fffffffffffffffffffffffffffffffffffffffffffffffffffffffffffffff0086168952841515850289019650611176565b60008a81526020902060005b8681101561116e5781548b820152908501908301611155565b505084890196505b509498975050505050505050565b60006020828403121561119657600080fd5b8151610ecf81610e2056fea26469706673582212204b1ebe649189b08adb499316bdb00b81759eb25c2bbdcd73b60beae2991a99a464736f6c63430008110033",
  "linkReferences": {},
  "deployedLinkReferences": {}
}