{
  "_format": "hh-sol-artifact-1",
  "contractName": "TokenggAVAX",
  "sourceName": "contracts/contract/tokens/TokenggAVAX.sol",
  "abi": [
    {
      "inputs": [],
      "stateMutability": "nonpayable",
      "type": "constructor"
    },
    {
      "inputs": [],
      "name": "ContractNotFound",
      "type": "error"
    },
    {
      "inputs": [],
      "name": "ContractPaused",
      "type": "error"
    },
    {
      "inputs": [],
      "name": "InvalidOrOutdatedContract",
      "type": "error"
    },
    {
      "inputs": [],
      "name": "InvalidStakingDeposit",
      "type": "error"
    },
    {
      "inputs": [],
      "name": "MustBeGuardian",
      "type": "error"
    },
    {
      "inputs": [],
      "name": "MustBeGuardianOrValidContract",
      "type": "error"
    },
    {
      "inputs": [],
      "name": "MustBeMultisig",
      "type": "error"
    },
    {
      "inputs": [],
      "name": "SyncError",
      "type": "error"
    },
    {
      "inputs": [],
      "name": "WithdrawAmountTooLarge",
      "type": "error"
    },
    {
      "inputs": [],
      "name": "ZeroAssets",
      "type": "error"
    },
    {
      "inputs": [],
      "name": "ZeroShares",
      "type": "error"
    },
    {
      "anonymous": false,
      "inputs": [
        {
          "indexed": true,
          "internalType": "address",
          "name": "owner",
          "type": "address"
        },
        {
          "indexed": true,
          "internalType": "address",
          "name": "spender",
          "type": "address"
        },
        {
          "indexed": false,
          "internalType": "uint256",
          "name": "amount",
          "type": "uint256"
        }
      ],
      "name": "Approval",
      "type": "event"
    },
    {
      "anonymous": false,
      "inputs": [
        {
          "indexed": true,
          "internalType": "address",
          "name": "caller",
          "type": "address"
        },
        {
          "indexed": true,
          "internalType": "address",
          "name": "owner",
          "type": "address"
        },
        {
          "indexed": false,
          "internalType": "uint256",
          "name": "assets",
          "type": "uint256"
        },
        {
          "indexed": false,
          "internalType": "uint256",
          "name": "shares",
          "type": "uint256"
        }
      ],
      "name": "Deposit",
      "type": "event"
    },
    {
      "anonymous": false,
      "inputs": [
        {
          "indexed": true,
          "internalType": "address",
          "name": "caller",
          "type": "address"
        },
        {
          "indexed": false,
          "internalType": "uint256",
          "name": "baseAmt",
          "type": "uint256"
        },
        {
          "indexed": false,
          "internalType": "uint256",
          "name": "rewardsAmt",
          "type": "uint256"
        }
      ],
      "name": "DepositedFromStaking",
      "type": "event"
    },
    {
      "anonymous": false,
      "inputs": [
        {
          "indexed": false,
          "internalType": "uint8",
          "name": "version",
          "type": "uint8"
        }
      ],
      "name": "Initialized",
      "type": "event"
    },
    {
      "anonymous": false,
      "inputs": [
        {
          "indexed": true,
          "internalType": "uint256",
          "name": "cycleEnd",
          "type": "uint256"
        },
        {
          "indexed": false,
          "internalType": "uint256",
          "name": "rewardsAmt",
          "type": "uint256"
        }
      ],
      "name": "NewRewardsCycle",
      "type": "event"
    },
    {
      "anonymous": false,
      "inputs": [
        {
          "indexed": true,
          "internalType": "address",
          "name": "from",
          "type": "address"
        },
        {
          "indexed": true,
          "internalType": "address",
          "name": "to",
          "type": "address"
        },
        {
          "indexed": false,
          "internalType": "uint256",
          "name": "amount",
          "type": "uint256"
        }
      ],
      "name": "Transfer",
      "type": "event"
    },
    {
      "anonymous": false,
      "inputs": [
        {
          "indexed": true,
          "internalType": "address",
          "name": "caller",
          "type": "address"
        },
        {
          "indexed": true,
          "internalType": "address",
          "name": "receiver",
          "type": "address"
        },
        {
          "indexed": true,
          "internalType": "address",
          "name": "owner",
          "type": "address"
        },
        {
          "indexed": false,
          "internalType": "uint256",
          "name": "assets",
          "type": "uint256"
        },
        {
          "indexed": false,
          "internalType": "uint256",
          "name": "shares",
          "type": "uint256"
        }
      ],
      "name": "Withdraw",
      "type": "event"
    },
    {
      "anonymous": false,
      "inputs": [
        {
          "indexed": true,
          "internalType": "address",
          "name": "caller",
          "type": "address"
        },
        {
          "indexed": false,
          "internalType": "uint256",
          "name": "assets",
          "type": "uint256"
        }
      ],
      "name": "WithdrawnForStaking",
      "type": "event"
    },
    {
      "inputs": [],
      "name": "DOMAIN_SEPARATOR",
      "outputs": [
        {
          "internalType": "bytes32",
          "name": "",
          "type": "bytes32"
        }
      ],
      "stateMutability": "view",
      "type": "function"
    },
    {
      "inputs": [
        {
          "internalType": "address",
          "name": "",
          "type": "address"
        },
        {
          "internalType": "address",
          "name": "",
          "type": "address"
        }
      ],
      "name": "allowance",
      "outputs": [
        {
          "internalType": "uint256",
          "name": "",
          "type": "uint256"
        }
      ],
      "stateMutability": "view",
      "type": "function"
    },
    {
      "inputs": [],
      "name": "amountAvailableForStaking",
      "outputs": [
        {
          "internalType": "uint256",
          "name": "",
          "type": "uint256"
        }
      ],
      "stateMutability": "view",
      "type": "function"
    },
    {
      "inputs": [
        {
          "internalType": "address",
          "name": "spender",
          "type": "address"
        },
        {
          "internalType": "uint256",
          "name": "amount",
          "type": "uint256"
        }
      ],
      "name": "approve",
      "outputs": [
        {
          "internalType": "bool",
          "name": "",
          "type": "bool"
        }
      ],
      "stateMutability": "nonpayable",
      "type": "function"
    },
    {
      "inputs": [],
      "name": "asset",
      "outputs": [
        {
          "internalType": "contract ERC20",
          "name": "",
          "type": "address"
        }
      ],
      "stateMutability": "view",
      "type": "function"
    },
    {
      "inputs": [
        {
          "internalType": "address",
          "name": "",
          "type": "address"
        }
      ],
      "name": "balanceOf",
      "outputs": [
        {
          "internalType": "uint256",
          "name": "",
          "type": "uint256"
        }
      ],
      "stateMutability": "view",
      "type": "function"
    },
    {
      "inputs": [
        {
          "internalType": "uint256",
          "name": "shares",
          "type": "uint256"
        }
      ],
      "name": "convertToAssets",
      "outputs": [
        {
          "internalType": "uint256",
          "name": "",
          "type": "uint256"
        }
      ],
      "stateMutability": "view",
      "type": "function"
    },
    {
      "inputs": [
        {
          "internalType": "uint256",
          "name": "assets",
          "type": "uint256"
        }
      ],
      "name": "convertToShares",
      "outputs": [
        {
          "internalType": "uint256",
          "name": "",
          "type": "uint256"
        }
      ],
      "stateMutability": "view",
      "type": "function"
    },
    {
      "inputs": [],
      "name": "decimals",
      "outputs": [
        {
          "internalType": "uint8",
          "name": "",
          "type": "uint8"
        }
      ],
      "stateMutability": "view",
      "type": "function"
    },
    {
      "inputs": [
        {
          "internalType": "uint256",
          "name": "assets",
          "type": "uint256"
        },
        {
          "internalType": "address",
          "name": "receiver",
          "type": "address"
        }
      ],
      "name": "deposit",
      "outputs": [
        {
          "internalType": "uint256",
          "name": "shares",
          "type": "uint256"
        }
      ],
      "stateMutability": "nonpayable",
      "type": "function"
    },
    {
      "inputs": [],
      "name": "depositAVAX",
      "outputs": [
        {
          "internalType": "uint256",
          "name": "shares",
          "type": "uint256"
        }
      ],
      "stateMutability": "payable",
      "type": "function"
    },
    {
      "inputs": [
        {
          "internalType": "uint256",
          "name": "baseAmt",
          "type": "uint256"
        },
        {
          "internalType": "uint256",
          "name": "rewardAmt",
          "type": "uint256"
        }
      ],
      "name": "depositFromStaking",
      "outputs": [],
      "stateMutability": "payable",
      "type": "function"
    },
    {
      "inputs": [
        {
          "internalType": "contract Storage",
          "name": "storageAddress",
          "type": "address"
        },
        {
          "internalType": "contract ERC20",
          "name": "asset",
          "type": "address"
        },
        {
          "internalType": "uint256",
          "name": "initialDeposit",
          "type": "uint256"
        }
      ],
      "name": "initialize",
      "outputs": [],
      "stateMutability": "nonpayable",
      "type": "function"
    },
    {
      "inputs": [],
      "name": "lastRewardsAmt",
      "outputs": [
        {
          "internalType": "uint192",
          "name": "",
          "type": "uint192"
        }
      ],
      "stateMutability": "view",
      "type": "function"
    },
    {
      "inputs": [],
      "name": "lastSync",
      "outputs": [
        {
          "internalType": "uint32",
          "name": "",
          "type": "uint32"
        }
      ],
      "stateMutability": "view",
      "type": "function"
    },
    {
      "inputs": [
        {
          "internalType": "address",
          "name": "_owner",
          "type": "address"
        }
      ],
      "name": "maxDeposit",
      "outputs": [
        {
          "internalType": "uint256",
          "name": "",
          "type": "uint256"
        }
      ],
      "stateMutability": "view",
      "type": "function"
    },
    {
      "inputs": [
        {
          "internalType": "address",
          "name": "_owner",
          "type": "address"
        }
      ],
      "name": "maxMint",
      "outputs": [
        {
          "internalType": "uint256",
          "name": "",
          "type": "uint256"
        }
      ],
      "stateMutability": "view",
      "type": "function"
    },
    {
      "inputs": [
        {
          "internalType": "address",
          "name": "_owner",
          "type": "address"
        }
      ],
      "name": "maxRedeem",
      "outputs": [
        {
          "internalType": "uint256",
          "name": "",
          "type": "uint256"
        }
      ],
      "stateMutability": "view",
      "type": "function"
    },
    {
      "inputs": [
        {
          "internalType": "address",
          "name": "_owner",
          "type": "address"
        }
      ],
      "name": "maxWithdraw",
      "outputs": [
        {
          "internalType": "uint256",
          "name": "",
          "type": "uint256"
        }
      ],
      "stateMutability": "view",
      "type": "function"
    },
    {
      "inputs": [
        {
          "internalType": "uint256",
          "name": "shares",
          "type": "uint256"
        },
        {
          "internalType": "address",
          "name": "receiver",
          "type": "address"
        }
      ],
      "name": "mint",
      "outputs": [
        {
          "internalType": "uint256",
          "name": "assets",
          "type": "uint256"
        }
      ],
      "stateMutability": "nonpayable",
      "type": "function"
    },
    {
      "inputs": [],
      "name": "name",
      "outputs": [
        {
          "internalType": "string",
          "name": "",
          "type": "string"
        }
      ],
      "stateMutability": "view",
      "type": "function"
    },
    {
      "inputs": [
        {
          "internalType": "address",
          "name": "",
          "type": "address"
        }
      ],
      "name": "nonces",
      "outputs": [
        {
          "internalType": "uint256",
          "name": "",
          "type": "uint256"
        }
      ],
      "stateMutability": "view",
      "type": "function"
    },
    {
      "inputs": [
        {
          "internalType": "address",
          "name": "owner",
          "type": "address"
        },
        {
          "internalType": "address",
          "name": "spender",
          "type": "address"
        },
        {
          "internalType": "uint256",
          "name": "value",
          "type": "uint256"
        },
        {
          "internalType": "uint256",
          "name": "deadline",
          "type": "uint256"
        },
        {
          "internalType": "uint8",
          "name": "v",
          "type": "uint8"
        },
        {
          "internalType": "bytes32",
          "name": "r",
          "type": "bytes32"
        },
        {
          "internalType": "bytes32",
          "name": "s",
          "type": "bytes32"
        }
      ],
      "name": "permit",
      "outputs": [],
      "stateMutability": "nonpayable",
      "type": "function"
    },
    {
      "inputs": [
        {
          "internalType": "uint256",
          "name": "assets",
          "type": "uint256"
        }
      ],
      "name": "previewDeposit",
      "outputs": [
        {
          "internalType": "uint256",
          "name": "",
          "type": "uint256"
        }
      ],
      "stateMutability": "view",
      "type": "function"
    },
    {
      "inputs": [
        {
          "internalType": "uint256",
          "name": "shares",
          "type": "uint256"
        }
      ],
      "name": "previewMint",
      "outputs": [
        {
          "internalType": "uint256",
          "name": "",
          "type": "uint256"
        }
      ],
      "stateMutability": "view",
      "type": "function"
    },
    {
      "inputs": [
        {
          "internalType": "uint256",
          "name": "shares",
          "type": "uint256"
        }
      ],
      "name": "previewRedeem",
      "outputs": [
        {
          "internalType": "uint256",
          "name": "",
          "type": "uint256"
        }
      ],
      "stateMutability": "view",
      "type": "function"
    },
    {
      "inputs": [
        {
          "internalType": "uint256",
          "name": "assets",
          "type": "uint256"
        }
      ],
      "name": "previewWithdraw",
      "outputs": [
        {
          "internalType": "uint256",
          "name": "",
          "type": "uint256"
        }
      ],
      "stateMutability": "view",
      "type": "function"
    },
    {
      "inputs": [
        {
          "internalType": "uint256",
          "name": "shares",
          "type": "uint256"
        },
        {
          "internalType": "address",
          "name": "receiver",
          "type": "address"
        },
        {
          "internalType": "address",
          "name": "owner",
          "type": "address"
        }
      ],
      "name": "redeem",
      "outputs": [
        {
          "internalType": "uint256",
          "name": "assets",
          "type": "uint256"
        }
      ],
      "stateMutability": "nonpayable",
      "type": "function"
    },
    {
      "inputs": [
        {
          "internalType": "uint256",
          "name": "shares",
          "type": "uint256"
        }
      ],
      "name": "redeemAVAX",
      "outputs": [
        {
          "internalType": "uint256",
          "name": "assets",
          "type": "uint256"
        }
      ],
      "stateMutability": "nonpayable",
      "type": "function"
    },
    {
      "inputs": [],
      "name": "rewardsCycleEnd",
      "outputs": [
        {
          "internalType": "uint32",
          "name": "",
          "type": "uint32"
        }
      ],
      "stateMutability": "view",
      "type": "function"
    },
    {
      "inputs": [],
      "name": "rewardsCycleLength",
      "outputs": [
        {
          "internalType": "uint32",
          "name": "",
          "type": "uint32"
        }
      ],
      "stateMutability": "view",
      "type": "function"
    },
    {
      "inputs": [],
      "name": "stakingTotalAssets",
      "outputs": [
        {
          "internalType": "uint256",
          "name": "",
          "type": "uint256"
        }
      ],
      "stateMutability": "view",
      "type": "function"
    },
    {
      "inputs": [],
      "name": "symbol",
      "outputs": [
        {
          "internalType": "string",
          "name": "",
          "type": "string"
        }
      ],
      "stateMutability": "view",
      "type": "function"
    },
    {
      "inputs": [],
      "name": "syncRewards",
      "outputs": [],
      "stateMutability": "nonpayable",
      "type": "function"
    },
    {
      "inputs": [],
      "name": "totalAssets",
      "outputs": [
        {
          "internalType": "uint256",
          "name": "",
          "type": "uint256"
        }
      ],
      "stateMutability": "view",
      "type": "function"
    },
    {
      "inputs": [],
      "name": "totalReleasedAssets",
      "outputs": [
        {
          "internalType": "uint256",
          "name": "",
          "type": "uint256"
        }
      ],
      "stateMutability": "view",
      "type": "function"
    },
    {
      "inputs": [],
      "name": "totalSupply",
      "outputs": [
        {
          "internalType": "uint256",
          "name": "",
          "type": "uint256"
        }
      ],
      "stateMutability": "view",
      "type": "function"
    },
    {
      "inputs": [
        {
          "internalType": "address",
          "name": "to",
          "type": "address"
        },
        {
          "internalType": "uint256",
          "name": "amount",
          "type": "uint256"
        }
      ],
      "name": "transfer",
      "outputs": [
        {
          "internalType": "bool",
          "name": "",
          "type": "bool"
        }
      ],
      "stateMutability": "nonpayable",
      "type": "function"
    },
    {
      "inputs": [
        {
          "internalType": "address",
          "name": "from",
          "type": "address"
        },
        {
          "internalType": "address",
          "name": "to",
          "type": "address"
        },
        {
          "internalType": "uint256",
          "name": "amount",
          "type": "uint256"
        }
      ],
      "name": "transferFrom",
      "outputs": [
        {
          "internalType": "bool",
          "name": "",
          "type": "bool"
        }
      ],
      "stateMutability": "nonpayable",
      "type": "function"
    },
    {
      "inputs": [],
      "name": "version",
      "outputs": [
        {
          "internalType": "uint8",
          "name": "",
          "type": "uint8"
        }
      ],
      "stateMutability": "view",
      "type": "function"
    },
    {
      "inputs": [
        {
          "internalType": "uint256",
          "name": "assets",
          "type": "uint256"
        },
        {
          "internalType": "address",
          "name": "receiver",
          "type": "address"
        },
        {
          "internalType": "address",
          "name": "owner",
          "type": "address"
        }
      ],
      "name": "withdraw",
      "outputs": [
        {
          "internalType": "uint256",
          "name": "shares",
          "type": "uint256"
        }
      ],
      "stateMutability": "nonpayable",
      "type": "function"
    },
    {
      "inputs": [
        {
          "internalType": "uint256",
          "name": "assets",
          "type": "uint256"
        }
      ],
      "name": "withdrawAVAX",
      "outputs": [
        {
          "internalType": "uint256",
          "name": "shares",
          "type": "uint256"
        }
      ],
      "stateMutability": "nonpayable",
      "type": "function"
    },
    {
      "inputs": [
        {
          "internalType": "uint256",
          "name": "assets",
          "type": "uint256"
        }
      ],
      "name": "withdrawForStaking",
      "outputs": [],
      "stateMutability": "nonpayable",
      "type": "function"
    },
    {
      "stateMutability": "payable",
      "type": "receive"
    }
  ],
  "bytecode": "0x60806040523480156200001157600080fd5b506200001c62000022565b620000e4565b600054610100900460ff16156200008f5760405162461bcd60e51b815260206004820152602760248201527f496e697469616c697a61626c653a20636f6e747261637420697320696e697469604482015266616c697a696e6760c81b606482015260840160405180910390fd5b60005460ff9081161015620000e2576000805460ff191660ff9081179091556040519081527f7f26b83ff96e1f2b6a682f133852f6798a09c465da95921460cefb38474024989060200160405180910390a15b565b61326680620000f46000396000f3fe6080604052600436106102e05760003560e01c806372c0c21111610184578063be13733c116100d6578063d505accf1161008a578063e7ff69f111610064578063e7ff69f114610832578063ef8b30f71461085b578063efe441d91461087b57600080fd5b8063d505accf146107ba578063d905777e146107da578063dd62ed3e146107fa57600080fd5b8063c63d75b6116100bb578063c63d75b6146104c2578063c6e6f5921461077a578063ce96cb771461079a57600080fd5b8063be13733c1461074f578063beff2bb51461076457600080fd5b8063a9059cbb11610138578063b460af9411610112578063b460af94146106b5578063ba087652146106d5578063bb60d8a7146106f557600080fd5b8063a9059cbb14610655578063aeb5cd5e14610675578063b3d7f6b91461069557600080fd5b806394bf804d1161016957806394bf804d1461061857806395d89b4114610638578063a0d065c31461064d57600080fd5b806372c0c211146105d65780637ecebe00146105eb57600080fd5b80633644e5151161023d5780634ff8a081116101f15780636e553f65116101cb5780636e553f65146105645780636fcf5e5f1461058457806370a08231146105a957600080fd5b80634ff8a0811461050257806354fd4d50146105185780636917516b1461053257600080fd5b806338d52e0f1161022257806338d52e0f1461048a578063402d267d146104c25780634cdad506146104e257600080fd5b80633644e51514610462578063383dcbc41461047757600080fd5b80631685a0891161029457806318160ddd1161027957806318160ddd1461040057806323b872dd14610416578063313ce5671461043657600080fd5b80631685a089146103c05780631794bb3c146103e057600080fd5b806307a2d13a116102c557806307a2d13a14610350578063095ea7b3146103705780630a28a477146103a057600080fd5b806301e1d1141461030657806306fdde031461032e57600080fd5b3661030157603c546001600160a01b031633146102ff576102ff612b5e565b005b600080fd5b34801561031257600080fd5b5061031b61089b565b6040519081526020015b60405180910390f35b34801561033a57600080fd5b50610343610974565b6040516103259190612bb1565b34801561035c57600080fd5b5061031b61036b366004612c02565b610a02565b34801561037c57600080fd5b5061039061038b366004612c33565b610a2f565b6040519015158152602001610325565b3480156103ac57600080fd5b5061031b6103bb366004612c02565b610a9c565b3480156103cc57600080fd5b5061031b6103db366004612c02565b610abc565b3480156103ec57600080fd5b506102ff6103fb366004612c5f565b610bdf565b34801561040c57600080fd5b5061031b60045481565b34801561042257600080fd5b50610390610431366004612c5f565b610eac565b34801561044257600080fd5b506003546104509060ff1681565b60405160ff9091168152602001610325565b34801561046e57600080fd5b5061031b610f9e565b6102ff610485366004612ca0565b610fbd565b34801561049657600080fd5b50603c546104aa906001600160a01b031681565b6040516001600160a01b039091168152602001610325565b3480156104ce57600080fd5b5061031b6104dd366004612cc2565b611190565b3480156104ee57600080fd5b5061031b6104fd366004612c02565b61121e565b34801561050e57600080fd5b5061031b60a55481565b34801561052457600080fd5b50606f546104509060ff1681565b34801561053e57600080fd5b5060a25461054f9063ffffffff1681565b60405163ffffffff9091168152602001610325565b34801561057057600080fd5b5061031b61057f366004612cdf565b611229565b34801561059057600080fd5b5060a25461054f90640100000000900463ffffffff1681565b3480156105b557600080fd5b5061031b6105c4366004612cc2565b60056020526000908152604090205481565b3480156105e257600080fd5b506102ff611312565b3480156105f757600080fd5b5061031b610606366004612cc2565b60096020526000908152604090205481565b34801561062457600080fd5b5061031b610633366004612cdf565b611560565b34801561064457600080fd5b506103436115e0565b61031b6115ed565b34801561066157600080fd5b50610390610670366004612c33565b6116f3565b34801561068157600080fd5b5061031b610690366004612c02565b61176b565b3480156106a157600080fd5b5061031b6106b0366004612c02565b61184f565b3480156106c157600080fd5b5061031b6106d0366004612d0f565b6118fe565b3480156106e157600080fd5b5061031b6106f0366004612d0f565b6119ef565b34801561070157600080fd5b5060a3546107269077ffffffffffffffffffffffffffffffffffffffffffffffff1681565b60405177ffffffffffffffffffffffffffffffffffffffffffffffff9091168152602001610325565b34801561075b57600080fd5b5061031b611b4a565b34801561077057600080fd5b5061031b60a45481565b34801561078657600080fd5b5061031b610795366004612c02565b611c4d565b3480156107a657600080fd5b5061031b6107b5366004612cc2565b611c6d565b3480156107c657600080fd5b506102ff6107d5366004612d60565b611cc3565b3480156107e657600080fd5b5061031b6107f5366004612cc2565b611fa1565b34801561080657600080fd5b5061031b610815366004612dd1565b600660209081526000928352604080842090915290825290205481565b34801561083e57600080fd5b5060a25461054f9068010000000000000000900463ffffffff1681565b34801561086757600080fd5b5061031b610876366004612c02565b611fd5565b34801561088757600080fd5b506102ff610896366004612c02565b61207e565b60a45460a35460a2546000929177ffffffffffffffffffffffffffffffffffffffffffffffff169063ffffffff6801000000000000000082048116911642821161090c5761090377ffffffffffffffffffffffffffffffffffffffffffffffff841685612e2e565b94505050505090565b60006109188284612e41565b63ffffffff168263ffffffff16426109309190612e65565b6109549077ffffffffffffffffffffffffffffffffffffffffffffffff8716612e78565b61095e9190612ebe565b905061096a8186612e2e565b9550505050505090565b6001805461098190612ed2565b80601f01602080910402602001604051908101604052809291908181526020018280546109ad90612ed2565b80156109fa5780601f106109cf576101008083540402835291602001916109fa565b820191906000526020600020905b8154815290600101906020018083116109dd57829003601f168201915b505050505081565b6004546000908015610a2657610a21610a1961089b565b849083612276565b610a28565b825b9392505050565b3360008181526006602090815260408083206001600160a01b038716808552925280832085905551919290917f8c5be1e5ebec7d5bd14f71427d1e84f3dd0314c0f7b2291e5b200ac8c7c3b92590610a8a9086815260200190565b60405180910390a35060015b92915050565b6004546000908015610a2657610a2181610ab461089b565b859190612294565b6000610ac78261121e565b905080600003610b03576040517f32d971dc00000000000000000000000000000000000000000000000000000000815260040160405180910390fd5b610b0d81836122ba565b610b1733836122d5565b60408051828152602081018490523391829182917ffbde797d201c681b91056529119e0b02407c7bb96a4a2c75c01fc9667232c8db910160405180910390a4603c546040517f2e1a7d4d000000000000000000000000000000000000000000000000000000008152600481018390526001600160a01b0390911690632e1a7d4d90602401600060405180830381600087803b158015610bb557600080fd5b505af1158015610bc9573d6000803e3d6000fd5b50610bda9250339150839050612351565b919050565b600054610100900460ff1615808015610bff5750600054600160ff909116105b80610c195750303b158015610c19575060005460ff166001145b610caa576040517f08c379a000000000000000000000000000000000000000000000000000000000815260206004820152602e60248201527f496e697469616c697a61626c653a20636f6e747261637420697320616c72656160448201527f647920696e697469616c697a656400000000000000000000000000000000000060648201526084015b60405180910390fd5b600080547fffffffffffffffffffffffffffffffffffffffffffffffffffffffffffffff001660011790558015610d0857600080547fffffffffffffffffffffffffffffffffffffffffffffffffffffffffffff00ff166101001790555b610d7d836040518060400160405280601d81526020017f476f476f506f6f6c204c6971756964205374616b696e6720546f6b656e0000008152506040518060400160405280600681526020017f67674156415800000000000000000000000000000000000000000000000000008152506123cb565b610d868461250a565b606f80547fffffffffffffffffffffffffffffffffffffffffffffffffffffffffffffff001660011790558115610dc357610dc18230611229565b505b60a280547fffffffffffffffffffffffffffffffffffffffffffffffff00000000ffffffff166612750000000000179081905563ffffffff6401000000009091041680610e0f426125e0565b610e199190612f1f565b610e239190612f42565b60a260086101000a81548163ffffffff021916908363ffffffff1602179055508015610ea657600080547fffffffffffffffffffffffffffffffffffffffffffffffffffffffffffff00ff169055604051600181527f7f26b83ff96e1f2b6a682f133852f6798a09c465da95921460cefb38474024989060200160405180910390a15b50505050565b6001600160a01b03831660009081526006602090815260408083203384529091528120546000198114610f0857610ee38382612e65565b6001600160a01b03861660009081526006602090815260408083203384529091529020555b6001600160a01b03851660009081526005602052604081208054859290610f30908490612e65565b90915550506001600160a01b03808516600081815260056020526040908190208054870190555190918716907fddf252ad1be2c89b69c2b068fc378daa952ba7f163c4a11628f55a4df523b3ef90610f8b9087815260200190565b60405180910390a3506001949350505050565b60006007544614610fb657610fb16125f3565b905090565b5060085490565b6040518060400160405280600f81526020017f4d696e69706f6f6c4d616e61676572000000000000000000000000000000000081525033611023826040516020016110089190612f6a565b60405160208183030381529060405280519060200120612677565b6001600160a01b0316816001600160a01b03161461106d576040517f3ddd2bb600000000000000000000000000000000000000000000000000000000815260040160405180910390fd5b346110788486612e2e565b81141580611087575060a55485115b156110be576040517f98d207b400000000000000000000000000000000000000000000000000000000815260040160405180910390fd5b604080518681526020810186905233917fc427d2d659d7dba18f3b7dc230a5b3eeaf5775bdda96b5018efceed241e06e0e910160405180910390a28460a5600082825461110b9190612e65565b9091555050603c54604080517fd0e30db000000000000000000000000000000000000000000000000000000000815290516001600160a01b039092169163d0e30db0918491600480830192600092919082900301818588803b15801561117057600080fd5b505af1158015611184573d6000803e3d6000fd5b50505050505050505050565b60006112096040516020016111ee907f636f6e74726163742e706175736564000000000000000000000000000000000081527f546f6b656e676741564158000000000000000000000000000000000000000000600f820152601a0190565b60405160208183030381529060405280519060200120612703565b1561121657506000919050565b600019610a96565b6000610a9682610a02565b600061123483611fd5565b9050806000036112a0576040517f08c379a000000000000000000000000000000000000000000000000000000000815260206004820152600b60248201527f5a45524f5f5348415245530000000000000000000000000000000000000000006044820152606401610ca1565b603c546112b8906001600160a01b031633308661278f565b6112c28282612855565b60408051848152602081018390526001600160a01b0384169133917fdcbc1c05240f31ff3ad067ef1ee35ce4997762752e3a095284754544f4c709d7910160405180910390a3610a9683826128b9565b600061131d426125e0565b60a25490915063ffffffff6801000000000000000090910481169082161015611372576040517f49f4cf9c00000000000000000000000000000000000000000000000000000000815260040160405180910390fd5b60a35460a45460a554603c546040517f70a0823100000000000000000000000000000000000000000000000000000000815230600482015277ffffffffffffffffffffffffffffffffffffffffffffffff909416936000918591859185916001600160a01b03909116906370a0823190602401602060405180830381865afa158015611402573d6000803e3d6000fd5b505050506040513d601f19601f820116820180604052508101906114269190612faf565b6114309190612e2e565b61143a9190612e65565b6114449190612e65565b60a254909150600090640100000000900463ffffffff16806114668189612fc8565b6114709190612f1f565b61147a9190612f42565b9050611485826128cb565b60a3805477ffffffffffffffffffffffffffffffffffffffffffffffff9283167fffffffffffffffff00000000000000000000000000000000000000000000000090911617905560a2805463ffffffff84811668010000000000000000027fffffffffffffffffffffffffffffffffffffffff00000000ffffffff00000000909216908a161717905561151a90861685612e2e565b60a45560405182815263ffffffff8216907f456468d0d5c249d1e9c2eb03d20f2a6627334ac8667838011f1df0013816f1cf9060200160405180910390a2505050505050565b600061156b8361184f565b603c54909150611586906001600160a01b031633308461278f565b6115908284612855565b60408051828152602081018590526001600160a01b0384169133917fdcbc1c05240f31ff3ad067ef1ee35ce4997762752e3a095284754544f4c709d7910160405180910390a3610a9681846128b9565b6002805461098190612ed2565b6000346115f981611fd5565b915081600003611635576040517f9811e0c700000000000000000000000000000000000000000000000000000000815260040160405180910390fd5b6040805182815260208101849052339182917fdcbc1c05240f31ff3ad067ef1ee35ce4997762752e3a095284754544f4c709d7910160405180910390a3603c60009054906101000a90046001600160a01b03166001600160a01b031663d0e30db0826040518263ffffffff1660e01b81526004016000604051808303818588803b1580156116c257600080fd5b505af11580156116d6573d6000803e3d6000fd5b50505050506116e53383612855565b6116ef81836128b9565b5090565b33600090815260056020526040812080548391908390611714908490612e65565b90915550506001600160a01b038316600081815260056020526040908190208054850190555133907fddf252ad1be2c89b69c2b068fc378daa952ba7f163c4a11628f55a4df523b3ef90610a8a9086815260200190565b600061177682610a9c565b905061178282826122ba565b61178c33826122d5565b60408051838152602081018390523391829182917ffbde797d201c681b91056529119e0b02407c7bb96a4a2c75c01fc9667232c8db910160405180910390a4603c546040517f2e1a7d4d000000000000000000000000000000000000000000000000000000008152600481018490526001600160a01b0390911690632e1a7d4d90602401600060405180830381600087803b15801561182a57600080fd5b505af115801561183e573d6000803e3d6000fd5b50610bda9250339150849050612351565b6000816000811180156118b857506040517f636f6e74726163742e706175736564000000000000000000000000000000000060208201527f546f6b656e676741564158000000000000000000000000000000000000000000602f8201526118b890603a016111ee565b156118ef576040517fab35696f00000000000000000000000000000000000000000000000000000000815260040160405180910390fd5b610a28836128f2565b50919050565b600061190984610a9c565b9050336001600160a01b03831614611979576001600160a01b03821660009081526006602090815260408083203384529091529020546000198114611977576119528282612e65565b6001600160a01b03841660009081526006602090815260408083203384529091529020555b505b61198384826122ba565b61198d82826122d5565b60408051858152602081018390526001600160a01b03808516929086169133917ffbde797d201c681b91056529119e0b02407c7bb96a4a2c75c01fc9667232c8db910160405180910390a4603c54610a28906001600160a01b03168486612911565b6000336001600160a01b03831614611a5f576001600160a01b03821660009081526006602090815260408083203384529091529020546000198114611a5d57611a388582612e65565b6001600160a01b03841660009081526006602090815260408083203384529091529020555b505b611a688461121e565b905080600003611ad4576040517f08c379a000000000000000000000000000000000000000000000000000000000815260206004820152600b60248201527f5a45524f5f4153534554530000000000000000000000000000000000000000006044820152606401610ca1565b611ade81856122ba565b611ae882856122d5565b60408051828152602081018690526001600160a01b03808516929086169133917ffbde797d201c681b91056529119e0b02407c7bb96a4a2c75c01fc9667232c8db910160405180910390a4603c54610a28906001600160a01b03168483612911565b600080611b8b6040518060400160405280600b81526020017f50726f746f636f6c44414f0000000000000000000000000000000000000000008152506129ca565b90506000816001600160a01b0316635ad174eb6040518163ffffffff1660e01b8152600401602060405180830381865afa158015611bcd573d6000803e3d6000fd5b505050506040513d601f19601f82011682018060405250810190611bf19190612faf565b90506000611bfd61089b565b90506000611c148284670de0b6b3a7640000612276565b90508160a55482611c259190612e2e565b1115611c3657600094505050505090565b60a554611c438284612e65565b6109039190612e65565b6004546000908015610a2657610a2181611c6561089b565b859190612276565b6001600160a01b0381166000908152600560205260408120548190611c9190610a02565b9050600060a554611ca061089b565b611caa9190612e65565b9050808211611cb95781611cbb565b805b949350505050565b42841015611d2d576040517f08c379a000000000000000000000000000000000000000000000000000000000815260206004820152601760248201527f5045524d49545f444541444c494e455f455850495245440000000000000000006044820152606401610ca1565b60006001611d39610f9e565b6001600160a01b038a811660008181526009602090815260409182902080546001810190915582517f6e71edae12b1b97f4d1f60370fef10105fa2faae0126114a169c64845d6126c98184015280840194909452938d166060840152608083018c905260a083019390935260c08083018b90528151808403909101815260e0830190915280519201919091207f190100000000000000000000000000000000000000000000000000000000000061010083015261010282019290925261012281019190915261014201604080517fffffffffffffffffffffffffffffffffffffffffffffffffffffffffffffffe08184030181528282528051602091820120600084529083018083525260ff871690820152606081018590526080810184905260a0016020604051602081039080840390855afa158015611e7e573d6000803e3d6000fd5b50506040517fffffffffffffffffffffffffffffffffffffffffffffffffffffffffffffffe001519150506001600160a01b03811615801590611ed25750876001600160a01b0316816001600160a01b0316145b611f38576040517f08c379a000000000000000000000000000000000000000000000000000000000815260206004820152600e60248201527f494e56414c49445f5349474e45520000000000000000000000000000000000006044820152606401610ca1565b6001600160a01b0390811660009081526006602090815260408083208a8516808552908352928190208990555188815291928a16917f8c5be1e5ebec7d5bd14f71427d1e84f3dd0314c0f7b2291e5b200ac8c7c3b925910160405180910390a350505050505050565b6001600160a01b03811660009081526005602052604081205460a5548290611caa90611fcb61089b565b6107959190612e65565b60008160008111801561203e57506040517f636f6e74726163742e706175736564000000000000000000000000000000000060208201527f546f6b656e676741564158000000000000000000000000000000000000000000602f82015261203e90603a016111ee565b15612075576040517fab35696f00000000000000000000000000000000000000000000000000000000815260040160405180910390fd5b610a2883612a23565b6040518060400160405280600f81526020017f4d696e69706f6f6c4d616e616765720000000000000000000000000000000000815250336120c9826040516020016110089190612f6a565b6001600160a01b0316816001600160a01b031614612113576040517f3ddd2bb600000000000000000000000000000000000000000000000000000000815260040160405180910390fd5b61211b611b4a565b831115612154576040517fcd4f992200000000000000000000000000000000000000000000000000000000815260040160405180910390fd5b60405183815233907f14438a8606c512fda07a1e9dfefc371418ed542946338bfa1c87788e903b4d689060200160405180910390a28260a5600082825461219b9190612e2e565b9091555050603c546040517f2e1a7d4d000000000000000000000000000000000000000000000000000000008152600481018590526001600160a01b0390911690632e1a7d4d90602401600060405180830381600087803b1580156121ff57600080fd5b505af1158015612213573d6000803e3d6000fd5b505050506000339050806001600160a01b031663ffe09241856040518263ffffffff1660e01b81526004016000604051808303818588803b15801561225757600080fd5b505af115801561226b573d6000803e3d6000fd5b505050505050505050565b600082600019048411830215820261228d57600080fd5b5091020490565b60008260001904841183021582026122ab57600080fd5b50910281810615159190040190565b8160a460008282546122cc9190612e65565b90915550505050565b6001600160a01b038216600090815260056020526040812080548392906122fd908490612e65565b90915550506004805482900390556040518181526000906001600160a01b038416907fddf252ad1be2c89b69c2b068fc378daa952ba7f163c4a11628f55a4df523b3ef906020015b60405180910390a35050565b600080600080600085875af19050806123c6576040517f08c379a000000000000000000000000000000000000000000000000000000000815260206004820152601360248201527f4554485f5452414e534645525f4641494c4544000000000000000000000000006044820152606401610ca1565b505050565b600054610100900460ff16612462576040517f08c379a000000000000000000000000000000000000000000000000000000000815260206004820152602b60248201527f496e697469616c697a61626c653a20636f6e7472616374206973206e6f74206960448201527f6e697469616c697a696e670000000000000000000000000000000000000000006064820152608401610ca1565b6124ce8282856001600160a01b031663313ce5676040518163ffffffff1660e01b8152600401602060405180830381865afa1580156124a5573d6000803e3d6000fd5b505050506040513d601f19601f820116820180604052508101906124c99190612fe5565b612a2e565b5050603c80547fffffffffffffffffffffffff0000000000000000000000000000000000000000166001600160a01b0392909216919091179055565b600054610100900460ff166125a1576040517f08c379a000000000000000000000000000000000000000000000000000000000815260206004820152602b60248201527f496e697469616c697a61626c653a20636f6e7472616374206973206e6f74206960448201527f6e697469616c697a696e670000000000000000000000000000000000000000006064820152608401610ca1565b606f80546001600160a01b03909216610100027fffffffffffffffffffffff0000000000000000000000000000000000000000ff909216919091179055565b600064010000000082106116ef57600080fd5b60007f8b73c3c69bb8fe3d512ecc4cf759cc79239f7b179b0ffacaa9a75d522b39400f60016040516126259190613002565b6040518091039020612635612b20565b60408051602081019490945283019190915260608201524660808201523060a082015260c0015b60405160208183030381529060405280519060200120905090565b606f546040517f21f8a7210000000000000000000000000000000000000000000000000000000081526004810183905260009161010090046001600160a01b0316906321f8a72190602401602060405180830381865afa1580156126df573d6000803e3d6000fd5b505050506040513d601f19601f82011682018060405250810190610a969190613096565b606f546040517f7ae1cfca0000000000000000000000000000000000000000000000000000000081526004810183905260009161010090046001600160a01b031690637ae1cfca90602401602060405180830381865afa15801561276b573d6000803e3d6000fd5b505050506040513d601f19601f82011682018060405250810190610a9691906130b3565b60006040517f23b872dd0000000000000000000000000000000000000000000000000000000081528460048201528360248201528260448201526020600060648360008a5af13d15601f3d116001600051141617169150508061284e576040517f08c379a000000000000000000000000000000000000000000000000000000000815260206004820152601460248201527f5452414e534645525f46524f4d5f4641494c45440000000000000000000000006044820152606401610ca1565b5050505050565b80600460008282546128679190612e2e565b90915550506001600160a01b0382166000818152600560209081526040808320805486019055518481527fddf252ad1be2c89b69c2b068fc378daa952ba7f163c4a11628f55a4df523b3ef9101612345565b8160a460008282546122cc9190612e2e565b6000780100000000000000000000000000000000000000000000000082106116ef57600080fd5b6004546000908015610a2657610a2161290961089b565b849083612294565b60006040517fa9059cbb000000000000000000000000000000000000000000000000000000008152836004820152826024820152602060006044836000895af13d15601f3d1160016000511416171691505080610ea6576040517f08c379a000000000000000000000000000000000000000000000000000000000815260206004820152600f60248201527f5452414e534645525f4641494c454400000000000000000000000000000000006044820152606401610ca1565b6000806129e1836040516020016110089190612f6a565b90506001600160a01b038116610a96576040517fed59262400000000000000000000000000000000000000000000000000000000815260040160405180910390fd5b6000610a9682611c4d565b600054610100900460ff16612ac5576040517f08c379a000000000000000000000000000000000000000000000000000000000815260206004820152602b60248201527f496e697469616c697a61626c653a20636f6e7472616374206973206e6f74206960448201527f6e697469616c697a696e670000000000000000000000000000000000000000006064820152608401610ca1565b6001612ad18482613152565b506002612ade8382613152565b50600380547fffffffffffffffffffffffffffffffffffffffffffffffffffffffffffffff001660ff831617905546600755612b186125f3565b600855505050565b606f5460405160f89190911b7fff0000000000000000000000000000000000000000000000000000000000000016602082015260009060210161265c565b7f4e487b7100000000000000000000000000000000000000000000000000000000600052600160045260246000fd5b60005b83811015612ba8578181015183820152602001612b90565b50506000910152565b6020815260008251806020840152612bd0816040850160208701612b8d565b601f017fffffffffffffffffffffffffffffffffffffffffffffffffffffffffffffffe0169190910160400192915050565b600060208284031215612c1457600080fd5b5035919050565b6001600160a01b0381168114612c3057600080fd5b50565b60008060408385031215612c4657600080fd5b8235612c5181612c1b565b946020939093013593505050565b600080600060608486031215612c7457600080fd5b8335612c7f81612c1b565b92506020840135612c8f81612c1b565b929592945050506040919091013590565b60008060408385031215612cb357600080fd5b50508035926020909101359150565b600060208284031215612cd457600080fd5b8135610a2881612c1b565b60008060408385031215612cf257600080fd5b823591506020830135612d0481612c1b565b809150509250929050565b600080600060608486031215612d2457600080fd5b833592506020840135612d3681612c1b565b91506040840135612d4681612c1b565b809150509250925092565b60ff81168114612c3057600080fd5b600080600080600080600060e0888a031215612d7b57600080fd5b8735612d8681612c1b565b96506020880135612d9681612c1b565b955060408801359450606088013593506080880135612db481612d51565b9699959850939692959460a0840135945060c09093013592915050565b60008060408385031215612de457600080fd5b8235612def81612c1b565b91506020830135612d0481612c1b565b7f4e487b7100000000000000000000000000000000000000000000000000000000600052601160045260246000fd5b80820180821115610a9657610a96612dff565b63ffffffff828116828216039080821115612e5e57612e5e612dff565b5092915050565b81810381811115610a9657610a96612dff565b8082028115828204841417610a9657610a96612dff565b7f4e487b7100000000000000000000000000000000000000000000000000000000600052601260045260246000fd5b600082612ecd57612ecd612e8f565b500490565b600181811c90821680612ee657607f821691505b6020821081036118f8577f4e487b7100000000000000000000000000000000000000000000000000000000600052602260045260246000fd5b600063ffffffff80841680612f3657612f36612e8f565b92169190910492915050565b63ffffffff818116838216028082169190828114612f6257612f62612dff565b505092915050565b7f636f6e74726163742e6164647265737300000000000000000000000000000000815260008251612fa2816010850160208701612b8d565b9190910160100192915050565b600060208284031215612fc157600080fd5b5051919050565b63ffffffff818116838216019080821115612e5e57612e5e612dff565b600060208284031215612ff757600080fd5b8151610a2881612d51565b600080835461301081612ed2565b60018281168015613028576001811461305b5761308a565b7fffffffffffffffffffffffffffffffffffffffffffffffffffffffffffffff008416875282151583028701945061308a565b8760005260208060002060005b858110156130815781548a820152908401908201613068565b50505082870194505b50929695505050505050565b6000602082840312156130a857600080fd5b8151610a2881612c1b565b6000602082840312156130c557600080fd5b81518015158114610a2857600080fd5b7f4e487b7100000000000000000000000000000000000000000000000000000000600052604160045260246000fd5b601f8211156123c657600081815260208120601f850160051c8101602086101561312b5750805b601f850160051c820191505b8181101561314a57828155600101613137565b505050505050565b815167ffffffffffffffff81111561316c5761316c6130d5565b6131808161317a8454612ed2565b84613104565b602080601f8311600181146131b5576000841561319d5750858301515b600019600386901b1c1916600185901b17855561314a565b6000858152602081207fffffffffffffffffffffffffffffffffffffffffffffffffffffffffffffffe08616915b82811015613202578886015182559484019460019091019084016131e3565b50858210156132205787850151600019600388901b60f8161c191681555b5050505050600190811b0190555056fea2646970667358221220ae962b65afb87a7ce2efdd8e613d70cd47e7b08f62c56ed23c7167484f5826f664736f6c63430008110033",
  "linkReferences": {},
  "deployedLinkReferences": {}
}